:100000000C9465000C948D000C948D000C948D0064
:100010000C948D000C948D000C948D000C948D002C
:100020000C948D000C948D000C948D000C948D001C
:100030000C948D000C948D000C948D000C948D000C
:100040000C94F3250C948D000C9461010C94AF0179
:100050000C948D000C948D000C948D000C948D00EC
:100060000C94A1270C948D000000000024002700B0
:100070002A0000000000250028002B0000000000DE
:1000800023002600290004040404040404040202DA
:100090000202020203030303030301020408102007
:1000A0004080010204081020010204081020000012
:1000B0000007000201000003040600000000000029
:1000C0000000900097042A13DA1911241FBECFEF05
:1000D000D8E0DEBFCDBF12E0A0E0B1E0ECEAFBE586
:1000E00002C005900D92A63AB107D9F714E0A6EA2E
:1000F000B2E001C01D92A835B107E1F710E0CAECEB
:10010000D0E004C02297FE010E945D2AC23CD107C4
:10011000C9F70E9451010C94D42D0C940000FFCF1C
:100120008F92AF92CF92EF920F9386EA92E067E2BE
:1001300042E021E000E0E4E0EE2E75E0C72E56E05C
:10014000A52E37E0832E0E946D160F91EF90CF9071
:10015000AF908F900895CF93DF93EC018A30910593
:1001600050F487E493E060E30E943A0586EA92E067
:1001700060E30E943A0587E493E0BE014AE050E064
:100180000E94080786EA92E0BE014AE050E00E9421
:100190000807DF91CF91089587E493E040E855E2A6
:1001A00060E070E00E94720287E493E00E94950490
:1001B0008823D1F368EC70E080E090E00E946F2625
:1001C00087E493E060E071E00E94370887E493E001
:1001D00066E071E00E94370886EA92E060E142E062
:1001E00020E00E94EA1586EA92E063E040E050E0F9
:1001F0000E94E71486EA92E061E00E94AF1586EA69
:1002000092E00E945D140895DF93CF93CDB7DEB7DF
:1002100027970FB6F894DEBF0FBECDBFCE01019673
:100220000E946812882371F18B8190E00E94AB00DC
:1002300087E493E06AE30E94550486EA92E06CE06A
:1002400071E00E943A078A8190E00E94AB0087E447
:1002500093E06AE30E94550486EA92E06CE071E064
:100260000E943A07898190E00E94AB0087E493E006
:100270006EE071E00E94370886EA92E060E040E0BC
:100280000E94E51368EE73E080E090E00E946F2624
:1002900027960FB6F894DEBF0FBECDBFCF91DF918A
:1002A0000895CF93DF930E949F260E94CC00CCE953
:1002B000D1E00E9404012097E1F30E949C01F9CF54
:1002C00008951F920F920FB60F9211242F933F9310
:1002D0004F938F939F93EF93FF938091C00082FD84
:1002E0001DC04091C6002091FF02309100032F5F96
:1002F0003F4F2F73307080910103909102032817B4
:10030000390771F0E091FF02F0910003E154FD4FD5
:100310004083309300032093FF0202C08091C60007
:10032000FF91EF919F918F914F913F912F910F905E
:100330000FBE0F901F901895E0915303F091540356
:10034000E05CFF4F8191919120813181821B930B61
:100350008F739070892B11F00E94600108951F9295
:100360000F920FB60F9211242F933F938F939F9369
:10037000EF93FF9320914303309144038091450311
:10038000909146032817390731F48091C1008F7D81
:100390008093C10014C0E0914503F0914603ED5FE6
:1003A000FC4F2081809145039091460301968F7305
:1003B000907090934603809345032093C600FF916D
:1003C000EF919F918F913F912F910F900FBE0F90C2
:1003D0001F9018958F929F92AF92BF92CF92DF920B
:1003E000EF92FF920F931F93DF93CF93CDB7DEB7BA
:1003F000FC011382128288EE93E0A0E0B0E08483D7
:100400009583A683B78385E191E091838083758787
:10041000648757874687318B208B138B028BF58A35
:10042000E48AD78AC68AB18EA08E938E828E8F85FB
:10043000848F8889858F8989868F8A89878F8B8920
:1004400080A3CF91DF911F910F91FF90EF90DF90EC
:10045000CF90BF90AF909F908F9008958F929F9272
:10046000AF92BF92CF92DF92EF92FF920F931F93C2
:10047000DF93CF93CDB7DEB7FC011382128288EEF3
:1004800093E0A0E0B0E084839583A683B78385E101
:1004900091E0918380837587648757874687318B86
:1004A000208B138B028BF58AE48AD78AC68AB18E99
:1004B000A08E938E828E8F85848F8889858F89897F
:1004C000868F8A89878F8B8980A3CF91DF911F9137
:1004D0000F91FF90EF90DF90CF90BF90AF909F90E3
:1004E0008F900895AF92BF92DF92EF92FF920F9399
:1004F0001F93CF93DF93EC017A018B01DD24403011
:1005000081EE580780E0680780E0780711F0DD246D
:10051000D39491E0A92EB12CEC89FD89DD2069F0FE
:10052000C50108A002C0880F991F0A94E2F78083D2
:1005300060E079E08DE390E005C0108260E874E847
:100540008EE190E0A80197010E94EE2921503040F1
:1005500040405040569547953795279580E120308B
:10056000380720F0DD2011F0DD24D6CFE889F989A5
:100570003083EA89FB89208319A2EE89FF894081B3
:1005800021E030E0C9010C8C02C0880F991F0A9449
:10059000E2F7482B4083EE89FF894081C9010D8C29
:1005A00002C0880F991F0A94E2F7482B4083EE8916
:1005B000FF894081C9010E8C02C0880F991F0A94DF
:1005C000E2F7482B4083EE89FF8980810F8C02C0BF
:1005D000220F331F0A94E2F7209528232083DF910E
:1005E000CF911F910F91FF90EF90DF90BF90AF9050
:1005F0000895AF92BF92CF92DF92EF92FF920F9346
:100600001F93CF93DF93EC017A018B01C22EDD247F
:10061000403081EE580780E0680780E0780711F0ED
:10062000DD24D39471E0A72EB12CEC89FD89DD2067
:1006300069F0C50108A002C0880F991F0A94E2F76B
:10064000808360E079E08DE390E005C0108260E88F
:1006500074E88EE190E0A80197010E94EE292150F4
:10066000304040405040569547953795279580E15A
:100670002030380720F0DD2011F0DD24D6CFE889C6
:10068000F9893083EA89FB892083E88DF98DC0825E
:10069000EE89FF89408121E030E0C9010C8C02C065
:1006A000880F991F0A94E2F7482B4083EE89FF894F
:1006B0004081C9010D8C02C0880F991F0A94E2F78E
:1006C000482B4083EE89FF894081C9010E8C02C00E
:1006D000880F991F0A94E2F7482B4083EE89FF891F
:1006E00080810F8C02C0220F331F0A94E2F72095FD
:1006F00028232083DF91CF911F910F91FF90EF90DE
:10070000DF90CF90BF90AF900895CF93DF93DC013F
:100710001E968D919C911F97EC01C05CDF4FFC01F0
:10072000EE5BFF4F2881398180819181281739073D
:10073000C9F75696ED91FC915797408121E030E042
:10074000C9015C960C905C9702C0880F991F0A94AF
:10075000E2F78095842380835696ED91FC9157971C
:100760004081C9015D960C905D9702C0880F991F6A
:100770000A94E2F78095842380835696ED91FC914C
:1007800057974081C9015E960C905E9702C0880F12
:10079000991F0A94E2F78095842380835696ED9101
:1007A000FC91579780815F960C905F9702C0220F53
:1007B000331F0A94E2F72095282320831C96ED919D
:1007C000FC911D97EE5BFF4F808191819293829304
:1007D000DF91CF910895DC011C96ED91FC911D975E
:1007E000E05CFF4F2191319180819181281B390B71
:1007F0002F733070C9010895DC011C96ED91FC91B6
:100800001D97E05CFF4F20813181E054F040DF0113
:10081000AE5BBF4F8D919C9111972817390719F442
:100820002FEF3FEF07C08D919C91E80FF91F80815A
:10083000282F30E0C9010895DC011C96ED91FC9150
:100840001D97E05CFF4F20813181E054F040DF01D3
:10085000AE5BBF4F8D919C9111972817390719F402
:100860002FEF3FEF10C08D919C911197E80FF91F6A
:1008700020818D919C91119701968F7390701196A4
:100880009C938E9330E0C9010895DC0191968C9180
:100890009197882339F05496ED91FC91559780817A
:1008A00086FFF9CF91961C920895CF93DF93EC01C8
:1008B000EE85FF85E05CFF4F20813181E054F04000
:1008C0002F5F3F4F2F733070DF01AE5BBF4F8D91B5
:1008D0009C91119728173907D1F3E05CFF4F808175
:1008E0009181E054F040E80FF91F6083EE85FF85A9
:1008F000E05CFF4F31832083EE89FF89208181E016
:1009000090E00F8C02C0880F991F0A94E2F7282B01
:10091000208381E089A3EC89FD89808180648083C4
:1009200081E090E0DF91CF91089581E008951092E9
:100930004A031092490388EE93E0A0E0B0E0809370
:100940004B0390934C03A0934D03B0934E0385E16A
:1009500091E090934803809347038FEB92E090934C
:1009600054038093530383E093E090935603809362
:10097000550385EC90E0909358038093570384ECE3
:1009800090E090935A038093590380EC90E0909309
:100990005C0380935B0381EC90E090935E03809313
:1009A0005D0382EC90E09093600380935F0386EC9C
:1009B00090E0909362038093610384E080936303EB
:1009C00083E08093640387E08093650385E08093F0
:1009D000660381E0809367030895CF92DF92EF92E0
:1009E000FF920F931F93CF93DF937C016B018A01DA
:1009F000C0E0D0E00FC0D6016D916D01D701ED913F
:100A0000FC910190F081E02DC7010995C80FD91F15
:100A1000015010400115110571F7CE01DF91CF9102
:100A20001F910F91FF90EF90DF90CF900895EF927C
:100A3000FF920F931F93CF93DF937C018B01C0E054
:100A4000D0E0F8010F5F1F4F6491662359F0D70182
:100A5000ED91FC910190F081E02DC7010995C80F3F
:100A6000D91FEFCFCE01DF91CF911F910F91FF9052
:100A7000EF900895DC01ED91FC910190F081E02D63
:100A8000099508959C01DB01ED91FC910190F081A5
:100A9000E02DCB01B90109950895EF92FF920F93D4
:100AA0001F938C01DC01ED91FC910190F081E02D10
:100AB0006DE009957C01D801ED91FC910190F081E8
:100AC000E02DC8016AE009959C012E0D3F1DC9016A
:100AD0001F910F91FF90EF900895EF92FF920F9367
:100AE0001F937C010E9417058C01C7010E944D05D0
:100AF0009C01200F311FC9011F910F91FF90EF90B2
:100B00000895EF92FF920F931F937C01DC01ED910A
:100B1000FC910190F081E02D09958C01C7010E94A4
:100B20004D05080F191FC8011F910F91FF90EF90FD
:100B30000895EF92FF920F931F937C01DB01ED91DB
:100B4000FC910190F081E02DCB01B70109958C015A
:100B5000C7010E944D05080F191FC8011F910F9171
:100B6000FF90EF900895CF93DF93EC01611571052D
:100B700019F420E030E00FC0DB010D900020E9F710
:100B80001197A61BB70BE881F9810280F381E02D54
:100B9000AD0109959C01C901DF91CF9108954F9254
:100BA0005F927F928F929F92AF92BF92CF92DF928D
:100BB000EF92FF920F931F93DF93CF93CDB7DEB7E2
:100BC000A1970FB6F894DEBF0FBECDBF2C01742ED7
:100BD000CB01223008F42AE019A231E2C32ED12C35
:100BE000CC0EDD1E822E9924AA24BB24672D752FDE
:100BF000A50194010E94EE2979018A01C801B7017B
:100C0000A50194010E94B029472D461B0894C108F4
:100C1000D1084A3014F4405D01C0495CF6014083BC
:100C2000E114F1040105110521F07E2C5F2DC801AE
:100C3000DDCFC201B6010E94B305A1960FB6F894AC
:100C4000DEBF0FBECDBFCF91DF911F910F91FF90FF
:100C5000EF90DF90CF90BF90AF909F908F907F905C
:100C60005F904F900895DC012115310541F4ED911D
:100C7000FC910190F081E02D642F099508950E9468
:100C8000CF050895EF92FF920F931F937C010E946E
:100C900033068C01C7010E944D059C01200F311FB6
:100CA000C9011F910F91FF90EF900895EF92FF926D
:100CB0000F931F939A017B0100E010E0B801A70198
:100CC0000E9433061F910F91FF90EF900895CF92ED
:100CD000DF92EF92FF920F931F936C017B019A01B9
:100CE00000E010E0B801A7010E9433068C01C601A4
:100CF0000E944D05080F191FC8011F910F91FF9009
:100D0000EF90DF90CF900895EF92FF920F931F9393
:100D10009A01E62EFF2400E010E0B801A7010E942E
:100D200033061F910F91FF90EF900895CF92DF92BD
:100D3000EF92FF920F931F936C01E62E9A01FF240E
:100D400000E010E0B801A7010E9433068C01C60143
:100D50000E944D05080F191FC8011F910F91FF90A8
:100D6000EF90DF90CF900895CF92DF92EF92FF92B5
:100D70000F931F93CF93DF93EC016A017B01211541
:100D8000310541F4E881F9810190F081E02D642F73
:100D900009951FC02A303105D1F477FF17C0E881CB
:100DA000F9810190F081E02D6DE209958C014427D5
:100DB0005527BA014C195D096E097F09CE012AE059
:100DC0000E94CF059801280F391F04C02AE00E9415
:100DD000CF059C01C901DF91CF911F910F91FF9029
:100DE000EF90DF90CF900895EF92FF920F931F93B3
:100DF0007C010E94B4068C01C7010E944D059C0134
:100E0000200F311FC9011F910F91FF90EF9008959E
:100E1000EF92FF920F931F937B019A010027F7FC3B
:100E20000095102FB801A7010E94B4061F910F91E1
:100E3000FF90EF900895CF92DF92EF92FF920F9381
:100E40001F936C017B019A010027F7FC0095102F7E
:100E5000B801A7010E94B4068C01C6010E944D058D
:100E6000080F191FC8011F910F91FF90EF90DF909D
:100E7000CF9008950E94B30508957F928F929F921C
:100E8000AF92BF92CF92DF92EF92FF920F931F9398
:100E9000CF93DF934C017A018B01722ECB01BA0103
:100EA000A80197010E94A822882321F0C40161E3D0
:100EB00071E021C0C0E0D0E057016801E894D7F8A4
:100EC000C601B5012FEF3FEF4FE75FE70E94A82271
:100ED000882351F4C601B5012FEF3FEF4FE75FE7DD
:100EE0000E947822181614F0C1E0D0E0219739F062
:100EF000C40165E371E00E94B305EC0193C0C80131
:100F0000B7012FEF3FEF4FE75FE40E94E82118168B
:100F100054F0C801B7012FEF3FEF4FE75FEC0E949D
:100F20004822882324F4C40169E371E0E4CFC801B6
:100F3000B70120E030E040E050E00E94482287FD09
:100F400003C0C0E0D0E00EC0D401ED91FC9101904F
:100F5000F081E02DC4016DE20995EC0117FB1095BD
:100F600017F9109520E030E040E05FE3DD240BC08E
:100F7000CA01B90120E030E040E251E40E943C2186
:100F80009B01AC01D394D71498F3C801B7010E9418
:100F900015205B016C010E946C1E7B018C01C40159
:100FA000B801A7012AE030E00E943306C80FD91F1C
:100FB000772039F0C4016DE371E00E94B305C80FDA
:100FC000D91FC801B7010E9485239B01AC01C6014E
:100FD000B5010E94E41F24C020E030E040E251E46B
:100FE0000E9442207B018C010E9431235B016C0135
:100FF000CC24B7FCC094DC2CC401B601A5012AE0C6
:1010000030E00E94B406C80FD91FC601B5010E9486
:10101000D3229B01AC01C801B7010E94E41F7A945E
:101020007720D1F6CE01DF91CF911F910F91FF90E4
:10103000EF90DF90CF90BF90AF909F908F907F9078
:1010400008950E943D070895EF92FF920F931F931A
:101050007C010E943D078C01C7010E944D05080FCD
:10106000191FC8011F910F91FF90EF900895EF9203
:10107000FF920F931F937C010E94B3058C01C7015F
:101080000E944D05080F191FC8011F910F91FF9075
:10109000EF900895AF92BF92CF92DF92EF92FF92BE
:1010A0000F931F93CF93DF935C016B01EE24FF241A
:1010B000C0E0D0E010C0D501ED91FC91008111811C
:1010C000C601BE010E94C408682FC501F801099538
:1010D000E80EF91E2196F60184819581C817D9077B
:1010E00050F3C701DF91CF911F910F91FF90EF90C7
:1010F000DF90CF90BF90AF900895EF92FF920F9343
:101100001F937C010E944A088C01C7010E944D0573
:101110009C01200F311FC9011F910F91FF90EF908B
:101120000895FC01848195816817790748F401903E
:10113000F081E02D309721F0E60FF71F80810895B0
:1011400080E00895FC01848195816817790730F467
:101150000190F081E02DE60FF71F40830895FC0118
:101160009B01848195816817790728F460817181DA
:101170006115710529F41092690369E673E002C0F4
:10118000620F731FCB010895FC018481958168175C
:10119000790748F40190F081E02D309721F0E60FB7
:1011A000F71F8081089580E00895FC010190F0818F
:1011B000E02D309729F40895861709F4408331967D
:1011C00080818823C9F70895FC018081918100976F
:1011D00029F420E030E040E050E004C00E94652C9B
:1011E0009B01AC01B901CA010895CF92DF92EF9241
:1011F000FF920F931F93CF93DF936C01DC01ED906F
:10120000FC901197E114F10409F441C01496CD91BA
:10121000DC9115972097D9F1870102C00F5F1F4F0E
:10122000F8018081992787FD90950E948C2C892B4D
:10123000A9F72197CE0DDF1D01C02197888199273D
:1012400087FD90950E948C2C892B19F0C017D1072F
:10125000A0F7FE013196E01BF10BD6011596FC9329
:10126000EE9314972D913C912017310728F4C90172
:10127000B801AF010E94A42CD601ED91FC91119709
:1012800014968D919C911597E80FF91F1082DF91AC
:10129000CF911F910F91FF90EF90DF90CF90089525
:1012A000CF93DF93FC01C081D181209739F409C02D
:1012B000992787FD90950E949C2C8993888188238B
:1012C000B9F7DF91CF910895CF93DF93FC01C081EF
:1012D000D181209739F409C0992787FD90950E9404
:1012E000942C899388818823B9F7DF91CF91089551
:1012F000EF92FF920F931F93CF93DF93FC01DB01DB
:101300008617970739F12481358114968D919C9128
:1013100015972817390701F5232BE1F0E080F180BC
:10132000CD91DC9113C0992787FD90950E94942C54
:101330008C018881992787FD90950E94942C08172D
:10134000190751F40894E11CF11C2196F7018081E2
:10135000882349F781E001C080E0DF91CF911F91A0
:101360000F91FF90EF900895AF92BF92CF92DF92CE
:10137000EF92FF920F931F93CF93DF93FC015B01DA
:101380007A01DB0114962D913C91159721153105B9
:1013900059F184819581009739F18217930720F1E3
:1013A0004817590720F07C010894E108F1080081F2
:1013B0001181C801CFEFDFEF6801CE0CDF1C10C038
:1013C000F501608171810E94022D9C01009771F0EE
:1013D000801B910BE816F90608F0EC01C901019693
:1013E000C816D90668F702C0CFEFDFEFCE01DF9154
:1013F000CF911F910F91FF90EF90DF90CF90BF9012
:10140000AF900895FC01DB014481558114968D91C4
:101410009C911597481B590BCF010E94B409089560
:10142000CF93DF93FC01DB01848195814817590735
:1014300060F4C081D1816D917C91CE01840F951FA4
:101440000E94022D9C01009719F42FEF3FEF02C07C
:101450002C1B3D0BC901DF91CF91089540E050E076
:101460000E94100A0895DF92EF92FF920F931F934C
:10147000CF93DF93EC018C819D8148175907C8F405
:101480007A010894E11CF11CE881F981EE0DFF1D41
:10149000D080108208811981772767FD7095C80177
:1014A0000E94F72C9C010E0D1F1DF801D0820097A1
:1014B00019F4EFEFFFEF05C088819981F901E81B6E
:1014C000F90BCF01DF91CF911F910F91FF90EF901A
:1014D000DF900895FC0144815581415050400E94A5
:1014E000330A0895CF93DF93FC01848195814817D7
:1014F000590768F4C081D181772767FD7095CE01C7
:10150000840F951F0E94BF2C9C01009719F42FEFA8
:101510003FEF02C02C1B3D0BC901DF91CF91089515
:1015200040E050E00E94720A08950F931F93CF93FA
:10153000DF93FC018B0141155105F9F0611571052F
:10154000E1F0848195812817390718F0FB0110829A
:1015500014C041505040EC01C21BD30B4C175D0727
:1015600008F4EA0160817181620F731FC801AE0146
:101570000E94E82CC00FD11F1882DF91CF911F91DC
:101580000F910895FC01DB012481358114964D9162
:101590005C91159724173507A8F0808191810097F9
:1015A00089F06D917C916115710561F0241B350BFB
:1015B000820F931F0E94CA2C9C0180E0232B19F4F8
:1015C00081E0089580E00895DC01FB0114968D917F
:1015D0009C911597892B31F461157105A9F090E064
:1015E000808108C00D90BC91A02D6115710529F472
:1015F00090E08C91882349F407C0CD010E94CA2C49
:101600009C0190E0232B09F491E0892F0895CF935A
:10161000DF939C01FB01EC01A881B981109729F0AF
:101620006081718161157105D1F4C081D1812097EC
:1016300059F084819581892B39F0888190E02227A7
:101640003327281B390B12C0109771F0F9018481E0
:101650009581892B49F08C91282F30E007C0CD016E
:101660000E94CA2C9C0102C020E030E0C901DF9139
:10167000CF9108950E94070B892F8095881F882796
:10168000881F08950E94070B20E0181619060CF019
:1016900021E0822F08950E94070B20E018161906FA
:1016A0000CF421E0822F08950E94070B892F881FD8
:1016B0008827881F0895FC01DB0124813581149659
:1016C0008D919C9115972817390711F020E007C0DC
:1016D000CF010E94070B20E0892B09F421E0822F23
:1016E0000895FC01DB0114962D913C91159784819E
:1016F0009581821B930B84179507A0F080819181BF
:10170000009781F06D917C916115710559F0840FFE
:10171000951FA9010E94DA2C9C0180E0232B19F46B
:1017200081E0089580E00895FC01DB01248135818A
:1017300014968D919C9115972817390710F480E025
:101740000895CF0140E050E00E94710B08950F937F
:101750001F93CF93DF93EC018B016F5F7F4F8881E5
:1017600099810E94962B009711F480E005C099831F
:1017700088831B830A8381E0DF91CF911F910F91B2
:1017800008952F923F924F925F926F927F928F9225
:101790009F92AF92BF92CF92DF92EF92FF920F9300
:1017A0001F93CF93DF935C012B014A01DC01149658
:1017B0000D911C9115970115110509F4D4C0FB0179
:1017C000C480D580C114D10409F4CDC0DA011496C7
:1017D0006D907C9015976C187D08FC01E080F1807D
:1017E0006114710491F01BC0D4016C9111967C912D
:1017F000119714964D915C9115978C2F0E94A42CF3
:10180000F401E480F580EC0EFD1ED2016D917C9117
:10181000C7010E94022DEC01009731F7A4C077FEAA
:1018200002C067012EC0FB0120803180E8013CC06E
:101830008E010E191F09C601B701A8010E94A42C30
:101840000C0D1D1DD4016C9111967C91119714966D
:101850004D915C911597C8010E94A42CF401C4809D
:10186000D580C00ED11ED2011496ED90FC90159734
:10187000EC0EFD1EF50184819581860D971D9583E3
:101880008483D2016D917C91C7010E94022DEC01ED
:10189000009771F6C601B7010E94D32C64C07B018A
:1018A000EC0CFD1CC60DD71DC701B1010E94022D15
:1018B000BC010097A1F7C017D10709F454C0F50186
:1018C000828193818C179D0708F044C0C501BE0139
:1018D0000E94A70B8823F1F546C0C501B201A901FA
:1018E0000E94B409EC0197FD3EC0D5016D917C9139
:1018F0001197F201848195818C0F9D1F680F791FCC
:1019000014964D915C911597481B590BCB01860D90
:10191000971D0E94AD2CD50114968D919C91159721
:10192000860D971D15969C938E931497ED91FC91BF
:101930001197E80FF91F10822D913C912C0F3D1F3C
:10194000F4016081718144815581C9010E94A42CF8
:101950009E0105C0D50114962D913C9115972150FB
:10196000304037FFBACFDF91CF911F910F91FF9099
:10197000EF90DF90CF90BF90AF909F908F907F902F
:101980006F905F904F903F902F900895CF93DF938B
:10199000EC0188819981892B29F08A819B818617A6
:1019A000970760F4CE010E94A70B882341F08C8139
:1019B0009D81892B19F4E881F981108281E0DF9102
:1019C000CF910895EF92FF920F931F93CF93DF93E0
:1019D000EC017B016C817D81E114F104C1F04115C2
:1019E000510599F08A01060F171FB8010E94C60C15
:1019F000882369F0888199812C813D81820F931F12
:101A0000B7010E94D32C1D830C8381E001C080E0CC
:101A1000DF91CF911F910F91FF90EF900895EF927A
:101A2000FF920F931F93DF93CF93CDB7DEB72B9722
:101A30000FB6F894DEBF0FBECDBF7C01CB01BA015B
:101A40008E010F5F1F4FA8012AE030E00E94862D13
:101A5000F80101900020E9F73197E01BF10BC70175
:101A6000B801AF010E94E20C2B960FB6F894DEBFCE
:101A70000FBECDBFCF91DF911F910F91FF90EF90DF
:101A80000895EF92FF920F931F93DF93CF93CDB7FB
:101A9000DEB72C970FB6F894DEBF0FBECDBF7C012A
:101AA000CB01BA018E010F5F1F4FA8012AE030E081
:101AB0000E943D2DF80101900020E9F73197E01BCD
:101AC000F10BC701B801AF010E94E20C2C960FB6D2
:101AD000F894DEBF0FBECDBFCF91DF911F910F9164
:101AE000FF90EF900895EF92FF920F931F93DF9373
:101AF000CF9300D000D000D0CDB7DEB77C01CB01B2
:101B00008E010F5F1F4FB8014AE050E00E94AB2DDD
:101B1000F80101900020E9F73197E01BF10BC701B4
:101B2000B801AF010E94E20C26960FB6F894DEBF12
:101B30000FBECDBFCF91DF911F910F91FF90EF901E
:101B40000895EF92FF920F931F93DF93CF93CDB73A
:101B5000DEB727970FB6F894DEBF0FBECDBF7C016E
:101B6000CB018E010F5F1F4FB8014AE050E00E9489
:101B70001C2DF80101900020E9F73197E01BF10BD3
:101B8000C701B801AF010E94E20C27960FB6F89486
:101B9000DEBF0FBECDBFCF91DF911F910F91FF90A0
:101BA000EF900895EF92FF920F931F93DF93CF93DF
:101BB00000D000D0CDB7DEB77C01862F90E08E013B
:101BC0000F5F1F4FB8014AE050E00E941C2DF80142
:101BD00001900020E9F73197E01BF10BC701B80134
:101BE000AF010E94E20C0F900F900F900F90CF91D9
:101BF000DF911F910F91FF90EF900895DF93CF93A6
:101C000000D0CDB7DEB769831A82BE016F5F7F4F08
:101C100041E050E00E94E20C0F900F90CF91DF91D5
:101C200008956115710511F480E00895DB010D90B0
:101C30000020E9F71197A61BB70BAD010E94E20C3B
:101C40000895FB0160817181448155810E94E20CFD
:101C50000895CF93DF93EC0188819981009711F06B
:101C60000E94FE2A198218821D821C821B821A82FF
:101C7000DF91CF9108950F931F93182F092F0E9482
:101C80000F0D882321F4812F902F0E94290E812F80
:101C9000902F1F910F9108950F931F93182F092FC5
:101CA0000E94410D882321F4812F902F0E94290E3C
:101CB000812F902F1F910F9108950F931F93182F2D
:101CC000092F0E94730D882321F4812F902F0E94E9
:101CD000290E812F902F1F910F9108950F931F931D
:101CE000182F092F0E94A10D882321F4812F902FF6
:101CF0000E94290E812F902F1F910F9108950F930D
:101D00001F93182F092F0E94D20D882321F4812FB1
:101D1000902F0E94290E812F902F1F910F910895CF
:101D20000F931F93182F092F0E94FE0D882321F473
:101D3000812F902F0E94290E812F902F1F910F919C
:101D400008950F931F93182F092F6115710561F0E6
:101D5000DB010D900020E9F71197A61BB70BAD0131
:101D60000E94E20C882321F4812F902F0E94290EDB
:101D7000812F902F1F910F9108950F931F93182F6C
:101D8000092FFB0160817181448155810E94E20C21
:101D9000882321F4812F902F0E94290E812F902FCC
:101DA0001F910F910895EF92FF920F931F93CF937E
:101DB000DF93EC017B018A01BA010E94C60C8823E3
:101DC00021F4CE010E94290E07C01D830C83888157
:101DD0009981B7010E94D32CCE01DF91CF911F9141
:101DE0000F91FF90EF900895CF93DF93EC0119824C
:101DF00018821B821A821D821C821E826115710547
:101E000051F0DB010D900020E9F71197A61BB70BED
:101E1000AD010E94D30EDF91CF910895CF93DF9350
:101E2000EC01198218821B821A821D821C821E827A
:101E30006115710551F0DB010D900020E9F7119754
:101E4000A61BB70BAD010E94D30EDF91CF91089571
:101E50000F931F93182F092F6115710559F0DB019E
:101E60000D900020E9F71197A61BB70BAD010E945A
:101E7000D30E02C00E94290E812F902F1F910F9127
:101E80000895EF92FF920F931F93DF93CF93CDB7F7
:101E9000DEB7A1970FB6F894DEBF0FBECDBF8C01A1
:101EA000FC01118210821382128215821482168222
:101EB000CB01BA017E010894E11CF11CA70130E0BE
:101EC0000E94862DC801B7010E94280FA1960FB667
:101ED000F894DEBF0FBECDBFCF91DF911F910F9160
:101EE000FF90EF900895EF92FF920F931F93DF936F
:101EF000CF93CDB7DEB7A1970FB6F894DEBF0FBE74
:101F0000CDBF8C01FC0111821082138212821582D6
:101F100014821682CB01BA017E010894E11CF11CE7
:101F2000A70130E00E94862DC801B7010E94280F4A
:101F3000A1960FB6F894DEBF0FBECDBFCF91DF9153
:101F40001F910F91FF90EF900895EF92FF920F93E2
:101F50001F93DF93CF93CDB7DEB7A2970FB6F89458
:101F6000DEBF0FBECDBF8C01FC0111821082138237
:101F70001282158214821682CB01BA017E01089466
:101F8000E11CF11CA70130E00E943D2DC801B70102
:101F90000E94280FA2960FB6F894DEBF0FBECDBFE9
:101FA000CF91DF911F910F91FF90EF900895EF92E5
:101FB000FF920F931F93DF93CF93CDB7DEB7A29716
:101FC0000FB6F894DEBF0FBECDBF8C01FC011182AD
:101FD000108213821282158214821682CB01BA01FA
:101FE0007E010894E11CF11CA70130E00E943D2D08
:101FF000C801B7010E94280FA2960FB6F894DEBF61
:102000000FBECDBFCF91DF911F910F91FF90EF9049
:102010000895EF92FF920F931F93DF93CF93CDB765
:10202000DEB761970FB6F894DEBF0FBECDBF8C014F
:10203000CB01F80111821082138212821582148260
:1020400016827E010894E11CF11CB70150E00E9449
:10205000AB2DC801B7010E94280F61960FB6F89406
:10206000DEBF0FBECDBFCF91DF911F910F91FF90CB
:10207000EF900895EF92FF920F931F93DF93CF930A
:10208000CDB7DEB761970FB6F894DEBF0FBECDBFF8
:102090008C01CB01F8011182108213821282158209
:1020A000148216827E010894E11CF11CB70150E0F5
:1020B0000E94AB2DC801B7010E94280F61960FB690
:1020C000F894DEBF0FBECDBFCF91DF911F910F916E
:1020D000FF90EF900895EF92FF920F931F93DF937D
:1020E000CF93CDB7DEB762970FB6F894DEBF0FBEC1
:1020F000CDBF8C01CB01F8011182108213821282B4
:102100001582148216827E010894E11CF11CB7012D
:1021100050E00E941C2DC801B7010E94280F629652
:102120000FB6F894DEBF0FBECDBFCF91DF911F91E8
:102130000F91FF90EF900895EF92FF920F931F93EE
:10214000DF93CF93CDB7DEB762970FB6F894DEBFBB
:102150000FBECDBF8C01CB01F8011182108213821A
:1021600012821582148216827E010894E11CF11CF1
:10217000B70150E00E941C2DC801B7010E94280F32
:1021800062960FB6F894DEBF0FBECDBFCF91DF9140
:102190001F910F91FF90EF900895EF92FF920F9390
:1021A0001F93DF93CF93CDB7DEB729970FB6F8947F
:1021B000DEBF0FBECDBF8C01862FF80111821082C9
:1021C0001382128215821482168290E07E01089496
:1021D000E11CF11CB70150E00E94AB2DC801B70112
:1021E0000E94280F29960FB6F894DEBF0FBECDBF10
:1021F000CF91DF911F910F91FF90EF900895EF9293
:10220000FF920F931F93DF93CF93CDB7DEB729973C
:102210000FB6F894DEBF0FBECDBF8C01862FF8013C
:10222000118210821382128215821482168290E02B
:102230007E010894E11CF11CB70150E00E94AB2D17
:10224000C801B7010E94280F29960FB6F894DEBF87
:102250000FBECDBFCF91DF911F910F91FF90EF90F7
:102260000895DF93CF9300D0CDB7DEB7FC01118284
:1022700010821382128215821482168269831A8256
:10228000BE016F5F7F4F0E94280F0F900F90CF917C
:10229000DF910895DF93CF9300D0CDB7DEB7FC0177
:1022A000118210821382128215821482168269832F
:1022B0001A82BE016F5F7F4F0E94280F0F900F9010
:1022C000CF91DF910895BF92CF92DF92EF92FF926C
:1022D0000F931F93CF93DF93082FB92E6B017A01D1
:1022E000E9012417350710F4EA017901802F9B2DAD
:1022F00067E471E00E94F40ED60114968D919C91D2
:1023000015978E159F05D0F08C179D0708F4EC01EA
:10231000D601ED91FC911197EC0FFD1F10811082F9
:102320006D917C916E0D7F1D802F9B2D0E94280F3B
:10233000D601ED91FC91EC0FFD1F1083802F9B2D9A
:10234000DF91CF911F910F91FF90EF90DF90CF9091
:10235000BF9008950F931F938C01FB012481358159
:102360000E946311C8011F910F910895CF93DF93CD
:10237000EC01FB018617970761F06081718161159F
:10238000710529F0448155810E94D30E02C00E943C
:10239000290ECE01DF91CF910895FC0111821082A8
:1023A000138212821582148216820E94B611089539
:1023B000FC0111821082138212821582148216820D
:1023C0000E94B6110895FC01808191810E94FE2A2D
:1023D0000895FC01808191810E94FE2A0895482F72
:1023E0006AE00E94CF29282F30E084E0220F331FBB
:1023F0008A95E1F7842F0E94CF29892F820F0895B3
:10240000282F22952F709AE0299F900111248F7018
:10241000820F08950F931F938C0186EB93E068E67B
:1024200070E00E94651986EB93E060E00E94221A3A
:10243000F80180810E94EF11682F86EB93E00E94E3
:10244000221AF80181810E94EF11682F86EB93E038
:102450000E94221AF80182810E94EF11682F86EBF8
:1024600093E00E94221AF80183810E94EF11682FE5
:1024700086EB93E00E94221AF80184810E94EF11FA
:10248000682F86EB93E00E94221AF80185810E9452
:10249000EF11682F86EB93E00E94221AF8018681E3
:1024A0008E510E94EF11682F86EB93E00E94221A52
:1024B00086EB93E00E94651A882321F010926A034C
:1024C00080E003C081E080936A031F910F9108951B
:1024D0001F93CF93DF93EC0186EB93E068E670E007
:1024E0000E94651986EB93E060E00E94221A86EB59
:1024F00093E00E94651A882319F010926A0311C0B4
:1025000081E080936A0386EB93E068E670E047E041
:1025100050E00E94791A86EB93E00E946F190797AA
:1025200014F480E03AC086EB93E00E947819182FEB
:102530008F770E940012888386EB93E00E947819BF
:102540000E940012898386EB93E00E9478198F73B2
:102550000E9400128A8386EB93E00E9478190E9401
:1025600000128B8386EB93E00E9478190E94001280
:102570008C8386EB93E00E9478190E9400128D8371
:1025800086EB93E00E9478190E940012825E8E838F
:10259000812F8095881F8827881FDF91CF911F91F9
:1025A00008950F931F93DF93CF93CDB7DEB727978F
:1025B0000FB6F894DEBF0FBECDBF8E010F5F1F4F69
:1025C000A8010E94A31A898180688983C8010E949A
:1025D0000A1289818F778983C8010E940A1227967F
:1025E0000FB6F894DEBF0FBECDBFCF91DF911F9124
:1025F0000F9108950F931F93DF93CF93CDB7DEB75D
:1026000027970FB6F894DEBF0FBECDBF8E010F5FC8
:102610001F4FC8010E946812882329F420E030E08F
:1026200040E050E005C0C8010E941F1C9B01AC01A6
:10263000B901CA0127960FB6F894DEBF0FBECDBF11
:10264000CF91DF911F910F91089586EB93E00E9447
:10265000811A089586EB93E00E94811A089586EB13
:1026600093E00E94811A089508950895FC01138251
:1026700012828CE491E0918380830895FC0113829F
:1026800012828CE491E0918380830895FC01A08103
:10269000B18118962D913C9119976FEFF901099529
:1026A0000895FC01A081B18118962D913C91199754
:1026B00060E0F90109950895DC01ED91FC91028437
:1026C000F385E02D40E009950895FC0166816E7F59
:1026D000668364600E945C130895FC016681862F06
:1026E000816086836560CF010E945C13089560E17C
:1026F0000E945C13089564E10E945C130895FC013C
:1027000066816D7F668364600E945C130895FC019E
:102710006681862F826086836660CF010E945C138B
:1027200008956CE10E945C13089568E10E945C13B7
:102730000895FC016581862F816085836960CF01E2
:102740000E945C130895FC0165816E7F658368605B
:102750000E945C130895FC016581862F8260858349
:102760006A60CF010E945C130895FC0165816D7F52
:10277000658368600E945C130895FC016581862F63
:10278000846085836C60CF010E945C1308950F9371
:102790001F938C010E94BD13C8010E9446131F9114
:1027A0000F910895FC0165816B7F658368600E94CD
:1027B0005C1308950F931F938C010E945113C8015D
:1027C0000E94D2131F910F910895DF93CF93CDB73D
:1027D000DEB728970FB6F894DEBF0FBECDBFDC0181
:1027E00017968C911797481710F0482F415018965C
:1027F0009C911897903169F4843059F41D8280E4DB
:102800008E839F8380E58887FE01E40FF11D85811B
:102810000BC0198280E48A8384E18B8384E58C83F6
:10282000FE01E40FF11D8181680F6068CD010E94F7
:102830005C1328960FB6F894DEBF0FBECDBFCF91C4
:10284000DF910895DC01ED91FC910284F385E02D88
:1028500041E0099581E090E00895EF92FF920F9397
:102860001F93CF93DF938C017A016770660F660F19
:10287000660F60640E945C138EE190E00E949526D2
:10288000C0E0D0E0D801ED91FC91D701AC0FBD1FA5
:102890000190F081E02DC8016C91099588E290E0EB
:1028A0000E9495262196C830D10561F7DF91CF911E
:1028B0001F910F91FF90EF90089562E00E945C13CA
:1028C00080ED97E00E949526089561E00E945C13D8
:1028D00080ED97E00E9495260895CF93DF93EC0159
:1028E000423018F08C8188608C834F836887222364
:1028F00029F0413019F48C8184608C8364E670E0A7
:1029000080E090E00E946F266C8164FD31C0E88118
:10291000F9810284F385E02DCE0163E042E0099560
:1029200084E991E10E949526E881F9810284F3858A
:10293000E02DCE0163E042E0099584E991E10E9437
:102940009526E881F9810284F385E02DCE0163E0CC
:1029500042E0099586E990E00E949526E881F98198
:102960000284F385E02DCE0162E042E0099516C0B5
:102970006062CE010E945C1384E991E10E94952679
:102980006C816062CE010E945C1386E990E00E9437
:1029900095266C816062CE010E945C136C8160623E
:1029A000CE010E945C1384E08D83CE010E94BD1392
:1029B000CE010E94651482E08E83CE0166E00E9403
:1029C0005C13CE010E944613DF91CF910895DC0184
:1029D00081E090E002C0880F991F6A95E2F71C968B
:1029E0008C931C971A965C934E931997ED91FC91DA
:1029F00011970084F185E02DCD0160E009950895DF
:102A00008F92AF92BF92CF92DF92EF92FF920F938D
:102A10001F93DF93CF93CDB7DEB7FC016387148696
:102A200015861286118681E090E0BC0102C0660F17
:102A3000771F4A95E2F7628BAC0102C0440F551F25
:102A40002A95E2F7438BBC0102C0660F771F0A95F7
:102A5000E2F7648B9C0102C0220F331FEA94E2F775
:102A6000258BAC0102C0440F551FCA94E2F7468B78
:102A7000BC0102C0660F771FAA94E2F7678B02C001
:102A8000880F991F8A94E2F7808FCF91DF911F9171
:102A90000F91FF90EF90DF90CF90BF90AF908F900D
:102AA0000895DF92EF92FF920F931F938C01D62E21
:102AB0008EE0E82EF12CE00EF11EF80162896D29FE
:102AC000C7010E94A218F801628960956D21C701B3
:102AD0000E94A2181F910F91FF90EF90DF90089530
:102AE000DC01FC0120E090E070E060FF02C085891D
:102AF000282B9F5F3196943019F075956795F4CF28
:102B0000413019F454964C9154971D968C911D9711
:102B1000842B282BCD01622F0E94511508950F930D
:102B20001F93CF93DF93EC01142F062F0F704230C9
:102B300019F4602F40E00CC070E044E07595679593
:102B40004A95E1F7412F0E947015CE01602F412F69
:102B50000E947015DF91CF911F910F910895FC0194
:102B60002485222399F081859285009719F46623A4
:102B700029F406C0019721F4662311F4258701C0CA
:102B80001586CF010E9665850E94A21808950F93B1
:102B90001F93CF93DF938C01EC012E96CE01F801A9
:102BA00063850E941E19019719F020E030E00CC0E7
:102BB000CE0161E00E949718F8011482CE0160E016
:102BC0000E94A21821E030E0C901DF91CF911F914E
:102BD0000F910895DF92EF92FF920F931F938C0154
:102BE000F62EE42ED22E0E94C715C8016F2D4E2D51
:102BF0002D2D0E946D141F910F91FF90EF90DF908B
:102C000008956F927F928F92AF92CF92DF92EF9260
:102C1000FF920F931F93DF93CF93CDB7DEB73C01A5
:102C2000162FF42ED22E0E9436138CE591E0F3017C
:102C300091838083C3010E960E947418C301612F93
:102C40004F2D2D2D0E940015C3016F85488959898C
:102C50000E94E714CF91DF911F910F91FF90EF90A9
:102C6000DF90CF90AF908F907F906F9008956F928C
:102C70007F928F92AF92CF92DF92EF92FF920F935B
:102C80001F93DF93CF93CDB7DEB73C01162FF42E01
:102C9000D22E0E9436138CE591E0F301918380835C
:102CA000C3010E960E947418C301612F4F2D2D2D64
:102CB0000E940015C3016F85488959890E94E71455
:102CC000CF91DF911F910F91FF90EF90DF90CF9008
:102CD000AF908F907F906F9008956F927F928F92B8
:102CE000AF92CF92DF92EF92FF920F931F93DF93F9
:102CF000CF93CDB7DEB73C01162FF42ED22E0E9413
:102D000036138CE591E0F30191838083C3010E9625
:102D10000E947418C301612F4F2D2D2D0E940015A4
:102D2000CF91DF911F910F91FF90EF90DF90CF90A7
:102D3000AF908F907F906F9008956F927F928F9257
:102D4000AF92CF92DF92EF92FF920F931F93DF9398
:102D5000CF93CDB7DEB73C01162FF42ED22E0E94B2
:102D600036138CE591E0F30191838083C3010E96C5
:102D70000E947418C301612F4F2D2D2D0E94001544
:102D8000CF91DF911F910F91FF90EF90DF90CF9047
:102D9000AF908F907F906F9008954F925F926F9257
:102DA0007F928F929F92AF92BF92CF92DF92EF92DB
:102DB000FF920F931F933C01162FF42EB22E9E2CE0
:102DC00026010E9436138CE591E0F3019183808304
:102DD000C3010E960E947418C301612F4F2D2B2D35
:102DE000EE24CC24C39472E0A72E53E0852E0E94DB
:102DF0000015C301692DA2010E94E7141F910F91D4
:102E0000FF90EF90DF90CF90BF90AF909F908F900A
:102E10007F906F905F904F9008954F925F926F9266
:102E20007F928F929F92AF92BF92CF92DF92EF925A
:102E3000FF920F931F933C01162FF42EB22E9E2C5F
:102E400026010E9436138CE591E0F3019183808383
:102E5000C3010E960E947418C301612F4F2D2B2DB4
:102E6000EE24CC24C394F2E0AF2EE3E08E2E0E9439
:102E70000015C301692DA2010E94E7141F910F9153
:102E8000FF90EF90DF90CF90BF90AF909F908F908A
:102E90007F906F905F904F9008958F92AF92CF92F6
:102EA000DF92EF92FF920F931F937C01162FD42E87
:102EB000C22E0E9436138CE591E0F7019183808346
:102EC000C7010E960E947418C701612F4D2D2C2D3D
:102ED000EE24CC24C394B2E0AB2EA3E08A2E0E9451
:102EE00000151F910F91FF90EF90DF90CF90AF9062
:102EF0008F9008958F92AF92CF92DF92EF92FF92D0
:102F00000F931F937C01162FD42EC22E0E943613CE
:102F10008CE591E0F70191838083C7010E960E94B2
:102F20007418C701612F4D2D2C2DEE24CC24C39491
:102F300032E0A32E13E0812E0E9400151F910F9105
:102F4000FF90EF90DF90CF90AF908F9008954F92C9
:102F50005F926F927F928F92AF92CF92EF92FF9299
:102F60000F931F933C01162FF42E29010E94361354
:102F70008CE591E0F30191838083C3010E960E945A
:102F80007418C301612F46E025E004E0EE24CC2450
:102F9000C39472E0A72E53E0852E0E940015C30152
:102FA0006F2DA2010E94E7141F910F91FF90EF90E7
:102FB000CF90AF908F907F906F905F904F900895DB
:102FC0004F925F926F927F928F92AF92CF92EF92D9
:102FD000FF920F931F933C01162FF42E29010E949C
:102FE00036138CE591E0F30191838083C3010E9643
:102FF0000E947418C301612F46E025E004E0EE242E
:10300000CC24C394F2E0AF2EE3E08E2E0E94001594
:10301000C3016F2DA2010E94E7141F910F91FF9031
:10302000EF90CF90AF908F907F906F905F904F9088
:1030300008958F92AF92CF92EF92FF920F931F93CA
:103040008C01F62E0E9436138CE591E0F8019183F5
:103050008083C8010E960E947418C8016F2D46E047
:1030600025E004E0EE24CC24C394B2E0AB2EA3E030
:103070008A2E0E9400151F910F91FF90EF90CF9024
:10308000AF908F9008958F92AF92CF92EF92FF9270
:103090000F931F938C01F62E0E9436138CE591E05E
:1030A000F80191838083C8010E960E947418C801AC
:1030B0006F2D46E025E004E0EE24CC24C39432E0FA
:1030C000A32E13E0812E0E9400151F910F91FF90F7
:1030D000EF90CF90AF908F900895FC0112828FEF08
:1030E0008183108213820895FC0112828FEF818305
:1030F000108213820895FC0183818823B9F0218115
:10310000413059F481E090E002C0880F991F6A9520
:10311000E2F7809528232183089581E090E002C0A2
:10312000880F991F6A95E2F7282B21830895FC01E7
:103130008381882331F0662319F48FEF818308950A
:1031400011820895CF93DF93EC018B81882319F4CA
:1031500080E090E013C0898180958623888386EB88
:1031600093E06A810E945B1986EB93E068810E947C
:10317000221A86EB93E00E94651A90E020E030E08E
:10318000892B11F421E030E0C901DF91CF9108953E
:10319000FC0183818823D1F06830C0F481E090E0A5
:1031A00002C0880F991F6A95E2F791819095982344
:1031B0008081413011F4892B02C09095892380834E
:1031C000CF0160810E94A2189C0102C020E030E083
:1031D000C90108951F93CF93DF93EC018B8188235E
:1031E00061F086EB93E06A8141E00E947D1A1981CB
:1031F00086EB93E00E9478198123DF91CF911F9194
:1032000008951F93CF93DF93EC01162F8B818823B2
:1032100081F0683070F4CE010E94EA1829812823D9
:1032200030E002C0359527951A95E2F7822F81701C
:1032300001C080E0DF91CF911F910895CF93DF937C
:10324000EC016A8386EB93E00E94811A86EB93E09F
:103250006A8141E00E947D1A1B82882311F081E07F
:103260008B8386EB93E00E94781988838B8190E0B2
:10327000DF91CF910895FC011382128288EE93E0D2
:10328000A0E0B0E084839583A683B7838CE691E0C9
:10329000918380830895FC011382128288EE93E06B
:1032A000A0E0B0E084839583A683B7838CE691E0A9
:1032B00091838083089581E08093B10360938E03AE
:1032C0001092AF031092B003089581E08093B10390
:1032D00060938E031092AF031092B0030895209173
:1032E0008D0330E080918C03281B3109C9010895BA
:1032F00040918C0380918D03481718F02FEF3FEF1A
:103300000AC0E42FF0E0E459FC4F8081282F30E020
:103310004F5F40938C03C9010895E0918C03809125
:103320008D03E81718F0EFEFFFEF06C0F0E0E45967
:10333000FC4F8081E82FF0E0CF0108950895AC01A3
:103340002091B4033091B50321153105E1F090913E
:103350008C0380918D039817B0F090E008C0FA01BB
:10336000EA0FFB1F8081A459BC4F8C939F5FA92F4C
:10337000B0E0A617B7079CF310928C0360938D03FF
:10338000CB01F90109950895E091B203F091B303DF
:10339000309729F01092AF031092B0030995089569
:1033A0007093B5036093B40308957093B30360936F
:1033B000B20308951092B9031092B80388EE93E017
:1033C000A0E0B0E08093BA039093BB03A093BC034A
:1033D000B093BD038CE691E09093B7038093B6035E
:1033E0000895CF92DF92EF92FF920F931F93CF93A6
:1033F000DF937C016B018A018091B1038823A1F0E6
:10340000C0E0D0E00DC0D701ED91FC91D601AC0F2A
:10341000BD1F0190F081E02DC7016C9109952196A7
:10342000C017D10780F304C0CB01642F0E947C2712
:10343000C801DF91CF911F910F91FF90EF90DF9026
:10344000CF900895DF93CF930F92CDB7DEB7FC01F5
:1034500069838091B1038823C9F08091B0038032E1
:1034600038F081E090E09383828320E030E015C063
:103470008091AF03E82FF0E0E157FC4F99819083F2
:103480008F5F8093AF038093B00305C0CE01019698
:1034900061E00E947C2721E030E0C9010F90CF91CC
:1034A000DF9108950F93062F80918E036FE873E0EC
:1034B0004091B00321E00E9427271092AF031092A1
:1034C000B0031092B1030F91089561E00E94521A67
:1034D0000895413208F040E2862F6CE673E00E94C6
:1034E000DE2610928C0380938D0308950E94691A42
:1034F000089521E00E94691A089521E00E94691A46
:10350000089510928C0310928D031092AF031092C5
:10351000B0030E94322908950F931F938C01862FC8
:103520000E94DA2684EC99E10E949C278FE999E1B8
:103530000E949727C8010E94811A1F910F91089538
:103540000E948C1A08958F929F92AF92BF92CF9251
:10355000DF92EF92FF920F931F93CF93DF937B0144
:103560008C01EA012CE330E040E050E00E94EE29BB
:103570006883C801B7012CE330E040E050E00E94CE
:10358000EE29122F032FF42EE52E622F732F842F96
:10359000952F2CE330E040E050E00E94EE29698353
:1035A000612F702F8F2D9E2D2CE330E040E050E0F6
:1035B0000E94EE29122F032FF42EE52E622F732F77
:1035C000842F952F28E130E040E050E00E94EE2962
:1035D0006A83612F702F8F2D9E2D28E130E040E00F
:1035E00050E00E94EE2979018A01C801B7016C5FA1
:1035F0007F4F8F4F9F4F27E030E040E050E00E9428
:10360000EE296F5F6B8320E0AA24BB24650101C013
:103610002F5F822E9924F401EE54F84FCF0183706E
:103620009070892B99F4CF0164E670E00E94DB2949
:10363000892B39F4CF0160E971E00E94DB29892BE5
:1036400029F48EE691E0A0E0B0E004C08DE691E0C0
:10365000A0E0B0E0A80EB91ECA1EDB1EC501A0E0A6
:10366000B0E0E816F9060A071B0790F62E83F4016E
:10367000EE54F84F83E0882E912C8E229F228114E5
:10368000910499F4CF0164E670E00E94DB29892B54
:1036900039F4CF0160E971E00E94DB29892B29F41C
:1036A0008EE691E0A0E0B0E004C08DE691E0A0E0FD
:1036B000B0E0A81AB90ACA0ADB0A980187010A19F8
:1036C0001B092C093D09CF0164E670E00E94DB294B
:1036D0007C01CF0160E971E00E94DB29AC01ECE8DC
:1036E000F1E060E0613051F48114910449F4E11497
:1036F000F10441F44115510529F002C0808103C055
:103700008CE101C08DE190E0A0E0B0E0081719075E
:103710002A073B0740F0081B190B2A0B3B0B6F5F76
:1037200031966C30F9F66F5F6D83802F8F5F8C83DD
:10373000DF91CF911F910F91FF90EF90DF90CF908D
:10374000BF90AF909F908F900895EF92FF920F934C
:103750001F937B018C018091D9039091DA03A09192
:10376000DB03B091DC03E816F9060A071B0771F0CA
:10377000C801B7014EEC53E00E94A31AE092D903AE
:10378000F092DA030093DB031093DC031F910F9197
:10379000FF90EF9008950E94A51B2091D40330E084
:1037A0002E54384FC90108950E94A51B8091D30360
:1037B00090E008950E94A51B8091D10390E00895A8
:1037C0000E94A51B8091D20390E008950E94A51B42
:1037D0008091CE0390E008950E94A51B8091CF03B5
:1037E00090E008950E94A51B2091D003222319F494
:1037F0002CE030E009C0822F90E02D3020F09C01B9
:103800002C50304001C09C01C90108950E94A51BA5
:103810008091D00390E008950E94A51B20E0809144
:10382000D00390E00C970CF021E0822F08950E94C5
:103830000C1C90E0882309F491E0892F08954F92A1
:103840005F926F927F928F929F92AF92BF92CF9230
:10385000DF92EF92FF920F931F93CF93DF934C0170
:10386000DC0116961C91612F70E080E090E020E86A
:1038700033E341EE51E00E94B0295B016C0122EB81
:1038800037E0E12FF0E0EE54F84F1DC0C90183701E
:103890009070892BB1F4C90164E670E00E94DB29C5
:1038A000892B39F4C90160E971E00E94DB29892B79
:1038B00041F480E891E5A1E0B0E0A80EB91ECA1E6F
:1038C000DB1E2F5F3F4F2E173F0701F7D4011596E0
:1038D0008C91482E5524C90164E670E00E94DB29D2
:1038E0007C01C90160E971E00E94DB298C01C1E023
:1038F000D0E093E0692E712C6222732227C0C2307F
:10390000D10591F46114710479F4E114F10419F40E
:103910000115110549F480E89BE3A6E2B0E0A80E8A
:10392000B91ECA1EDB1E11C0FE01E557FE4F6081A5
:1039300070E080E090E020E831E541E050E00E9456
:10394000B029A60EB71EC81ED91E2196C415D505CE
:10395000B4F2D40112966C9170E080E090E020E126
:103960003EE040E050E00E94B0297B018C01F40170
:10397000618170E080E090E02CE330E040E050E0D6
:103980000E94B029E60EF71E081F191FD4018C9162
:10399000E80EF11C011D111D14966C9170E0615030
:1039A0007040882777FD8095982F20E831E541E029
:1039B00050E00E94B029E60EF71E081F191FEA0CFE
:1039C000FB1C0C1D1D1DB701C801DF91CF911F917C
:1039D0000F91FF90EF90DF90CF90BF90AF909F90AE
:1039E0008F907F906F905F904F9008952091C403C7
:1039F0003091C5034091C6035091C703260F371F6E
:103A0000481F591F2093C4033093C5034093C60336
:103A10005093C70308956093880170938901809340
:103A20008A0190938B012091C4033091C50340918A
:103A3000C6035091C703260F371F481F591F2093F5
:103A4000C8033093C9034093CA035093CB0308952E
:103A50006093C4037093C5038093C6039093C70318
:103A6000209188013091890140918A0150918B0108
:103A7000260F371F481F591F2093C8033093C903CF
:103A80004093CA035093CB0382E090E09093CD0320
:103A90008093CC030E943B266093D5037093D6039A
:103AA0008093D7039093D8030895EF92FF920F93DA
:103AB000F701E436F1051CF0E25BF74001C07E96A9
:103AC000E093D4030093D3032093D2038093D003D5
:103AD0006093CF034093CE038EEC93E00E941F1CB3
:103AE0000E94281D0F91FF90EF900895EF92FF9292
:103AF0000F931F931CC02F5F3F4F4F4F5F4F20937B
:103B0000C4033093C5034093C6035093C70388EEA4
:103B100093E0A0E0B0E0E80EF91E0A1F1B1FE09240
:103B2000D503F092D6030093D7031093D8030E94D5
:103B30003B26E090D503F090D6030091D703109177
:103B4000D8036E197F09800B910B2091C40330912B
:103B5000C5034091C6035091C703685E734080401F
:103B6000904048F68091C8039091C903A091CA0380
:103B7000B091CB03281739074A075B07C8F1E091DA
:103B8000C203F091C303309799F10995611571054E
:103B90008105910519F00E94281D2AC08091880195
:103BA00090918901A0918A01B0918B012091C40369
:103BB0003091C5034091C6035091C703820F931FF4
:103BC000A41FB51F8093C8039093C903A093CA0391
:103BD000B093CB0320E030E08091CC039091CD03F3
:103BE000892B11F021E030E03093CD032093CC03FA
:103BF0006091C4037091C5038091C6039091C7037F
:103C00001F910F91FF90EF9008959093C3038093BD
:103C1000C2038091C4039091C503A091C603B091E3
:103C2000C7038093C8039093C903A093CA03B093BA
:103C3000CB030E94761D08950E94761D8091CC03CF
:103C40009091CD0308950E94761D0E94CB1B08958C
:103C50000E94761D0E94A51B8091D30390E00895D9
:103C60000E94761D0E94A51B8091D10390E00895CB
:103C70000E94761D0E94A51B8091D20390E00895BA
:103C80000E94761D0E94A51B8091CE0390E00895AE
:103C90000E94761D0E94A51B8091CF0390E008959D
:103CA0000E94761D0E940C1C08950E94761D0E94A1
:103CB0000C1C90E0882309F491E0892F08950E945C
:103CC000761D0E94F21B08950E94761D0E94A51B7E
:103CD0008091D00390E00895EF92FF920F931F938D
:103CE0007B018C0120E030E040E05FE40E9418227C
:103CF00088238CF0C801B70120E030E040E05FE4A9
:103D00000E94E41F0E9431239B01AC0120503040EF
:103D10004040504806C0C801B7010E9431239B01B2
:103D2000AC01B901CA011F910F91FF90EF90089566
:103D3000A0E0B0E0EEE9FEE10C94242ADC012B01C6
:103D4000FA019C91923008F439C1EB0188818230EC
:103D500008F433C1943069F4843009F02FC111960E
:103D60009C9111978981981709F428C1A8E9B1E0BD
:103D700025C1843009F421C18230A9F4923009F0C0
:103D80001DC19A01AD0188E0EA010990AE01E90187
:103D900009929E018150C1F7E201898111969C919F
:103DA0008923818308C1923009F407C112962D90AE
:103DB0003C901397EB018A819B811496AD90BD9046
:103DC000CD90DC901797EC80FD800E811F819101D2
:103DD000281B390BB90137FF04C066277727621B00
:103DE000730B603271050CF061C0121613066CF58E
:103DF00037014801062E04C09694879477946794FF
:103E00000A94D2F721E030E040E050E004C0220FF5
:103E1000331F441F551F6A95D2F721503040404050
:103E200050402E213F2140235123211531054105CA
:103E3000510521F021E030E040E050E079018A01B5
:103E4000E628F728082919293CC0232BD1F1260E92
:103E5000371E35014601062E04C096948794779448
:103E600067940A94D2F721E030E040E050E004C0CB
:103E7000220F331F441F551F6A95D2F7215030403F
:103E8000404050402A213B214C215D212115310524
:103E90004105510521F021E030E040E050E05901BA
:103EA0006A01A628B728C828D9280BC0821593050F
:103EB0002CF01C01AA24BB24650103C0EE24FF24BE
:103EC000870111969C91D20111968C91981709F453
:103ED00045C0992339F0A80197012A193B094C09DB
:103EE0005D0906C0A60195012E193F09400B510B33
:103EF00057FD08C011823382228224833583468392
:103F000057831DC081E081833382228288279927CD
:103F1000DC01821B930BA40BB50B84839583A683D2
:103F2000B7830DC0220F331F441F551F24833583D1
:103F3000468357838281938101979383828324816F
:103F4000358146815781DA01C9010197A109B1097B
:103F50008F5F9F4FAF4FBF4328F30BC091833382D6
:103F60002282EA0CFB1C0C1D1D1DE482F5820683D7
:103F7000178383E08083248135814681578157FFF1
:103F80001AC0C901AA2797FDA095BA2F8170907019
:103F9000A070B0705695479537952795822B932B37
:103FA000A42BB52B84839583A683B78382819381C9
:103FB000019693838283DF0101C0D201CD01CDB789
:103FC000DEB7E2E10C94402AA0E2B0E0EAEEFFE1C5
:103FD0000C94302A69837A838B839C832D833E8360
:103FE0004F835887E9E0EE2EF12CEC0EFD1ECE013A
:103FF0000196B7010E9422258E010F5E1F4FCE0150
:104000000596B8010E9422258A8991E089278A8B2A
:10401000C701B801AE01475E5F4F0E94981E0E9423
:104020004D24A096E6E00C944C2AA0E2B0E0EBE12F
:10403000F0E20C94302A69837A838B839C832D83EE
:104040003E834F835887F9E0EF2EF12CEC0EFD1ED6
:10405000CE010196B7010E9422258E010F5E1F4FEF
:10406000CE010596B8010E942225C701B801AE0114
:10407000475E5F4F0E94981E0E944D24A096E6E086
:104080000C944C2AA0E2B0E0E8E4F0E20C94242A7C
:1040900069837A838B839C832D833E834F835887E8
:1040A000CE010196BE01675F7F4F0E942225CE019F
:1040B0000596BE016F5E7F4F0E9422259985923042
:1040C00088F089898230C8F0943019F4823051F434
:1040D00004C0843029F4923081F488E991E0C6C0AC
:1040E000923049F420E09A858A89981321E02A8742
:1040F000CE010996BBC0823049F420E09A858A89B6
:10410000981321E02A8BCE014196B0C02D843E84C5
:104110004F8458886D887E888F88988CEE24FF2481
:104120008701AA24BB24650140E050E060E070E014
:10413000E0E0F0E0C10181709070892BE9F0E60CBD
:10414000F71C081D191D9A01AB012A0D3B1D4C1DC2
:104150005D1D80E090E0A0E0B0E0E614F704080503
:10416000190520F481E090E0A0E0B0E0BA01A901D7
:10417000480F591F6A1F7B1FAA0CBB1CCC1CDD1CDF
:1041800097FE08C081E090E0A0E0B0E0A82AB92A3C
:10419000CA2ADB2A3196E032F10549F0660C771C19
:1041A000881C991C5694479437942794C3CFFA855A
:1041B000EA892B893C898B859C85280F391F2E5FC6
:1041C0003F4F17C0CA0181709070892B61F016951E
:1041D0000795F794E79480E090E0A0E0B0E8E82A43
:1041E000F92A0A2B1B2B76956795579547952F5FD4
:1041F0003F4F77FDE7CF0CC0440F551F661F771F59
:1042000017FD4160EE0CFF1C001F111F21503040B4
:10421000403090E0590790E0690790E4790760F337
:104220002B8F3C8FDB01CA018F779070A070B0702C
:1042300080349105A105B10561F447FD0AC0E11480
:10424000F1040105110529F0405C5F4F6F4F7F4F6E
:1042500040781A8EFE1711F081E08A8F4D8F5E8FA5
:104260006F8F78A383E0898FCE0149960E944D24F9
:10427000A096E2E10C94402AA8E1B0E0E2E4F1E289
:104280000C942C2A69837A838B839C832D833E83B1
:104290004F835887B9E0EB2EF12CEC0EFD1ECE01BA
:1042A0000196B7010E9422258E010F5E1F4FCE019D
:1042B0000596B8010E9422252985223008F47EC087
:1042C0003989323010F4B8017CC08A859A898927EF
:1042D0008A87243011F0223031F4231709F06EC0A0
:1042E00068E971E06EC0343039F41D861E861F8681
:1042F000188A1C861B8604C0323021F484E089872A
:10430000B7015FC02B853C858B899C89281B390BA5
:104310003C872B87ED84FE840F851889AD88BE8885
:10432000CF88D88CEA14FB040C051D0540F4EE0C74
:10433000FF1C001F111F215030403C872B8720E0BD
:1043400030E040E050E080E090E0A0E0B0E460E0E9
:1043500070E0EA14FB040C051D0540F0282B392BF6
:104360004A2B5B2BEA18FB080C091D09B695A7958B
:1043700097958795EE0CFF1C001F111F6F5F7F4FF5
:104380006F31710531F7DA01C9018F779070A07034
:10439000B07080349105A105B10561F427FD0AC014
:1043A000E114F1040105110529F0205C3F4F4F4F46
:1043B0005F4F20782D873E874F87588BBE01675F00
:1043C0007F4FCB010E944D246896EAE00C94482A66
:1043D000A8E1B0E0EEEEF1E20C94302A69837A8332
:1043E0008B839C832D833E834F83588789E0E82EFF
:1043F000F12CEC0EFD1ECE010196B7010E94222584
:104400008E010F5E1F4FCE010596B8010E94222536
:104410008985823040F08989823028F0C701B8014F
:104420000E949A2501C08FEF6896E6E00C944C2A12
:10443000A8E1B0E0EEE1F2E20C94302A69837A83DD
:104440008B839C832D833E834F83588789E0E82E9E
:10445000F12CEC0EFD1ECE010196B7010E94222523
:104460008E010F5E1F4FCE010596B8010E942225D6
:104470008985823040F08989823028F0C701B801EF
:104480000E949A2501C08FEF6896E6E00C944C2AB2
:10449000A8E1B0E0EEE4F2E20C94302A69837A837A
:1044A0008B839C832D833E834F83588789E0E82E3E
:1044B000F12CEC0EFD1ECE010196B7010E942225C3
:1044C0008E010F5E1F4FCE010596B8010E94222576
:1044D0008985823040F08989823028F0C701B8018F
:1044E0000E949A2501C081E06896E6E00C944C2A6F
:1044F000A8E1B0E0EEE7F2E20C94302A69837A8317
:104500008B839C832D833E834F83588789E0E82EDD
:10451000F12CEC0EFD1ECE010196B7010E94222562
:104520008E010F5E1F4FCE010596B8010E94222515
:104530008985823040F08989823028F0C701B8012E
:104540000E949A2501C081E06896E6E00C944C2A0E
:10455000A8E1B0E0EEEAF2E20C94342A69837A83AF
:104560008B839C832D833E834F835887CE01019696
:10457000BE01675F7F4F0E942225CE010596BE01D6
:104580006F5E7F4F0E9422258985823028F020E0CF
:1045900030E08989823010F421E030E0822F689683
:1045A000E2E00C94502AA8E0B0E0E9EDF2E20C94CD
:1045B0002D2A9B01AC0183E08983DA01C901882798
:1045C000B7FD83959927AA27BB27B82E211531055A
:1045D0004105510519F482E089833AC08823A9F086
:1045E000203080E0380780E0480780E8580729F449
:1045F00060E070E080E09FEC30C0EE24FF24870193
:10460000E21AF30A040B150B02C079018A018EE14C
:10461000C82ED12CDC82CB82ED82FE820F831887DC
:10462000C801B7010E94FE2301971816190684F4E9
:10463000082E04C0EE0CFF1C001F111F0A94D2F7B5
:10464000ED82FE820F831887C81AD90ADC82CB82DA
:10465000BA82CE0101960E944D242896E9E00C947E
:10466000492AACE0B0E0E7E3F3E20C94342A698332
:104670007A838B839C83CE010196BE016B5F7F4F53
:104680000E9422258D81823061F1823050F1843088
:1046900021F48E81882351F12EC02F81388537FD7A
:1046A00020C06E812F3131051CF06623F9F023C044
:1046B0008EE190E0821B930B29853A854B855C85C2
:1046C00004C056954795379527958A95D2F7662366
:1046D000B1F050954095309521953F4F4F4F5F4F2A
:1046E0000EC020E030E040E050E009C02FEF3FEF87
:1046F0004FEF5FE704C020E030E040E050E8B90150
:10470000CA012C96E2E00C94502AA8E0B0E0EBE855
:10471000F3E20C942C2A7B018C0161157105810553
:10472000910519F482E0898360C083E089838EE17A
:10473000C82ED12CDC82CB82ED82FE820F831887BB
:10474000C801B7010E94FE23FC013197F7FF3BC06F
:10475000222733272E1B3F0B57016801022E04C06E
:10476000D694C794B794A7940A94D2F740E050E047
:1047700060E070E081E090E0A0E0B0E004C0880F6D
:10478000991FAA1FBB1F2A95D2F70197A109B1094A
:104790008E219F21A023B1230097A105B10521F00F
:1047A00041E050E060E070E04A295B296C297D29F6
:1047B0004D835E836F8378878EE190E08E1B9F0B25
:1047C0009C838B8312C0309781F00E2E04C0EE0CB8
:1047D000FF1C001F111F0A94D2F7ED82FE820F8387
:1047E0001887CE1ADF0ADC82CB821A82CE010196AC
:1047F0000E944D242896EAE00C94482AEF92FF92FA
:104800000F931F937B018C0180E0E81680E0F8068F
:1048100081E0080780E0180788F48FEFE816F104BC
:104820000105110531F028F088E090E0A0E0B0E04B
:1048300017C080E090E0A0E0B0E012C080E0E81691
:1048400080E0F80680E0080781E0180728F088E19A
:1048500090E0A0E0B0E004C080E190E0A0E0B0E033
:1048600020E230E040E050E0281B390B4A0B5B0BA4
:1048700004C016950795F794E7948A95D2F7F70147
:10488000E056FE4F8081281B310941095109C901B9
:104890001F910F91FF90EF900895DF92EF92FF929A
:1048A0000F931F93FC01E480F58006811781D1806E
:1048B0008081823048F480E090E0A0E1B0E0E82A16
:1048C000F92A0A2B1B2BA5C0843009F49FC0823023
:1048D00021F4EE24FF24870105C0E114F104010551
:1048E000110519F4E0E0F0E096C0628173819FEF5A
:1048F000623879070CF05BC022E83FEF261B370BCC
:104900002A3131052CF020E030E040E050E02AC0B0
:10491000B801A701022E04C0769567955795479573
:104920000A94D2F781E090E0A0E0B0E004C0880FE4
:10493000991FAA1FBB1F2A95D2F70197A109B10998
:104940008E219F21A023B1230097A105B10521F05D
:1049500081E090E0A0E0B0E09A01AB01282B392B78
:104960004A2B5B2BDA01C9018F779070A070B07071
:1049700080349105A105B10539F427FF09C0205CF9
:104980003F4F4F4F5F4F04C0215C3F4F4F4F5F4F32
:10499000E0E0F0E02030A0E03A07A0E04A07A0E421
:1049A0005A0710F0E1E0F0E079018A0127C0603891
:1049B000710564F5FB01E158FF4FD801C7018F77FE
:1049C0009070A070B07080349105A105B10539F4E4
:1049D000E7FE0DC080E490E0A0E0B0E004C08FE30B
:1049E00090E0A0E0B0E0E80EF91E0A1F1B1F17FFC1
:1049F00005C016950795F794E794319687E01695CC
:104A00000795F794E7948A95D1F705C0EE24FF2423
:104A10008701EFEFF0E06E2F679566276795902F7F
:104A20009F77D794DD24D7948E2F8695492F462BD8
:104A3000582F5D29B701CA011F910F91FF90EF9088
:104A4000DF900895FC01DB01408151812281622FBA
:104A50006F7770E0221F2227221F9381892F880FF2
:104A6000822B282F30E0991F9927991F11969C932C
:104A7000119721153105A9F54115510561057105FC
:104A800011F482E037C082E89FEF13969C938E93D7
:104A900012979A01AB0167E0220F331F441F551F85
:104AA0006A95D1F783E08C930DC0220F331F441F0A
:104AB000551F12968D919C911397019713969C9375
:104AC0008E931297203080E0380780E0480780E41A
:104AD000580758F314962D933D934D935C93179775
:104AE00008952F3F310579F4411551056105710590
:104AF00019F484E08C93089564FF03C081E08C93E3
:104B000012C01C9210C02F57304013963C932E9326
:104B1000129783E08C9387E0440F551F661F771F21
:104B20008A95D1F7706414964D935D936D937C9341
:104B3000179708951F93DC01FB019C91923008F4B4
:104B400047C08081823008F443C0943051F41196FC
:104B50001C91843099F58181682F70E0611B710987
:104B60003FC0843021F0923031F48230B9F181813C
:104B7000882389F12DC011961C9111978230F1F094
:104B800081811817D9F412962D913C911397828147
:104B900093818217930794F028173907BCF0149675
:104BA0008D919D910D90BC91A02D248135814681E0
:104BB0005781281739074A075B0718F4112341F07A
:104BC0000AC082179307A407B50740F4112319F010
:104BD00061E070E005C06FEF7FEF02C060E070E061
:104BE000CB011F9108951F920F920FB60F921124BF
:104BF0002F933F938F939F93AF93BF938091E10344
:104C00009091E203A091E303B091E4033091E503B6
:104C10000196A11DB11D232F2D5F2D3720F02D579B
:104C20000196A11DB11D2093E5038093E1039093AC
:104C3000E203A093E303B093E4038091DD0390913A
:104C4000DE03A091DF03B091E0030196A11DB11D29
:104C50008093DD039093DE03A093DF03B093E00322
:104C6000BF91AF919F918F913F912F910F900FBE68
:104C70000F901F9018958FB7F8942091E103309111
:104C8000E2034091E3035091E4038FBFB901CA01ED
:104C900008959FB7F8942091DD033091DE03409191
:104CA000DF035091E00386B5A89B06C08F3F21F03B
:104CB0002F5F3F4F4F4F5F4F9FBF542F432F322FD8
:104CC0002227280F311D411D511D82E0220F331F65
:104CD000441F551F8A95D1F7B901CA010895EF9273
:104CE000FF920F931F93CF93DF937B018C010E9460
:104CF0004926EB010EC00E9449266C1B7D0B685EA5
:104D00007340C8F30894E108F10801091109C8517A
:104D1000DC4FE114F1040105110569F7DF91CF9132
:104D20001F910F91FF90EF900895019739F0880F30
:104D3000991F880F991F02970197F1F708957894AA
:104D400084B5826084BD84B5816084BD85B5826090
:104D500085BD85B5816085BDEEE6F0E0808181602E
:104D60008083E1E8F0E0108280818260808380812E
:104D700081608083E0E8F0E0808181608083E1EB06
:104D8000F0E0808184608083E0EBF0E080818160EE
:104D90008083EAE7F0E080818460808380818260A4
:104DA000808380818160808380818068808310928D
:104DB000C1000895880F8093BA000895382F4132BA
:104DC00010F040E042C08091E6038823E1F791E0D3
:104DD0009093E6032093E8038FEF8093530410929F
:104DE0000E04415040930F044F5F9093E70380916E
:104DF000E703330F832B8093E7038091E90381302E
:104E000041F41092E9038091E7038093BB0085ECA5
:104E100001C085EE8093BC008091E6038130E1F310
:104E200080910E04841710F440910E0420E030E0CD
:104E30000AC0FB01E20FF31FD901A251BC4F8C91B4
:104E400080832F5F3F4F2417A0F3842F08950F9383
:104E50001F93582F122F413210F081E04AC08091E9
:104E6000E6038823E1F782E08093E6030093E803FA
:104E70008FEF8093530410920E0440930F04AEEE14
:104E8000B3E0FB0102C081918D938E2F861B8417A6
:104E9000D0F31092E7038091E703550F852B8093A1
:104EA000E7038091E903813041F41092E903809196
:104EB000E7038093BB0085EC01C085EE8093BC00C6
:104EC000112321F08091E6038230E1F380915304B5
:104ED0008F3F11F480E00DC080915304803211F4B3
:104EE00082E007C080915304803311F084E001C058
:104EF00083E01F910F910895482F613210F081E0F7
:104F000008958091E603843011F082E00895609363
:104F10003104A0E1B4E0842F9C01F90102C0819129
:104F20008D938E2F841B8617D0F380E00895909385
:104F3000ED038093EC0308959093EB038093EA03D1
:104F400008951F920F920FB60F9211242F933F9343
:104F50004F935F936F937F938F939F93AF93BF9381
:104F6000EF93FF938091B90090E0887F9070803636
:104F7000910509F4F2C081369105CCF5883291058E
:104F800009F47BC089329105B4F48031910509F4AC
:104F90006FC0813191053CF4009709F447C108972F
:104FA00009F04FC165C08831910509F466C080974A
:104FB00009F047C182C08034910509F4A4C081344E
:104FC000910544F48033910509F482C0C89709F033
:104FD00038C189C08035910509F489C088359105AB
:104FE00009F496C08834910509F02BC1AEC0883908
:104FF000910509F413C189399105ECF488379105BD
:1050000009F4ABC0893791054CF48836910509F451
:10501000A4C08037910509F014C19FC0883891055C
:1050200009F4FCC08039910509F49DC080389105D0
:1050300009F007C198C0803B910509F4C6C0813BC7
:1050400091054CF4803A910509F49FC0883A910586
:1050500009F0F7C0BAC0803C910509F4E3C0883C70
:10506000910509F4DFC0883B910509F0EAC0C2C090
:105070008091E7038093BB00CFC090910E04809194
:105080000F04981768F490910E04E92FF0E0E251B4
:10509000FC4F80818093BB009F5F90930E04BCC047
:1050A0008091E803882309F44BC085ED8093BC0010
:1050B0008091BC0084FDFCCFC2C080E28093530489
:1050C00085ED8093BC008091BC0084FDFCCFB7C00F
:1050D00080E38093530485ED8093BC008091BC00F5
:1050E00084FDFCCFACC088E3809353049BC08091C7
:1050F0000E049091BB00E82FF0E0E251FC4F90834A
:105100008F5F80930E0490910E0480910F0482C0F3
:1051100080910E049091BB00E82FF0E0E251FC4F2B
:1051200090838F5F80930E048091E803882341F081
:1051300085ED8093BC008091BC0084FDFCCF7FC0D6
:1051400081E08093E90384EA6EC085ED8093BC0022
:105150008091BC0084FDFCCF72C083E08093E603A5
:105160001092520459C080915204803208F056C007
:10517000809152049091BB00E82FF0E0EE5CFB4F71
:1051800090838F5F8093520447C080915204803295
:1051900030F4E0915204F0E0EE5CFB4F108285EDBC
:1051A0008093BC008091BC0084FDFCCF1092E6038C
:1051B00060915204E091EC03F091ED0382E394E0FE
:1051C00070E00995109252042DC084E08093E603AC
:1051D0001092300410923104E091EA03F091EB0355
:1051E000099580913104882329F481E0809331046A
:1051F0001092100490913004E92FF0E0E05FFB4F33
:1052000080818093BB009F5F909330049091300425
:1052100080913104981710F485EC01C085E88093E3
:10522000BC000FC085EC8093BC0009C010925304F1
:1052300085ED8093BC008091BC0084FDFCCF109272
:10524000E603FF91EF91BF91AF919F918F917F9175
:105250006F915F914F913F912F910F900FBE0F90E3
:105260001F9018951092E60381E08093E803109256
:10527000E90382E161E00E947D2983E161E00E940F
:105280007D29E9EBF0E080818E7F808380818D7FB6
:10529000808388E48093B80085E48093BC000895FF
:1052A000833071F0843028F48130A1F0823021F510
:1052B00014C08630B1F08730D1F08430E9F404C0F6
:1052C000809180008F7703C0809180008F7D8093D4
:1052D0008000089584B58F7702C084B58F7D84BD2A
:1052E00008958091B0008F778093B00008958091E9
:1052F000B0008F7D8093B0000895FF920F931F93AD
:10530000F62E482F50E0CA0182559F4FFC01249190
:10531000CA0186569F4FFC0114914A575F4FFA010C
:1053200004910023C9F0222319F0822F0E945029F2
:10533000E02FF0E0EE0FFF1FEE58FF4FA591B49164
:105340009FB7F894FF2021F48C911095812302C01F
:105350008C91812B8C939FBF1F910F91FF9008958B
:10536000629FD001739FF001829FE00DF11D649F49
:10537000E00DF11D929FF00D839FF00D749FF00DD5
:10538000659FF00D9927729FB00DE11DF91F639F76
:10539000B00DE11DF91FBD01CF0111240895991B26
:1053A00079E004C0991F961708F0961B881F7A951C
:1053B000C9F78095089597FB092E07260AD077FD37
:1053C00004D02ED006D000201AF4709561957F4F3E
:1053D0000895F6F7909581959F4F0895A1E21A2EB2
:1053E000AA1BBB1BFD010DC0AA1FBB1FEE1FFF1F89
:1053F000A217B307E407F50720F0A21BB30BE40BD9
:10540000F50B661F771F881F991F1A9469F760951F
:105410007095809590959B01AC01BD01CF010895D9
:10542000AA1BBB1B51E107C0AA1FBB1FA617B707CA
:1054300010F0A61BB70B881F991F5A95A9F78095E6
:105440009095BC01CD0108952F923F924F925F92AB
:105450006F927F928F929F92AF92BF92CF92DF9284
:10546000EF92FF920F931F93CF93DF93CDB7DEB7E9
:10547000CA1BDB0B0FB6F894DEBF0FBECDBF09947D
:105480002A88398848885F846E847D848C849B84D4
:10549000AA84B984C884DF80EE80FD800C811B81E2
:1054A000AA81B981CE0FD11D0FB6F894DEBF0FBE11
:1054B000CDBFED010895EE0FFF1F0590F491E02D93
:1054C00009940F931F93CF93DF93BC018230910512
:1054D00010F462E070E0E0915604F0915704A0E00F
:1054E000B0E040E050E024C08081918186179707AA
:1054F000D0F08617970771F482819381109729F075
:1055000013969C938E9312972CC09093570480937C
:10551000560427C04115510519F08417950718F452
:10552000EF018D01AC01DF01828193819C01F901C2
:105530003097D1F641155105F9F0CA01861B970B3A
:105540008430910580F48A819B810115110521F039
:10555000F8019383828304C0909357048093560488
:10556000FE01329645C0FE01E80FF91F6193719369
:105570000297998388833CC080915404909155048C
:10558000892B41F48091A2029091A302909355043B
:10559000809354044091A4025091A50241155105F5
:1055A00041F44DB75EB78091A0029091A102481BD3
:1055B000590B209154043091550424173507B0F449
:1055C000CA01821B930B8617970780F0AB014E5FD1
:1055D0005F4F8417950750F0420F531F50935504A7
:1055E00040935404F9016193719302C0E0E0F0E04C
:1055F000CF01DF91CF911F910F910895CF93DF934A
:105600009C01009709F48FC0EC0122971B821A823B
:1056100060915604709157046115710581F4888179
:105620009981820F931F20915404309155042817BB
:10563000390739F5D0935504C093540474C0DB0185
:1056400040E050E0AC17BD0708F1BB83AA83FE0120
:1056500021913191E20FF31FAE17BF0779F48D91BD
:105660009C911197280F391F2E5F3F4F3983288354
:1056700012968D919C9113979B838A8341155105B6
:1056800071F4D0935704C09356044DC012968D9177
:105690009C911397AD01009711F0DC01D3CFDA0193
:1056A0001396DC93CE931297FA0121913191E20F78
:1056B000F31FCE17DF0769F488819981280F391FFE
:1056C0002E5F3F4FFA01318320838A819B81938330
:1056D0008283E0E0F0E0DB0112968D919C911397BC
:1056E000009719F0BC01FD01F6CFAB014E5F5F4F93
:1056F000DB018D919C91840F951F20915404309172
:1057000055042817390779F4309729F41092570473
:105710001092560402C0138212824250504050939D
:10572000550440935404DF91CF910895A0E0B0E078
:10573000ECE9FBE20C94282A8C01009729F4CB01B8
:105740000E94612A8C01BBC08EEFE82E8FEFF82EED
:10575000E00EF11E4801860E971E8E149F0408F479
:10576000ACC0D7014D915C91119746175707B8F01F
:105770004530510508F4A3C0CA010497861797075E
:1057800008F49DC042505040461B570BF401419312
:1057900051936D937C93CF010E94FE2A90C05B01D0
:1057A000A41AB50A3801640E751EA0915604B09172
:1057B0005704CC24DD24E0E0F0E047C0A615B7058F
:1057C000A9F5CD91DC911197CE0102968A159B0522
:1057D00068F1CE018A199B09029612962C911297B4
:1057E00013963C91059758F0F40122833383CA192C
:1057F000DB09D183C083D7016D937C9309C04E5FD1
:105800005F4F4C0F5D1FF70151834083C901FC01BD
:10581000C114D10431F0D6011396FC93EE93129784
:105820004EC0F0935704E093560449C08D919C916B
:105830001197E817F90708F4FC016D0112968C9195
:10584000129713969C919C01D901109709F0B6CF3D
:10585000809154049091550486159705E9F4E61754
:10586000F707D0F42091A4023091A502211531054B
:1058700041F42DB73EB78091A0029091A102281B60
:10588000390B82169306C8F4909255048092540402
:10589000F7017183608313C0CB010E94612AEC0180
:1058A000009759F0D7014D915C91B8010E94A42C4A
:1058B000C8010E94FE2A8E0102C000E010E0C8016B
:1058C000CDB7DEB7EEE00C94442A1F93FC01992774
:1058D0008827BC01E89411911032E9F3193010F0D7
:1058E0001E30C8F31B3251F01D3249F4689406C0D3
:1058F0000E94712D610F711D811D911D1191105319
:105900001A30B0F33EF490958095709561957F4F75
:105910008F4F9F4F1F910895911133C1803219F01D
:1059200089508550D0F708959111089581548A5176
:1059300008F4805E855A08959111089581568A5120
:1059400008F4805285580895FB01DC0102C00190E3
:105950000D9241505040D8F708956817790768F4C0
:10596000FB01DC01E40FF51FA40FB51F02C002907C
:105970000E9241505040D8F708950C94A42CFC018D
:105980008191861721F08823D9F7992708953197B7
:10599000CF010895FB01DC018D9101908019011068
:1059A000D9F3990B0895FB01DC0101900D920020C1
:1059B000E1F70895FB01DC014150504030F08D913A
:1059C0000190801919F40020B9F7881B990B0895EC
:1059D000FB01DC014150504048F001900D92002045
:1059E000C9F701C01D9241505040E0F70895FC01F5
:1059F00081E090E00190061609F4CF010020D1F774
:105A000001970895FB0151915523A9F0BF01DC01D5
:105A10004D9145174111E1F759F4CD010190002056
:105A200049F04D9140154111C9F3FB014111EFCFF0
:105A300081E090E001970895FB019F01E8944230D6
:105A4000C4F04532B4F44A3029F497FB1EF4909523
:105A500081959F4F642F77270E94102A805D8A339B
:105A60000CF0895D8193CB010097A1F716F45DE2FC
:105A700051931082C9010C94C42DFA01CF93FF9366
:105A8000EF93223044F1253234F5C22FE894CA3026
:105A900049F497FB3EF490958095709561957F4F02
:105AA0008F4F9F4F2C2F332744275527FF93EF937A
:105AB0000E94EE29EF91FF91605D6A330CF0695D01
:105AC0006193B901CA01605070408040904051F725
:105AD00016F4CDE2C19310828F919F91CF910C94D7
