:100000000C9463000C948B000C948B000C948B006C
:100010000C948B000C948B000C948B000C948B0034
:100020000C948B000C948B000C948B000C948B0024
:100030000C948B000C948B000C948B000C948B0014
:100040000C94F11C0C948B000C948B000C948B0082
:100050000C948B000C948B000C948B000C948B00F4
:100060000C94911E0C948B000000000024002700CB
:100070002A0000000000250028002B0000000000DE
:1000800023002600290004040404040404040202DA
:100090000202020203030303030301020408102007
:1000A0004080010204081020010204081020000012
:1000B0000007000201000003040600000000000029
:1000C00000008E00A11411241FBECFEFD8E0DEBFC8
:1000D000CDBF12E0A0E0B1E0EEE4F9E402C005908B
:1000E0000D92A437B107D9F713E0A4E7B2E001C03D
:1000F0001D92AF35B107E1F710E0C6ECD0E004C0C7
:100100002297FE010E941A21C23CD107C9F70E9422
:10011000EA000C94A5240C940000FFCF8F92AF92BC
:10012000CF92EF920F9384E792E067E242E021E002
:1001300000E0E4E0EE2E75E0C72E56E0A52E37E095
:10014000832E0E94810F0F91EF90CF90AF908F90F0
:1001500008950F931F9304E712E0C80160E040E0A8
:100160000E940013C80160E071E00E94460364EF42
:1001700071E080E090E00E945F1DC80160E040E017
:100180000E940013C80166E071E00E94460364EF1C
:1001900071E080E090E00E945F1D1F910F91089533
:1001A0000F931F9304E712E0C80160E142E020E0F2
:1001B0000E94FE0EC80163E040E050E00E94FB0D8B
:1001C000C80161E00E94C30EC8010E9478131F910C
:1001D0000F910895CF93DF930E948F1D0E94D0004E
:1001E000C0E0D0E00E94A9002097E1F30E94000047
:1001F000F9CFCF92DF92EF92FF920F931F93CF939D
:10020000DF937C016B018A01C0E0D0E00FC0D60112
:100210006D916D01D701ED91FC910190F081E02D80
:10022000C7010995C80FD91F0150104001151105CC
:1002300071F7CE01DF91CF911F910F91FF90EF9059
:10024000DF90CF900895EF92FF920F931F93CF937B
:10025000DF937C018B01C0E0D0E0F8010F5F1F4FFE
:100260006491662359F0D701ED91FC910190F081E2
:10027000E02DC7010995C80FD91FEFCFCE01DF913F
:10028000CF911F910F91FF90EF900895DC01ED91B8
:10029000FC910190F081E02D099508959C01DB010E
:1002A000ED91FC910190F081E02DCB01B901099510
:1002B0000895EF92FF920F931F938C01DC01ED9153
:1002C000FC910190F081E02D6DE009957C01D80151
:1002D000ED91FC910190F081E02DC8016AE0099553
:1002E0009C012E0D3F1DC9011F910F91FF90EF90B2
:1002F0000895EF92FF920F931F937C010E942301B8
:100300008C01C7010E9459019C01200F311FC901B6
:100310001F910F91FF90EF900895EF92FF920F932E
:100320001F937C01DC01ED91FC910190F081E02DA7
:1003300009958C01C7010E945901080F191FC801B6
:100340001F910F91FF90EF900895EF92FF920F93FE
:100350001F937C01DB01ED91FC910190F081E02D78
:10036000CB01B70109958C01C7010E945901080F03
:10037000191FC8011F910F91FF90EF900895CF931F
:10038000DF93EC016115710519F420E030E00FC036
:10039000DB010D900020E9F71197A61BB70BE88150
:1003A000F9810280F381E02DAD0109959C01C9011D
:1003B000DF91CF9108954F925F927F928F929F929B
:1003C000AF92BF92CF92DF92EF92FF920F931F9363
:1003D000DF93CF93CDB7DEB7A1970FB6F894DEBF0A
:1003E0000FBECDBF2C01742ECB01223008F42AE0C1
:1003F00019A231E2C32ED12CCC0EDD1E822E9924FF
:10040000AA24BB24672D752FA50194010E94BF204B
:1004100079018A01C801B701A50194010E94A020B9
:10042000472D461B0894C108D1084A3014F4405D9A
:1004300001C0495CF6014083E114F1040105110596
:1004400021F07E2C5F2DC801DDCFC201B6010E94D4
:10045000BF01A1960FB6F894DEBF0FBECDBFCF91FE
:10046000DF911F910F91FF90EF90DF90CF90BF90A1
:10047000AF909F908F907F905F904F900895DC0198
:100480002115310541F4ED91FC910190F081E02DB1
:10049000642F099508950E94DB010895EF92FF9261
:1004A0000F931F937C010E943F028C01C7010E94A1
:1004B00059019C01200F311FC9011F910F91FF901D
:1004C000EF900895EF92FF920F931F939A017B0193
:1004D00000E010E0B801A7010E943F021F910F91B8
:1004E000FF90EF900895CF92DF92EF92FF920F93DB
:1004F0001F936C017B019A0100E010E0B801A70195
:100500000E943F028C01C6010E945901080F191F69
:10051000C8011F910F91FF90EF90DF90CF90089549
:10052000EF92FF920F931F939A01E62EFF2400E0B3
:1005300010E0B801A7010E943F021F910F91FF90A8
:10054000EF900895CF92DF92EF92FF920F931F9357
:100550006C01E62E9A01FF2400E010E0B801A7012B
:100560000E943F028C01C6010E945901080F191F09
:10057000C8011F910F91FF90EF90DF90CF900895E9
:10058000CF92DF92EF92FF920F931F93CF93DF935F
:10059000EC016A017B012115310541F4E881F98103
:1005A0000190F081E02D642F09951FC02A3031059C
:1005B000D1F477FF17C0E881F9810190F081E02D37
:1005C0006DE209958C0144275527BA014C195D0944
:1005D0006E097F09CE012AE00E94DB019801280FF5
:1005E000391F04C02AE00E94DB019C01C901DF9190
:1005F000CF911F910F91FF90EF90DF90CF900895D2
:10060000EF92FF920F931F937C010E94C0028C0116
:10061000C7010E9459019C01200F311FC9011F9180
:100620000F91FF90EF900895EF92FF920F931F9319
:100630007B019A010027F7FC0095102FB801A70154
:100640000E94C0021F910F91FF90EF900895CF92EA
:10065000DF92EF92FF920F931F936C017B019A013F
:100660000027F7FC0095102FB801A7010E94C002D7
:100670008C01C6010E945901080F191FC8011F9162
:100680000F91FF90EF90DF90CF9008950E94BF01EF
:1006900008957F928F929F92AF92BF92CF92DF92F6
:1006A000EF92FF920F931F93CF93DF934C017A0148
:1006B0008B01722ECB01BA01A80197010E94A619E5
:1006C000882321F0C4016EE071E021C0C0E0D0E0D9
:1006D00057016801E894D7F8C601B5012FEF3FEF45
:1006E0004FE75FE70E94A619882351F4C601B501C0
:1006F0002FEF3FEF4FE75FE70E947619181614F0CF
:10070000C1E0D0E0219739F0C40162E171E00E94BC
:10071000BF01EC0193C0C801B7012FEF3FEF4FE7D6
:100720005FE40E94E618181654F0C801B7012FEFD5
:100730003FEF4FE75FEC0E944619882324F4C40181
:1007400066E171E0E4CFC801B70120E030E040E0AD
:1007500050E00E94461987FD03C0C0E0D0E00EC003
:10076000D401ED91FC910190F081E02DC4016DE286
:100770000995EC0117FB109517F9109520E030E072
:1007800040E05FE3DD240BC0CA01B90120E030E0A6
:1007900040E251E40E943A189B01AC01D394D71473
:1007A00098F3C801B7010E9413175B016C010E9406
:1007B0006A157B018C01C401B801A7012AE030E071
:1007C0000E943F02C80FD91F772039F0C4016AE1A7
:1007D00071E00E94BF01C80FD91FC801B7010E9474
:1007E000831A9B01AC01C601B5010E94E21624C028
:1007F00020E030E040E251E40E9440177B018C0190
:100800000E942F1A5B016C01CC24B7FCC094DC2C35
:10081000C401B601A5012AE030E00E94C002C80F61
:10082000D91FC601B5010E94D1199B01AC01C801B5
:10083000B7010E94E2167A947720D1F6CE01DF91BB
:10084000CF911F910F91FF90EF90DF90CF90BF90CD
:10085000AF909F908F907F9008950E9449030895D4
:10086000EF92FF920F931F937C010E9449038C012A
:10087000C7010E945901080F191FC8011F910F914C
:10088000FF90EF900895EF92FF920F931F937C01DA
:100890000E94BF018C01C7010E945901080F191F56
:1008A000C8011F910F91FF90EF900895AF92BF92F2
:1008B000CF92DF92EF92FF920F931F93CF93DF932C
:1008C0005C016B01EE24FF24C0E0D0E010C0D50134
:1008D000ED91FC9100811181C601BE010E94D004FE
:1008E000682FC501F8010995E80EF91E2196F60159
:1008F00084819581C817D90750F3C701DF91CF9143
:100900001F910F91FF90EF90DF90CF90BF90AF902D
:100910000895EF92FF920F931F937C010E9456045B
:100920008C01C7010E9459019C01200F311FC90190
:100930001F910F91FF90EF900895FC0184819581A4
:100940006817790748F40190F081E02D309721F085
:10095000E60FF71F8081089580E00895FC018481EF
:1009600095816817790730F40190F081E02DE60F4A
:10097000F71F40830895FC019B01848195816817CE
:10098000790728F4608171816115710529F410924D
:100990008D026DE872E002C0620F731FCB010895F3
:1009A000FC01848195816817790748F40190F081F2
:1009B000E02D309721F0E60FF71F8081089580E049
:1009C0000895FC010190F081E02D309729F40895FD
:1009D000861709F44083319680818823C9F70895EA
:1009E000FC0180819181009729F420E030E040E013
:1009F00050E004C00E9422239B01AC01B901CA014E
:100A00000895CF92DF92EF92FF920F931F93CF93AF
:100A1000DF936C01DC01ED90FC901197E114F1047F
:100A200009F441C01496CD91DC9115972097D9F126
:100A3000870102C00F5F1F4FF8018081992787FD52
:100A400090950E944923892BA9F72197CE0DDF1D90
:100A500001C021978881992787FD90950E9449239D
:100A6000892B19F0C017D107A0F7FE013196E01BC2
:100A7000F10BD6011596FC93EE9314972D913C91B2
:100A80002017310728F4C901B801AF010E94612382
:100A9000D601ED91FC91119714968D919C9115972B
:100AA000E80FF91F1082DF91CF911F910F91FF90F6
:100AB000EF90DF90CF900895CF93DF93FC01C0813A
:100AC000D181209739F409C0992787FD90950E941C
:100AD0005923899388818823B9F7DF91CF910895AD
:100AE000CF93DF93FC01C081D181209739F409C0F5
:100AF000992787FD90950E945123899388818823A7
:100B0000B9F7DF91CF910895EF92FF920F931F9362
:100B1000CF93DF93FC01DB018617970739F124811E
:100B2000358114968D919C9115972817390701F5F9
:100B3000232BE1F0E080F180CD91DC9113C0992767
:100B400087FD90950E9451238C018881992787FD0C
:100B500090950E9451230817190751F40894E11C3D
:100B6000F11C2196F7018081882349F781E001C0BB
:100B700080E0DF91CF911F910F91FF90EF9008954A
:100B8000AF92BF92CF92DF92EF92FF920F931F939B
:100B9000CF93DF93FC015B017A01DB0114962D9169
:100BA0003C9115972115310559F184819581009764
:100BB00039F18217930720F14817590720F07C017B
:100BC0000894E108F10800811181C801CFEFDFEF3F
:100BD0006801CE0CDF1C10C0F501608171810E949C
:100BE000BF239C01009771F0801B910BE816F9065A
:100BF00008F0EC01C9010196C816D90668F702C0D1
:100C0000CFEFDFEFCE01DF91CF911F910F91FF90DA
:100C1000EF90DF90CF90BF90AF900895FC01DB0183
:100C20004481558114968D919C911597481B590BC1
:100C3000CF010E94C0050895CF93DF93FC01DB0133
:100C4000848195814817590760F4C081D1816D91E5
:100C50007C91CE01840F951F0E94BF239C010097B9
:100C600019F42FEF3FEF02C02C1B3D0BC901DF91A0
:100C7000CF91089540E050E00E941C060895DF9255
:100C8000EF92FF920F931F93CF93DF93EC018C8130
:100C90009D8148175907C8F47A010894E11CF11C9A
:100CA000E881F981EE0DFF1DD08010820881198145
:100CB000772767FD7095C8010E94B4239C010E0D33
:100CC0001F1DF801D082009719F4EFEFFFEF05C068
:100CD00088819981F901E81BF90BCF01DF91CF9150
:100CE0001F910F91FF90EF90DF900895FC014481D8
:100CF0005581415050400E943F060895CF93DF93A5
:100D0000FC01848195814817590768F4C081D1811D
:100D1000772767FD7095CE01840F951F0E947C2375
:100D20009C01009719F42FEF3FEF02C02C1B3D0BE5
:100D3000C901DF91CF91089540E050E00E947E0606
:100D400008950F931F93CF93DF93FC018B014115FF
:100D50005105F9F061157105E1F08481958128173D
:100D6000390718F0FB01108214C041505040EC01CB
:100D7000C21BD30B4C175D0708F4EA016081718137
:100D8000620F731FC801AE010E94A523C00FD11FBF
:100D90001882DF91CF911F910F910895FC01DB0123
:100DA0002481358114964D915C9115972417350750
:100DB000A8F080819181009789F06D917C916115F7
:100DC000710561F0241B350B820F931F0E9487234E
:100DD0009C0180E0232B19F481E0089580E00895C0
:100DE000DC01FB0114968D919C911597892B31F4B0
:100DF00061157105A9F090E0808108C00D90BC914B
:100E0000A02D6115710529F490E08C91882349F497
:100E100007C0CD010E9487239C0190E0232B09F499
:100E200091E0892F0895CF93DF939C01FB01EC01A2
:100E3000A881B981109729F06081718161157105D0
:100E4000D1F4C081D181209759F084819581892B7B
:100E500039F0888190E022273327281B390B12C0F4
:100E6000109771F0F90184819581892B49F08C915B
:100E7000282F30E007C0CD010E9487239C0102C0CB
:100E800020E030E0C901DF91CF9108950E9413075F
:100E9000892F8095881F8827881F08950E9413072F
:100EA00020E0181619060CF021E0822F08950E9408
:100EB000130720E0181619060CF421E0822F08957C
:100EC0000E941307892F881F8827881F0895FC0117
:100ED000DB012481358114968D919C9115972817FB
:100EE000390711F020E007C0CF010E94130720E06E
:100EF000892B09F421E0822F0895FC01DB0114966F
:100F00002D913C91159784819581821B930B8417B9
:100F10009507A0F080819181009781F06D917C917F
:100F20006115710559F0840F951FA9010E9497233F
:100F30009C0180E0232B19F481E0089580E008955E
:100F4000FC01DB012481358114968D919C911597CC
:100F50002817390710F480E00895CF0140E050E0F1
:100F60000E947D0708950F931F93CF93DF93EC01A9
:100F70008B016F5F7F4F888199810E945322009778
:100F800011F480E005C0998388831B830A8381E084
:100F9000DF91CF911F910F9108952F923F924F9221
:100FA0005F926F927F928F929F92AF92BF92CF92F9
:100FB000DF92EF92FF920F931F93CF93DF935C0129
:100FC0002B014A01DC0114960D911C911597011516
:100FD000110509F4D4C0FB01C480D580C114D1042B
:100FE00009F4CDC0DA0114966D907C9015976C18B9
:100FF0007D08FC01E080F1806114710491F01BC058
:10100000D4016C9111967C91119714964D915C913D
:1010100015978C2F0E946123F401E480F580EC0E7B
:10102000FD1ED2016D917C91C7010E94BF23EC018E
:10103000009731F7A4C077FE02C067012EC0FB0104
:1010400020803180E8013CC08E010E191F09C601C5
:10105000B701A8010E9461230C0D1D1DD4016C91E4
:1010600011967C91119714964D915C911597C8013A
:101070000E946123F401C480D580C00ED11ED2012C
:101080001496ED90FC901597EC0EFD1EF5018481F1
:101090009581860D971D95838483D2016D917C91F6
:1010A000C7010E94BF23EC01009771F6C601B7018A
:1010B0000E94902364C07B01EC0CFD1CC60DD71D63
:1010C000C701B1010E94BF23BC010097A1F7C0175F
:1010D000D10709F454C0F501828193818C179D07D3
:1010E00008F044C0C501BE010E94B3078823F1F592
:1010F00046C0C501B201A9010E94C005EC0197FDDF
:101100003EC0D5016D917C911197F201848195814A
:101110008C0F9D1F680F791F14964D915C91159748
:10112000481B590BCB01860D971D0E946A23D501E0
:1011300014968D919C911597860D971D15969C93ED
:101140008E931497ED91FC911197E80FF91F10827F
:101150002D913C912C0F3D1FF401608171814481E0
:101160005581C9010E9461239E0105C0D5011496D5
:101170002D913C9115972150304037FFBACFDF9128
:10118000CF911F910F91FF90EF90DF90CF90BF9084
:10119000AF909F908F907F906F905F904F903F9017
:1011A0002F900895CF93DF93EC0188819981892B4B
:1011B00029F08A819B818617970760F4CE010E94EF
:1011C000B307882341F08C819D81892B19F4E88134
:1011D000F981108281E0DF91CF910895EF92FF9223
:1011E0000F931F93CF93DF93EC017B016C817D8183
:1011F000E114F104C1F04115510599F08A01060F7F
:10120000171FB8010E94D208882369F0888199814C
:101210002C813D81820F931FB7010E9490231D8373
:101220000C8381E001C080E0DF91CF911F910F918D
:10123000FF90EF900895EF92FF920F931F93DF932B
:10124000CF93CDB7DEB72B970FB6F894DEBF0FBEA6
:10125000CDBF7C01CB01BA018E010F5F1F4FA801EA
:101260002AE030E00E944324F80101900020E9F7D1
:101270003197E01BF10BC701B801AF010E94EE08E6
:101280002B960FB6F894DEBF0FBECDBFCF91DF9186
:101290001F910F91FF90EF900895EF92FF920F939F
:1012A0001F93DF93CF93CDB7DEB72C970FB6F8948B
:1012B000DEBF0FBECDBF7C01CB01BA018E010F5F37
:1012C0001F4FA8012AE030E00E94FA23F8010190A4
:1012D0000020E9F73197E01BF10BC701B801AF011E
:1012E0000E94EE082C960FB6F894DEBF0FBECDBF5D
:1012F000CF91DF911F910F91FF90EF900895EF92A2
:10130000FF920F931F93DF93CF9300D000D000D0B4
:10131000CDB7DEB77C01CB018E010F5F1F4FB80147
:101320004AE050E00E946824F80101900020E9F7AB
:101330003197E01BF10BC701B801AF010E94EE0825
:1013400026960FB6F894DEBF0FBECDBFCF91DF91CA
:101350001F910F91FF90EF900895EF92FF920F93DE
:101360001F93DF93CF93CDB7DEB727970FB6F894CF
:10137000DEBF0FBECDBF7C01CB018E010F5F1F4FC3
:10138000B8014AE050E00E94D923F8010190002002
:10139000E9F73197E01BF10BC701B801AF010E94DB
:1013A000EE0827960FB6F894DEBF0FBECDBFCF91E3
:1013B000DF911F910F91FF90EF900895EF92FF92B0
:1013C0000F931F93DF93CF9300D000D0CDB7DEB73C
:1013D0007C01862F90E08E010F5F1F4FB8014AE01D
:1013E00050E00E94D923F80101900020E9F73197DD
:1013F000E01BF10BC701B801AF010E94EE080F908E
:101400000F900F900F90CF91DF911F910F91FF9050
:10141000EF900895DF93CF9300D0CDB7DEB7698307
:101420001A82BE016F5F7F4F41E050E00E94EE08DC
:101430000F900F90CF91DF9108956115710511F410
:1014400080E00895DB010D900020E9F71197A61BBD
:10145000B70BAD010E94EE080895FB016081718118
:10146000448155810E94EE080895CF93DF93EC01EB
:1014700088819981009711F00E94BB2119821882FE
:101480001D821C821B821A82DF91CF9108950F93D7
:101490001F93182F092F0E941B09882321F4812FE5
:1014A000902F0E94350A812F902F1F910F91089540
:1014B0000F931F93182F092F0E944D09882321F4A1
:1014C000812F902F0E94350A812F902F1F910F910D
:1014D00008950F931F93182F092F0E947F098823C7
:1014E00021F4812F902F0E94350A812F902F1F9178
:1014F0000F9108950F931F93182F092F0E94AD0984
:10150000882321F4812F902F0E94350A812F902F5C
:101510001F910F9108950F931F93182F092F0E9469
:10152000DE09882321F4812F902F0E94350A812F14
:10153000902F1F910F9108950F931F93182F092F2C
:101540000E940A0A882321F4812F902F0E94350AD5
:10155000812F902F1F910F9108950F931F93182F94
:10156000092F6115710561F0DB010D900020E9F78D
:101570001197A61BB70BAD010E94EE08882321F43A
:10158000812F902F0E94350A812F902F1F910F914C
:1015900008950F931F93182F092FFB01608171810C
:1015A000448155810E94EE08882321F4812F902FD9
:1015B0000E94350A812F902F1F910F910895EF926D
:1015C000FF920F931F93CF93DF93EC017B018A016E
:1015D000BA010E94D208882321F4CE010E94350A64
:1015E00007C01D830C8388819981B7010E949023D5
:1015F000CE01DF91CF911F910F91FF90EF90089551
:10160000CF93DF93EC01198218821B821A821D820C
:101610001C821E826115710551F0DB010D900020C6
:10162000E9F71197A61BB70BAD010E94DF0ADF9106
:10163000CF910895CF93DF93EC01198218821B821A
:101640001A821D821C821E826115710551F0DB0118
:101650000D900020E9F71197A61BB70BAD010E9472
:10166000DF0ADF91CF9108950F931F93182F092F51
:101670006115710559F0DB010D900020E9F7119714
:10168000A61BB70BAD010E94DF0A02C00E94350AFB
:10169000812F902F1F910F910895EF92FF920F933A
:1016A0001F93DF93CF93CDB7DEB7A1970FB6F89412
:1016B000DEBF0FBECDBF8C01FC01118210821382F0
:1016C0001282158214821682CB01BA017E0108941F
:1016D000E11CF11CA70130E00E944324C801B701BE
:1016E0000E94340BA1960FB6F894DEBF0FBECDBF9B
:1016F000CF91DF911F910F91FF90EF900895EF929E
:10170000FF920F931F93DF93CF93CDB7DEB7A197CF
:101710000FB6F894DEBF0FBECDBF8C01FC01118265
:10172000108213821282158214821682CB01BA01B2
:101730007E010894E11CF11CA70130E00E944324C3
:10174000C801B7010E94340BA1960FB6F894DEBF12
:101750000FBECDBFCF91DF911F910F91FF90EF9002
:101760000895EF92FF920F931F93DF93CF93CDB71E
:10177000DEB7A2970FB6F894DEBF0FBECDBF8C01C7
:10178000FC01118210821382128215821482168249
:10179000CB01BA017E010894E11CF11CA70130E0E5
:1017A0000E94FA23C801B7010E94340BA2960FB61B
:1017B000F894DEBF0FBECDBFCF91DF911F910F9187
:1017C000FF90EF900895EF92FF920F931F93DF9396
:1017D000CF93CDB7DEB7A2970FB6F894DEBF0FBE9A
:1017E000CDBF8C01FC0111821082138212821582FE
:1017F00014821682CB01BA017E010894E11CF11C0F
:10180000A70130E00E94FA23C801B7010E94340BFF
:10181000A2960FB6F894DEBF0FBECDBFCF91DF9179
:101820001F910F91FF90EF900895EF92FF920F9309
:101830001F93DF93CF93CDB7DEB761970FB6F894C0
:10184000DEBF0FBECDBF8C01CB01F801118210822B
:10185000138212821582148216827E010894E11C82
:10186000F11CB70150E00E946824C801B7010E9432
:10187000340B61960FB6F894DEBF0FBECDBFCF918B
:10188000DF911F910F91FF90EF900895EF92FF92DB
:101890000F931F93DF93CF93CDB7DEB761970FB64A
:1018A000F894DEBF0FBECDBF8C01CB01F8011182D1
:1018B0001082138212821582148216827E0108948D
:1018C000E11CF11CB70150E00E946824C801B70177
:1018D0000E94340B61960FB6F894DEBF0FBECDBFE9
:1018E000CF91DF911F910F91FF90EF900895EF92AC
:1018F000FF920F931F93DF93CF93CDB7DEB762971D
:101900000FB6F894DEBF0FBECDBF8C01CB01F8013E
:1019100011821082138212821582148216827E0135
:101920000894E11CF11CB70150E00E94D923C801C2
:10193000B7010E94340B62960FB6F894DEBF0FBE5B
:10194000CDBFCF91DF911F910F91FF90EF90089540
:10195000EF92FF920F931F93DF93CF93CDB7DEB734
:1019600062970FB6F894DEBF0FBECDBF8C01CB01DE
:10197000F80111821082138212821582148216825B
:101980007E010894E11CF11CB70150E00E94D923AC
:10199000C801B7010E94340B62960FB6F894DEBFFF
:1019A0000FBECDBFCF91DF911F910F91FF90EF90B0
:1019B0000895EF92FF920F931F93DF93CF93CDB7CC
:1019C000DEB729970FB6F894DEBF0FBECDBF8C01EE
:1019D000862FF801118210821382128215821482DE
:1019E000168290E07E010894E11CF11CB70150E0E2
:1019F0000E946824C801B7010E94340B29960FB6D3
:101A0000F894DEBF0FBECDBFCF91DF911F910F9134
:101A1000FF90EF900895EF92FF920F931F93DF9343
:101A2000CF93CDB7DEB729970FB6F894DEBF0FBEC0
:101A3000CDBF8C01862FF801118210821382128291
:101A400015821482168290E07E010894E11CF11C3C
:101A5000B70150E00E946824C801B7010E94340B0E
:101A600029960FB6F894DEBF0FBECDBFCF91DF91A0
:101A70001F910F91FF90EF900895DF93CF9300D0C7
:101A8000CDB7DEB7FC01118210821382128215825B
:101A90001482168269831A82BE016F5F7F4F0E9493
:101AA000340B0F900F90CF91DF910895DF93CF9378
:101AB00000D0CDB7DEB7FC011182108213821282F2
:101AC00015821482168269831A82BE016F5F7F4F6E
:101AD0000E94340B0F900F90CF91DF910895BF9229
:101AE000CF92DF92EF92FF920F931F93CF93DF93EA
:101AF000082FB92E6B017A01E9012417350710F47C
:101B0000EA017901802F9B2D64E271E00E94000BB5
:101B1000D60114968D919C9115978E159F05D0F046
:101B20008C179D0708F4EC01D601ED91FC911197FB
:101B3000EC0FFD1F108110826D917C916E0D7F1D49
:101B4000802F9B2D0E94340BD601ED91FC91EC0F60
:101B5000FD1F1083802F9B2DDF91CF911F910F913F
:101B6000FF90EF90DF90CF90BF9008950F931F9359
:101B70008C01FB01248135810E946F0DC8011F91EA
:101B80000F910895CF93DF93EC01FB018617970720
:101B900061F0608171816115710529F04481558181
:101BA0000E94DF0A02C00E94350ACE01DF91CF9168
:101BB0000895FC0111821082138212821582148210
:101BC00016820E94C20D0895FC01118210821382B8
:101BD00012821582148216820E94C20D0895FC01A1
:101BE000808191810E94BB210895FC0180819181B7
:101BF0000E94BB210895DC0181E090E002C0880FC3
:101C0000991F6A95E2F71C968C931C971A965C9321
:101C10004E931997ED91FC9111970084F185E02D79
:101C2000CD0160E0099508958F92AF92BF92CF9257
:101C3000DF92EF92FF920F931F93DF93CF93CDB775
:101C4000DEB7FC016387148615861286118681E053
:101C500090E0BC0102C0660F771F4A95E2F7628BE5
:101C6000AC0102C0440F551F2A95E2F7438BBC011B
:101C700002C0660F771F0A95E2F7648B9C0102C0D1
:101C8000220F331FEA94E2F7258BAC0102C0440F08
:101C9000551FCA94E2F7468BBC0102C0660F771F3E
:101CA000AA94E2F7678B02C0880F991F8A94E2F723
:101CB000808FCF91DF911F910F91FF90EF90DF9078
:101CC000CF90BF90AF908F900895DF92EF92FF92E8
:101CD0000F931F938C01D62E8EE0E82EF12CE00E90
:101CE000F11EF80162896D29C7010E94B611F80141
:101CF000628960956D21C7010E94B6111F910F91F5
:101D0000FF90EF90DF900895DC01FC0120E090E06F
:101D100070E060FF02C08589282B9F5F3196943068
:101D200019F075956795F4CF413019F454964C919C
:101D300054971D968C911D97842B282BCD01622FD3
:101D40000E94650E08950F931F93CF93DF93EC01CC
:101D5000142F062F0F70423019F4602F40E00CC092
:101D600070E044E0759567954A95E1F7412F0E9430
:101D7000840ECE01602F412F0E94840EDF91CF91FF
:101D80001F910F910895FC012485222399F08185EC
:101D90009285009719F4662329F406C0019721F46F
:101DA000662311F4258701C01586CF010E9665853F
:101DB0000E94B61108950F931F93CF93DF938C0168
:101DC000EC012E96CE01F80163850E943212019734
:101DD00019F020E030E00CC0CE0161E00E94AB11B0
:101DE000F8011482CE0160E00E94B61121E030E0DB
:101DF000C901DF91CF911F910F910895DF92EF926A
:101E0000FF920F931F938C01F62EE42ED22E0E9488
:101E1000DB0EC8016F2D4E2D2D2D0E9488131F91B2
:101E20000F91FF90EF90DF9008956F927F928F92C5
:101E3000AF92CF92DF92EF92FF920F931F93DF93B7
:101E4000CF93CDB7DEB73C01162FF42ED22E0E94D1
:101E5000511289E291E0F30191838083C3010E96D0
:101E60000E948811C301612F4F2D2D2D0E94140E49
:101E7000C3016F85488959890E94FB0DCF91DF917D
:101E80001F910F91FF90EF90DF90CF90AF908F90C8
:101E90007F906F9008956F927F928F92AF92CF92C2
:101EA000DF92EF92FF920F931F93DF93CF93CDB703
:101EB000DEB73C01162FF42ED22E0E94511289E279
:101EC00091E0F30191838083C3010E960E948811F3
:101ED000C301612F4F2D2D2D0E94140EC3016F855C
:101EE000488959890E94FB0DCF91DF911F910F9175
:101EF000FF90EF90DF90CF90AF908F907F906F909A
:101F000008956F927F928F92AF92CF92DF92EF926D
:101F1000FF920F931F93DF93CF93CDB7DEB73C01B2
:101F2000162FF42ED22E0E94511289E291E0F30175
:101F300091838083C3010E960E948811C301612F93
:101F40004F2D2D2D0E94140ECF91DF911F910F91D7
:101F5000FF90EF90DF90CF90AF908F907F906F9039
:101F600008956F927F928F92AF92CF92DF92EF920D
:101F7000FF920F931F93DF93CF93CDB7DEB73C0152
:101F8000162FF42ED22E0E94511289E291E0F30115
:101F900091838083C3010E960E948811C301612F33
:101FA0004F2D2D2D0E94140ECF91DF911F910F9177
:101FB000FF90EF90DF90CF90AF908F907F906F90D9
:101FC00008954F925F926F927F928F929F92AF92FD
:101FD000BF92CF92DF92EF92FF920F931F933C013B
:101FE000162FF42EB22E9E2C26010E94511289E249
:101FF00091E0F30191838083C3010E960E948811C2
:10200000C301612F4F2D2B2DEE24CC24C39472E0FD
:10201000A72E53E0852E0E94140EC301692DA20144
:102020000E94FB0D1F910F91FF90EF90DF90CF90DA
:10203000BF90AF909F908F907F906F905F904F90E8
:1020400008954F925F926F927F928F929F92AF927C
:10205000BF92CF92DF92EF92FF920F931F933C01BA
:10206000162FF42EB22E9E2C26010E94511289E2C8
:1020700091E0F30191838083C3010E960E94881141
:10208000C301612F4F2D2B2DEE24CC24C394F2E0FD
:10209000AF2EE3E08E2E0E94140EC301692DA20123
:1020A0000E94FB0D1F910F91FF90EF90DF90CF905A
:1020B000BF90AF909F908F907F906F905F904F9068
:1020C00008958F92AF92CF92DF92EF92FF920F938B
:1020D0001F937C01162FD42EC22E0E94511289E22A
:1020E00091E0F70191838083C7010E960E948811C9
:1020F000C701612F4D2D2C2DEE24CC24C394B2E0CA
:10210000AB2EA3E08A2E0E94140E1F910F91FF9018
:10211000EF90DF90CF90AF908F9008958F92AF9215
:10212000CF92DF92EF92FF920F931F937C01162FB5
:10213000D42EC22E0E94511289E291E0F7019183C0
:102140008083C7010E960E948811C701612F4D2D13
:102150002C2DEE24CC24C39432E0A32E13E0812E48
:102160000E94140E1F910F91FF90EF90DF90CF907F
:10217000AF908F9008954F925F926F927F928F925F
:10218000AF92CF92EF92FF920F931F933C01162FC5
:10219000F42E29010E94511289E291E0F30191830A
:1021A0008083C3010E960E948811C301612F46E00F
:1021B00025E004E0EE24CC24C39472E0A72E53E083
:1021C000852E0E94140EC3016F2DA2010E94FB0DEB
:1021D0001F910F91FF90EF90CF90AF908F907F90D5
:1021E0006F905F904F9008954F925F926F927F92A1
:1021F0008F92AF92CF92EF92FF920F931F933C0179
:10220000162FF42E29010E94511289E291E0F30168
:1022100091838083C3010E960E948811C301612FB0
:1022200046E025E004E0EE24CC24C394F2E0AF2E97
:10223000E3E08E2E0E94140EC3016F2DA2010E94B6
:10224000FB0D1F910F91FF90EF90CF90AF908F906B
:102250007F906F905F904F9008958F92AF92CF9242
:10226000EF92FF920F931F938C01F62E0E94511252
:1022700089E291E0F80191838083C8010E960E9463
:102280008811C8016F2D46E025E004E0EE24CC243F
:10229000C394B2E0AB2EA3E08A2E0E94140E1F91CD
:1022A0000F91FF90EF90CF90AF908F9008958F9205
:1022B000AF92CF92EF92FF920F931F938C01F62E65
:1022C0000E94511289E291E0F80191838083C80154
:1022D0000E960E948811C8016F2D46E025E004E0AB
:1022E000EE24CC24C39432E0A32E13E0812E0E946E
:1022F000140E1F910F91FF90EF90CF90AF908F90A1
:102300000895FC0112828FEF818310821382089559
:10231000FC0112828FEF8183108213820895FC01E9
:1023200083818823B9F02181413059F481E090E024
:1023300002C0880F991F6A95E2F7809528232183B0
:10234000089581E090E002C0880F991F6A95E2F736
:10235000282B21830895FC018381882331F0662393
:1023600019F48FEF8183089511820895CF93DF933D
:10237000EC018B81882319F480E090E013C08981FF
:1023800080958623888388ED92E06A810E942214DA
:1023900088ED92E068810E94E91488ED92E00E9445
:1023A0002C1590E020E030E0892B11F421E030E0A2
:1023B000C901DF91CF910895FC0183818823D1F079
:1023C0006830C0F481E090E002C0880F991F6A95E0
:1023D000E2F79181909598238081413011F4892B07
:1023E00002C0909589238083CF0160810E94B6113D
:1023F0009C0102C020E030E0C90108951F93CF93F3
:10240000DF93EC018B81882361F088ED92E06A8193
:1024100041E00E944415198188ED92E00E943F142A
:102420008123DF91CF911F9108951F93CF93DF9365
:10243000EC01162F8B81882381F0683070F4CE0177
:102440000E94FE112981282330E002C0359527958E
:102450001A95E2F7822F817001C080E0DF91CF9161
:102460001F910895CF93DF93EC016A8388ED92E08A
:102470000E94481588ED92E06A8141E00E9444156F
:102480001B82882311F081E08B8388ED92E00E940B
:102490003F1488838B8190E0DF91CF910895089558
:1024A0000895FC011382128289E391E09183808375
:1024B0000895FC011382128289E391E09183808365
:1024C0000895FC01A081B18118962D913C91199736
:1024D0006FEFF90109950895FC01A081B18118966B
:1024E0002D913C91199760E0F90109950895DC015F
:1024F000ED91FC910284F385E02D40E0099508956B
:10250000FC0166816E7F668364600E947712089585
:10251000FC016681862F816086836560CF010E9401
:102520007712089560E10E947712089564E10E9495
:1025300077120895FC0166816D7F668364600E9456
:1025400077120895FC016681862F8260868366601B
:10255000CF010E94771208956CE10E9477120895CE
:1025600068E10E9477120895FC016581862F8160E1
:1025700085836960CF010E9477120895FC0165810F
:102580006E7F658368600E9477120895FC01658103
:10259000862F826085836A60CF010E94771208953A
:1025A000FC0165816D7F658368600E9477120895E4
:1025B000FC016581862F846085836C60CF010E9459
:1025C000771208950F931F938C010E94D812C801AF
:1025D0000E9461121F910F910895FC0165816B7F2C
:1025E000658368600E94771208950F931F938C0192
:1025F0000E946C12C8010E94ED121F910F91089564
:10260000DF93CF93CDB7DEB728970FB6F894DEBF30
:102610000FBECDBFDC0117968C911797481710F0AD
:10262000482F415018969C911897903169F4843046
:1026300059F41D8280E48E839F8380E58887FE01A4
:10264000E40FF11D85810BC0198280E48A8384E147
:102650008B8384E58C83FE01E40FF11D8181680F7B
:102660006068CD010E94771228960FB6F894DEBFFD
:102670000FBECDBFCF91DF910895DC01ED91FC91AC
:102680000284F385E02D41E0099581E090E0089512
:10269000EF92FF920F931F93CF93DF938C017A01F8
:1026A0006770660F660F660F60640E9477128EE196
:1026B00090E00E94851DC0E0D0E0D801ED91FC9132
:1026C000D701AC0FBD1F0190F081E02DC8016C91C6
:1026D000099588E290E00E94851D2196C830D105B9
:1026E00061F7DF91CF911F910F91FF90EF900895C7
:1026F00062E00E94771280ED97E00E94851D0895A8
:1027000061E00E94771280ED97E00E94851D089598
:10271000CF93DF93EC01423018F08C8188608C837A
:102720004F836887222329F0413019F48C8184601B
:102730008C8364E670E080E090E00E945F1D6C8115
:1027400064FD31C0E881F9810284F385E02DCE017A
:1027500063E042E0099584E991E10E94851DE881EA
:10276000F9810284F385E02DCE0163E042E0099512
:1027700084E991E10E94851DE881F9810284F38555
:10278000E02DCE0163E042E0099586E990E00E94E9
:10279000851DE881F9810284F385E02DCE0162E098
:1027A00042E0099516C06062CE010E94771284E96A
:1027B00091E10E94851D6C816062CE010E947712BA
:1027C00086E990E00E94851D6C816062CE010E94C6
:1027D00077126C816062CE010E94771284E08D8353
:1027E000CE010E94D812CE010E94801382E08E8317
:1027F000CE0166E00E947712CE010E946112DF9145
:10280000CF910895FC011382128288EE93E0A0E03C
:10281000B0E084839583A683B78389E491E09183B4
:1028200080830895FC011382128288EE93E0A0E079
:10283000B0E084839583A683B78389E491E0918394
:102840008083089581E08093D3026093B002109258
:10285000D1021092D202089581E08093D302609356
:10286000B0021092D1021092D20208952091AF02CC
:1028700030E08091AE02281B3109C90108954091D2
:10288000AE028091AF02481718F02FEF3FEF0AC059
:10289000E42FF0E0E257FD4F8081282F30E04F5FBA
:1028A0004093AE02C9010895E091AE028091AF025B
:1028B000E81718F0EFEFFFEF06C0F0E0E257FD4F2A
:1028C0008081E82FF0E0CF0108950895AC012091B8
:1028D000D6023091D70221153105E1F09091AE0278
:1028E0008091AF029817B0F090E008C0FA01EA0FAB
:1028F000FB1F8081A257BD4F8C939F5FA92FB0E033
:10290000A617B7079CF31092AE026093AF02CB01FB
:10291000F90109950895E091D402F091D50230971C
:1029200029F01092D1021092D20209950895709365
:10293000D7026093D60208957093D5026093D402B3
:1029400008951092DB021092DA0288EE93E0A0E084
:10295000B0E08093DC029093DD02A093DE02B0939E
:10296000DF0289E491E09093D9028093D802089520
:10297000CF92DF92EF92FF920F931F93CF93DF934B
:102980007C016B018A018091D3028823A1F0C0E011
:10299000D0E00DC0D701ED91FC91D601AC0FBD1F69
:1029A0000190F081E02DC7016C9109952196C01727
:1029B000D10780F304C0CB01642F0E946C1EC801B4
:1029C000DF91CF911F910F91FF90EF90DF90CF900B
:1029D0000895DF93CF930F92CDB7DEB7FC016983E3
:1029E0008091D3028823C9F08091D202803238F0DE
:1029F00081E090E09383828320E030E015C08091F5
:102A0000D102E82FF0E0EF54FD4F998190838F5F62
:102A10008093D1028093D20205C0CE01019661E07D
:102A20000E946C1E21E030E0C9010F90CF91DF9130
:102A300008950F93062F8091B00261EB72E04091F0
:102A4000D20221E00E94171E1092D1021092D202EF
:102A50001092D3020F91089561E00E941915089514
:102A6000413208F040E2862F6EE872E00E94CE1DEF
:102A70001092AE028093AF0208950E94301508951F
:102A800021E00E943015089521E00E94301508953C
:102A90001092AE021092AF021092D1021092D202A6
:102AA0000E94222008950F931F938C01862F0E946D
:102AB000CA1D8BE894E10E948C1E86E694E10E9478
:102AC000871EC8010E9448151F910F9108950E940A
:102AD00053150895EF92FF920F931F937B018C0182
:102AE00020E030E040E05FE40E94161988238CF07B
:102AF000C801B70120E030E040E05FE40E94E21648
:102B00000E942F1A9B01AC01205030404040504899
:102B100006C0C801B7010E942F1A9B01AC01B90180
:102B2000CA011F910F91FF90EF900895A0E0B0E0CF
:102B3000ECE9F5E10C94E120DC012B01FA019C9118
:102B4000923008F439C1EB018881823008F433C136
:102B5000943069F4843009F02FC111969C9111973B
:102B60008981981709F428C1A5E6B1E025C1843010
:102B700009F421C18230A9F4923009F01DC19A01F3
:102B8000AD0188E0EA010990AE01E90109929E01D8
:102B90008150C1F7E201898111969C91892381833B
:102BA00008C1923009F407C112962D903C901397FA
:102BB000EB018A819B811496AD90BD90CD90DC9005
:102BC0001797EC80FD800E811F819101281B390B26
:102BD000B90137FF04C066277727621B730B603289
:102BE00071050CF061C0121613066CF5370148012F
:102BF000062E04C096948794779467940A94D2F72B
:102C000021E030E040E050E004C0220F331F441FB9
:102C1000551F6A95D2F721503040404050402E2138
:102C20003F2140235123211531054105510521F054
:102C300021E030E040E050E079018A01E628F72801
:102C4000082919293CC0232BD1F1260E371E350146
:102C50004601062E04C096948794779467940A944C
:102C6000D2F721E030E040E050E004C0220F331FF3
:102C7000441F551F6A95D2F72150304040405040C4
:102C80002A213B214C215D212115310541055105AA
:102C900021F021E030E040E050E059016A01A6282F
:102CA000B728C828D9280BC0821593052CF01C0121
:102CB000AA24BB24650103C0EE24FF2487011196DA
:102CC0009C91D20111968C91981709F445C09923D3
:102CD00039F0A80197012A193B094C095D0906C082
:102CE000A60195012E193F09400B510B57FD08C055
:102CF00011823382228224833583468357831DC009
:102D000081E081833382228288279927DC01821B1C
:102D1000930BA40BB50B84839583A683B7830DC057
:102D2000220F331F441F551F248335834683578347
:102D300082819381019793838283248135814681A7
:102D40005781DA01C9010197A109B1098F5F9F4F2E
:102D5000AF4FBF4328F30BC0918333822282EA0C2A
:102D6000FB1C0C1D1D1DE482F5820683178383E086
:102D70008083248135814681578157FF1AC0C9015C
:102D8000AA2797FDA095BA2F81709070A070B0709F
:102D90005695479537952795822B932BA42BB52BCA
:102DA00084839583A683B7838281938101969383DD
:102DB0008283DF0101C0D201CD01CDB7DEB7E2E1F0
:102DC0000C94FD20A0E2B0E0E8EEF6E10C94ED20DA
:102DD00069837A838B839C832D833E834F835887BB
:102DE000E9E0EE2EF12CEC0EFD1ECE010196B701AE
:102DF0000E94201C8E010F5E1F4FCE010596B80168
:102E00000E94201C8A8991E089278A8BC701B8011A
:102E1000AE01475E5F4F0E9496150E944B1BA09625
:102E2000E6E00C940921A0E2B0E0E9E1F7E10C94BE
:102E3000ED2069837A838B839C832D833E834F832C
:102E40005887F9E0EF2EF12CEC0EFD1ECE01019615
:102E5000B7010E94201C8E010F5E1F4FCE01059608
:102E6000B8010E94201CC701B801AE01475E5F4F48
:102E70000E9496150E944B1BA096E6E00C94092137
:102E8000A0E2B0E0E6E4F7E10C94E12069837A8304
:102E90008B839C832D833E834F835887CE0101967D
:102EA000BE01675F7F4F0E94201CCE010596BE01C8
:102EB0006F5E7F4F0E94201C9985923088F089892F
:102EC0008230C8F0943019F4823051F404C0843058
:102ED00029F4923081F485E691E0C6C0923049F43D
:102EE00020E09A858A89981321E02A87CE010996E5
:102EF000BBC0823049F420E09A858A89981321E08A
:102F00002A8BCE014196B0C02D843E844F845888D0
:102F10006D887E888F88988CEE24FF248701AA24F0
:102F2000BB24650140E050E060E070E0E0E0F0E0EC
:102F3000C10181709070892BE9F0E60CF71C081D27
:102F4000191D9A01AB012A0D3B1D4C1D5D1D80E032
:102F500090E0A0E0B0E0E614F7040805190520F4BD
:102F600081E090E0A0E0B0E0BA01A901480F591F4C
:102F70006A1F7B1FAA0CBB1CCC1CDD1C97FE08C063
:102F800081E090E0A0E0B0E0A82AB92ACA2ADB2AB2
:102F90003196E032F10549F0660C771C881C991CCB
:102FA0005694479437942794C3CFFA85EA892B899E
:102FB0003C898B859C85280F391F2E5F3F4F17C09A
:102FC000CA0181709070892B61F016950795F7946E
:102FD000E79480E090E0A0E0B0E8E82AF92A0A2B24
:102FE0001B2B76956795579547952F5F3F4F77FD3C
:102FF000E7CF0CC0440F551F661F771F17FD4160B8
:10300000EE0CFF1C001F111F21503040403090E09B
:10301000590790E0690790E4790760F32B8F3C8FA4
:10302000DB01CA018F779070A070B0708034910579
:10303000A105B10561F447FD0AC0E114F1040105E1
:10304000110529F0405C5F4F6F4F7F4F40781A8E1B
:10305000FE1711F081E08A8F4D8F5E8F6F8F78A3FE
:1030600083E0898FCE0149960E944B1BA096E2E136
:103070000C94FD20A8E1B0E0E0E4F8E10C94E92034
:1030800069837A838B839C832D833E834F83588708
:10309000B9E0EB2EF12CEC0EFD1ECE010196B7012E
:1030A0000E94201C8E010F5E1F4FCE010596B801B5
:1030B0000E94201C2985223008F47EC039893230D4
:1030C00010F4B8017CC08A859A8989278A872430C0
:1030D00011F0223031F4231709F06EC065E671E07B
:1030E0006EC0343039F41D861E861F86188A1C86F1
:1030F0001B8604C0323021F484E08987B7015FC0A9
:103100002B853C858B899C89281B390B3C872B8719
:10311000ED84FE840F851889AD88BE88CF88D88C51
:10312000EA14FB040C051D0540F4EE0CFF1C001F07
:10313000111F215030403C872B8720E030E040E0D9
:1031400050E080E090E0A0E0B0E460E070E0EA14DD
:10315000FB040C051D0540F0282B392B4A2B5B2B5B
:10316000EA18FB080C091D09B695A7959795879550
:10317000EE0CFF1C001F111F6F5F7F4F6F31710539
:1031800031F7DA01C9018F779070A070B070803488
:103190009105A105B10561F427FD0AC0E114F10410
:1031A0000105110529F0205C3F4F4F4F5F4F2078FC
:1031B0002D873E874F87588BBE01675F7F4FCB01BE
:1031C0000E944B1B6896EAE00C940521A8E1B0E050
:1031D000ECEEF8E10C94ED2069837A838B839C8379
:1031E0002D833E834F83588789E0E82EF12CEC0E27
:1031F000FD1ECE010196B7010E94201C8E010F5EBC
:103200001F4FCE010596B8010E94201C898582308F
:1032100040F08989823028F0C701B8010E94981CCB
:1032200001C08FEF6896E6E00C940921A8E1B0E0B8
:10323000ECE1F9E10C94ED2069837A838B839C8324
:103240002D833E834F83588789E0E82EF12CEC0EC6
:10325000FD1ECE010196B7010E94201C8E010F5E5B
:103260001F4FCE010596B8010E94201C898582302F
:1032700040F08989823028F0C701B8010E94981C6B
:1032800001C08FEF6896E6E00C940921A8E1B0E058
:10329000ECE4F9E10C94ED2069837A838B839C83C1
:1032A0002D833E834F83588789E0E82EF12CEC0E66
:1032B000FD1ECE010196B7010E94201C8E010F5EFB
:1032C0001F4FCE010596B8010E94201C89858230CF
:1032D00040F08989823028F0C701B8010E94981C0B
:1032E00001C081E06896E6E00C940921A8E1B0E015
:1032F000ECE7F9E10C94ED2069837A838B839C835E
:103300002D833E834F83588789E0E82EF12CEC0E05
:10331000FD1ECE010196B7010E94201C8E010F5E9A
:103320001F4FCE010596B8010E94201C898582306E
:1033300040F08989823028F0C701B8010E94981CAA
:1033400001C081E06896E6E00C940921A8E1B0E0B4
:10335000ECEAF9E10C94F12069837A838B839C83F6
:103360002D833E834F835887CE010196BE01675F50
:103370007F4F0E94201CCE010596BE016F5E7F4FDD
:103380000E94201C8985823028F020E030E0898965
:10339000823010F421E030E0822F6896E2E00C9455
:1033A0000D21A8E0B0E0E7EDF9E10C94EA209B01E3
:1033B000AC0183E08983DA01C9018827B7FD8395D1
:1033C0009927AA27BB27B82E21153105410551059C
:1033D00019F482E089833AC08823A9F0203080E084
:1033E000380780E0480780E8580729F460E070E07B
:1033F00080E09FEC30C0EE24FF248701E21AF30A3C
:10340000040B150B02C079018A018EE1C82ED12C64
:10341000DC82CB82ED82FE820F831887C801B70160
:103420000E94FC1A01971816190684F4082E04C08D
:10343000EE0CFF1C001F111F0A94D2F7ED82FE82D2
:103440000F831887C81AD90ADC82CB82BA82CE01D0
:1034500001960E944B1B2896E9E00C940621ACE0F3
:10346000B0E0E5E3FAE10C94F12069837A838B8381
:103470009C83CE010196BE016B5F7F4F0E94201C92
:103480008D81823061F1823050F1843021F48E815F
:10349000882351F12EC02F81388537FD20C06E81E1
:1034A0002F3131051CF06623F9F023C08EE190E046
:1034B000821B930B29853A854B855C8504C0569504
:1034C0004795379527958A95D2F76623B1F05095A1
:1034D0004095309521953F4F4F4F5F4F0EC020E0F4
:1034E00030E040E050E009C02FEF3FEF4FEF5FE7E3
:1034F00004C020E030E040E050E8B901CA012C9659
:10350000E2E00C940D21A8E0B0E0E9E8FAE10C94C7
:10351000E9207B018C01611571058105910519F484
:1035200082E0898360C083E089838EE1C82ED12C3C
:10353000DC82CB82ED82FE820F831887C801B7013F
:103540000E94FC1AFC013197F7FF3BC0222733276A
:103550002E1B3F0B57016801022E04C0D694C7945E
:10356000B794A7940A94D2F740E050E060E070E08E
:1035700081E090E0A0E0B0E004C0880F991FAA1F8E
:10358000BB1F2A95D2F70197A109B1098E219F216E
:10359000A023B1230097A105B10521F041E050E03F
:1035A00060E070E04A295B296C297D294D835E83A8
:1035B0006F8378878EE190E08E1B9F0B9C838B83BB
:1035C00012C0309781F00E2E04C0EE0CFF1C001FBD
:1035D000111F0A94D2F7ED82FE820F831887CE1A4C
:1035E000DF0ADC82CB821A82CE0101960E944B1B3D
:1035F0002896EAE00C940521EF92FF920F931F9317
:103600007B018C0180E0E81680E0F80681E0080785
:1036100080E0180788F48FEFE816F1040105110522
:1036200031F028F088E090E0A0E0B0E017C080E042
:1036300090E0A0E0B0E012C080E0E81680E0F8067C
:1036400080E0080781E0180728F088E190E0A0E01A
:10365000B0E004C080E190E0A0E0B0E020E230E023
:1036600040E050E0281B390B4A0B5B0B04C0169559
:103670000795F794E7948A95D2F7F701E359FE4F3F
:103680008081281B310941095109C9011F910F91FE
:10369000FF90EF900895DF92EF92FF920F931F93A8
:1036A000FC01E480F58006811781D1808081823021
:1036B00048F480E090E0A0E1B0E0E82AF92A0A2B83
:1036C0001B2BA5C0843009F49FC0823021F4EE2466
:1036D000FF24870105C0E114F1040105110519F467
:1036E000E0E0F0E096C0628173819FEF6238790775
:1036F0000CF05BC022E83FEF261B370B2A31310567
:103700002CF020E030E040E050E02AC0B801A701F2
:10371000022E04C076956795579547950A94D2F77F
:1037200081E090E0A0E0B0E004C0880F991FAA1FDC
:10373000BB1F2A95D2F70197A109B1098E219F21BC
:10374000A023B1230097A105B10521F081E090E00D
:10375000A0E0B0E09A01AB01282B392B4A2B5B2B60
:10376000DA01C9018F779070A070B0708034910534
:10377000A105B10539F427FF09C0205C3F4F4F4F29
:103780005F4F04C0215C3F4F4F4F5F4FE0E0F0E0E0
:103790002030A0E03A07A0E04A07A0E45A0710F062
:1037A000E1E0F0E079018A0127C06038710564F535
:1037B000FB01E158FF4FD801C7018F779070A070CF
:1037C000B07080349105A105B10539F4E7FE0DC054
:1037D00080E490E0A0E0B0E004C08FE390E0A0E0DF
:1037E000B0E0E80EF91E0A1F1B1F17FF05C0169553
:1037F0000795F794E794319687E016950795F79427
:10380000E7948A95D1F705C0EE24FF248701EFEFF6
:10381000F0E06E2F679566276795902F9F77D79476
:10382000DD24D7948E2F8695492F462B582F5D295E
:10383000B701CA011F910F91FF90EF90DF9008959B
:10384000FC01DB01408151812281622F6F7770E0A2
:10385000221F2227221F9381892F880F822B282F36
:1038600030E0991F9927991F11969C931197211564
:103870003105A9F5411551056105710511F482E085
:1038800037C082E89FEF13969C938E9312979A010C
:10389000AB0167E0220F331F441F551F6A95D1F714
:1038A00083E08C930DC0220F331F441F551F1296C7
:1038B0008D919C911397019713969C938E931297D9
:1038C000203080E0380780E0480780E4580758F34C
:1038D00014962D933D934D935C93179708952F3F26
:1038E000310579F4411551056105710519F484E03C
:1038F0008C93089564FF03C081E08C9312C01C92E6
:1039000010C02F57304013963C932E93129783E0AC
:103910008C9387E0440F551F661F771F8A95D1F758
:10392000706414964D935D936D937C9317970895EF
:103930001F93DC01FB019C91923008F447C0808109
:10394000823008F443C0943051F411961C918430B5
:1039500099F58181682F70E0611B71093FC0843047
:1039600021F0923031F48230B9F18181882389F1DC
:103970002DC011961C9111978230F1F0818118179A
:10398000D9F412962D913C911397828193818217DD
:10399000930794F028173907BCF014968D919D91E8
:1039A0000D90BC91A02D2481358146815781281727
:1039B00039074A075B0718F4112341F00AC0821740
:1039C0009307A407B50740F4112319F061E070E0F4
:1039D00005C06FEF7FEF02C060E070E0CB011F9188
:1039E00008951F920F920FB60F9211242F933F93B9
:1039F0008F939F93AF93BF938091E8029091E902D8
:103A0000A091EA02B091EB023091EC020196A11D67
:103A1000B11D232F2D5F2D3720F02D570196A11DAD
:103A2000B11D2093EC028093E8029093E902A093E9
:103A3000EA02B093EB028091E4029091E502A0913A
:103A4000E602B091E7020196A11DB11D8093E40248
:103A50009093E502A093E602B093E702BF91AF9185
:103A60009F918F913F912F910F900FBE0F901F90BC
:103A700018959FB7F8942091E4023091E5024091A7
:103A8000E6025091E70286B5A89B06C08F3F21F061
:103A90002F5F3F4F4F4F5F4F9FBF542F432F322F0A
:103AA0002227280F311D411D511D82E0220F331F97
:103AB000441F551F8A95D1F7B901CA010895EF92A5
:103AC000FF920F931F93CF93DF937B018C010E9492
:103AD000391DEB010EC00E94391D6C1B7D0B685E09
:103AE0007340C8F30894E108F10801091109C851AD
:103AF000DC4FE114F1040105110569F7DF91CF9165
:103B00001F910F91FF90EF900895019739F0880F62
:103B1000991F880F991F02970197F1F708957894DC
:103B200084B5826084BD84B5816084BD85B58260C2
:103B300085BD85B5816085BDEEE6F0E08081816060
:103B40008083E1E8F0E01082808182608083808160
:103B500081608083E0E8F0E0808181608083E1EB38
:103B6000F0E0808184608083E0EBF0E08081816020
:103B70008083EAE7F0E080818460808380818260D6
:103B800080838081816080838081806880831092BF
:103B9000C1000895880F8093BA000895382F4132EC
:103BA00010F040E042C08091ED028823E1F791E0FF
:103BB0009093ED022093EF028FEF80935A031092BF
:103BC00015034150409316034F5F9093EE0280918E
:103BD000EE02330F832B8093EE028091F00281304E
:103BE00041F41092F0028091EE028093BB0085ECCC
:103BF00001C085EE8093BC008091ED028130E1F33D
:103C000080911503841710F44091150320E030E0F3
:103C10000AC0FB01E20FF31FD901AB50BD4F8C91DD
:103C200080832F5F3F4F2417A0F3842F08950F93B5
:103C30001F93582F122F413210F081E04AC080911B
:103C4000ED028823E1F782E08093ED020093EF021A
:103C50008FEF80935A031092150340931603A5EF3C
:103C6000B2E0FB0102C081918D938E2F861B8417D9
:103C7000D0F31092EE028091EE02550F852B8093C7
:103C8000EE028091F002813041F41092F0028091B6
:103C9000EE028093BB0085EC01C085EE8093BC00F2
:103CA000112321F08091ED028230E1F380915A03DB
:103CB0008F3F11F480E00DC080915A03803211F4DF
:103CC00082E007C080915A03803311F084E001C084
:103CD00083E01F910F910895482F613210F081E029
:103CE00008958091ED02843011F082E00895609390
:103CF0003803A7E1B3E0842F9C01F90102C0819150
:103D00008D938E2F841B8617D0F380E008959093B7
:103D1000F4028093F30208959093F2028093F102EB
:103D200008951F920F920FB60F9211242F933F9375
:103D30004F935F936F937F938F939F93AF93BF93B3
:103D4000EF93FF938091B90090E0887F9070803668
:103D5000910509F4F2C081369105CCF588329105C0
:103D600009F47BC089329105B4F48031910509F4DE
:103D70006FC0813191053CF4009709F447C1089761
:103D800009F04FC165C08831910509F466C080977C
:103D900009F047C182C08034910509F4A4C0813480
:103DA000910544F48033910509F482C0C89709F065
:103DB00038C189C08035910509F489C088359105DD
:103DC00009F496C08834910509F02BC1AEC088393A
:103DD000910509F413C189399105ECF488379105EF
:103DE00009F4ABC0893791054CF48836910509F484
:103DF000A4C08037910509F014C19FC0883891058F
:103E000009F4FCC08039910509F49DC08038910502
:103E100009F007C198C0803B910509F4C6C0813BF9
:103E200091054CF4803A910509F49FC0883A9105B8
:103E300009F0F7C0BAC0803C910509F4E3C0883CA2
:103E4000910509F4DFC0883B910509F0EAC0C2C0C2
:103E50008091EE028093BB00CFC0909115038091BA
:103E60001603981768F490911503E92FF0E0EB50D2
:103E7000FD4F80818093BB009F5F90931503BCC072
:103E80008091EF02882309F44BC085ED8093BC003C
:103E90008091BC0084FDFCCFC2C080E280935A03B5
:103EA00085ED8093BC008091BC0084FDFCCFB7C041
:103EB00080E380935A0385ED8093BC008091BC0021
:103EC00084FDFCCFACC088E380935A039BC08091F3
:103ED00015039091BB00E82FF0E0EB50FD4F90836D
:103EE0008F5F80931503909115038091160382C014
:103EF000809115039091BB00E82FF0E0EB50FD4F4F
:103F000090838F5F809315038091EF02882341F0A7
:103F100085ED8093BC008091BC0084FDFCCF7FC008
:103F200081E08093F00284EA6EC085ED8093BC004E
:103F30008091BC0084FDFCCF72C083E08093ED02D1
:103F40001092590359C080915903803208F056C02D
:103F5000809159039091BB00E82FF0E0E75CFC4FA3
:103F600090838F5F8093590347C0809159038032BB
:103F700030F4E0915903F0E0E75CFC4F108285EDEE
:103F80008093BC008091BC0084FDFCCF1092ED02B8
:103F900060915903E091F302F091F40289E393E018
:103FA00070E00995109259032DC084E08093ED02D2
:103FB0001092370310923803E091F102F091F2026F
:103FC000099580913803882329F481E08093380390
:103FD0001092170390913703E92FF0E0E95EFC4F50
:103FE00080818093BB009F5F90933703909137034C
:103FF00080913803981710F485EC01C085E8809310
:10400000BC000FC085EC8093BC0009C010925A031D
:1040100085ED8093BC008091BC0084FDFCCF1092A4
:10402000ED02FF91EF91BF91AF919F918F917F91A1
:104030006F915F914F913F912F910F900FBE0F9015
:104040001F9018951092ED0281E08093EF0210927C
:10405000F00282E161E00E946D2083E161E00E9454
:104060006D20E9EBF0E080818E7F808380818D7F01
:10407000808388E48093B80085E48093BC00089531
:10408000833071F0843028F48130A1F0823021F542
:1040900014C08630B1F08730D1F08430E9F404C028
:1040A000809180008F7703C0809180008F7D809306
:1040B0008000089584B58F7702C084B58F7D84BD5C
:1040C00008958091B0008F778093B000089580911B
:1040D000B0008F7D8093B0000895FF920F931F93DF
:1040E000F62E482F50E0CA0182559F4FFC012491C3
:1040F000CA0186569F4FFC0114914A575F4FFA013F
:1041000004910023C9F0222319F0822F0E9440203D
:10411000E02FF0E0EE0FFF1FEE58FF4FA591B49196
:104120009FB7F894FF2021F48C911095812302C051
:104130008C91812B8C939FBF1F910F91FF900895BD
:10414000629FD001739FF001829FE00DF11D649F7B
:10415000E00DF11D929FF00D839FF00D749FF00D07
:10416000659FF00D9927729FB00DE11DF91F639FA8
:10417000B00DE11DF91FBD01CF0111240895A1E289
:104180001A2EAA1BBB1BFD010DC0AA1FBB1FEE1FD1
:10419000FF1FA217B307E407F50720F0A21BB30B1C
:1041A000E40BF50B661F771F881F991F1A9469F798
:1041B00060957095809590959B01AC01BD01CF01F4
:1041C00008952F923F924F925F926F927F928F92BB
:1041D0009F92AF92BF92CF92DF92EF92FF920F9396
:1041E0001F93CF93DF93CDB7DEB7CA1BDB0B0FB6A0
:1041F000F894DEBF0FBECDBF09942A88398848885D
:104200005F846E847D848C849B84AA84B984C884F2
:10421000DF80EE80FD800C811B81AA81B981CE0FE9
:10422000D11D0FB6F894DEBF0FBECDBFED010895CE
:10423000EE0FFF1F0590F491E02D09940F931F934B
:10424000CF93DF93BC018230910510F462E070E0FF
:10425000E0915D03F0915E03A0E0B0E040E050E04B
:1042600024C08081918186179707D0F08617970721
:1042700071F482819381109729F013969C938E9309
:1042800012972CC090935E0380935D0327C0411565
:10429000510519F08417950718F4EF018D01AC0151
:1042A000DF01828193819C01F9013097D1F641159C
:1042B0005105F9F0CA01861B970B8430910580F4F3
:1042C0008A819B810115110521F0F8019383828376
:1042D00004C090935E0380935D03FE01329645C057
:1042E000FE01E80FF91F6193719302979983888308
:1042F0003CC080915B0390915C03892B41F48091D9
:104300006F029091700290935C0380935B034091E5
:104310007102509172024115510541F44DB75EB7DB
:1043200080916D0290916E02481B590B20915B03A6
:1043300030915C0324173507B0F4CA01821B930B3C
:104340008617970780F0AB014E5F5F4F8417950784
:1043500050F0420F531F50935C0340935B03F901ED
:104360006193719302C0E0E0F0E0CF01DF91CF9163
:104370001F910F910895CF93DF939C01009709F44B
:104380008FC0EC0122971B821A8260915D037091AD
:104390005E036115710581F488819981820F931FF5
:1043A00020915B0330915C032817390739F5D093CE
:1043B0005C03C0935B0374C0DB0140E050E0AC17CA
:1043C000BD0708F1BB83AA83FE0121913191E20F61
:1043D000F31FAE17BF0779F48D919C911197280FA9
:1043E000391F2E5F3F4F3983288312968D919C9100
:1043F00013979B838A834115510571F4D0935E0313
:10440000C0935D034DC012968D919C911397AD01A1
:10441000009711F0DC01D3CFDA011396DC93CE9331
:104420001297FA0121913191E20FF31FCE17DF07A6
:1044300069F488819981280F391F2E5F3F4FFA0157
:10444000318320838A819B8193838283E0E0F0E043
:10445000DB0112968D919C911397009719F0BC0186
:10446000FD01F6CFAB014E5F5F4FDB018D919C915B
:10447000840F951F20915B0330915C032817390747
:1044800079F4309729F410925E0310925D0302C014
:10449000138212824250504050935C0340935B035E
:1044A000DF91CF910895A0E0B0E0E9E5F2E20C944D
:1044B000E5208C01009729F4CB010E941E218C017C
:1044C000BBC08EEFE82E8FEFF82EE00EF11E4801F4
:1044D000860E971E8E149F0408F4ACC0D7014D9130
:1044E0005C91119746175707B8F04530510508F40D
:1044F000A3C0CA0104978617970708F49DC04250CD
:104500005040461B570BF401419351936D937C939C
:10451000CF010E94BB2190C05B01A41AB50A3801EB
:10452000640E751EA0915D03B0915E03CC24DD2462
:10453000E0E0F0E047C0A615B705A9F5CD91DC9104
:104540001197CE0102968A159B0568F1CE018A1952
:104550009B09029612962C91129713963C910597FF
:1045600058F0F40122833383CA19DB09D183C08355
:10457000D7016D937C9309C04E5F5F4F4C0F5D1F59
:10458000F70151834083C901FC01C114D10431F00A
:10459000D6011396FC93EE9312974EC0F0935E03F0
:1045A000E0935D0349C08D919C911197E817F9073D
:1045B00008F4FC016D0112968C91129713969C9150
:1045C0009C01D901109709F0B6CF80915B039091BF
:1045D0005C0386159705E9F4E617F707D0F42091F8
:1045E0007102309172022115310541F42DB73EB7A9
:1045F00080916D0290916E02281B390B82169306F2
:10460000C8F490925C0380925B03F701718360832E
:1046100013C0CB010E941E21EC01009759F0D70175
:104620004D915C91B8010E946123C8010E94BB2199
:104630008E0102C000E010E0C801CDB7DEB7EEE0A9
:104640000C9401211F93FC0199278827BC01E89451
:1046500011911032E9F3193010F01E30C8F31B32FB
:1046600051F01D3249F4689406C00E942E24610F57
:10467000711D811D911D119110531A30B0F33EF43C
:1046800090958095709561957F4F8F4F9F4F1F91AB
:104690000895911133C1803219F089508550D0F7B7
:1046A00008959111089581548A5108F4805E855AC5
:1046B00008959111089581568A5108F480528558C1
:1046C0000895FB01DC0102C001900D924150504061
:1046D000D8F708956817790768F4FB01DC01E40F47
:1046E000F51FA40FB51F02C002900E92415050401A
:1046F000D8F708950C946123FC018191861721F06D
:104700008823D9F7992708953197CF010895FB01A0
:10471000DC018D91019080190110D9F3990B089556
:10472000FB01DC0101900D920020E1F70895FB01EF
:10473000DC014150504030F08D910190801919F406
:104740000020B9F7881B990B0895FB01DC0141504B
:10475000504048F001900D920020C9F701C01D9211
:1047600041505040E0F70895FC0181E090E0019055
:10477000061609F4CF010020D1F701970895FB0137
:1047800051915523A9F0BF01DC014D91451741110D
:10479000E1F759F4CD010190002049F04D91401509
:1047A0004111C9F3FB014111EFCF81E090E0019786
:1047B0000895FB019F01E8944230C4F04532B4F4FF
:1047C0004A3029F497FB1EF4909581959F4F642FF2
:1047D00077270E949124805D8A330CF0895D819354
:1047E000CB010097A1F716F45DE251931082C90145
:1047F0000C948124FA01CF93FF93EF93223044F17C
:10480000253234F5C22FE894CA3049F497FB3EF4C0
:1048100090958095709561957F4F8F4F9F4F2C2F6E
:10482000332744275527FF93EF930E94BF20EF9132
:10483000FF91605D6A330CF0695D6193B901CA0153
:10484000605070408040904051F716F4CDE2C19323
:1048500010828F919F91CF910C948124592F482FD2
:10486000372F262F660F771F881F991F660F771F18
:10487000881F991F620F731F841F951F660F771F74
:10488000881F991F0895FA01CF93FF93EF93223069
:10489000CCF02532BCF4C22F2C2F332744275527C8
:1048A000FF93EF930E94BF20EF91FF91605D6A3309
:1048B0000CF0695D6193B901CA016050704080409D
:1048C000904051F710828F919F91CF910C94812449
:1048D000FB019F01423074F0453264F4642F772766
:1048E0000E949124805D8A330CF0895D8193CB0115
:1048F0000097A1F71082C9010C9481249927882779
:104900000895DC01FC01672F71917723E1F732975D
:1049100004C07C916D9370836291AE17BF07C8F39A
:104920000895AA1BBB1B51E107C0AA1FBB1FA617F6
:10493000B70710F0A61BB70B881F991F5A95A9F748
:0E49400080959095BC01CD010895F894FFCFAD
:10494E0048656C6C6F00576F726C640001006E618D
:10495E006E00696E66006F7666002E000000000025
:10496E008D00F90000000000003D13F900FE0EFB63
:10497E000DC30EA30E000000003D13F90088134F67
:10498E001250128D0000000000E914B81436143FC6
:10499E001454146514000000008D00F9008D008D74
:1049AE00008D008D000000000000000000000102DC
:1049BE0002030303030404040404040404050505AC
:1049CE000505050505050505050505050506060686
:1049DE000606060606060606060606060606060669
:1049EE000606060606060606060606060607070756
:1049FE000707070707070707070707070707070739
:104A0E000707070707070707070707070707070728
:104A1E000707070707070707070707070707070718
:104A2E000707070707070707070707070708080805
:104A3E0008080808080808080808080808080808E8
:104A4E0008080808080808080808080808080808D8
:104A5E0008080808080808080808080808080808C8
:104A6E0008080808080808080808080808080808B8
:104A7E0008080808080808080808080808080808A8
:104A8E000808080808080808080808080808080898
:104A9E000808080808080808080808080808080888
:104AAE000808080808080808080808080820005F11
:044ABE0003000000F1
:00000001FF
