:100000000C9469000C9491000C9491000C94910054
:100010000C9491000C9491000C9491000C9491001C
:100020000C9491000C9491000C9491000C9491000C
:100030000C9491000C9491000C9491000C949100FC
:100040000C9469320C9491000C946F010C94BD01D6
:100050000C9491000C9491000C9491000C949100DC
:100060000C9491000C9491000000000024002700E3
:100070002A0000000000250028002B0000000000DE
:1000800023002600290004040404040404040202DA
:100090000202020203030303030301020408102007
:1000A0004080010204081020010204081020000012
:1000B0000007000201000003040600000000000029
:1000C00000009300A5040E12E714DC15221D431F47
:1000D000242811241FBECFEFD8E0DEBFCDBF13E030
:1000E000A0E0B1E0EAEEF0E702C005900D92AC3A74
:1000F000B107D9F714E0ACEAB3E001C01D92A73C08
:10010000B107E1F710E0C2EDD0E004C02297FE0194
:100110000E947A34C23CD107C9F70E945F010C9457
:1001200073380C9400000F938FEB93E060E040E095
:1001300020E000E00E94DB148CEA93E06DEA42ECE0
:1001400021E208E60E94DB1482EB93E00E94B71CD8
:100150000F91089582EB93E00E94E61D892B49F0F0
:1001600082EB93E00E94CA1D682F8DE494E00E9408
:10017000480582EB93E00E943A1D882379F48DE4D0
:1001800094E00E945B058DE494E060E071E00E94E1
:10019000450882EB93E00E945E1DFFCF08950F9308
:1001A0001F93DF93CF93CDB7DEB72C970FB6F8949C
:1001B000DEBF0FBECDBF8DE494E040E051EE60E0C5
:1001C00070E00E94800206C08DE494E06FE071E070
:1001D0000E9448078DE494E00E94A3048823A1F3C1
:1001E0008DE494E00E945B058CE794E06FE871E099
:1001F0000E943014892B39F48DE494E061E171E0C0
:100200000E944508FFCF68EE73E080E090E00E9416
:10021000E5328DE494E069E371E00E9448078E01C5
:100220000F5F1F4FC8016CE774E00E9457128DE406
:1002300094E0B8010E94A7058DE494E066E471E0C3
:100240000E94450886ED91E098878F838091AE03E8
:100250009091AF03A091B003B091B10389879A87C1
:10026000AB87BC8782EB93E0BE01695F7F4F40E5BF
:1002700050E00E94121E892B89F08DE494E064E521
:1002800071E00E94450882EB93E06EE571E00E9408
:10029000450882EB93E00E945B0506C08DE494E084
:1002A0006DE771E00E9445082C960FB6F894DEBF0A
:1002B0000FBECDBFCF91DF911F910F910895CF93C6
:1002C000DF930E940B330E94CF00CAEAD1E00E9464
:1002D000AA002097E1F30E94AA01F9CF08951F9286
:1002E0000F920FB60F9211242F933F934F938F933A
:1002F0009F93EF93FF938091C00082FD1DC04091BA
:10030000C60020910504309106042F5F3F4F2F73E4
:10031000307080910704909108042817390771F014
:10032000E0910504F0910604EB53FC4F40833093B9
:1003300006042093050402C08091C600FF91EF914E
:100340009F918F914F913F912F910F900FBE0F90E2
:100350001F901895E0915904F0915A04E05CFF4F0A
:100360008191919120813181821B930B8F739070C9
:10037000892B11F00E946E0108951F920F920FB603
:100380000F9211242F933F938F939F93EF93FF939B
:100390002091490430914A0480914B0490914C047F
:1003A0002817390731F48091C1008F7D8093C100F7
:1003B00014C0E0914B04F0914C04E75FFB4F2081A7
:1003C00080914B0490914C0401968F7390709093A0
:1003D0004C0480934B042093C600FF91EF919F91B2
:1003E0008F913F912F910F900FBE0F901F901895F6
:1003F0008F929F92AF92BF92CF92DF92EF92FF9235
:100400000F931F93DF93CF93CDB7DEB7FC01138219
:10041000128288EE93E0A0E0B0E084839583A68307
:10042000B7838FE991E091838083758764875787CD
:100430004687318B208B138B028BF58AE48AD78A0F
:10044000C68AB18EA08E938E828E8F85848F888986
:10045000858F8989868F8A89878F8B8980A3CF91A1
:10046000DF911F910F91FF90EF90DF90CF90BF90A1
:10047000AF909F908F9008958F929F92AF92BF926E
:10048000CF92DF92EF92FF920F931F93DF93CF9360
:10049000CDB7DEB7FC011382128288EE93E0A0E0B4
:1004A000B0E084839583A683B7838FE991E091833D
:1004B00080837587648757874687318B208B138BA2
:1004C000028BF58AE48AD78AC68AB18EA08E938E73
:1004D000828E8F85848F8889858F8989868F8A8986
:1004E000878F8B8980A3CF91DF911F910F91FF9010
:1004F000EF90DF90CF90BF90AF909F908F90089536
:10050000AF92BF92DF92EF92FF920F931F93CF9320
:10051000DF93EC017A018B01DD24403081EE580736
:1005200080E0680780E0780711F0DD24D39491E043
:10053000A92EB12CEC89FD89DD2069F0C50108A048
:1005400002C0880F991F0A94E2F7808360E079E087
:100550008DE390E005C0108260E874E88EE190E0E1
:10056000A80197010E94043421503040404050407F
:10057000569547953795279580E12030380720F02C
:10058000DD2011F0DD24D6CFE889F9893083EA89AE
:10059000FB89208319A2EE89FF89408121E030E0A8
:1005A000C9010C8C02C0880F991F0A94E2F7482BEE
:1005B0004083EE89FF894081C9010D8C02C0880FFC
:1005C000991F0A94E2F7482B4083EE89FF89408106
:1005D000C9010E8C02C0880F991F0A94E2F7482BBC
:1005E0004083EE89FF8980810F8C02C0220F331F68
:1005F0000A94E2F7209528232083DF91CF911F9161
:100600000F91FF90EF90DF90BF90AF900895AF9261
:10061000BF92CF92DF92EF92FF920F931F93CF93EF
:10062000DF93EC017A018B01C22EDD24403081EE94
:10063000580780E0680780E0780711F0DD24D39444
:1006400071E0A72EB12CEC89FD89DD2069F0C50190
:1006500008A002C0880F991F0A94E2F7808360E027
:1006600079E08DE390E005C0108260E874E88EE1E7
:1006700090E0A80197010E9404342150304040408E
:100680005040569547953795279580E1203038079B
:1006900020F0DD2011F0DD24D6CFE889F989308300
:1006A000EA89FB892083E88DF98DC082EE89FF8974
:1006B000408121E030E0C9010C8C02C0880F991FF5
:1006C0000A94E2F7482B4083EE89FF894081C901F3
:1006D0000D8C02C0880F991F0A94E2F7482B4083C3
:1006E000EE89FF894081C9010E8C02C0880F991FD5
:1006F0000A94E2F7482B4083EE89FF8980810F8CB2
:1007000002C0220F331F0A94E2F72095282320838A
:10071000DF91CF911F910F91FF90EF90DF90CF90DD
:10072000BF90AF900895CF93DF93DC011E968D911B
:100730009C911F97EC01C05CDF4FFC01EE5BFF4F0B
:10074000288139818081918128173907C9F7569608
:10075000ED91FC915797408121E030E0C9015C9612
:100760000C905C9702C0880F991F0A94E2F780955D
:10077000842380835696ED91FC9157974081C9015F
:100780005D960C905D9702C0880F991F0A94E2F75E
:100790008095842380835696ED91FC9157974081F4
:1007A000C9015E960C905E9702C0880F991F0A944B
:1007B000E2F78095842380835696ED91FC915797BC
:1007C00080815F960C905F9702C0220F331F0A94BE
:1007D000E2F72095282320831C96ED91FC911D972C
:1007E000EE5BFF4F8081918192938293DF91CF9155
:1007F0000895DC011C96ED91FC911D97E05CFF4F84
:100800002191319180819181281B390B2F73307098
:10081000C9010895DC011C96ED91FC911D97E05CE7
:10082000FF4F20813181E054F040DF01AE5BBF4FCC
:100830008D919C9111972817390719F42FEF3FEFED
:1008400007C08D919C91E80FF91F8081282F30E01F
:10085000C9010895DC011C96ED91FC911D97E05CA7
:10086000FF4F20813181E054F040DF01AE5BBF4F8C
:100870008D919C9111972817390719F42FEF3FEFAD
:1008800010C08D919C911197E80FF91F20818D91D7
:100890009C91119701968F73907011969C938E93F3
:1008A00030E0C9010895DC0191968C9191978823DD
:1008B00039F05496ED91FC915597808186FFF9CFE0
:1008C00091961C920895CF93DF93EC01EE85FF85FE
:1008D000E05CFF4F20813181E054F0402F5F3F4FBB
:1008E0002F733070DF01AE5BBF4F8D919C911197DC
:1008F00028173907D1F3E05CFF4F80819181E054E4
:10090000F040E80FF91F6083EE85FF85E05CFF4F44
:1009100031832083EE89FF89208181E090E00F8C74
:1009200002C0880F991F0A94E2F7282B208381E0E8
:1009300089A3EC89FD8980818064808381E090E0D7
:10094000DF91CF91089581E00895109250041092A4
:100950004F0488EE93E0A0E0B0E0809351049093C0
:100960005204A0935304B09354048FE991E0909300
:100970004E0480934D0485EC93E090935A04809349
:10098000590489E094E090935C0480935B0485ECC7
:1009900090E090935E0480935D0484EC90E09093EB
:1009A000600480935F0480EC90E0909362048093F5
:1009B000610481EC90E0909364048093630482EC82
:1009C00090E0909366048093650486EC90E09093A9
:1009D00068048093670484E08093690483E08093D3
:1009E0006A0487E080936B0485E080936C0481E067
:1009F00080936D040895CF92DF92EF92FF920F9350
:100A00001F93CF93DF937C016B018A01C0E0D0E09C
:100A10000FC0D6016D916D01D701ED91FC91019050
:100A2000F081E02DC7010995C80FD91F0150104072
:100A30000115110571F7CE01DF91CF911F910F9133
:100A4000FF90EF90DF90CF900895EF92FF920F9379
:100A50001F93CF93DF937C018B01C0E0D0E0F801BE
:100A60000F5F1F4F6491662359F0D701ED91FC9100
:100A70000190F081E02DC7010995C80FD91FEFCF74
:100A8000CE01DF91CF911F910F91FF90EF900895CC
:100A9000DC01ED91FC910190F081E02D0995089524
:100AA0009C01DB01ED91FC910190F081E02DCB01E7
:100AB000B90109950895EF92FF920F931F938C014E
:100AC000DC01ED91FC910190F081E02D6DE0099544
:100AD0007C01D801ED91FC910190F081E02DC801DD
:100AE0006AE009959C012E0D3F1DC9011F910F91D0
:100AF000FF90EF900895EF92FF920F931F937C0168
:100B00000E9425058C01C7010E945B059C01200FF6
:100B1000311FC9011F910F91FF90EF900895EF923F
:100B2000FF920F931F937C01DC01ED91FC910190EA
:100B3000F081E02D09958C01C7010E945B05080F2B
:100B4000191FC8011F910F91FF90EF900895EF9228
:100B5000FF920F931F937C01DB01ED91FC910190BB
:100B6000F081E02DCB01B70109958C01C7010E94EE
:100B70005B05080F191FC8011F910F91FF90EF909F
:100B80000895CF93DF93EC016115710519F420E00E
:100B900030E00FC0DB010D900020E9F71197A61B94
:100BA000B70BE881F9810280F381E02DAD01099551
:100BB0009C01C901DF91CF9108954F925F927F927E
:100BC0008F929F92AF92BF92CF92DF92EF92FF925D
:100BD0000F931F93DF93CF93CDB7DEB7A1970FB6D7
:100BE000F894DEBF0FBECDBF2C01742ECB01223096
:100BF00008F42AE019A231E2C32ED12CCC0EDD1E5E
:100C0000822E9924AA24BB24672D752FA501940157
:100C10000E94043479018A01C801B701A501940139
:100C20000E94E533472D461B0894C108D1084A307D
:100C300014F4405D01C0495CF6014083E114F10405
:100C40000105110521F07E2C5F2DC801DDCFC20109
:100C5000B6010E94C105A1960FB6F894DEBF0FBE83
:100C6000CDBFCF91DF911F910F91FF90EF90DF905B
:100C7000CF90BF90AF909F908F907F905F904F905C
:100C80000895DC012115310541F4ED91FC910190AD
:100C9000F081E02D642F099508950E94DD050895E7
:100CA000EF92FF920F931F937C010E9441068C01EB
:100CB000C7010E945B059C01200F311FC9011F91D4
:100CC0000F91FF90EF900895EF92FF920F931F9373
:100CD0009A017B0100E010E0B801A7010E944106E3
:100CE0001F910F91FF90EF900895CF92DF92EF92B6
:100CF000FF920F931F936C017B019A0100E010E0BB
:100D0000B801A7010E9441068C01C6010E945B0543
:100D1000080F191FC8011F910F91FF90EF90DF90EE
:100D2000CF900895EF92FF920F931F939A01E62EB2
:100D3000FF2400E010E0B801A7010E9441061F91C6
:100D40000F91FF90EF900895CF92DF92EF92FF9274
:100D50000F931F936C01E62E9A01FF2400E010E030
:100D6000B801A7010E9441068C01C6010E945B05E3
:100D7000080F191FC8011F910F91FF90EF90DF908E
:100D8000CF900895CF92DF92EF92FF920F931F932F
:100D9000CF93DF93EC016A017B012115310541F40A
:100DA000E881F9810190F081E02D642F09951FC041
:100DB0002A303105D1F477FF17C0E881F98101901D
:100DC000F081E02D6DE209958C0144275527BA0189
:100DD0004C195D096E097F09CE012AE00E94DD05EC
:100DE0009801280F391F04C02AE00E94DD059C01EC
:100DF000C901DF91CF911F910F91FF90EF90DF908C
:100E0000CF900895EF92FF920F931F937C010E9461
:100E1000C2068C01C7010E945B059C01200F311F97
:100E2000C9011F910F91FF90EF900895EF92FF92EB
:100E30000F931F937B019A010027F7FC0095102F59
:100E4000B801A7010E94C2061F910F91FF90EF9079
:100E50000895CF92DF92EF92FF920F931F936C0150
:100E60007B019A010027F7FC0095102FB801A7011C
:100E70000E94C2068C01C6010E945B05080F191F63
:100E8000C8011F910F91FF90EF90DF90CF900895D0
:100E90000E94C10508957F928F929F92AF92BF9258
:100EA000CF92DF92EF92FF920F931F93CF93DF9336
:100EB0004C017A018B01722ECB01BA01A801970176
:100EC0000E941E2F882321F0C4016BEB71E021C02A
:100ED000C0E0D0E057016801E894D7F8C601B50139
:100EE0002FEF3FEF4FE75FE70E941E2F882351F45B
:100EF000C601B5012FEF3FEF4FE75FE70E94EE2EEF
:100F0000181614F0C1E0D0E0219739F0C4016FEB5E
:100F100071E00E94C105EC0193C0C801B7012FEF39
:100F20003FEF4FE75FE40E945E2E181654F0C801B1
:100F3000B7012FEF3FEF4FE75FEC0E94BE2E8823F3
:100F400024F4C40163EC71E0E4CFC801B70120E0F0
:100F500030E040E050E00E94BE2E87FD03C0C0E0BC
:100F6000D0E00EC0D401ED91FC910190F081E02D14
:100F7000C4016DE20995EC0117FB109517F9109566
:100F800020E030E040E05FE3DD240BC0CA01B9019E
:100F900020E030E040E251E40E94B22D9B01AC0120
:100FA000D394D71498F3C801B7010E948B2C5B012E
:100FB0006C010E94E22A7B018C01C401B801A701E7
:100FC0002AE030E00E944106C80FD91F772039F08F
:100FD000C40167EC71E00E94C105C80FD91FC801A8
:100FE000B7010E94FB2F9B01AC01C601B5010E9415
:100FF0005A2C24C020E030E040E251E40E94B82C9A
:101000007B018C010E94A72F5B016C01CC24B7FCF3
:10101000C094DC2CC401B601A5012AE030E00E9496
:10102000C206C80FD91FC601B5010E94492F9B01F6
:10103000AC01C801B7010E945A2C7A947720D1F6EE
:10104000CE01DF91CF911F910F91FF90EF90DF9034
:10105000CF90BF90AF909F908F907F9008950E9407
:101060004B070895EF92FF920F931F937C010E940C
:101070004B078C01C7010E945B05080F191FC801AF
:101080001F910F91FF90EF900895EF92FF920F93B1
:101090001F937C010E94C1058C01C7010E945B0562
:1010A000080F191FC8011F910F91FF90EF9008952D
:1010B000AF92BF92CF92DF92EF92FF920F931F9366
:1010C000CF93DF935C016B01EE24FF24C0E0D0E0FE
:1010D00010C0D501ED91FC9100811181C601BE01C6
:1010E0000E94D208682FC501F8010995E80EF91E83
:1010F0002196F60184819581C817D90750F3C7015D
:10110000DF91CF911F910F91FF90EF90DF90CF90E3
:10111000BF90AF900895EF92FF920F931F937C01C1
:101120000E9458088C01C7010E945B059C01200F9A
:10113000311FC9011F910F91FF90EF900895FC019D
:10114000848195816817790748F40190F081E02D3A
:10115000309721F0E60FF71F8081089580E0089511
:10116000FC01848195816817790730F40190F08142
:10117000E02DE60FF71F40830895FC019B01848159
:1011800095816817790728F460817181611571056F
:1011900029F410926F046FE674E002C0620F731FAF
:1011A000CB010895FC01848195816817790748F483
:1011B0000190F081E02D309721F0E60FF71F80813C
:1011C000089580E00895FC010190F081E02D3097B2
:1011D00029F40895861709F4408331968081882385
:1011E000C9F70895FC0180819181009729F420E0DE
:1011F00030E040E050E004C00E94E3369B01AC01C7
:10120000B901CA010895CF92DF92EF92FF920F9336
:101210001F93CF93DF936C01DC01ED90FC9011974D
:10122000E114F10409F441C01496CD91DC911597B5
:101230002097D9F1870102C00F5F1F4FF80180810D
:10124000992787FD90950E940A37892BA9F7219746
:10125000CE0DDF1D01C021978881992787FD9095CC
:101260000E940A37892B19F0C017D107A0F7FE0199
:101270003196E01BF10BD6011596FC93EE93149773
:101280002D913C912017310728F4C901B801AF0115
:101290000E942F37D601ED91FC91119714968D91F4
:1012A0009C911597E80FF91F1082DF91CF911F9144
:1012B0000F91FF90EF90DF90CF900895CF93DF9341
:1012C000FC01C081D181209739F409C0992787FD9D
:1012D00090950E941A37899388818823B9F7DF9106
:1012E000CF910895CF93DF93FC01C081D1812097E6
:1012F00039F409C0992787FD90950E941237899388
:1013000088818823B9F7DF91CF910895EF92FF92FA
:101310000F931F93CF93DF93FC01DB018617970791
:1013200039F12481358114968D919C911597281758
:10133000390701F5232BE1F0E080F180CD91DC91BC
:1013400013C0992787FD90950E9412378C018881E0
:10135000992787FD90950E9412370817190751F4B5
:101360000894E11CF11C2196F7018081882349F73C
:1013700081E001C080E0DF91CF911F910F91FF903C
:10138000EF900895AF92BF92CF92DF92EF92FF92CB
:101390000F931F93CF93DF93FC015B017A01DB0175
:1013A00014962D913C9115972115310559F18481A1
:1013B0009581009739F18217930720F14817590753
:1013C00020F07C010894E108F10800811181C80136
:1013D000CFEFDFEF6801CE0CDF1C10C0F50160819C
:1013E00071810E948D379C01009771F0801B910BD9
:1013F000E816F90608F0EC01C9010196C816D906ED
:1014000068F702C0CFEFDFEFCE01DF91CF911F91E0
:101410000F91FF90EF90DF90CF90BF90AF90089525
:10142000FC01DB014481558114968D919C911597A7
:10143000481B590BCF010E94C2090895CF93DF9337
:10144000FC01DB01848195814817590760F4C08154
:10145000D1816D917C91CE01840F951F0E948D37B3
:101460009C01009719F42FEF3FEF02C02C1B3D0B9E
:10147000C901DF91CF91089540E050E00E941E0A1B
:101480000895DF92EF92FF920F931F93CF93DF9314
:10149000EC018C819D8148175907C8F47A010894A2
:1014A000E11CF11CE881F981EE0DFF1DD080108256
:1014B00008811981772767FD7095C8010E948237DE
:1014C0009C010E0D1F1DF801D082009719F4EFEF5B
:1014D000FFEF05C088819981F901E81BF90BCF0165
:1014E000DF91CF911F910F91FF90EF90DF900895C2
:1014F000FC0144815581415050400E94410A0895A9
:10150000CF93DF93FC01848195814817590768F4D4
:10151000C081D181772767FD7095CE01840F951F1B
:101520000E944A379C01009719F42FEF3FEF02C049
:101530002C1B3D0BC901DF91CF91089540E050E095
:101540000E94800A08950F931F93CF93DF93FC01AD
:101550008B0141155105F9F061157105E1F08481A8
:1015600095812817390718F0FB01108214C04150EB
:101570005040EC01C21BD30B4C175D0708F4EA0185
:1015800060817181620F731FC801AE010E947337C1
:10159000C00FD11F1882DF91CF911F910F91089535
:1015A000FC01DB012481358114964D915C911597E6
:1015B00024173507A8F080819181009789F06D91FB
:1015C0007C916115710561F0241B350B820F931F0F
:1015D0000E9455379C0180E0232B19F481E0089587
:1015E00080E00895DC01FB0114968D919C91159784
:1015F000892B31F461157105A9F090E0808108C054
:101600000D90BC91A02D6115710529F490E08C918D
:10161000882349F407C0CD010E9455379C0190E012
:10162000232B09F491E0892F0895CF93DF939C0138
:10163000FB01EC01A881B981109729F060817181CB
:1016400061157105D1F4C081D181209759F0848151
:101650009581892B39F0888190E022273327281B38
:10166000390B12C0109771F0F90184819581892B93
:1016700049F08C91282F30E007C0CD010E945537EA
:101680009C0102C020E030E0C901DF91CF910895B4
:101690000E94150B892F8095881F8827881F089521
:1016A0000E94150B20E0181619060CF021E0822F7D
:1016B00008950E94150B20E0181619060CF421E07D
:1016C000822F08950E94150B892F881F8827881F55
:1016D0000895FC01DB012481358114968D919C9144
:1016E00015972817390711F020E007C0CF010E9495
:1016F000150B20E0892B09F421E0822F0895FC01CD
:10170000DB0114962D913C91159784819581821B64
:10171000930B84179507A0F080819181009781F049
:101720006D917C916115710559F0840F951FA90188
:101730000E9465379C0180E0232B19F481E0089515
:1017400080E00895FC01DB012481358114968D91A0
:101750009C9115972817390710F480E00895CF0160
:1017600040E050E00E947F0B08950F931F93CF93AA
:10177000DF93EC018B016F5F7F4F888199810E941D
:101780001436009711F480E005C0998388831B8389
:101790000A8381E0DF91CF911F910F9108952F92DD
:1017A0003F924F925F926F927F928F929F92AF92F1
:1017B000BF92CF92DF92EF92FF920F931F93CF933E
:1017C000DF935C012B014A01DC0114960D911C9101
:1017D00015970115110509F4D4C0FB01C480D5800B
:1017E000C114D10409F4CDC0DA0114966D907C9037
:1017F00015976C187D08FC01E080F180611471047C
:1018000091F01BC0D4016C9111967C9111971496A4
:101810004D915C9115978C2F0E942F37F401E48035
:10182000F580EC0EFD1ED2016D917C91C7010E94E6
:101830008D37EC01009731F7A4C077FE02C0670135
:101840002EC0FB0120803180E8013CC08E010E19C2
:101850001F09C601B701A8010E942F370C0D1D1DDD
:10186000D4016C9111967C91119714964D915C91D5
:101870001597C8010E942F37F401C480D580C00E8F
:10188000D11ED2011496ED90FC901597EC0EFD1E22
:10189000F50184819581860D971D95838483D201FE
:1018A0006D917C91C7010E948D37EC01009771F614
:1018B000C601B7010E945E3764C07B01EC0CFD1CC1
:1018C000C60DD71DC701B1010E948D37BC0100971D
:1018D000A1F7C017D10709F454C0F50182819381A3
:1018E0008C179D0708F044C0C501BE010E94B50BCE
:1018F0008823F1F546C0C501B201A9010E94C209C1
:10190000EC0197FD3EC0D5016D917C911197F201DC
:10191000848195818C0F9D1F680F791F14964D91BE
:101920005C911597481B590BCB01860D971D0E94A2
:101930003837D50114968D919C911597860D971D7A
:1019400015969C938E931497ED91FC911197E80F47
:10195000F91F10822D913C912C0F3D1FF4016081E5
:10196000718144815581C9010E942F379E0105C0B4
:10197000D50114962D913C9115972150304037FF99
:10198000BACFDF91CF911F910F91FF90EF90DF9031
:10199000CF90BF90AF909F908F907F906F905F900F
:1019A0004F903F902F900895CF93DF93EC01888163
:1019B0009981892B29F08A819B818617970760F48A
:1019C000CE010E94B50B882341F08C819D81892B2B
:1019D00019F4E881F981108281E0DF91CF910895B7
:1019E000EF92FF920F931F93CF93DF93EC017B0154
:1019F0006C817D81E114F104C1F04115510599F02C
:101A00008A01060F171FB8010E94D40C882369F0C1
:101A1000888199812C813D81820F931FB7010E949B
:101A20005E371D830C8381E001C080E0DF91CF91A0
:101A30001F910F91FF90EF900895EF92FF920F93F7
:101A40001F93DF93CF93CDB7DEB72B970FB6F894E4
:101A5000DEBF0FBECDBF7C01CB01BA018E010F5F8F
:101A60001F4FA8012AE030E00E941138F8010190D0
:101A70000020E9F73197E01BF10BC701B801AF0176
:101A80000E94F00C2B960FB6F894DEBF0FBECDBFB0
:101A9000CF91DF911F910F91FF90EF900895EF92FA
:101AA000FF920F931F93DF93CF93CDB7DEB72C97A1
:101AB0000FB6F894DEBF0FBECDBF7C01CB01BA01DB
:101AC0008E010F5F1F4FA8012AE030E00E94C83747
:101AD000F80101900020E9F73197E01BF10BC701F5
:101AE000B801AF010E94F00C2C960FB6F894DEBF3F
:101AF0000FBECDBFCF91DF911F910F91FF90EF905F
:101B00000895EF92FF920F931F93DF93CF9300D02E
:101B100000D000D0CDB7DEB77C01CB018E010F5FC6
:101B20001F4FB8014AE050E00E943638F80101909A
:101B30000020E9F73197E01BF10BC701B801AF01B5
:101B40000E94F00C26960FB6F894DEBF0FBECDBFF4
:101B5000CF91DF911F910F91FF90EF900895EF9239
:101B6000FF920F931F93DF93CF93CDB7DEB72797E5
:101B70000FB6F894DEBF0FBECDBF7C01CB018E0146
:101B80000F5F1F4FB8014AE050E00E94A737F801ED
:101B900001900020E9F73197E01BF10BC701B80174
:101BA000AF010E94F00C27960FB6F894DEBF0FBE6F
:101BB000CDBFCF91DF911F910F91FF90EF900895CE
:101BC000EF92FF920F931F93DF93CF9300D000D03B
:101BD000CDB7DEB77C01862F90E08E010F5F1F4FDF
:101BE000B8014AE050E00E94A737F80101900020B8
:101BF000E9F73197E01BF10BC701B801AF010E9473
:101C0000F00C0F900F900F900F90CF91DF911F91DC
:101C10000F91FF90EF900895DF93CF9300D0CDB751
:101C2000DEB769831A82BE016F5F7F4F41E050E0EB
:101C30000E94F00C0F900F90CF91DF9108956115E5
:101C4000710511F480E00895DB010D900020E9F7A3
:101C50001197A61BB70BAD010E94F00C0895FB0174
:101C600060817181448155810E94F00C0895CF9369
:101C7000DF93EC0188819981009711F00E941B3558
:101C8000198218821D821C821B821A82DF91CF91D9
:101C900008950F931F93182F092F0E941D0D88235D
:101CA00021F4812F902F0E94370E812F902F1F91AA
:101CB0000F9108950F931F93182F092F0E944F0D16
:101CC000882321F4812F902F0E94370E812F902F8F
:101CD0001F910F9108950F931F93182F092F0E94A2
:101CE000810D882321F4812F902F0E94370E812FA0
:101CF000902F1F910F9108950F931F93182F092F65
:101D00000E94AF0D882321F4812F902F0E94370E5F
:101D1000812F902F1F910F9108950F931F93182FCC
:101D2000092F0E94E00D882321F4812F902F0E941B
:101D3000370E812F902F1F910F9108950F931F93AE
:101D4000182F092F0E940C0E882321F4812F902F29
:101D50000E94370E812F902F1F910F9108950F939E
:101D60001F93182F092F6115710561F0DB010D908C
:101D70000020E9F71197A61BB70BAD010E94F00CEC
:101D8000882321F4812F902F0E94370E812F902FCE
:101D90001F910F9108950F931F93182F092FFB0187
:101DA00060817181448155810E94F00C882321F467
:101DB000812F902F0E94370E812F902F1F910F910E
:101DC0000895EF92FF920F931F93CF93DF93EC014F
:101DD0007B018A01BA010E94D40C882321F4CE0130
:101DE0000E94370E07C01D830C8388819981B7013B
:101DF0000E945E37CE01DF91CF911F910F91FF902E
:101E0000EF900895CF93DF93EC01198218821B8223
:101E10001A821D821C821E826115710551F0DB0140
:101E20000D900020E9F71197A61BB70BAD010E949A
:101E3000E10EDF91CF910895CF93DF93EC011982EA
:101E400018821B821A821D821C821E8261157105F6
:101E500051F0DB010D900020E9F71197A61BB70B9D
:101E6000AD010E94E10EDF91CF9108950F931F9372
:101E7000182F092F6115710559F0DB010D90002015
:101E8000E9F71197A61BB70BAD010E94E10E02C046
:101E90000E94370E812F902F1F910F910895EF927E
:101EA000FF920F931F93DF93CF93CDB7DEB7A19728
:101EB0000FB6F894DEBF0FBECDBF8C01FC011182BE
:101EC000108213821282158214821682CB01BA010B
:101ED0007E010894E11CF11CA70130E00E9411383A
:101EE000C801B7010E94360FA1960FB6F894DEBF65
:101EF0000FBECDBFCF91DF911F910F91FF90EF905B
:101F00000895EF92FF920F931F93DF93CF93CDB776
:101F1000DEB7A1970FB6F894DEBF0FBECDBF8C0120
:101F2000FC011182108213821282158214821682A1
:101F3000CB01BA017E010894E11CF11CA70130E03D
:101F40000E941138C801B7010E94360FA1960FB642
:101F5000F894DEBF0FBECDBFCF91DF911F910F91DF
:101F6000FF90EF900895EF92FF920F931F93DF93EE
:101F7000CF93CDB7DEB7A2970FB6F894DEBF0FBEF2
:101F8000CDBF8C01FC011182108213821282158256
:101F900014821682CB01BA017E010894E11CF11C67
:101FA000A70130E00E94C837C801B7010E94360F70
:101FB000A2960FB6F894DEBF0FBECDBFCF91DF91D2
:101FC0001F910F91FF90EF900895EF92FF920F9362
:101FD0001F93DF93CF93CDB7DEB7A2970FB6F894D8
:101FE000DEBF0FBECDBF8C01FC01118210821382B7
:101FF0001282158214821682CB01BA017E010894E6
:10200000E11CF11CA70130E00E94C837C801B701EC
:102010000E94360FA2960FB6F894DEBF0FBECDBF5A
:10202000CF91DF911F910F91FF90EF900895EF9264
:10203000FF920F931F93DF93CF93CDB7DEB76197D6
:102040000FB6F894DEBF0FBECDBF8C01CB01F801F7
:1020500011821082138212821582148216827E01EE
:102060000894E11CF11CB70150E00E943638C80109
:10207000B7010E94360F61960FB6F894DEBF0FBE0F
:10208000CDBFCF91DF911F910F91FF90EF900895F9
:10209000EF92FF920F931F93DF93CF93CDB7DEB7ED
:1020A00061970FB6F894DEBF0FBECDBF8C01CB0198
:1020B000F801118210821382128215821482168214
:1020C0007E010894E11CF11CB70150E00E943638F3
:1020D000C801B7010E94360F61960FB6F894DEBFB3
:1020E0000FBECDBFCF91DF911F910F91FF90EF9069
:1020F0000895EF92FF920F931F93DF93CF93CDB785
:10210000DEB762970FB6F894DEBF0FBECDBF8C016D
:10211000CB01F8011182108213821282158214827F
:1021200016827E010894E11CF11CB70150E00E9468
:10213000A737C801B7010E94360F62960FB6F89410
:10214000DEBF0FBECDBFCF91DF911F910F91FF90EA
:10215000EF900895EF92FF920F931F93DF93CF9329
:10216000CDB7DEB762970FB6F894DEBF0FBECDBF16
:102170008C01CB01F8011182108213821282158228
:10218000148216827E010894E11CF11CB70150E014
:102190000E94A737C801B7010E94360F62960FB69A
:1021A000F894DEBF0FBECDBFCF91DF911F910F918D
:1021B000FF90EF900895EF92FF920F931F93DF939C
:1021C000CF93CDB7DEB729970FB6F894DEBF0FBE19
:1021D000CDBF8C01862FF8011182108213821282EA
:1021E00015821482168290E07E010894E11CF11C95
:1021F000B70150E00E943638C801B7010E94360F7F
:1022000029960FB6F894DEBF0FBECDBFCF91DF91F8
:102210001F910F91FF90EF900895EF92FF920F930F
:102220001F93DF93CF93CDB7DEB729970FB6F894FE
:10223000DEBF0FBECDBF8C01862FF8011182108248
:102240001382128215821482168290E07E01089415
:10225000E11CF11CB70150E00E943638C801B701FB
:102260000E94360F29960FB6F894DEBF0FBECDBF81
:10227000CF91DF911F910F91FF90EF900895DF9321
:10228000CF9300D0CDB7DEB7FC011182108213824C
:10229000128215821482168269831A82BE016F5FD0
:1022A0007F4F0E94360F0F900F90CF91DF910895CE
:1022B000DF93CF9300D0CDB7DEB7FC01118210823F
:1022C0001382128215821482168269831A82BE01D9
:1022D0006F5F7F4F0E94360F0F900F90CF91DF916D
:1022E0000895BF92CF92DF92EF92FF920F931F93C8
:1022F000CF93DF93082FB92E6B017A01E9012417E0
:10230000350710F4EA017901802F9B2D61ED71E012
:102310000E94020FD60114968D919C9115978E15EF
:102320009F05D0F08C179D0708F4EC01D601ED91C4
:10233000FC911197EC0FFD1F108110826D917C9123
:102340006E0D7F1D802F9B2D0E94360FD601ED91C3
:10235000FC91EC0FFD1F1083802F9B2DDF91CF91FF
:102360001F910F91FF90EF90DF90CF90BF90089555
:102370000F931F938C01FB01248135810E94711101
:10238000C8011F910F910895CF93DF93EC01FB01DA
:102390008617970761F0608171816115710529F0D9
:1023A000448155810E94E10E02C00E94370ECE0189
:1023B000DF91CF910895FC01118210821382128265
:1023C0001582148216820E94C4110895FC011182A4
:1023D0001082138212821582148216820E94C41106
:1023E0000895FC01808191810E941B350895FC01B4
:1023F000808191810E941B350895DB01FC0126ED4F
:1024000031E03183208312962D913D914D915C9165
:102410001597228333834483558308950F9384E86B
:1024200094E060E040E020E000E00E94DB148CE7F4
:1024300094E00E94B4150F910895EF92FF920F93CC
:102440001F93182F092FE82EF92EC7010E94B415EB
:1024500082E090E0E80EF91E81E090E0B70144E0F0
:1024600050E00E946622812F902F1F910F91FF90C4
:10247000EF900895EF92FF920F931F93182F092F5B
:10248000E82EF92EC7010E94B41582E090E0E80E14
:10249000F91E85E090E0B70144E050E00E9466221A
:1024A000812F902F1F910F91FF90EF900895EF9241
:1024B000FF920F931F93182F092FE82EF92EC701B3
:1024C0000E94B41582E090E0E80EF91E8FE090E0E3
:1024D000B70144E050E00E946622812F902F1F91A7
:1024E0000F91FF90EF900895EF92FF920F931F933B
:1024F000DF93CF93CDB7DEB768970FB6F894DEBF02
:102500000FBECDBF8C01FC0186819781009719F425
:10251000EE24FF244BC00E94661B7C018230910593
:1025200029F084E0E816F10409F040C0F801668162
:102530007781CE0101960E9413168FE090E0BE01D4
:102540006D5F7F4F44E050E00E943A21F8016681C0
:102550007781CE0107960E94FD1581E090E0BE01D3
:10256000675F7F4F44E050E00E943A21F8016681A6
:102570007781CE010D960E94081685E090E0BE019D
:10258000615F7F4F44E050E00E943A21F80166818C
:102590007781CE0143960E94E7158D899E89AF8988
:1025A000B88DF80182839383A483B583C7016896AD
:1025B0000FB6F894DEBF0FBECDBFCF91DF911F9154
:1025C0000F91FF90EF9008956F927F928F929F925C
:1025D000AF92BF92CF92DF92EF92FF920F931F9331
:1025E0003C015B016A01490182EA94E00E942523D3
:1025F00089E090E0B50146E050E00E943A2182E097
:1026000090E0C80ED91E8FE090E0B60144E050E0A3
:102610000E943A210E5F1F4F81E090E0B80144E034
:1026200050E00E943A21E2E0F0E0EE0EFF1E85E06D
:1026300090E0B70144E050E00E943A21F401828129
:102640009381A481B581F30182839383A483B583AD
:102650001F910F91FF90EF90DF90CF90BF90AF90C0
:102660009F908F907F906F9008956F927F928F923E
:102670009F92AF92BF92CF92DF92EF92FF920F9311
:102680001F93DF93CF93CDB7DEB76E970FB6F89455
:10269000DEBF0FBECDBF4C013B017A01690158017D
:1026A000CE0101966FEF4FEF2FEF00E00E94DB1499
:1026B00026ED31E038872F83F70182819381A48151
:1026C000B58189879A87AB87BC873E872D87F601BE
:1026D00082819381A481B5818F87988BA98BBA8BD6
:1026E0003C8B2B8BF50182819381A481B5818D8BED
:1026F0009E8BAF8BB88F3A8F298F8B819C81AD8158
:10270000BE818B8F9C8FAD8FBE8FC401B301AE0194
:10271000495F5F4F9E01235F3F4F8E010D5E1F4F4C
:10272000E9E1EE2EF12CEC0EFD1E0E94E4126E96F5
:102730000FB6F894DEBF0FBECDBFCF91DF911F91D2
:102740000F91FF90EF90DF90CF90BF90AF909F9050
:102750008F907F906F9008950F931F93DF93CF9387
:10276000CDB7DEB768970FB6F894DEBF0FBECDBF0A
:10277000FA01D90122813381448155812B833C8325
:102780004D835E83E6EDF1E0F887EF8329873A8792
:102790004B875C87FE87ED8712962D913D914D9179
:1027A0005C9115972F87388B498B5A8BFC8BEB8B61
:1027B00021E02E832B813C814D815E812D8B3E8BD0
:1027C0004F8B588FAE01495F5F4F9E01235F3F4F94
:1027D0008E010D5E1F4F0E94351368960FB6F89458
:1027E000DEBF0FBECDBFCF91DF911F910F91089536
:1027F000DF93CF93CDB7DEB762970FB6F894DEBF05
:102800000FBECDBFFA0122813381448155812B83D4
:102810003C834D835E83E6EDF1E0F887EF83298703
:102820003A874B875C87FE87ED8721E02E832B81DB
:102830003C814D815E812F87388B498B5A8BAE014D
:10284000495F5F4F9E01235F3F4F0E94AC1362962A
:102850000FB6F894DEBF0FBECDBFCF91DF910895C4
:10286000CF92DF92EF92FF920F931F93DF93CF935C
:10287000CDB7DEB76E970FB6F894DEBF0FBECDBFF3
:102880006C017B0182E690E00E94F7268C01895B57
:102890009F4F0E943420F6011783068382EA94E05A
:1028A0000E94252389E090E0B70146E050E00E94B5
:1028B0003A21CE01019660E040E020E000E00E9475
:1028C000DB148FE090E0BE016D5F7F4F44E050E08D
:1028D0000E943A21F60186819781B70120E63AEEFF
:1028E00040E050E0F0EAEF2EFFE0FF2E012D112D29
:1028F0000E945A1C8C018130910509F040C0F601FC
:1029000066817781CE0107960E9413168FE090E0D2
:10291000BE01675F7F4F44E050E00E943A21F6011C
:1029200066817781CE010D960E94FD1581E090E0D1
:10293000BE01615F7F4F44E050E00E943A21F60102
:1029400066817781CE0143960E94081685E090E06B
:10295000BE016B5E7F4F44E050E00E943A21F601D9
:1029600066817781CE0149960E94E7158B8D9C8DFB
:10297000AD8DBE8DF60182839383A483B583C80198
:102980006E960FB6F894DEBF0FBECDBFCF91DF912C
:102990001F910F91FF90EF90DF90CF9008950F93CC
:1029A000FC0186ED91E091838083628343832483DD
:1029B00005830F9108950F93FC0186ED91E09183BB
:1029C000808362834383248305830F91089586ED7A
:1029D00091E090938B0480938A0410928C0410925F
:1029E0008D0410928E0410928F0408958F929F92FE
:1029F000AF92BF92CF92DF92EF92FF920F931F930D
:102A0000CF93DF934C016B017C01AA24BB24C0E06F
:102A1000D0E0C601F70162814AE050E00E949206D0
:102A20008C01C6016EE20E944805080F191FA00E16
:102A3000B11E21960894E11CF11CC330D10549F761
:102A4000C601F40165814AE050E00E9492069501BA
:102A5000280F391FC901DF91CF911F910F91FF906E
:102A6000EF90DF90CF90BF90AF909F908F900895A0
:102A70009C012E5F3F4FCB01B90144E050E00E9422
:102A800022379C0180E0232B09F481E00895DF9335
:102A9000CF9300D000D0CDB7DEB7FC014283538383
:102AA000648375830F900F900F900F90CF91DF91FB
:102AB00008959C01FB0180819181A281B381F9017C
:102AC00082839383A483B583C90108959C01FB018C
:102AD00086ED91E0D9018D939C9380819181A281B3
:102AE000B381F90182839383A483B58308959C0104
:102AF000FB0186ED91E0D9018D939C9380819181BA
:102B0000A281B381F90182839383A483B58308955D
:102B1000DF93CF9300D000D0CDB7DEB7FC0186EDB8
:102B200091E09183808342835383648375830F9004
:102B30000F900F900F90CF91DF910895DF93CF9377
:102B400000D000D0CDB7DEB7FC0186ED91E09183D7
:102B5000808342835383648375830F900F900F901B
:102B60000F90CF91DF910895FC0186ED91E0918364
:102B7000808312821382148215820895FC0186EDEF
:102B800091E09183808312821382148215820895CA
:102B90000895FB0180E38083842F82958F704F70AE
:102BA0004A3014F4405D01C0495C41833197882369
:102BB00011F0482FF1CF08950F9380E994E060E081
:102BC00040E020E000E00E94DB140F9108950F9395
:102BD0001F938C01625E7F4F0E946615C8011F9192
:102BE0000F9108950F931F938C01665E7F4F0E9493
:102BF0006615C8011F910F9108950F931F938C01C3
:102C00006A5E7F4F0E946615C8011F910F9108955B
:102C10000F931F938C016E5E7F4F0E946615C80153
:102C20001F910F9108950F931F938C01625F7F4F47
:102C30000E946615C8011F910F9108952F923F922F
:102C40004F925F926F927F928F929F92AF92BF92BC
:102C5000CF92DF92EF92FF920F931F93DF93CF9368
:102C6000CDB7DEB7E8970FB6F894DEBF0FBECDBF85
:102C70005C013A014B0129010E94B1327B018C01B8
:102C8000F7E4CF2ED12CCA0CDB1C14C00E94B13249
:102C90006E197F09800B910B6616770688069906D8
:102CA00018F477247A941AC262E370E080E090E02E
:102CB0000E94E532C6010E94B71F1816190634F7A4
:102CC000C601BE01635F7F4F42E250E00E94691F70
:102CD0008D85823009F0FEC12CE530E0A20EB31ED6
:102CE000F5018081918124EA3FEFA20EB31E833467
:102CF000910509F0EFC129893A894B895C89E52E54
:102D0000FF2400271127B22FAA2799278827E82A0E
:102D1000F92A0A2B1B2BB42FA32F922F8827807000
:102D20009070B070E82AF92A0A2B1B2B232F342F1E
:102D3000452F5527207040705070E22AF32A042B4B
:102D4000152BF201E082F18202831383B501685FE3
:102D50007F4FCE01899646E050E00E9422370097CF
:102D600099F4F50180819181A281B381E816F90679
:102D70000A071B0748F084819581A681B7818E15CB
:102D80009F05A007B10728F4C6010E94311F7724D0
:102D9000A5C18D8D9E8DAF8DB8A1F50186879787D2
:102DA000A08BB18B00E010E0C6010E948C1F0F5F6A
:102DB0001F4F0E3C1105C1F795012E5E3F4F38AFF6
:102DC0002FABC50146969EAB8DABF5017E96FCAB55
:102DD000EBAB8AE1882E912C8A0C9B1C95012A5D15
:102DE0003F4F3AAB29ABC5018A9698AB8FA702E259
:102DF000202E312C2A0C3B1C772418E5412E512C17
:102E00004A0C5B1C5FC1C6010E948C1F8333910575
:102E100009F414C1843391058CF48130910569F172
:102E20008230910524F4892B09F44CC140C18330D0
:102E3000910551F1069709F03AC142C08A339105D4
:102E400009F490C08B3391053CF48533910569F00A
:102E5000C69709F02CC150C08B33910509F4B8C056
:102E60008F3F910509F023C12DC1C6010E948C1F1F
:102E7000C6010E948C1F782E25C1C6010E948C1F9E
:102E8000C6016FA978AD62C0C6010E948C1F182FC1
:102E9000C6016DA97EA944E050E00E94691FEE249E
:102EA000FF24012F10E00450104006C0C6010E940C
:102EB0008C1F0894E11CF11CE016F106BCF302C162
:102EC000C6010E948C1F182FC6016BA97CA944E083
:102ED00050E00E94691FEE24FF24012F10E00450EF
:102EE000104006C0C6010E948C1F0894E11CF11C12
:102EF000E016F106BCF3E6C0C6010E948C1F182F35
:102F0000F40180819181A281B3810097A105B1056F
:102F1000D9F0CE010196B4010E94661526ED31E08C
:102F200038872F83F20120813181428153812987A3
:102F30003A874B875C878B819C81AD81BE818217EC
:102F40009307A407B50759F4C601B40144E050E063
:102F50000E94691FB7C0C6010E948C1F1150112327
:102F6000D1F7B0C0C6010E948C1FC60169A97AA919
:102F700044E050E00E94691FF50126A137A140A559
:102F800051A5E52EFF2400271127B22FAA27992744
:102F90008827E82AF92A0A2B1B2BB42FA32F922F5C
:102FA000882780709070B070E82AF92A0A2B1B2BB2
:102FB000232F342F452F5527207040705070E22A60
:102FC000F32A042B152BE6A2F7A200A711A77AC0BB
:102FD000C6010E948C1FC6016FA578A944E050E08D
:102FE0000E94691FF50122A533A544A555A5E52E2C
:102FF000FF2400271127B22FAA2799278827E82A1C
:10300000F92A0A2B1B2BB42FA32F922F882780700D
:103010009070B070E82AF92A0A2B1B2B232F342F2B
:10302000452F5527207040705070E22AF32A042B58
:10303000152BE2A6F3A604A715A744C0C6010E945B
:103040008C1FC601B10144E050E00E94691FF501E8
:1030500022A133A144A155A1E52EFF240027112769
:10306000B22FAA2799278827E82AF92A0A2B1B2B8F
:10307000B42FA32F922F882780709070B070E82A09
:10308000F92A0A2B1B2B232F342F452F552720706D
:1030900040705070E22AF32A042B152BE2A2F3A20F
:1030A00004A315A3E6A6F7A600AB11AB0BC0C6019F
:1030B0000E948C1F182F04C0C6010E948C1F115043
:1030C0001123D1F7C6010E94151F181619060CF41A
:1030D0009ACE01C07724C6010E94311F872DE89641
:1030E0000FB6F894DEBF0FBECDBFCF91DF911F9119
:1030F0000F91FF90EF90DF90CF90BF90AF909F9097
:103100008F907F906F905F904F903F902F90089599
:103110000E96FC0184E1DF011D928A95E9F708957E
:103120004F925F926F927F928F929F92AF92BF92D7
:10313000CF92DF92EF92FF920F931F93DF93CF9383
:10314000CDB7DEB7E2970FB6F894DEBF0FBECDBFA6
:103150006C01462E3A01F3E18F2E912C8C0E9D1EB0
:10316000E0E25E2EF401252D11922A95E9F7CE01B9
:1031700007966FEF4FEF2FEF0FEF0E94DB1477E40E
:10318000A72EB12CAC0CBD1C86ED91E09E878D87DF
:1031900089859A85AB85BC858F87988BA98BBA8BDF
:1031A000C501BE01635F7F4F43E450E00E942B20C6
:1031B0008F5F9F4F09F4F3C081E08B8B8C8B86E08F
:1031C0008D8B1E8AF6012481358146815781E52E3B
:1031D000FF2400271127B22FAA2799278827E82A3A
:1031E000F92A0A2B1B2BB42FA32F922F882780702C
:1031F0009070B070E82AF92A0A2B1B2B232F342F4A
:10320000452F5527207040705070E22AF32A042B76
:10321000152BEB82FC820D831E83EF8AF88E098FBB
:103220001A8F7B8E6C8E80E890E09A8389839E8FC4
:103230008D8FC501B4014CE150E00E940B20F401D8
:1032400011925A94E9F7A8E06A2E712C6C0C7D1C3F
:10325000D401F30186E001900D928150E1F78E01D7
:103260000D5E1F4FC501B80140E150E00E940B20E8
:1032700080E2F80111928A95E9F7EE24FF24902E5E
:10328000012FC501692D702F40E250E00E940B20F4
:103290000894E11CF11CF6E0EF16F10491F793E6B7
:1032A0009B8B82E88C8B83E58D8B9E8B85E38F8B4C
:1032B00091E0988F498E8DE38A8F87E08B8F9C8F6A
:1032C000DE015D96F30186E001900D928150E1F7F9
:1032D0008CE08BA38CA38E010D5E1F4FCE018596D3
:1032E0006EED71E00E945E37C601BE01655D7F4FE5
:1032F000F60143850E94C915C601BE01635D7F4F7B
:10330000F60144850E94C915C601BE01615D7F4F6B
:10331000F60145850E94C915C501B8014EE150E08E
:103320000E940B20F3E04F16F1F482E38B8B94E0C4
:103330009C8BF60186858D8B87858E8B80898F8B04
:103340008189888F86E3898F9A8F828D8B8F838D79
:103350008C8F848D8D8F858D8E8FC501B8014CE04B
:1033600050E00E940B2087E38B8B96E09C8B81E0E2
:103370008D8B83E08E8B9F8B8FE0888F8AE3898F84
:103380008BE38A8F8FEF8B8FC501BE016D5E7F4F00
:1033900049E050E00E940B20C5010E942620E296E1
:1033A0000FB6F894DEBF0FBECDBFCF91DF911F9156
:1033B0000F91FF90EF90DF90CF90BF90AF909F90D4
:1033C0008F907F906F905F904F9008952F923F92D3
:1033D0004F925F926F927F928F929F92AF92BF9225
:1033E000CF92DF92EF92FF920F931F93DF93CF93D1
:1033F00000D000D0CDB7DEB78C0161E070E080E096
:1034000090E020ED37E040E050E00E946D27D801C9
:1034100014966C93149715967C93159716968C9327
:10342000169717969C9317976C9311967C93119708
:1034300012968C93129713969C9377E4272E312C37
:10344000200E311EC10164E470E00E94E520882353
:1034500019F46624772422C10E94B1324B015C0129
:103460006624772466E4C62ED12CC00ED11E5EE3FE
:10347000452E512C400E511E42E0E42EFBC0882305
:1034800009F5F80184819581A681B7810196A11D76
:10349000B11D84839583A683B7830E94B1326819D6
:1034A00079098A099B0928EE33E040E050E00E9448
:1034B0000434C80161E0A9010E94901881E0D6019E
:1034C0008C93C2C0843001F5F80184819581A68176
:1034D000B7810196A11DB11D84839583A683B7830F
:1034E0000E94B132681979098A099B0928EE33E0F4
:1034F00040E050E00E940434C80163E0A9010E944A
:103500009018D601EC92A0C0813069F5F20140819B
:10351000518162817381C8019E012F5F3F4F0E94DC
:103520001E16F82EF2E08F1709F089C089819A8162
:10353000AB81BC81F80184839583A683B7830E9405
:10354000B132681979098A099B0928EE33E040E015
:1035500050E00E940434C80163E0A9010E94901861
:10356000D601FC9271C0823009F06EC0F201408138
:10357000518162817381C8019E012F5F3F4F0E947C
:103580001E16F82EF5E08F1709F053C0E3E0D601C0
:10359000EC93F80182A193A1A4A1B5A10097A10584
:1035A000B10541F484E893E0A0E0B0E082A393A3E6
:1035B000A4A3B5A3F80186A197A1A0A5B1A50097E2
:1035C000A105B10561F482A193A1A4A1B5A1B6950D
:1035D000A7959795879586A397A3A0A7B1A7F8016C
:1035E00082A593A5A4A5B5A50097A105B10561F491
:1035F00086A197A1A0A5B1A5880F991FAA1FBB1FDF
:1036000082A793A7A4A7B5A7F80186A197A1A0A513
:10361000B1A586A797A7A0ABB1AB82A593A5A4A59A
:10362000B5A582AB93ABA4ABB5ABA1E06A2E712C70
:103630000BC0F6E08F1719F4D6011C9205C0BFEF3E
:10364000FB1611F4F6011082F1E06F16710491F08F
:103650000E94B132681979098A099B09D801DA9662
:103660002D913D914D915C91DD97261737074807C5
:10367000590728F0F6018081833009F000CFC1019D
:103680000E94D020F80184819581A681B78101969E
:10369000A11DB11D84839583A683B783C3010F90B9
:1036A0000F900F900F90CF91DF911F910F91FF908E
:1036B000EF90DF90CF90BF90AF909F908F907F90D2
:1036C0006F905F904F903F902F9008954F925F9230
:1036D0006F927F928F929F92AF92BF92CF92DF9222
:1036E000EF92FF920F931F93CF93DF93EC010E9411
:1036F000B1325B016C018EA99FA9A8ADB9AD12E4EE
:10370000412E512C4C0E5D1E0097A105B10509F408
:10371000A3C0F20180819181A281B381350146016C
:10372000681A790A8A0A9B0A97FC5BC0F8EEEF2EAA
:10373000F3E0FF2E012D112DEA0CFB1C0C1D1D1DAD
:10374000C401B30128EE33E040E050E00E9426348B
:10375000E61AF70A080B190BD201ED92FD920D93B0
:103760001C931397C401B30128EE33E040E050E00E
:103770000E942634C901DA010196A11DB11D2EA5B2
:103780003FA548A959A93C014D01660C771C881C2E
:10379000991C26153705480559052CF41EA61FA6A9
:1037A00018AA19AA08C0281B390B4A0B5B0B2EA7B5
:1037B0003FA748AB59AB2AA93BA94CA95DA926153F
:1037C0003705480559052CF41AAA1BAA1CAA1DAADC
:1037D00008C0281B390B4A0B5B0B2AAB3BAB4CAB2D
:1037E0005DABFE01EA5BFF4F8081833091F48EA5D3
:1037F0009FA5A8A9B9A9181619061A061B064CF008
:1038000084E08083CE010E94E6199C012F5F3F4F28
:1038100002C020E030E0CA5BDF4F8881C654D04050
:10382000833011F0882381F58AA99BA9ACA9BDA991
:10383000181619061A061B063CF1CA5BDF4F1882E0
:10384000C654D040CE010E948818CE010E94E619CD
:103850009C012D5F3F4F18C088EE93E0A0E0B0E0E0
:10386000A80EB91ECA1EDB1ED201AD92BD92CD922A
:10387000DC92139788E19CEFAFEFBFEFA80EB91E63
:10388000CA1EDB1E20E030E0AEAABFAAC8AED9AE89
:10389000C901DF91CF911F910F91FF90EF90DF90C1
:1038A000CF90BF90AF909F908F907F906F905F90E0
:1038B0004F900895CF92DF92EF92FF920F931F9354
:1038C000CF93DF93EC01D62EC72E1AA21BA21CA207
:1038D0001DA21EA21FA218A619A61AA61BA61CA6E8
:1038E0001DA61EAA1FAA18AE19AE2AAF3BAF4CAF39
:1038F0005DAFEE96E882F9820A831B83EE978E0114
:10390000085F1F4F86E0F80111928A95E9F7CE0112
:103910000E948818D8012D2D3C2DC901FC0186E09C
:1039200001900D928150E1F7CA5BDF4F1882C654B7
:10393000D040CE010E94E619DF91CF911F910F91E7
:10394000FF90EF90DF90CF900895FC0113821282D8
:1039500088EE93E0A0E0B0E084839583A683B783EC
:1039600081EF91E09183808384E084870895FC0156
:103970001382128288EE93E0A0E0B0E08483958306
:10398000A683B78381EF91E09183808384E084876D
:103990000895FC011382128288EE93E0A0E0B0E06B
:1039A00084839583A683B78381EF91E0918380839D
:1039B00064870895FC011382128288EE93E0A0E0F0
:1039C000B0E084839583A683B78381EF91E09183F0
:1039D000808364870895DF93CF930F92CDB7DEB7CE
:1039E000FC016983A081B18112962D913C911397BE
:1039F000BE016F5F7F4F41E050E0F90109950F90E4
:103A0000CF91DF910895CF93DF93EC0107C0E88158
:103A1000F9810680F781E02DCE010995E881F981D1
:103A20000480F581E02DCE010995892B81F7DF9186
:103A3000CF91089520E0FC018485843009F021E0D5
:103A4000822F08950F9386E994E060E040E020E043
:103A500000E00E94DB140F910895FC0184858430FE
:103A600011F480E00895982F80E08D5F9B4F0E94B5
:103A700061210895CF93DF93EC018C85843011F49C
:103A800080E019C0CE010E942D1D843191F0882361
:103A900081F0883171F08C3151F4E881F981048032
:103AA000F581E02DCE01099520E0892B19F021E068
:103AB00001C020E0822FDF91CF910895EF92FF9215
:103AC0000F931F93CF93DF93EC018C85843089F1A2
:103AD0000E9457230E94B1327B018C01CE010E94CB
:103AE0002D1D882301F10E94B1326E197F09800BD0
:103AF000910B685E734080409040A8F461E070E0F4
:103B000080E090E00E94E532E9CF8C850E94B223EC
:103B1000EC85F0E0EE0FFF1FEC58FB4F1182108296
:103B200084E08C8706C0CE010E942D1D882381F37E
:103B3000ECCFDF91CF911F910F91FF90EF900895FF
:103B40000F931F93DF93CF930F92CDB7DEB78C0106
:103B5000DC01ED91FC910480F581E02D0995892B24
:103B600019F42FEF3FEF0AC0F8018485BE016F5FA3
:103B70007F4F0E9495268981282F30E0C9010F9040
:103B8000CF91DF911F910F910895FC0184850E94D0
:103B9000A4260895DF93CF930F92CDB7DEB7FC0133
:103BA0008485BE016F5F7F4F41E050E00E94A426F4
:103BB000181619061CF02FEF3FEF03C08981282F3C
:103BC00030E0C9010F90CF91DF910895FC01648529
:103BD000643019F420E030E005C082EA94E00E94ED
:103BE00017229C01C90108950F931F93CF93DF9370
:103BF0008C01EA01FC018485843019F481E090E0B5
:103C000007C00E946E25892B39F481E090E0F8010D
:103C100093838283C0E0D0E0CE01DF91CF911F91EA
:103C20000F910895AF92BF92CF92DF92EF92FF92E1
:103C30000F931F93CF93DF937C016B015A01FC011B
:103C40008485843009F056C0C0E0D0E003E014E081
:103C5000C8010E946121882321F0883111F08C3144
:103C600019F4F701C48706C0219600501F4FC430D5
:103C7000D10571F7F70124852430E1F18091EB0142
:103C80009091EC0101969093EC018093EB01892BCC
:103C900031F480E094E09093EC018093EB0140914B
:103CA000EB015091EC01822F61E020E00E94F923AA
:103CB00082E090E0C80ED91EF7018485B601A50107
:103CC0000E94622409C061E070E080E090E00E9400
:103CD000E532C7010E942D1D882321F484E0F701FD
:103CE000848708C0C7010E942D1D873161F721E03C
:103CF00030E002C020E030E0C901DF91CF911F9198
:103D00000F91FF90EF90DF90CF90BF90AF9008950C
:103D10006F927F928F929F92AF92BF92CF92DF92DB
:103D2000EF92FF920F931F93DF93CF93CDB7DEB740
:103D3000E5970FB6F894DEBF0FBECDBF4C015B0117
:103D40003A0193E1E92EF12CEC0EFD1EC7010E9411
:103D5000B415CE014B960E9434206E010894C11C0C
:103D6000D11CC6010E94B4158E01095F1F4FC80106
:103D70006CE774E00E94FD11C701B8010E94CD27D5
:103D8000C701B501A6010E944C2A9C018130910512
:103D9000C9F4D401ED91FC910484F585E02D86ED04
:103DA00091E09E878D878B819C81AD81BE818F87BD
:103DB000988BA98BBA8BC401BE01635F7F4FA301AF
:103DC00009959C01C901E5960FB6F894DEBF0FBEB8
:103DD000CDBFCF91DF911F910F91FF90EF90DF90BA
:103DE000CF90BF90AF909F908F907F906F900895ED
:103DF000DC01ED91FC91008CF18DE02D0995089589
:103E0000DB01FC0126ED31E03183208351962D91B9
:103E10003D914D915C915497228333834483558324
:103E20000895FC01858996890895FC01818D928D04
:103E30000895DF93CF930F92CDB7DEB7FC0169836E
:103E4000A081B18112962D913C911397BE016F5FB5
:103E50007F4F41E050E0F90109950F90CF91DF913C
:103E60000895CF93DF93EC0107C0E881F9810680C4
:103E7000F781E02DCE010995898D9A8D892BA9F7BF
:103E8000DF91CF9108950F938CE994E060E040E0DA
:103E900020E000E00E94DB140F910895DF93CF93A0
:103EA0000F92CDB7DEB7FC01818D928D892B19F46D
:103EB0002FEF3FEF09C08485BE016F5F7F4F0E94E7
:103EC00095268981282F30E0C9010F90CF91DF918D
:103ED0000895CF93DF93EC019A01498D5A8D4115D6
:103EE0005105A1F02417350710F08C8502C08C8590
:103EF000A9010E94A4269C01181619063CF4898D7C
:103F00009A8D821B930B9A8F898F02C02FEF3FEF00
:103F1000C901DF91CF9108950F931F93DF93CF9342
:103F20000F92CDB7DEB78C01FC01818D928D892B6C
:103F3000A9F08485BE016F5F7F4F41E050E00E9491
:103F4000A4261816190654F4F801818D928D019754
:103F5000928F818F8981282F30E002C02FEF3FEFB1
:103F6000C9010F90CF91DF911F910F910895EF92AA
:103F7000FF920F931F93DF93CF93CDB7DEB72897B0
:103F80000FB6F894DEBF0FBECDBF8C01DC01ED9102
:103F9000FC910284F385E02D099582EA94E0F80112
:103FA00064850E941722892B19F420E030E025C097
:103FB000D8011C968C917E010894E11CF11CB7017C
:103FC00048E050E00E94A4269C0118161906ACF4A3
:103FD000C8010F96B7010E9459159D8180E02E817E
:103FE000820F911DF801968B858B9F8180E028853B
:103FF000820F911D928F818F9C01C90128960FB667
:10400000F894DEBF0FBECDBFCF91DF911F910F910E
:10401000FF90EF9008950F931F938C01FB019A017D
:10402000DC0157966D917C9158971C968C91AF014D
:104030000E9498249C01F8018789908D820F931F1C
:10404000908F878BC9011F910F910895FC01848582
:104050000E9486230895FC01108E178A6E5F7F4FA1
:1040600084850E943C240895FC011382128288EE0C
:1040700093E0A0E0B0E084839583A683B7838FE3C9
:1040800092E09183808384E08487CF010F960E9421
:10409000B4150895FC011382128288EE93E0A0E02B
:1040A000B0E084839583A683B7838FE392E0918306
:1040B000808384E08487CF010F960E94B415089511
:1040C0006F927F928F929F92AF92BF92CF92DF9228
:1040D000EF92FF920F931F93DF93CF93CDB7DEB78D
:1040E000E5970FB6F894DEBF0FBECDBF4C015B0164
:1040F0003A0183E1E82EF12CEC0EFD1EC7010E946F
:10410000B415CE014B960E9434206E010894C11C58
:10411000D11CC6010E94B4158E01095F1F4FC80152
:104120006CE774E00E94FD11C701B8010E94CD2721
:10413000C701B501A6010E944C2A9C01813091055E
:10414000C9F4D401ED91FC910088F189E02D86ED50
:1041500091E09E878D878B819C81AD81BE818F8709
:10416000988BA98BBA8BC401BE01635F7F4FA301FB
:1041700009959C01C901E5960FB6F894DEBF0FBE04
:10418000CDBFCF91DF911F910F91FF90EF90DF9006
:10419000CF90BF90AF909F908F907F906F90089539
:1041A000CF93DF93EC018C85843061F00E94B223C1
:1041B000EC85F0E0EE0FFF1FEC58FB4F11821082F0
:1041C00084E08C87DF91CF910895CF92DF92EF92B8
:1041D000FF920F931F93CF93DF937C016B01FC0140
:1041E0008485843019F5C0E0D0E003E014E0C80114
:1041F0000E946121882311F0883119F4F701C487E6
:1042000006C0219600501F4FC430D10581F7F70139
:104210008485843059F0D686C586128E118E62E070
:10422000A60120E00E94F92381E001C080E0DF9137
:10423000CF911F910F91FF90EF90DF90CF90089555
:10424000282F2A9880EF8EBD0DB407FEFDCF8EB5C6
:104250009EBD0DB407FEFDCF8EB52EBD0DB407FE7D
:10426000FDCF8EB56EBD0DB407FEFDCF8EB52A9A7B
:1042700081E00895DC0120E030E090EF1DC02A9835
:104280009EBD0DB407FEFDCF8EB5BEBD0DB407FEBD
:10429000FDCF8EB5AEBD0DB407FEFDCF8EB5FB01D3
:1042A000E20FF31F80818EBD0DB407FEFDCF119686
:1042B0008EB52A9A2F5F3F4F2417350700F3CA01A6
:1042C0000895282F2A988FE08EBD0DB407FEFDCFEC
:1042D0008EB59EBD0DB407FEFDCF8EB52EBD0DB4BF
:1042E00007FEFDCF8EB51EBC0DB407FEFDCF8EB50B
:1042F0002A9A089590E00496982F8827860F971F92
:104300000E94612108957F928F929F92AF92BF92F7
:10431000CF92DF92EF92FF920F931F93CF93DF9391
:104320006C01762E7A0149015801862F64E270E013
:104330000E947A21182F872D65E270E00E947A2171
:10434000C82FD0E0912F80E0C82BD92BCE0DDF1DD8
:10435000AE015770872D90E0880F991FC80ED91EA7
:10436000F60120813181240F351FCA018A0D9B1D62
:104370008150984098F000E018E0041B150BC9012B
:10438000B401A8010E943A21A501401B510BF6017E
:1043900080819181080D191DB80103C0C901B401C4
:1043A000A5010E943A217E01EA0CFB1C072D10E0BA
:1043B0000C5F1F4F102F0027C80184966F2D0E949D
:1043C0002021C80185966E2D0E942021DF91CF917A
:1043D0001F910F91FF90EF90DF90CF90BF90AF9023
:1043E0009F908F907F9008950F931F93FA018901FA
:1043F00040E050E09F010E9483211F910F9108959A
:104400000F931F93182F66E270E00E947A21082F05
:10441000812F67E270E00E947A21502F40E0282F20
:1044200030E0242B352BC9011F910F910895FF9285
:104430000F931F93CF93DF93F62EC0E0D0E08F2D24
:104440000E9400228C01009721F08F2D0E940022F3
:10445000EC01C017D10799F7CE01DF91CF911F91E1
:104460000F91FF9008950F931F93182F60E270E053
:104470000E947A21082F812F61E270E00E947A2148
:10448000502F40E0282F30E0242B352BC9011F91FD
:104490000F910895FF920F931F93CF93DF93F62E02
:1044A000C0E0D0E08F2D0E9433228C01009721F0D4
:1044B0008F2D0E943322EC01C017D10799F7CE014E
:1044C000DF91CF911F910F91FF900895DC0120E0C3
:1044D00030E09FE01DC02A989EBD0DB407FEFDCFC1
:1044E0008EB5BEBD0DB407FEFDCF8EB5AEBD0DB40D
:1044F00007FEFDCF8EB51EBC0DB407FEFDCF119695
:104500008EB5FB01E20FF31F80832A9A2F5F3F4F86
:104510002417350700F3CA010895CF92DF92EF9276
:10452000FF920F931F93CF93DF9369017801577028
:10453000C62FD0E02496CC0FDD1FC80FD91F2881CD
:104540003981240F351FC801840F951F8150984071
:1045500088F000E018E0041B150BC901B601A801A2
:104560000E946622E01AF10A888199810C0D1D1DB6
:10457000B80102C0C901B601A7010E946622DF91FD
:10458000CF911F910F91FF90EF90DF90CF90089502
:104590008F929F92AF92BF92CF92DF92EF92FF9253
:1045A0000F931F93CF93DF937C01A62E6A014901DD
:1045B000B02E862F68E270E00E947A21182F8A2D93
:1045C00069E270E00E947A21C82FD0E0912F80E04C
:1045D000C82BD92BC7016A2DAE01960184010E9418
:1045E0008D22BB2099F47E01E80CF91C0A2D10E005
:1045F0000C5F1F4F102F0027C80188966F2D0E9457
:104600002021C80189966E2D0E942021DF91CF9133
:104610001F910F91FF90EF90DF90CF90BF90AF90E0
:104620009F908F9008951F93162F962F80E08F5F95
:104630009B4F642F0E942021812F61E070E00E9437
:104640007A218823C9F71F9108950F931F93182F7C
:10465000092F6CE271E080E090E00E94E5320E9458
:10466000B627229A80E090E060E80E9420218BE14A
:1046700090E065E50E9420218AE190E065E50E94D6
:104680002021212F302FC901FC0180E090E491838B
:1046900080838050904E91878087805098413296D9
:1046A00020E68030920799F71F910F910895682FA7
:1046B00082EA94E048E050E00E941323089590E0DD
:1046C0000496982F8827860F971F0E9461210895CE
:1046D0001F93182F63E070E00E947A21833111F05C
:1046E00080E008C082EA94E0612F42E050E00E943E
:1046F000132381E01F91089590E00496982F882756
:10470000860F971F642F0E94202108951F93182F52
:1047100082EA94E0612F40E250E00E94132310C02F
:10472000812F62E070E00E947A2183FF09C0812F0F
:1047300062E070E048E10E947C2320E030E00FC09E
:10474000812F62E070E00E947A2184FFE9CF812FFF
:1047500062E070E040E10E947C2321E030E0C9018A
:104760001F9108951F93182F82EA94E0612F40E172
:1047700050E00E941323812F62E070E04FEF0E940F
:104780007C231F9108950F931F93182F062F472FF7
:1047900060E170E00E947C23812F61E170E0402F96
:1047A0000E947C231F910F9108950F931F93182F40
:1047B000062F472F68E270E00E947C23812F69E278
:1047C00070E0402F0E947C231F910F9108950F935A
:1047D0001F93182F062F472F64E070E00E947C2360
:1047E000812F65E070E0402F0E947C231F910F9184
:1047F0000895FF920F931F93CF93DF93082FF62E08
:10480000EA01122F862F8150853010F080E024C0FD
:10481000802F0E94B2231F29802F60E070E0412F7B
:104820000E947C23209719F0802FBE010BC060915D
:10483000B2047091B3046F5F7F4F7093B3046093C1
:10484000B204802F0E94E72382EA94E0602F41E0C7
:1048500050E00E94132381E0DF91CF911F910F91CF
:10486000FF90089590E0982F8827845F9B4F44E045
:1048700050E00E943A2108951F93CF93DF93182FA1
:10488000FB01EA018081882349F48181882331F486
:104890008281882319F48381882369F0209759F055
:1048A000812FBF010E943224812FBE010E94C323A9
:1048B00021E030E002C020E030E0C901DF91CF917B
:1048C0001F9108951F93CF93DF93182FFB01EA01E7
:1048D00080818F3F51F481818F3F91F482818F3F9E
:1048E00079F483818F3F61F41EC0882349F481816C
:1048F000882331F48281882319F48381882399F0F5
:10490000209789F0812FBF010E943224812FBE01A0
:104910000E94C32382EA94E0612F44E050E00E94A9
:10492000132381E001C080E0DF91CF911F910895B2
:10493000AF92BF92DF92EF92FF920F931F93CF93AC
:10494000DF93D82EEB015A01890182EA94E06D2DA4
:104950000E944A228017910710F0780106C082EA6F
:1049600094E06D2D0E944A227C0182EA94E06D2D34
:10497000AE01950187010E948321C701DF91CF918C
:104980001F910F91FF90EF90DF90BF90AF9008952F
:104990001F93CF93DF93182FFB0188E04130580716
:1049A00018F0C0E0D8E004C041155105F9F0EA0163
:1049B00082EA94E0612FAF019E010E94F42182EA15
:1049C00094E0612F40E250E00E94132312C0812F37
:1049D00063E070E00E947A21812F62E070E00E9423
:1049E0007A2183FF06C0812F0E94B223C0E0D0E06D
:1049F0000DC0812F62E070E00E947A2184FFE7CF32
:104A0000812F62E070E040E10E947C23CE01DF91C3
:104A1000CF911F910895CF92DF92FF920F931F9332
:104A2000CF93DF93F82E6B01F9018081882351F435
:104A30008181882339F48281882321F4838188232A
:104A400009F441C001151105F1F1EA0188E0413096
:104A5000580718F0C0E0D8E003C041155105A9F18E
:104A60008F2DBF010E9432248F2DB8010E94C323D5
:104A700082EA94E06F2DA6019E010E94F42182EA51
:104A800094E06F2D40E250E00E9413230EC08F2D62
:104A900062E070E00E947A2183FF07C08F2D62E000
:104AA00070E048E10E947C230EC08F2D62E070E030
:104AB0000E947A2184FFEBCF8F2D62E070E040E10D
:104AC0000E947C2302C0C0E0D0E0CE01DF91CF91F4
:104AD0001F910F91FF90DF90CF900895CF92DF92BA
:104AE000EF92FF921F93CF93DF93182F6B01EA0190
:104AF00088E04130580710F0C0E0D8E082EA94E046
:104B0000612F0E944A227C01812F63E070E00E94A5
:104B10007A21873129F08C3119F0C0E0D0E003C050
:104B2000EC16FD0658F382EA94E0612FA6019E017F
:104B30000E94F42182EA94E0612F40E250E00E945A
:104B400013230DC0812F63E070E00E947A21882337
:104B500031F4812F0E94B223C0E0D0E00DC0812F3C
:104B600062E070E00E947A2184FFECCF812F62E046
:104B700070E040E10E947C23CE01DF91CF911F9134
:104B8000FF90EF90DF90CF9008954F925F926F92D9
:104B90007F929F92AF92BF92CF92DF92EF92FF925D
:104BA0000F931F93DF93CF93CDB7DEB728970FB640
:104BB000F894DEBF0FBECDBF982E3B0159012801EE
:104BC000452B19F4CC24DD2499C068E270E00E94E2
:104BD0007A21182F892D69E270E00E947A21C82E6F
:104BE000DD24912F80E0C82AD92A892D60E070E069
:104BF0000E947A2190E0877090708330910571F166
:104C00008430910509F44AC0029719F0CC24DD24C0
:104C10006EC082EA94E0692DA6019E012F5F3F4F8E
:104C200008E010E00E948D2278E0E72EF12CEC0CD9
:104C3000FD1C8981F50180838A8181838B81828338
:104C40008C8183839D8180E02E81820F911DF201F2
:104C5000918380839F8180E028851CC082EA94E054
:104C6000692DA6019E012F5F3F4F06E010E00E94D4
:104C70008D2266E0E62EF12CEC0CFD1C8981F501FD
:104C800080838A8181838B8182838C8183839D81D0
:104C900080E02E816C01C20ED11C1BC082EA94E020
:104CA000692DA6019E012F5F3F4F02E010E00E9498
:104CB0008D2252E0E52EF12CEC0CFD1C998180E058
:104CC0002A81C22EDD242EEF3FEFC20ED31EC80E66
:104CD000D91E82EA94E0692DA701930186010E9402
:104CE0008D22EC0CFD1C892DB7010E94D52382EA90
:104CF00094E0692D40E450E00E941323C6012896F9
:104D00000FB6F894DEBF0FBECDBFCF91DF911F91DC
:104D10000F91FF90EF90DF90CF90BF90AF909F905A
:104D20007F906F905F904F9008950F93282FAB0165
:104D300082EA94E0622F21E030E001E00E94C82284
:104D400081E090E00F910895CF92DF92FF920F9350
:104D50001F93CF93DF93F82E6B018A0182EA94E0D0
:104D60006F2D0E941722EC01009761F48F2D63E0F4
:104D700070E00E947A218431D9F08823C9F08C3107
:104D8000B9F01FC0081719070CF4E8011C161D061E
:104D90007CF482EA94E06F2DA6019E0100E00E945F
:104DA000C82282EA94E06F2D40E450E00E94132371
:104DB000CE01DF91CF911F910F91FF90DF90CF90A7
:104DC0000895CFEFDFEFF4CFFC0120E030E08081E9
:104DD000882311F421E030E0C9010895FC0181E04D
:104DE00080830895089508950E941B3508950E94B8
:104DF0007E3408952F923F924F925F926F927F92EE
:104E00008F929F92AF92BF92CF92DF92EF92FF92DA
:104E10000F931F93DF93CF93CDB7DEB73B014C01C8
:104E200019012A016D897E898F89988D6A197B09FC
:104E30008C099D09621A730A840A950AA4019301D8
:104E40000E94E533E218F30804091509A801970147
:104E50000E9426342A0D3B1D4C1D5D1DB901CA015F
:104E6000CF91DF911F910F91FF90EF90DF90CF9046
:104E7000BF90AF909F908F907F906F905F904F907A
:104E80003F902F900895089570E0382F20E0622B16
:104E9000732BCB010895EF92FF920F931F937B0129
:104EA0008C01611571058105910529F420E030E040
:104EB00040E050E00BC00E940636A80197010E9416
:104EC0002634AC01CB01DA019C01AD01B901CA0164
:104ED0001F910F91FF90EF900895EF92FF920F9323
:104EE0001F937B018C01621773078407950764F495
:104EF000261B370B480B590BCA01B9010E944B27DF
:104F0000E60EF71E081F191FB701C8011F910F9168
:104F1000FF90EF900895009729F0BC0180E090E0A9
:104F20000E940B3608958CB58F7B8CBD0895882325
:104F300019F48CB5806202C08CB58F7D8CBD08954C
:104F40009CB5937F982B9CBD08952CB5382F33705A
:104F50002C7F322B3CBD2DB590E09595879595958E
:104F6000879581702E7F822B8DBD08958AE061E048
:104F70000E94B2338AE061E00E9446338CB58061C2
:104F80008CBD8CB580648CBD8DE061E00E944633A1
:104F90008BE061E00E94463308959C01FB01828111
:104FA0009381A481B581F90182839383A483B5831E
:104FB000178216820895CF93DF93FB0101C03196CB
:104FC00080818823E1F7EB01A0E0B0E020E030E051
:104FD00021C06E3261F42F3F310509F07CF5FA01F2
:104FE000EA0FFB1F2283119620E030E012C0C901B6
:104FF000E3E0880F991FEA95E1F7220F331F820F34
:10500000931F262F332727FD309520533040280F3C
:10501000391F21966881662319F0A430B105CCF2BE
:105020002F3F310509F054F4A430B1053CF4A40F2E
:10503000B51F12962C9321E030E002C020E030E052
:10504000C901DF91CF9108950F9384EB94E060E064
:1050500040E020E000E00E94DB140F9108952F92C1
:105060003F924F925F926F927F928F929F92AF92F8
:10507000BF92CF92DF92EF92FF920F931F93DF9335
:10508000CF93CDB7DEB769970FB6F894DEBF0FBEEA
:10509000CDBF4C018B011A010E94B1322B013C01A2
:1050A000F8E0EF2EF12CE80CF91C5801CC24DD249B
:1050B00014C00E94B1326419750986099709A616B1
:1050C000B706C806D90618F42FEF3FEF0BC162E30D
:1050D00070E080E090E00E94E532C7010E94B71FB7
:1050E0001816190634F7F401228133814481558161
:1050F000818D928DA38DB48D8A879B87AC87BD8768
:10510000281739074A075B0709F0EAC0858D968D95
:10511000C59709F0E5C000C18E01025F1F4FC701AE
:10512000B8014CE050E00E94691FF80152814381B0
:105130005B834A83F401268137818E859F852817FA
:10514000390711F457FD06C0C7010E94311F2CEF2B
:105150003FEFC8C04F705270452B31F0C7010E941D
:10516000311F2BEF3FEFBEC0F801768067806114DE
:10517000710441F0AA24BB2448012E010894411C6B
:10518000511C28C0C7010E94311F2AEF3FEFAAC05F
:10519000C701B20141E050E00E94691F8981882364
:1051A00021F408C0C7010E948C1F89818150898326
:1051B0008F5FC1F78981882359F700E010E0C701AC
:1051C0000E948C1F0F5F1F4F04301105C1F7089418
:1051D000A11CB11CF401D480C580AC14BD04C0F284
:1051E00044245524C701BE016F5F7F4F41E050E06A
:1051F0000E94691F9981892F807C61F4992321F491
:105200000DC0C7010E948C1F8981815089838F5FE7
:10521000C1F704C0C7010E948C1F198289818823AD
:1052200009F7C701BE016C5F7F4F42E050E00E946A
:10523000691FC701BE016A5F7F4F42E050E00E94D4
:10524000691F00E010E0C7010E948C1F0F5F1F4F15
:1052500004301105C1F7C701BE016E5F7F4F42E008
:1052600050E00E94691FDC80CD80F1E0CF16D104B0
:1052700019F5BE80AF8081E0A816B104E9F49A81E7
:105280008B81049731F0C7010E94311F27EF3FEF58
:1052900029C0E2E0F0E02E0E3F1EC701B10144E05C
:1052A00050E00E94691F21E030E01CC0C7010E944D
:1052B0008C1F0F5F1F4F02C000E010E09A808B80B0
:1052C0000815190598F30894411C511C46145704FD
:1052D00008F488CFC7010E94311F26EF3FEF02C0BC
:1052E0002EEF3FEFC90169960FB6F894DEBF0FBEEF
:1052F000CDBFCF91DF911F910F91FF90EF90DF9085
:10530000CF90BF90AF909F908F907F906F905F9065
:105310004F903F902F90089586ED91E09987888770
:10532000C7010E94151F0C970CF0F6CE2DEF3FEF32
:10533000D9CF6F927F928F929F92AF92BF92CF926E
:10534000DF92EF92FF920F931F93DF93CF9300D0E2
:105350000F92CDB7DEB78C01F62EE72E0E94B13248
:10536000F80177836683B8E0CB2ED12CC00ED11E16
:105370000A5F1F4FC601B80142E050E00E940B20B7
:1053800081E090E09B838A83A2E08A2E912C8C0E90
:105390009D1EC601B40142E050E00E940B2080E057
:1053A00091E09B838A83C601B40142E050E00E94F1
:1053B0000B201B821A82C601B40142E050E00E9419
:1053C0000B20C601B40142E050E00E940B20C60150
:1053D000B40142E050E00E940B202F2D3E2DC90168
:1053E0008C017C013E010894611C711C20C0089452
:1053F000E11CF11CF7018081882311F08E32B9F78E
:105400005701A01AB10A1A141B0474F48E2D801BC4
:105410008983C601B30141E050E00E940B20C60120
:10542000B801A5010E940B2087010F5F1F4FF701F4
:105430008081882311F07801DDCF1982C601BE0179
:105440006F5F7F4F41E050E00E940B2000E011E0D1
:105450001B830A83C601B40142E050E00E940B2086
:105460001B830A83C601B40142E050E00E940B2076
:1054700081E090E00F900F900F90CF91DF911F91FE
:105480000F91FF90EF90DF90CF90BF90AF909F90E3
:105490008F907F906F9008958F929F92AF92BF925E
:1054A000CF92DF92EF92FF920F931F93DF93CF93F0
:1054B00000D000D000D0CDB7DEB76C017B014A012F
:1054C0000E94DB27892B19F001E010E067C0F6018C
:1054D00022813381448155818091B6049091B70433
:1054E000A091B804B091B904281739074A075B079F
:1054F00019F40EEF1FEF52C018E0A12EB12CAC0C26
:10550000BD1C0E94B1329B01AC012F703070205045
:105510003C4FC501B9010E94E520813019F000E03F
:1055200010E03CC086ED91E09A838983F601828188
:105530009381A481B5818B839C83AD83BE83C50198
:10554000BE016F5F7F4F45E350E00E942B208C012E
:10555000009709F1C601B7010E9499298C010097B3
:10556000D1F0C5010E9426208C010097A1F0EE2405
:10557000FF24C60168E873E1A4010E942F288C0172
:105580000894E11CF11CF3E0EF16F10421F08FEF19
:105590000F3F180771F3C5010E94D020C80126965D
:1055A0000FB6F894DEBF0FBECDBFCF91DF911F9134
:1055B0000F91FF90EF90DF90CF90BF90AF909F90B2
:1055C0008F900895EF92FF920F931F937B018C01B0
:1055D00020E030E040E05FE40E948E2E88238CF0D3
:1055E000C801B70120E030E040E05FE40E945A2C9F
:1055F0000E94A72F9B01AC012050304040405048F2
:1056000006C0C801B7010E94A72F9B01AC01B901D8
:10561000CA011F910F91FF90EF900895A0E0B0E0B4
:10562000E4E1FBE20C944134DC012B01FA019C9192
:10563000923008F439C1EB018881823008F433C11B
:10564000943069F4843009F02FC111969C91119720
:105650008981981709F428C1A9E9B2E025C18430ED
:1056600009F421C18230A9F4923009F01DC19A01D8
:10567000AD0188E0EA010990AE01E90109929E01BD
:105680008150C1F7E201898111969C918923818320
:1056900008C1923009F407C112962D903C901397DF
:1056A000EB018A819B811496AD90BD90CD90DC90EA
:1056B0001797EC80FD800E811F819101281B390B0B
:1056C000B90137FF04C066277727621B730B60326E
:1056D00071050CF061C0121613066CF53701480114
:1056E000062E04C096948794779467940A94D2F710
:1056F00021E030E040E050E004C0220F331F441F9F
:10570000551F6A95D2F721503040404050402E211D
:105710003F2140235123211531054105510521F039
:1057200021E030E040E050E079018A01E628F728E6
:10573000082919293CC0232BD1F1260E371E35012B
:105740004601062E04C096948794779467940A9431
:10575000D2F721E030E040E050E004C0220F331FD8
:10576000441F551F6A95D2F72150304040405040A9
:105770002A213B214C215D2121153105410551058F
:1057800021F021E030E040E050E059016A01A62814
:10579000B728C828D9280BC0821593052CF01C0106
:1057A000AA24BB24650103C0EE24FF2487011196BF
:1057B0009C91D20111968C91981709F445C09923B8
:1057C00039F0A80197012A193B094C095D0906C067
:1057D000A60195012E193F09400B510B57FD08C03A
:1057E00011823382228224833583468357831DC0EE
:1057F00081E081833382228288279927DC01821B02
:10580000930BA40BB50B84839583A683B7830DC03C
:10581000220F331F441F551F24833583468357832C
:10582000828193810197938382832481358146818C
:105830005781DA01C9010197A109B1098F5F9F4F13
:10584000AF4FBF4328F30BC0918333822282EA0C0F
:10585000FB1C0C1D1D1DE482F5820683178383E06B
:105860008083248135814681578157FF1AC0C90141
:10587000AA2797FDA095BA2F81709070A070B07084
:105880005695479537952795822B932BA42BB52BAF
:1058900084839583A683B7838281938101969383C2
:1058A0008283DF0101C0D201CD01CDB7DEB7E2E1D5
:1058B0000C945D34A0E2B0E0E0E6FCE20C944D34E0
:1058C00069837A838B839C832D833E834F835887A0
:1058D000E9E0EE2EF12CEC0EFD1ECE010196B70193
:1058E0000E9498318E010F5E1F4FCE010596B801C0
:1058F0000E9498318A8991E089278A8BC701B80173
:10590000AE01475E5F4F0E940E2B0E94C330A096EF
:10591000E6E00C946934A0E2B0E0E1E9FCE20C942A
:105920004D3469837A838B839C832D833E834F839D
:105930005887F9E0EF2EF12CEC0EFD1ECE010196FA
:10594000B7010E9498318E010F5E1F4FCE01059660
:10595000B8010E949831C701B801AE01475E5F4FA0
:105960000E940E2B0E94C330A096E6E00C9469348E
:10597000A0E2B0E0EEEBFCE20C94413469837A8360
:105980008B839C832D833E834F835887CE01019662
:10599000BE01675F7F4F0E949831CE010596BE0120
:1059A0006F5E7F4F0E9498319985923088F0898987
:1059B0008230C8F0943019F4823051F404C084303D
:1059C00029F4923081F489E992E0C6C0923049F41A
:1059D00020E09A858A89981321E02A87CE010996CA
:1059E000BBC0823049F420E09A858A89981321E06F
:1059F0002A8BCE014196B0C02D843E844F845888B6
:105A00006D887E888F88988CEE24FF248701AA24D5
:105A1000BB24650140E050E060E070E0E0E0F0E0D1
:105A2000C10181709070892BE9F0E60CF71C081D0C
:105A3000191D9A01AB012A0D3B1D4C1D5D1D80E017
:105A400090E0A0E0B0E0E614F7040805190520F4A2
:105A500081E090E0A0E0B0E0BA01A901480F591F31
:105A60006A1F7B1FAA0CBB1CCC1CDD1C97FE08C048
:105A700081E090E0A0E0B0E0A82AB92ACA2ADB2A97
:105A80003196E032F10549F0660C771C881C991CB0
:105A90005694479437942794C3CFFA85EA892B8983
:105AA0003C898B859C85280F391F2E5F3F4F17C07F
:105AB000CA0181709070892B61F016950795F79453
:105AC000E79480E090E0A0E0B0E8E82AF92A0A2B09
:105AD0001B2B76956795579547952F5F3F4F77FD21
