:100000000C9464000C948C000C948C000C948C0068
:100010000C948C000C948C000C948C000C948C0030
:100020000C948C000C948C000C948C000C948C0020
:100030000C948C000C948C000C948C000C948C0010
:100040000C94E81F0C948C000C945D010C94AB0193
:100050000C948C000C948C000C948C000C948C00F0
:100060000C948C210C948C000000000024002700CC
:100070002A0000000000250028002B0000000000DE
:1000800023002600290004040404040404040202DA
:100090000202020203030303030301020408102007
:1000A0004080010204081020010204081020000012
:1000B0000007000201000003040600000000000029
:1000C000000093042613CF1311241FBECFEFD8E0F6
:1000D000DEBFCDBF13E0A0E0B1E0E2E8FFE402C084
:1000E00005900D92AC34B107D9F714E0ACE4B3E05D
:1000F00001C01D92A53EB107E1F710E0C8ECD0E0C9
:1001000004C02297FE010E944824C23CD107C9F7CF
:100110000E944D010C94BF270C940000FFCF84ED8A
:1001200093E040E855E260E070E00E946E0284EDEA
:1001300093E00E9491048823D1F368EC70E080E0A2
:1001400090E00E94642084ED93E060E071E00E9402
:10015000330884ED93E064E171E00E943308089570
:10016000CF93DF93EC018A30910528F484ED93E07E
:1001700060E30E94510484ED93E0BE014AE050E048
:100180000E940407DF91CF910895DF93CF93CDB7FD
:10019000DEB727970FB6F894DEBF0FBECDBFCE01F6
:1001A00001960E946412882309F449C084ED93E00B
:1001B00068E271E00E9436078B8190E00E94B000F7
:1001C00084ED93E06AE30E9451048A8190E00E94EA
:1001D000B00084ED93E06AE30E945104898190E0CD
:1001E0000E94B00084ED93E064E371E00E94360762
:1001F00084ED93E06D814AE050E00E94800684ED3A
:1002000093E06FE20E94510484ED93E06E814AE036
:1002100050E00E94800684ED93E06FE20E9451045A
:100220006F8170E06E54784F84ED93E04AE050E0C7
:100230000E94040784ED93E00E9449051FC080914D
:10024000F703882359F084ED93E066E471E00E949F
:10025000330884ED93E065E771E004C084ED93E03A
:1002600067EA71E00E94330884ED93E00E9449053B
:1002700068E273E280E090E00E94642068EE73E040
:1002800080E090E00E94642027960FB6F894DEBFCD
:100290000FBECDBFCF91DF910895CF93DF930E9422
:1002A0008A200E948F00C8E9D1E00E94C5002097F3
:1002B000E1F30E949801F9CF08951F920F920FB6B3
:1002C0000F9211242F933F934F938F939F93EF930C
:1002D000FF938091C00082FD1DC04091C600209117
:1002E0008C0330918D032F5F3F4F2F7330708091BF
:1002F0008E0390918F032817390771F0E0918C03DA
:10030000F0918D03E45BFC4F408330938D03209389
:100310008C0302C08091C600FF91EF919F918F9155
:100320004F913F912F910F900FBE0F901F901895F6
:10033000E091E003F091E103E05CFF4F8191919146
:1003400020813181821B930B8F739070892B11F068
:100350000E945C0108951F920F920FB60F92112414
:100360002F933F938F939F93EF93FF932091D0030D
:100370003091D1038091D2039091D303281739078C
:1003800031F48091C1008F7D8093C10014C0E09151
:10039000D203F091D303E057FC4F20818091D20328
:1003A0009091D30301968F7390709093D3038093B1
:1003B000D2032093C600FF91EF919F918F913F91BF
:1003C0002F910F900FBE0F901F9018958F929F92B4
:1003D000AF92BF92CF92DF92EF92FF920F931F9353
:1003E000DF93CF93CDB7DEB7FC011382128288EE84
:1003F00093E0A0E0B0E084839583A683B7838BED80
:1004000091E0918380837587648757874687318B16
:10041000208B138B028BF58AE48AD78AC68AB18E29
:10042000A08E938E828E8F85848F8889858F89890F
:10043000868F8A89878F8B8980A3CF91DF911F91C7
:100440000F91FF90EF90DF90CF90BF90AF909F9073
:100450008F9008958F929F92AF92BF92CF92DF922A
:10046000EF92FF920F931F93DF93CF93CDB7DEB739
:10047000FC011382128288EE93E0A0E0B0E0848356
:100480009583A683B7838BED91E0918380837587F5
:10049000648757874687318B208B138B028BF58AB5
:1004A000E48AD78AC68AB18EA08E938E828E8F857B
:1004B000848F8889858F8989868F8A89878F8B89A0
:1004C00080A3CF91DF911F910F91FF90EF90DF906C
:1004D000CF90BF90AF909F908F900895AF92BF92B2
:1004E000DF92EF92FF920F931F93CF93DF93EC0174
:1004F0007A018B01DD24403081EE580780E06807E7
:1005000080E0780711F0DD24D39491E0A92EB12C7E
:10051000EC89FD89DD2069F0C50108A002C0880FC3
:10052000991F0A94E2F7808360E079E08DE390E020
:1005300005C0108260E874E88EE190E0A8019701A0
:100540000E94D92321503040404050405695479555
:100550003795279580E12030380720F0DD2011F015
:10056000DD24D6CFE889F9893083EA89FB892083A5
:1005700019A2EE89FF89408121E030E0C9010C8C8D
:1005800002C0880F991F0A94E2F7482B4083EE8936
:10059000FF894081C9010D8C02C0880F991F0A9400
:1005A000E2F7482B4083EE89FF894081C9010E8C18
:1005B00002C0880F991F0A94E2F7482B4083EE8906
:1005C000FF8980810F8C02C0220F331F0A94E2F74B
:1005D000209528232083DF91CF911F910F91FF90C9
:1005E000EF90DF90BF90AF900895AF92BF92CF92FF
:1005F000DF92EF92FF920F931F93CF93DF93EC0163
:100600007A018B01C22EDD24403081EE580780E054
:10061000680780E0780711F0DD24D39471E0A72EFD
:10062000B12CEC89FD89DD2069F0C50108A002C06C
:10063000880F991F0A94E2F7808360E079E08DE3E8
:1006400090E005C0108260E874E88EE190E0A801B7
:1006500097010E94D9232150304040405040569588
:1006600047953795279580E12030380720F0DD2029
:1006700011F0DD24D6CFE889F9893083EA89FB8936
:100680002083E88DF98DC082EE89FF89408121E0C9
:1006900030E0C9010C8C02C0880F991F0A94E2F760
:1006A000482B4083EE89FF894081C9010D8C02C02F
:1006B000880F991F0A94E2F7482B4083EE89FF893F
:1006C0004081C9010E8C02C0880F991F0A94E2F77D
:1006D000482B4083EE89FF8980810F8C02C0220F56
:1006E000331F0A94E2F7209528232083DF91CF91CE
:1006F0001F910F91FF90EF90DF90CF90BF90AF9040
:100700000895CF93DF93DC011E968D919C911F97E6
:10071000EC01C05CDF4FFC01EE5BFF4F28813981AB
:100720008081918128173907C9F75696ED91FC9180
:100730005797408121E030E0C9015C960C905C97AE
:1007400002C0880F991F0A94E2F780958423808362
:100750005696ED91FC9157974081C9015D960C909A
:100760005D9702C0880F991F0A94E2F78095842351
:1007700080835696ED91FC9157974081C9015E9612
:100780000C905E9702C0880F991F0A94E2F780953B
:10079000842380835696ED91FC91579780815F96D4
:1007A0000C905F9702C0220F331F0A94E2F7209546
:1007B000282320831C96ED91FC911D97EE5BFF4F43
:1007C0008081918192938293DF91CF910895DC0192
:1007D0001C96ED91FC911D97E05CFF4F21913191AA
:1007E00080819181281B390B2F733070C9010895C6
:1007F000DC011C96ED91FC911D97E05CFF4F208180
:100800003181E054F040DF01AE5BBF4F8D919C9190
:1008100011972817390719F42FEF3FEF07C08D9173
:100820009C91E80FF91F8081282F30E0C9010895BD
:10083000DC011C96ED91FC911D97E05CFF4F20813F
:100840003181E054F040DF01AE5BBF4F8D919C9150
:1008500011972817390719F42FEF3FEF10C08D912A
:100860009C911197E80FF91F20818D919C91119710
:1008700001968F73907011969C938E9330E0C9010E
:100880000895DC0191968C919197882339F05496C4
:10089000ED91FC915597808186FFF9CF91961C923E
:1008A0000895CF93DF93EC01EE85FF85E05CFF4F69
:1008B00020813181E054F0402F5F3F4F2F73307023
:1008C000DF01AE5BBF4F8D919C91119728173907BF
:1008D000D1F3E05CFF4F80819181E054F040E80F5C
:1008E000F91F6083EE85FF85E05CFF4F3183208335
:1008F000EE89FF89208181E090E00F8C02C0880F93
:10090000991F0A94E2F7282B208381E089A3EC89C0
:10091000FD8980818064808381E090E0DF91CF91C8
:10092000089581E008951092D7031092D60388EEBF
:1009300093E0A0E0B0E08093D8039093D903A09314
:10094000DA03B093DB038BED91E09093D5038093B2
:10095000D4038CE493E09093E1038093E00380E977
:1009600093E09093E3038093E20385EC90E090930F
:10097000E5038093E40384EC90E09093E703809395
:10098000E60380EC90E09093E9038093E80381EC28
:1009900090E09093EB038093EA0382EC90E09093D5
:1009A000ED038093EC0386EC90E09093EF0380934B
:1009B000EE0384E08093F00383E08093F10387E00B
:1009C0008093F20385E08093F30381E08093F40346
:1009D0000895CF92DF92EF92FF920F931F93CF93E0
:1009E000DF937C016B018A01C0E0D0E00FC0D6012B
:1009F0006D916D01D701ED91FC910190F081E02D99
:100A0000C7010995C80FD91F0150104001151105E4
:100A100071F7CE01DF91CF911F910F91FF90EF9071
:100A2000DF90CF900895EF92FF920F931F93CF9393
:100A3000DF937C018B01C0E0D0E0F8010F5F1F4F16
:100A40006491662359F0D701ED91FC910190F081FA
:100A5000E02DC7010995C80FD91FEFCFCE01DF9157
:100A6000CF911F910F91FF90EF900895DC01ED91D0
:100A7000FC910190F081E02D099508959C01DB0126
:100A8000ED91FC910190F081E02DCB01B901099528
:100A90000895EF92FF920F931F938C01DC01ED916B
:100AA000FC910190F081E02D6DE009957C01D80169
:100AB000ED91FC910190F081E02DC8016AE009956B
:100AC0009C012E0D3F1DC9011F910F91FF90EF90CA
:100AD0000895EF92FF920F931F937C010E941305DC
:100AE0008C01C7010E9449059C01200F311FC901DB
:100AF0001F910F91FF90EF900895EF92FF920F9347
:100B00001F937C01DC01ED91FC910190F081E02DBF
:100B100009958C01C7010E944905080F191FC801DA
:100B20001F910F91FF90EF900895EF92FF920F9316
:100B30001F937C01DB01ED91FC910190F081E02D90
:100B4000CB01B70109958C01C7010E944905080F27
:100B5000191FC8011F910F91FF90EF900895CF9337
:100B6000DF93EC016115710519F420E030E00FC04E
:100B7000DB010D900020E9F71197A61BB70BE88168
:100B8000F9810280F381E02DAD0109959C01C90135
:100B9000DF91CF9108954F925F927F928F929F92B3
:100BA000AF92BF92CF92DF92EF92FF920F931F937B
:100BB000DF93CF93CDB7DEB7A1970FB6F894DEBF22
:100BC0000FBECDBF2C01742ECB01223008F42AE0D9
:100BD00019A231E2C32ED12CCC0EDD1E822E992417
:100BE000AA24BB24672D752FA50194010E94D92347
:100BF00079018A01C801B701A50194010E949B23D4
:100C0000472D461B0894C108D1084A3014F4405DB2
:100C100001C0495CF6014083E114F10401051105AE
:100C200021F07E2C5F2DC801DDCFC201B6010E94EC
:100C3000AF05A1960FB6F894DEBF0FBECDBFCF9122
:100C4000DF911F910F91FF90EF90DF90CF90BF90B9
:100C5000AF909F908F907F905F904F900895DC01B0
:100C60002115310541F4ED91FC910190F081E02DC9
:100C7000642F099508950E94CB050895EF92FF9285
:100C80000F931F937C010E942F068C01C7010E94C5
:100C900049059C01200F311FC9011F910F91FF9041
:100CA000EF900895EF92FF920F931F939A017B01AB
:100CB00000E010E0B801A7010E942F061F910F91DC
:100CC000FF90EF900895CF92DF92EF92FF920F93F3
:100CD0001F936C017B019A0100E010E0B801A701AD
:100CE0000E942F068C01C6010E944905080F191F9A
:100CF000C8011F910F91FF90EF90DF90CF90089562
:100D0000EF92FF920F931F939A01E62EFF2400E0CB
:100D100010E0B801A7010E942F061F910F91FF90CC
:100D2000EF900895CF92DF92EF92FF920F931F936F
:100D30006C01E62E9A01FF2400E010E0B801A70143
:100D40000E942F068C01C6010E944905080F191F39
:100D5000C8011F910F91FF90EF90DF90CF90089501
:100D6000CF92DF92EF92FF920F931F93CF93DF9377
:100D7000EC016A017B012115310541F4E881F9811B
:100D80000190F081E02D642F09951FC02A303105B4
:100D9000D1F477FF17C0E881F9810190F081E02D4F
:100DA0006DE209958C0144275527BA014C195D095C
:100DB0006E097F09CE012AE00E94CB059801280F19
:100DC000391F04C02AE00E94CB059C01C901DF91B4
:100DD000CF911F910F91FF90EF90DF90CF900895EA
:100DE000EF92FF920F931F937C010E94B0068C013B
:100DF000C7010E9449059C01200F311FC9011F91A5
:100E00000F91FF90EF900895EF92FF920F931F9331
:100E10007B019A010027F7FC0095102FB801A7016C
:100E20000E94B0061F910F91FF90EF900895CF920E
:100E3000DF92EF92FF920F931F936C017B019A0157
:100E40000027F7FC0095102FB801A7010E94B006FB
:100E50008C01C6010E944905080F191FC8011F9186
:100E60000F91FF90EF90DF90CF9008950E94AF0513
:100E700008957F928F929F92AF92BF92CF92DF920E
:100E8000EF92FF920F931F93CF93DF934C017A0160
:100E90008B01722ECB01BA01A80197010E949D1C03
:100EA000882321F0C40167EF71E021C0C0E0D0E0E9
:100EB00057016801E894D7F8C601B5012FEF3FEF5D
:100EC0004FE75FE70E949D1C882351F4C601B501DE
:100ED0002FEF3FEF4FE75FE70E946D1C181614F0ED
:100EE000C1E0D0E0219739F0C4016BEF71E00E94BE
:100EF000AF05EC0193C0C801B7012FEF3FEF4FE7FB
:100F00005FE40E94DD1B181654F0C801B7012FEFF3
:100F10003FEF4FE75FEC0E943D1C882324F4C4019F
:100F20006FEF71E0E4CFC801B70120E030E040E0AE
:100F300050E00E943D1C87FD03C0C0E0D0E00EC021
:100F4000D401ED91FC910190F081E02DC4016DE29E
:100F50000995EC0117FB109517F9109520E030E08A
:100F600040E05FE3DD240BC0CA01B90120E030E0BE
:100F700040E251E40E94311B9B01AC01D394D71491
:100F800098F3C801B7010E940A1A5B016C010E9424
:100F900061187B018C01C401B801A7012AE030E08F
:100FA0000E942F06C80FD91F772039F0C40163E0D3
:100FB00072E00E94AF05C80FD91FC801B7010E9497
:100FC0007A1D9B01AC01C601B5010E94D91924C04C
:100FD00020E030E040E251E40E94371A7B018C01AE
:100FE0000E94261D5B016C01CC24B7FCC094DC2C54
:100FF000C401B601A5012AE030E00E94B006C80F86
:10100000D91FC601B5010E94C81C9B01AC01C801D3
:10101000B7010E94D9197A947720D1F6CE01DF91D9
:10102000CF911F910F91FF90EF90DF90CF90BF90E5
:10103000AF909F908F907F9008950E9439070895F8
:10104000EF92FF920F931F937C010E9439078C014E
:10105000C7010E944905080F191FC8011F910F9170
:10106000FF90EF900895EF92FF920F931F937C01F2
:101070000E94AF058C01C7010E944905080F191F86
:10108000C8011F910F91FF90EF900895AF92BF920A
:10109000CF92DF92EF92FF920F931F93CF93DF9344
:1010A0005C016B01EE24FF24C0E0D0E010C0D5014C
:1010B000ED91FC9100811181C601BE010E94C00822
:1010C000682FC501F8010995E80EF91E2196F60171
:1010D00084819581C817D90750F3C701DF91CF915B
:1010E0001F910F91FF90EF90DF90CF90BF90AF9046
:1010F0000895EF92FF920F931F937C010E94460880
:101100008C01C7010E9449059C01200F311FC901B4
:101110001F910F91FF90EF900895FC0184819581BC
:101120006817790748F40190F081E02D309721F09D
:10113000E60FF71F8081089580E00895FC01848107
:1011400095816817790730F40190F081E02DE60F62
:10115000F71F40830895FC019B01848195816817E6
:10116000790728F4608171816115710529F4109265
:10117000F60366EF73E002C0620F731FCB010895A0
:10118000FC01848195816817790748F40190F0810A
:10119000E02D309721F0E60FF71F8081089580E061
:1011A0000895FC010190F081E02D309729F4089515
:1011B000861709F44083319680818823C9F7089502
:1011C000FC0180819181009729F420E030E040E02B
:1011D00050E004C00E9450269B01AC01B901CA0135
:1011E0000895CF92DF92EF92FF920F931F93CF93C8
:1011F000DF936C01DC01ED90FC901197E114F10498
:1012000009F441C01496CD91DC9115972097D9F13E
:10121000870102C00F5F1F4FF8018081992787FD6A
:1012200090950E947726892BA9F72197CE0DDF1D77
:1012300001C021978881992787FD90950E94772684
:10124000892B19F0C017D107A0F7FE013196E01BDA
:10125000F10BD6011596FC93EE9314972D913C91CA
:101260002017310728F4C901B801AF010E948F2669
:10127000D601ED91FC91119714968D919C91159743
:10128000E80FF91F1082DF91CF911F910F91FF900E
:10129000EF90DF90CF900895CF93DF93FC01C08152
:1012A000D181209739F409C0992787FD90950E9434
:1012B0008726899388818823B9F7DF91CF91089594
:1012C000CF93DF93FC01C081D181209739F409C00D
:1012D000992787FD90950E947F268993888188238E
:1012E000B9F7DF91CF910895EF92FF920F931F937B
:1012F000CF93DF93FC01DB018617970739F1248137
:10130000358114968D919C9115972817390701F511
:10131000232BE1F0E080F180CD91DC9113C099277F
:1013200087FD90950E947F268C018881992787FDF3
:1013300090950E947F260817190751F40894E11C24
:10134000F11C2196F7018081882349F781E001C0D3
:1013500080E0DF91CF911F910F91FF90EF90089562
:10136000AF92BF92CF92DF92EF92FF920F931F93B3
:10137000CF93DF93FC015B017A01DB0114962D9181
:101380003C9115972115310559F18481958100977C
:1013900039F18217930720F14817590720F07C0193
:1013A0000894E108F10800811181C801CFEFDFEF57
:1013B0006801CE0CDF1C10C0F501608171810E94B4
:1013C000ED269C01009771F0801B910BE816F90641
:1013D00008F0EC01C9010196C816D90668F702C0E9
:1013E000CFEFDFEFCE01DF91CF911F910F91FF90F3
:1013F000EF90DF90CF90BF90AF900895FC01DB019C
:101400004481558114968D919C911597481B590BD9
:10141000CF010E94B0090895CF93DF93FC01DB0157
:10142000848195814817590760F4C081D1816D91FD
:101430007C91CE01840F951F0E94ED269C010097A0
:1014400019F42FEF3FEF02C02C1B3D0BC901DF91B8
:10145000CF91089540E050E00E940C0A0895DF9279
:10146000EF92FF920F931F93CF93DF93EC018C8148
:101470009D8148175907C8F47A010894E11CF11CB2
:10148000E881F981EE0DFF1DD0801082088119815D
:10149000772767FD7095C8010E94E2269C010E0D1A
:1014A0001F1DF801D082009719F4EFEFFFEF05C080
:1014B00088819981F901E81BF90BCF01DF91CF9168
:1014C0001F910F91FF90EF90DF900895FC014481F0
:1014D0005581415050400E942F0A0895CF93DF93C9
:1014E000FC01848195814817590768F4C081D18136
:1014F000772767FD7095CE01840F951F0E94AA265D
:101500009C01009719F42FEF3FEF02C02C1B3D0BFD
:10151000C901DF91CF91089540E050E00E946E0A2A
:1015200008950F931F93CF93DF93FC018B01411517
:101530005105F9F061157105E1F084819581281755
:10154000390718F0FB01108214C041505040EC01E3
:10155000C21BD30B4C175D0708F4EA01608171814F
:10156000620F731FC801AE010E94D326C00FD11FA6
:101570001882DF91CF911F910F910895FC01DB013B
:101580002481358114964D915C9115972417350768
:10159000A8F080819181009789F06D917C9161150F
:1015A000710561F0241B350B820F931F0E94B52635
:1015B0009C0180E0232B19F481E0089580E00895D8
:1015C000DC01FB0114968D919C911597892B31F4C8
:1015D00061157105A9F090E0808108C00D90BC9163
:1015E000A02D6115710529F490E08C91882349F4B0
:1015F00007C0CD010E94B5269C0190E0232B09F481
:1016000091E0892F0895CF93DF939C01FB01EC01BA
:10161000A881B981109729F06081718161157105E8
:10162000D1F4C081D181209759F084819581892B93
:1016300039F0888190E022273327281B390B12C00C
:10164000109771F0F90184819581892B49F08C9173
:10165000282F30E007C0CD010E94B5269C0102C0B2
:1016600020E030E0C901DF91CF9108950E94030B83
:10167000892F8095881F8827881F08950E94030B53
:1016800020E0181619060CF021E0822F08950E9420
:10169000030B20E0181619060CF421E0822F0895A0
:1016A0000E94030B892F881F8827881F0895FC013B
:1016B000DB012481358114968D919C911597281713
:1016C000390711F020E007C0CF010E94030B20E092
:1016D000892B09F421E0822F0895FC01DB01149687
:1016E0002D913C91159784819581821B930B8417D2
:1016F0009507A0F080819181009781F06D917C9198
:101700006115710559F0840F951FA9010E94C52626
:101710009C0180E0232B19F481E0089580E0089576
:10172000FC01DB012481358114968D919C911597E4
:101730002817390710F480E00895CF0140E050E009
:101740000E946D0B08950F931F93CF93DF93EC01CD
:101750008B016F5F7F4F888199810E94812500975F
:1017600011F480E005C0998388831B830A8381E09C
:10177000DF91CF911F910F9108952F923F924F9239
:101780005F926F927F928F929F92AF92BF92CF9211
:10179000DF92EF92FF920F931F93CF93DF935C0141
:1017A0002B014A01DC0114960D911C91159701152E
:1017B000110509F4D4C0FB01C480D580C114D10443
:1017C00009F4CDC0DA0114966D907C9015976C18D1
:1017D0007D08FC01E080F1806114710491F01BC070
:1017E000D4016C9111967C91119714964D915C9156
:1017F00015978C2F0E948F26F401E480F580EC0E63
:10180000FD1ED2016D917C91C7010E94ED26EC0175
:10181000009731F7A4C077FE02C067012EC0FB011C
:1018200020803180E8013CC08E010E191F09C601DD
:10183000B701A8010E948F260C0D1D1DD4016C91CB
:1018400011967C91119714964D915C911597C80152
:101850000E948F26F401C480D580C00ED11ED20113
:101860001496ED90FC901597EC0EFD1EF501848109
:101870009581860D971D95838483D2016D917C910E
:10188000C7010E94ED26EC01009771F6C601B70171
:101890000E94BE2664C07B01EC0CFD1CC60DD71D4A
:1018A000C701B1010E94ED26BC010097A1F7C01746
:1018B000D10709F454C0F501828193818C179D07EB
:1018C00008F044C0C501BE010E94A30B8823F1F5B6
:1018D00046C0C501B201A9010E94B009EC0197FD03
:1018E0003EC0D5016D917C911197F2018481958163
:1018F0008C0F9D1F680F791F14964D915C91159761
:10190000481B590BCB01860D971D0E949826D501C7
:1019100014968D919C911597860D971D15969C9305
:101920008E931497ED91FC911197E80FF91F108297
:101930002D913C912C0F3D1FF401608171814481F8
:101940005581C9010E948F269E0105C0D5011496BC
:101950002D913C9115972150304037FFBACFDF9140
:10196000CF911F910F91FF90EF90DF90CF90BF909C
:10197000AF909F908F907F906F905F904F903F902F
:101980002F900895CF93DF93EC0188819981892B63
:1019900029F08A819B818617970760F4CE010E9407
:1019A000A30B882341F08C819D81892B19F4E88158
:1019B000F981108281E0DF91CF910895EF92FF923B
:1019C0000F931F93CF93DF93EC017B016C817D819B
:1019D000E114F104C1F04115510599F08A01060F97
:1019E000171FB8010E94C20C882369F08881998171
:1019F0002C813D81820F931FB7010E94BE261D835B
:101A00000C8381E001C080E0DF91CF911F910F91A5
:101A1000FF90EF900895EF92FF920F931F93DF9343
:101A2000CF93CDB7DEB72B970FB6F894DEBF0FBEBE
:101A3000CDBF7C01CB01BA018E010F5F1F4FA80102
:101A40002AE030E00E947127F80101900020E9F7B8
:101A50003197E01BF10BC701B801AF010E94DE0C0A
:101A60002B960FB6F894DEBF0FBECDBFCF91DF919E
:101A70001F910F91FF90EF900895EF92FF920F93B7
:101A80001F93DF93CF93CDB7DEB72C970FB6F894A3
:101A9000DEBF0FBECDBF7C01CB01BA018E010F5F4F
:101AA0001F4FA8012AE030E00E942827F80101908A
:101AB0000020E9F73197E01BF10BC701B801AF0136
:101AC0000E94DE0C2C960FB6F894DEBF0FBECDBF81
:101AD000CF91DF911F910F91FF90EF900895EF92BA
:101AE000FF920F931F93DF93CF9300D000D000D0CD
:101AF000CDB7DEB77C01CB018E010F5F1F4FB80160
:101B00004AE050E00E949627F80101900020E9F792
:101B10003197E01BF10BC701B801AF010E94DE0C49
:101B200026960FB6F894DEBF0FBECDBFCF91DF91E2
:101B30001F910F91FF90EF900895EF92FF920F93F6
:101B40001F93DF93CF93CDB7DEB727970FB6F894E7
:101B5000DEBF0FBECDBF7C01CB018E010F5F1F4FDB
:101B6000B8014AE050E00E940727F80101900020E8
:101B7000E9F73197E01BF10BC701B801AF010E94F3
:101B8000DE0C27960FB6F894DEBF0FBECDBFCF9107
:101B9000DF911F910F91FF90EF900895EF92FF92C8
:101BA0000F931F93DF93CF9300D000D0CDB7DEB754
:101BB0007C01862F90E08E010F5F1F4FB8014AE035
:101BC00050E00E940727F80101900020E9F73197C3
:101BD000E01BF10BC701B801AF010E94DE0C0F90B2
:101BE0000F900F900F90CF91DF911F910F91FF9069
:101BF000EF900895DF93CF9300D0CDB7DEB7698320
:101C00001A82BE016F5F7F4F41E050E00E94DE0C00
:101C10000F900F90CF91DF9108956115710511F428
:101C200080E00895DB010D900020E9F71197A61BD5
:101C3000B70BAD010E94DE0C0895FB01608171813C
:101C4000448155810E94DE0C0895CF93DF93EC010F
:101C500088819981009711F00E94E92419821882E5
:101C60001D821C821B821A82DF91CF9108950F93EF
:101C70001F93182F092F0E940B0D882321F4812F09
:101C8000902F0E94250E812F902F1F910F91089564
:101C90000F931F93182F092F0E943D0D882321F4C5
:101CA000812F902F0E94250E812F902F1F910F9131
:101CB00008950F931F93182F092F0E946F0D8823EB
:101CC00021F4812F902F0E94250E812F902F1F919C
:101CD0000F9108950F931F93182F092F0E949D0DA8
:101CE000882321F4812F902F0E94250E812F902F81
:101CF0001F910F9108950F931F93182F092F0E9482
:101D0000CE0D882321F4812F902F0E94250E812F44
:101D1000902F1F910F9108950F931F93182F092F44
:101D20000E94FA0D882321F4812F902F0E94250E06
:101D3000812F902F1F910F9108950F931F93182FAC
:101D4000092F6115710561F0DB010D900020E9F7A5
:101D50001197A61BB70BAD010E94DE0C882321F45E
:101D6000812F902F0E94250E812F902F1F910F9170
:101D700008950F931F93182F092FFB016081718124
:101D8000448155810E94DE0C882321F4812F902FFD
:101D90000E94250E812F902F1F910F910895EF9291
:101DA000FF920F931F93CF93DF93EC017B018A0186
:101DB000BA010E94C20C882321F4CE010E94250E94
:101DC00007C01D830C8388819981B7010E94BE26BC
:101DD000CE01DF91CF911F910F91FF90EF90089569
:101DE000CF93DF93EC01198218821B821A821D8225
:101DF0001C821E826115710551F0DB010D900020DF
:101E0000E9F71197A61BB70BAD010E94CF0EDF912A
:101E1000CF910895CF93DF93EC01198218821B8232
:101E20001A821D821C821E826115710551F0DB0130
:101E30000D900020E9F71197A61BB70BAD010E948A
:101E4000CF0EDF91CF9108950F931F93182F092F75
:101E50006115710559F0DB010D900020E9F711972C
:101E6000A61BB70BAD010E94CF0E02C00E94250E2B
:101E7000812F902F1F910F910895EF92FF920F9352
:101E80001F93DF93CF93CDB7DEB7A1970FB6F8942A
:101E9000DEBF0FBECDBF8C01FC0111821082138208
:101EA0001282158214821682CB01BA017E01089437
:101EB000E11CF11CA70130E00E947127C801B701A5
:101EC0000E94240FA1960FB6F894DEBF0FBECDBFBF
:101ED000CF91DF911F910F91FF90EF900895EF92B6
:101EE000FF920F931F93DF93CF93CDB7DEB7A197E8
:101EF0000FB6F894DEBF0FBECDBF8C01FC0111827E
:101F0000108213821282158214821682CB01BA01CA
:101F10007E010894E11CF11CA70130E00E947127AA
:101F2000C801B7010E94240FA1960FB6F894DEBF36
:101F30000FBECDBFCF91DF911F910F91FF90EF901A
:101F40000895EF92FF920F931F93DF93CF93CDB736
:101F5000DEB7A2970FB6F894DEBF0FBECDBF8C01DF
:101F6000FC01118210821382128215821482168261
:101F7000CB01BA017E010894E11CF11CA70130E0FD
:101F80000E942827C801B7010E94240FA2960FB60D
:101F9000F894DEBF0FBECDBFCF91DF911F910F919F
:101FA000FF90EF900895EF92FF920F931F93DF93AE
:101FB000CF93CDB7DEB7A2970FB6F894DEBF0FBEB2
:101FC000CDBF8C01FC011182108213821282158216
:101FD00014821682CB01BA017E010894E11CF11C27
:101FE000A70130E00E942827C801B7010E94240FF2
:101FF000A2960FB6F894DEBF0FBECDBFCF91DF9192
:102000001F910F91FF90EF900895EF92FF920F9321
:102010001F93DF93CF93CDB7DEB761970FB6F894D8
:10202000DEBF0FBECDBF8C01CB01F8011182108243
:10203000138212821582148216827E010894E11C9A
:10204000F11CB70150E00E949627C801B7010E9419
:10205000240F61960FB6F894DEBF0FBECDBFCF91AF
:10206000DF911F910F91FF90EF900895EF92FF92F3
:102070000F931F93DF93CF93CDB7DEB761970FB662
:10208000F894DEBF0FBECDBF8C01CB01F8011182E9
:102090001082138212821582148216827E010894A5
:1020A000E11CF11CB70150E00E949627C801B7015E
:1020B0000E94240F61960FB6F894DEBF0FBECDBF0D
:1020C000CF91DF911F910F91FF90EF900895EF92C4
:1020D000FF920F931F93DF93CF93CDB7DEB7629735
:1020E0000FB6F894DEBF0FBECDBF8C01CB01F80157
:1020F00011821082138212821582148216827E014E
:102100000894E11CF11CB70150E00E940727C801A8
:10211000B7010E94240F62960FB6F894DEBF0FBE7F
:10212000CDBFCF91DF911F910F91FF90EF90089558
:10213000EF92FF920F931F93DF93CF93CDB7DEB74C
:1021400062970FB6F894DEBF0FBECDBF8C01CB01F6
:10215000F801118210821382128215821482168273
:102160007E010894E11CF11CB70150E00E94072792
:10217000C801B7010E94240F62960FB6F894DEBF23
:102180000FBECDBFCF91DF911F910F91FF90EF90C8
:102190000895EF92FF920F931F93DF93CF93CDB7E4
:1021A000DEB729970FB6F894DEBF0FBECDBF8C0106
:1021B000862FF801118210821382128215821482F6
:1021C000168290E07E010894E11CF11CB70150E0FA
:1021D0000E949627C801B7010E94240F29960FB6C6
:1021E000F894DEBF0FBECDBFCF91DF911F910F914D
:1021F000FF90EF900895EF92FF920F931F93DF935C
:10220000CF93CDB7DEB729970FB6F894DEBF0FBED8
:10221000CDBF8C01862FF8011182108213821282A9
:1022200015821482168290E07E010894E11CF11C54
:10223000B70150E00E949627C801B7010E94240F01
:1022400029960FB6F894DEBF0FBECDBFCF91DF91B8
:102250001F910F91FF90EF900895DF93CF9300D0DF
:10226000CDB7DEB7FC011182108213821282158273
:102270001482168269831A82BE016F5F7F4F0E94AB
:10228000240F0F900F90CF91DF910895DF93CF939C
:1022900000D0CDB7DEB7FC0111821082138212820A
:1022A00015821482168269831A82BE016F5F7F4F86
:1022B0000E94240F0F900F90CF91DF910895BF924D
:1022C000CF92DF92EF92FF920F931F93CF93DF9302
:1022D000082FB92E6B017A01E9012417350710F494
:1022E000EA017901802F9B2D6DE072E00E94F00ED3
:1022F000D60114968D919C9115978E159F05D0F05F
:102300008C179D0708F4EC01D601ED91FC91119713
:10231000EC0FFD1F108110826D917C916E0D7F1D61
:10232000802F9B2D0E94240FD601ED91FC91EC0F84
:10233000FD1F1083802F9B2DDF91CF911F910F9157
:10234000FF90EF90DF90CF90BF9008950F931F9371
:102350008C01FB01248135810E945F11C8011F910E
:102360000F910895CF93DF93EC01FB018617970738
:1023700061F0608171816115710529F04481558199
:102380000E94CF0E02C00E94250ECE01DF91CF9198
:102390000895FC0111821082138212821582148228
:1023A00016820E94B2110895FC01118210821382DC
:1023B00012821582148216820E94B2110895FC01C5
:1023C000808191810E94E9240895FC01808191819E
:1023D0000E94E9240895482F6AE00E94BA23282F1A
:1023E00030E084E0220F331F8A95E1F7842F0E94AA
:1023F000BA23892F820F0895282F22952F709AE0F3
:10240000299F900111248F70820F08950F931F93BD
:102410008C0183E494E068E670E00E945A1383E440
:1024200094E060E00E941714F80180810E94EB1193
:10243000682F83E494E00E941714F80181810E94C0
:10244000EB11682F83E494E00E941714F801828155
:102450000E94EB11682F83E494E00E941714F801A6
:1024600083810E94EB11682F83E494E00E9417148B
:10247000F80184810E94EB11682F83E494E00E94AC
:102480001714F80185810E94EB11682F83E494E012
:102490000E941714F80186818E510E94EB11682F5B
:1024A00083E494E00E94171483E494E00E945A1499
:1024B000882321F01092F70380E003C081E080932D
:1024C000F7031F910F9108951F93CF93DF93EC01B2
:1024D00083E494E068E670E00E945A1383E494E099
:1024E00060E00E94171483E494E00E945A14882349
:1024F00019F01092F70311C081E08093F70383E491
:1025000094E068E670E047E050E00E946E1483E4D7
:1025100094E00E946413079714F480E03AC083E4C7
:1025200094E00E946D13182F8F770E94FC1188830E
:1025300083E494E00E946D130E94FC11898383E47C
:1025400094E00E946D138F730E94FC118A8383E4D0
:1025500094E00E946D130E94FC118B8383E494E04D
:102560000E946D130E94FC118C8383E494E00E940E
:102570006D130E94FC118D8383E494E00E946D131F
:102580000E94FC11825E8E83812F8095881F882790
:10259000881FDF91CF911F9108950F931F93DF93B1
:1025A000CF93CDB7DEB727970FB6F894DEBF0FBE37
:1025B000CDBF8E010F5F1F4FA8010E949814898123
:1025C00080688983C8010E94061289818F77898378
:1025D000C8010E94061227960FB6F894DEBF0FBE00
:1025E000CDBFCF91DF911F910F9108950F931F934E
:1025F000DF93CF93CDB7DEB727970FB6F894DEBF42
:102600000FBECDBF8E010F5F1F4FC8010E94641225
:10261000882329F420E030E040E050E005C0C80104
:102620000E9414169B01AC01B901CA0127960FB68E
:10263000F894DEBF0FBECDBFCF91DF911F910F91F8
:10264000089583E494E00E947614089583E494E06E
:102650000E947614089583E494E00E94761408950D
:10266000FC011382128288EE93E0A0E0B0E0848344
:102670009583A683B78382E192E091838083089556
:10268000FC011382128288EE93E0A0E0B0E0848324
:102690009583A683B78382E192E091838083089536
:1026A00081E080933E0460931B0410923C041092DE
:1026B0003D04089581E080933E0460931B041092D2
:1026C0003C0410923D04089520911A0430E080915A
:1026D0001904281B3109C9010895409119048091FA
:1026E0001A04481718F02FEF3FEF0AC0E42FF0E06C
:1026F000E750FC4F8081282F30E04F5F4093190452
:10270000C9010895E091190480911A04E81718F09E
:10271000EFEFFFEF06C0F0E0E750FC4F8081E82FBD
:10272000F0E0CF0108950895AC012091410430916B
:10273000420421153105E1F09091190480911A04A9
:102740009817B0F090E008C0FA01EA0FFB1F8081F3
:10275000A750BC4F8C939F5FA92FB0E0A617B70777
:102760009CF31092190460931A04CB01F9010995A6
:102770000895E0913F04F0914004309729F01092C1
:102780003C0410923D0409950895709342046093AF
:10279000410408957093400460933F04089510929B
:1027A00046041092450488EE93E0A0E0B0E08093E8
:1027B000470490934804A0934904B0934A0482E1EB
:1027C00092E090934404809343040895CF92DF9263
:1027D000EF92FF920F931F93CF93DF937C016B01D6
:1027E0008A0180913E048823A1F0C0E0D0E00DC0B2
:1027F000D701ED91FC91D601AC0FBD1F0190F08186
:10280000E02DC7016C9109952196C017D10780F37F
:1028100004C0CB01642F0E946721C801DF91CF91D2
:102820001F910F91FF90EF90DF90CF900895DF936D
:10283000CF930F92CDB7DEB7FC01698380913E0440
:102840008823C9F080913D04803238F081E090E027
:102850009383828320E030E015C080913C04E82F10
:10286000F0E0E45EFB4F998190838F5F80933C049E
:1028700080933D0405C0CE01019661E00E9467216E
:1028800021E030E0C9010F90CF91DF9108950F93BF
:10289000062F80911B046CE174E040913D0421E01F
:1028A0000E94122110923C0410923D0410923E04AA
:1028B0000F91089561E00E9447140895413208F095
:1028C00040E2862F69EF73E00E94C920109219043C
:1028D00080931A0408950E945E14089521E00E94D6
:1028E0005E14089521E00E945E1408951092190468
:1028F00010921A0410923C0410923D040E941D2371
:1029000008950F931F938C01862F0E94C52089EB99
:1029100093E10E94872184E993E10E948221C8010A
:102920000E9476141F910F9108950E9481140895BA
:102930008F929F92AF92BF92CF92DF92EF92FF92CF
:102940000F931F93CF93DF937B018C01EA012CE35C
:1029500030E040E050E00E94D9236883C801B7010D
:102960002CE330E040E050E00E94D923122F032FE7
:10297000F42EE52E622F732F842F952F2CE330E059
:1029800040E050E00E94D9236983612F702F8F2D82
:102990009E2D2CE330E040E050E00E94D923122F1E
:1029A000032FF42EE52E622F732F842F952F28E10D
:1029B00030E040E050E00E94D9236A83612F702FFD
:1029C0008F2D9E2D28E130E040E050E00E94D92379
:1029D00079018A01C801B7016C5F7F4F8F4F9F4F0C
:1029E00027E030E040E050E00E94D9236F5F6B8326
:1029F00020E0AA24BB24650101C02F5F822E992408
:102A0000F401EE54F84FCF0183709070892B99F444
:102A1000CF0164E670E00E94C623892B39F4CF0110
:102A200060E971E00E94C623892B29F48EE691E0CB
:102A3000A0E0B0E004C08DE691E0A0E0B0E0A80E18
:102A4000B91ECA1EDB1EC501A0E0B0E0E816F906FB
:102A50000A071B0790F62E83F401EE54F84F83E02B
:102A6000882E912C8E229F228114910499F4CF01FB
:102A700064E670E00E94C623892B39F4CF0160E937
:102A800071E00E94C623892B29F48EE691E0A0E034
:102A9000B0E004C08DE691E0A0E0B0E0A81AB90A69
:102AA000CA0ADB0A980187010A191B092C093D098A
:102AB000CF0164E670E00E94C6237C01CF0160E98B
:102AC00071E00E94C623AC01E2E3F2E060E0613015
:102AD00051F48114910449F4E114F10441F44115D5
:102AE000510529F002C0808103C08CE101C08DE155
:102AF00090E0A0E0B0E0081719072A073B0740F074
:102B0000081B190B2A0B3B0B6F5F31966C30F9F6E3
:102B10006F5F6D83802F8F5F8C83DF91CF911F91CB
:102B20000F91FF90EF90DF90CF90BF90AF909F906C
:102B30008F900895EF92FF920F931F937B018C016A
:102B40008091660490916704A0916804B091690433
:102B5000E816F9060A071B0771F0C801B7014BE533
:102B600054E00E949814E0926604F0926704009387
:102B70006804109369041F910F91FF90EF900895DE
:102B80000E949A152091610430E02E54384FC901FB
:102B900008950E949A158091600490E008950E9423
:102BA0009A1580915E0490E008950E949A15809194
:102BB0005F0490E008950E949A1580915B0490E074
:102BC00008950E949A1580915C0490E008950E94F7
:102BD0009A1520915D04222319F42CE030E009C0FD
:102BE000822F90E02D3020F09C012C50304001C00D
:102BF0009C01C90108950E949A1580915D0490E09E
:102C000008950E949A1520E080915D0490E00C9751
:102C10000CF021E0822F08950E94011690E0882395
:102C200009F491E0892F08954F925F926F927F92FD
:102C30008F929F92AF92BF92CF92DF92EF92FF92CC
:102C40000F931F93CF93DF934C01DC0116961C91D9
:102C5000612F70E080E090E020E833E341EE51E046
:102C60000E949B235B016C0122EB37E0E12FF0E037
:102C7000EE54F84F1DC0C90183709070892BB1F4D8
:102C8000C90164E670E00E94C623892B39F4C901AA
:102C900060E971E00E94C623892B41F480E891E548
:102CA000A1E0B0E0A80EB91ECA1EDB1E2F5F3F4F89
:102CB0002E173F0701F7D40115968C91482E552405
:102CC000C90164E670E00E94C6237C01C90160E985
:102CD00071E00E94C6238C01C1E0D0E093E0692E30
:102CE000712C6222732227C0C230D10591F4611485
:102CF000710479F4E114F10419F40115110549F492
:102D000080E89BE3A6E2B0E0A80EB91ECA1EDB1E57
:102D100011C0FE01EF5CFD4F608170E080E090E04B
:102D200020E831E541E050E00E949B23A60EB71E4B
:102D3000C81ED91E2196C415D505B4F2D401129629
:102D40006C9170E080E090E020E13EE040E050E0F7
:102D50000E949B237B018C01F401618170E080E083
:102D600090E02CE330E040E050E00E949B23E60E30
:102D7000F71E081F191FD4018C91E80EF11C011DCC
:102D8000111D14966C9170E061507040882777FD9A
:102D90008095982F20E831E541E050E00E949B2388
:102DA000E60EF71E081F191FEA0CFB1C0C1D1D1D4B
:102DB000B701C801DF91CF911F910F91FF90EF9064
:102DC000DF90CF90BF90AF909F908F907F906F904B
:102DD0005F904F900895209151043091520440919A
:102DE000530450915404260F371F481F591F209336
:102DF0005104309352044093530450935404089563
:102E000060932E0270932F028093300290933102D0
:102E10002091510430915204409153045091540434
:102E2000260F371F481F591F20935504309356040F
:102E3000409357045093580408956093510470933D
:102E40005204809353049093540420912E023091A5
:102E50002F024091300250913102260F371F481F38
:102E6000591F2093550430935604409357045093B0
:102E7000580482E090E090935A04809359040E9491
:102E80003020609362047093630480936404909391
:102E900065040895EF92FF920F93F701E436F10570
:102EA0001CF0E25BF74001C07E96E0936104009362
:102EB000600420935F0480935D0460935C044093FE
:102EC0005B048BE594E00E9414160E941D170F917D
:102ED000FF90EF900895EF92FF920F931F931CC005
:102EE0002F5F3F4F4F4F5F4F209351043093520459
:102EF000409353045093540488EE93E0A0E0B0E074
:102F0000E80EF91E0A1F1B1FE0926204F092630490
:102F100000936404109365040E943020E0906204E2
:102F2000F090630400916404109165046E197F09A8
:102F3000800B910B20915104309152044091530425
:102F400050915404685E73408040904048F68091F0
:102F5000550490915604A0915704B0915804281735
:102F600039074A075B07C8F1E0914F04F09150041C
:102F7000309799F10995611571058105910519F051
:102F80000E941D172AC080912E0290912F02A091BD
:102F90003002B0913102209151043091520440919D
:102FA000530450915404820F931FA41FB51F8093A4
:102FB000550490935604A0935704B093580420E00E
:102FC00030E08091590490915A04892B11F021E04E
:102FD00030E030935A042093590460915104709169
:102FE000520480915304909154041F910F91FF90CB
:102FF000EF9008959093500480934F048091510472
:1030000090915204A0915304B091540480935504BC
:1030100090935604A0935704B09358040E946B17E2
:1030200008950E946B178091590490915A04089555
:103030000E946B170E94C01508950E946B170E9492
:103040009A158091600490E008950E946B170E9489
:103050009A1580915E0490E008950E946B170E947B
:103060009A1580915F0490E008950E946B170E946A
:103070009A1580915B0490E008950E946B170E945E
:103080009A1580915C0490E008950E946B170E944D
:10309000011608950E946B170E94011690E0882384
:1030A00009F491E0892F08950E946B170E94E7159B
:1030B00008950E946B170E949A1580915D0490E01C
:1030C0000895EF92FF920F931F937B018C0120E0F4
:1030D00030E040E05FE40E940D1C88238CF0C801C2
:1030E000B70120E030E040E05FE40E94D9190E947F
:1030F000261D9B01AC01205030404040504806C086
:10310000C801B7010E94261D9B01AC01B901CA018B
:103110001F910F91FF90EF900895A0E0B0E0E3E9D8
:10312000F8E10C940F24DC012B01FA019C91923000
:1031300008F439C1EB018881823008F433C194303E
:1031400069F4843009F02FC111969C9111978981FF
:10315000981709F428C1AEE3B2E025C1843009F420
:1031600021C18230A9F4923009F01DC19A01AD014C
:1031700088E0EA010990AE01E90109929E018150BF
:10318000C1F7E201898111969C918923818308C14D
:10319000923009F407C112962D903C901397EB01E1
:1031A0008A819B811496AD90BD90CD90DC9017974D
:1031B000EC80FD800E811F819101281B390BB90124
:1031C00037FF04C066277727621B730B60327105D7
:1031D0000CF061C0121613066CF537014801062E7B
:1031E00004C096948794779467940A94D2F721E068
:1031F00030E040E050E004C0220F331F441F551F51
:103200006A95D2F721503040404050402E213F2156
:1032100040235123211531054105510521F021E0BD
:1032200030E040E050E079018A01E628F7280829DB
:1032300019293CC0232BD1F1260E371E350146013A
:10324000062E04C096948794779467940A94D2F7D4
:1032500021E030E040E050E004C0220F331F441F63
:10326000551F6A95D2F721503040404050402A21E6
:103270003B214C215D21211531054105510521F0EE
:1032800021E030E040E050E059016A01A628B7286B
:10329000C828D9280BC0821593052CF01C01AA243C
:1032A000BB24650103C0EE24FF24870111969C9185
:1032B000D20111968C91981709F445C0992339F0E1
:1032C000A80197012A193B094C095D0906C0A6010E
:1032D00095012E193F09400B510B57FD08C0118273
:1032E0003382228224833583468357831DC081E045
:1032F00081833382228288279927DC01821B930BEA
:10330000A40BB50B84839583A683B7830DC0220FCE
:10331000331F441F551F248335834683578382817F
:1033200093810197938382832481358146815781DC
:10333000DA01C9010197A109B1098F5F9F4FAF4F12
:10334000BF4328F30BC0918333822282EA0CFB1C1B
:103350000C1D1D1DE482F5820683178383E08083A4
:10336000248135814681578157FF1AC0C901AA2798
:1033700097FDA095BA2F81709070A070B07056958F
:10338000479537952795822B932BA42BB52B8483B8
:103390009583A683B78382819381019693838283E9
:1033A000DF0101C0D201CD01CDB7DEB7E2E10C945F
:1033B0002B24A0E2B0E0EFEDF9E10C941B2469832B
:1033C0007A838B839C832D833E834F835887E9E0E8
:1033D000EE2EF12CEC0EFD1ECE010196B7010E94DF
:1033E000171F8E010F5E1F4FCE010596B8010E9478
:1033F000171F8A8991E089278A8BC701B801AE011E
:10340000475E5F4F0E948D180E94421EA096E6E024
:103410000C943724A0E2B0E0E0E1FAE10C941B2424
:1034200069837A838B839C832D833E834F83588764
:10343000F9E0EF2EF12CEC0EFD1ECE010196B70146
:103440000E94171F8E010F5E1F4FCE010596B80117
:103450000E94171FC701B801AE01475E5F4F0E946F
:103460008D180E94421EA096E6E00C943724A0E23C
:10347000B0E0EDE3FAE10C940F2469837A838B8347
:103480009C832D833E834F835887CE010196BE01D6
:10349000675F7F4F0E94171FCE010596BE016F5ECA
:1034A0007F4F0E94171F9985923088F0898982305A
:1034B000C8F0943019F4823051F404C0843029F4F7
:1034C000923081F48EE392E0C6C0923049F420E05D
:1034D0009A858A89981321E02A87CE010996BBC074
:1034E000823049F420E09A858A89981321E02A8B5A
:1034F000CE014196B0C02D843E844F8458886D889B
:103500007E888F88988CEE24FF248701AA24BB2410
:10351000650140E050E060E070E0E0E0F0E0C10113
:1035200081709070892BE9F0E60CF71C081D191DBD
:103530009A01AB012A0D3B1D4C1D5D1D80E090E002
:10354000A0E0B0E0E614F7040805190520F481E0D6
:1035500090E0A0E0B0E0BA01A901480F591F6A1F2E
:103560007B1FAA0CBB1CCC1CDD1C97FE08C081E095
:1035700090E0A0E0B0E0A82AB92ACA2ADB2A319656
:10358000E032F10549F0660C771C881C991C5694B2
:10359000479437942794C3CFFA85EA892B893C89CD
:1035A0008B859C85280F391F2E5F3F4F17C0CA019E
:1035B00081709070892B61F016950795F794E794C8
:1035C00080E090E0A0E0B0E8E82AF92A0A2B1B2B63
:1035D00076956795579547952F5F3F4F77FDE7CFD6
:1035E0000CC0440F551F661F771F17FD4160EE0C7E
:1035F000FF1C001F111F21503040403090E0590740
:1036000090E0690790E4790760F32B8F3C8FDB0132
:10361000CA018F779070A070B07080349105A105B9
:10362000B10561F447FD0AC0E114F104010511057B
:1036300029F0405C5F4F6F4F7F4F40781A8EFE1726
:1036400011F081E08A8F4D8F5E8F6F8F78A383E0BA
:10365000898FCE0149960E94421EA096E2E10C9409
:103660002B24A8E1B0E0E7E3FBE10C941724698385
:103670007A838B839C832D833E834F835887B9E065
:10368000EB2EF12CEC0EFD1ECE010196B7010E942F
:10369000171F8E010F5E1F4FCE010596B8010E94C5
:1036A000171F2985223008F47EC03989323010F482
:1036B000B8017CC08A859A8989278A87243011F0CD
:1036C000223031F4231709F06EC06EE372E06EC051
:1036D000343039F41D861E861F86188A1C861B8688
:1036E00004C0323021F484E08987B7015FC02B85A4
:1036F0003C858B899C89281B390B3C872B87ED8463
:10370000FE840F851889AD88BE88CF88D88CEA14CE
:10371000FB040C051D0540F4EE0CFF1C001F111FDF
:10372000215030403C872B8720E030E040E050E0E3
:1037300080E090E0A0E0B0E460E070E0EA14FB0418
:103740000C051D0540F0282B392B4A2B5B2BEA1862
:10375000FB080C091D09B695A79597958795EE0C62
:10376000FF1C001F111F6F5F7F4F6F31710531F715
:10377000DA01C9018F779070A070B0708034910524
:10378000A105B10561F427FD0AC0E114F1040105AA
:10379000110529F0205C3F4F4F4F5F4F20782D8758
:1037A0003E874F87588BBE01675F7F4FCB010E94DA
:1037B000421E6896EAE00C943324A8E1B0E0E3EE00
:1037C000FBE10C941B2469837A838B839C832D8378
:1037D0003E834F83588789E0E82EF12CEC0EFD1EC6
:1037E000CE010196B7010E94171F8E010F5E1F4F79
:1037F000CE010596B8010E94171F8985823040F0DE
:103800008989823028F0C701B8010E948F1F01C04A
:103810008FEF6896E6E00C943724A8E1B0E0E3E18E
:10382000FCE10C941B2469837A838B839C832D8316
:103830003E834F83588789E0E82EF12CEC0EFD1E65
:10384000CE010196B7010E94171F8E010F5E1F4F18
:10385000CE010596B8010E94171F8985823040F07D
:103860008989823028F0C701B8010E948F1F01C0EA
:103870008FEF6896E6E00C943724A8E1B0E0E3E42B
:10388000FCE10C941B2469837A838B839C832D83B6
:103890003E834F83588789E0E82EF12CEC0EFD1E05
:1038A000CE010196B7010E94171F8E010F5E1F4FB8
:1038B000CE010596B8010E94171F8985823040F01D
:1038C0008989823028F0C701B8010E948F1F01C08A
:1038D00081E06896E6E00C943724A8E1B0E0E3E7E5
:1038E000FCE10C941B2469837A838B839C832D8356
:1038F0003E834F83588789E0E82EF12CEC0EFD1EA5
:10390000CE010196B7010E94171F8E010F5E1F4F57
:10391000CE010596B8010E94171F8985823040F0BC
:103920008989823028F0C701B8010E948F1F01C029
:1039300081E06896E6E00C943724A8E1B0E0E3EA81
:10394000FCE10C941F2469837A838B839C832D83F1
:103950003E834F835887CE010196BE01675F7F4F3C
:103960000E94171FCE010596BE016F5E7F4F0E9419
:10397000171F8985823028F020E030E08989823065
:1039800010F421E030E0822F6896E2E00C943B24B2
:10399000A8E0B0E0EEECFCE10C9418249B01AC0133
:1039A00083E08983DA01C9018827B7FD83959927C8
:1039B000AA27BB27B82E211531054105510519F459
:1039C00082E089833AC08823A9F0203080E038075C
:1039D00080E0480780E8580729F460E070E080E064
:1039E0009FEC30C0EE24FF248701E21AF30A040B97
:1039F000150B02C079018A018EE1C82ED12CDC8220
:103A0000CB82ED82FE820F831887C801B7010E9426
:103A1000F31D01971816190684F4082E04C0EE0C45
:103A2000FF1C001F111F0A94D2F7ED82FE820F8344
:103A30001887C81AD90ADC82CB82BA82CE010196D5
:103A40000E94421E2896E9E00C943424ACE0B0E0D9
:103A5000ECE2FDE10C941F2469837A838B839C83C1
:103A6000CE010196BE016B5F7F4F0E94171F8D81B3
:103A7000823061F1823050F1843021F48E818823CC
:103A800051F12EC02F81388537FD20C06E812F3136
:103A900031051CF06623F9F023C08EE190E0821B13
:103AA000930B29853A854B855C8504C056954795CF
:103AB000379527958A95D2F76623B1F050954095B2
:103AC000309521953F4F4F4F5F4F0EC020E030E0C3
:103AD00040E050E009C02FEF3FEF4FEF5FE704C039
:103AE00020E030E040E050E8B901CA012C96E2E065
:103AF0000C943B24A8E0B0E0E0E8FDE10C9417242E
:103B00007B018C01611571058105910519F482E035
:103B1000898360C083E089838EE1C82ED12CDC824A
:103B2000CB82ED82FE820F831887C801B7010E9405
:103B3000F31DFC013197F7FF3BC0222733272E1BD3
:103B40003F0B57016801022E04C0D694C794B79466
:103B5000A7940A94D2F740E050E060E070E081E082
:103B600090E0A0E0B0E004C0880F991FAA1FBB1F1F
:103B70002A95D2F70197A109B1098E219F21A0238F
:103B8000B1230097A105B10521F041E050E060E0CC
:103B900070E04A295B296C297D294D835E836F8300
:103BA00078878EE190E08E1B9F0B9C838B8312C0E5
:103BB000309781F00E2E04C0EE0CFF1C001F111F69
:103BC0000A94D2F7ED82FE820F831887CE1ADF0A9D
:103BD000DC82CB821A82CE0101960E94421E289678
:103BE000EAE00C943324EF92FF920F931F937B0132
:103BF0008C0180E0E81680E0F80681E0080780E0AC
:103C0000180788F48FEFE816F1040105110531F06B
:103C100028F088E090E0A0E0B0E017C080E090E0FD
:103C2000A0E0B0E012C080E0E81680E0F80680E096
:103C3000080781E0180728F088E190E0A0E0B0E0F4
:103C400004C080E190E0A0E0B0E020E230E040E09D
:103C500050E0281B390B4A0B5B0B04C016950795E7
:103C6000F794E7948A95D2F7F701EA5BFD4F8081DC
:103C7000281B310941095109C9011F910F91FF907A
:103C8000EF900895DF92EF92FF920F931F93FC0144
:103C9000E480F58006811781D1808081823048F4EC
:103CA00080E090E0A0E1B0E0E82AF92A0A2B1B2B83
:103CB000A5C0843009F49FC0823021F4EE24FF2493
:103CC000870105C0E114F1040105110519F4E0E0D4
:103CD000F0E096C0628173819FEF623879070CF043
:103CE0005BC022E83FEF261B370B2A3131052CF051
:103CF00020E030E040E050E02AC0B801A701022EE9
:103D000004C076956795579547950A94D2F781E058
:103D100090E0A0E0B0E004C0880F991FAA1FBB1F6D
:103D20002A95D2F70197A109B1098E219F21A023DD
:103D3000B1230097A105B10521F081E090E0A0E05A
:103D4000B0E09A01AB01282B392B4A2B5B2BDA010F
:103D5000C9018F779070A070B07080349105A10573
:103D6000B10539F427FF09C0205C3F4F4F4F5F4F2B
:103D700004C0215C3F4F4F4F5F4FE0E0F0E0203048
:103D8000A0E03A07A0E04A07A0E45A0710F0E1E0FB
:103D9000F0E079018A0127C06038710564F5FB0104
:103DA000E158FF4FD801C7018F779070A070B070B5
:103DB00080349105A105B10539F4E7FE0DC080E41A
:103DC00090E0A0E0B0E004C08FE390E0A0E0B0E0BD
:103DD000E80EF91E0A1F1B1F17FF05C01695079551
:103DE000F794E794319687E016950795F794E79452
:103DF0008A95D1F705C0EE24FF248701EFEFF0E0AC
:103E00006E2F679566276795902F9F77D794DD244F
:103E1000D7948E2F8695492F462B582F5D29B701B1
:103E2000CA011F910F91FF90EF90DF900895FC0160
:103E3000DB01408151812281622F6F7770E0221F68
:103E40002227221F9381892F880F822B282F30E071
:103E5000991F9927991F11969C9311972115310548
:103E6000A9F5411551056105710511F482E037C0CE
:103E700082E89FEF13969C938E9312979A01AB0161
:103E800067E0220F331F441F551F6A95D1F783E067
:103E90008C930DC0220F331F441F551F12968D9116
:103EA0009C911397019713969C938E9312972030B1
:103EB00080E0380780E0480780E4580758F31496FC
:103EC0002D933D934D935C93179708952F3F3105A4
:103ED00079F4411551056105710519F484E08C935D
:103EE000089564FF03C081E08C9312C01C9210C03F
:103EF0002F57304013963C932E93129783E08C9368
:103F000087E0440F551F661F771F8A95D1F77064AD
:103F100014964D935D936D937C93179708951F931B
:103F2000DC01FB019C91923008F447C08081823013
:103F300008F443C0943051F411961C91843099F5E3
:103F40008181682F70E0611B71093FC0843021F0CE
:103F5000923031F48230B9F18181882389F12DC00A
:103F600011961C9111978230F1F081811817D9F4C4
:103F700012962D913C91139782819381821793071A
:103F800094F028173907BCF014968D919D910D90EF
:103F9000BC91A02D2481358146815781281739078E
:103FA0004A075B0718F4112341F00AC082179307F0
:103FB000A407B50740F4112319F061E070E005C0D3
:103FC0006FEF7FEF02C060E070E0CB011F910895BA
:103FD0001F920F920FB60F9211242F933F938F933E
:103FE0009F93AF93BF9380916E0490916F04A091C3
:103FF0007004B0917104309172040196A11DB11D3D
:10400000232F2D5F2D3720F02D570196A11DB11DB7
:104010002093720480936E0490936F04A0937004B5
:10402000B093710480916A0490916B04A0916C0428
:10403000B0916D040196A11DB11D80936A04909307
:104040006B04A0936C04B0936D04BF91AF919F91EA
:104050008F913F912F910F900FBE0F901F90189549
:104060008FB7F89420916E0430916F0440917004E2
:10407000509171048FBFB901CA0108959FB7F89498
:1040800020916A0430916B0440916C0450916D044E
:1040900086B5A89B06C08F3F21F02F5F3F4F4F4F43
:1040A0005F4F9FBF542F432F322F2227280F311DE0
:1040B000411D511D82E0220F331F441F551F8A9559
:1040C000D1F7B901CA010895EF92FF920F931F93A0
:1040D000CF93DF937B018C010E943E20EB010EC049
:1040E0000E943E206C1B7D0B685E7340C8F30894F1
:1040F000E108F10801091109C851DC4FE114F1048C
:104100000105110569F7DF91CF911F910F91FF9084
:10411000EF900895789484B5826084BD84B5816001
:1041200084BD85B5826085BD85B5816085BDEEE6BF
:10413000F0E0808181608083E1E8F0E0108280819E
:1041400082608083808181608083E0E8F0E080810C
:1041500081608083E1EBF0E0808184608083E0EB2C
:10416000F0E0808181608083EAE7F0E08081846014
:104170008083808182608083808181608083808170
:10418000806880831092C1000895880F8093BA00E0
:104190000895382F413210F040E042C080917304FE
:1041A0008823E1F791E090937304209375048FEFD7
:1041B0008093E00410929B04415040939C044F5F15
:1041C0009093740480917404330F832B8093740450
:1041D00080917604813041F41092760480917404C9
:1041E0008093BB0085EC01C085EE8093BC0080917C
:1041F00073048130E1F380919B04841710F44091A3
:104200009B0420E030E00AC0FB01E20FF31FD9015C
:10421000A558BB4F8C9180832F5F3F4F2417A0F38D
:10422000842F08950F931F93582F122F413210F0AF
:1042300081E04AC0809173048823E1F782E0809393
:104240007304009375048FEF8093E00410929B0435
:1042500040939C04ABE7B4E0FB0102C081918D93D5
:104260008E2F861B8417D0F31092740480917404EF
:10427000550F852B8093740480917604813041F42E
:1042800010927604809174048093BB0085EC01C089
:1042900085EE8093BC00112321F08091730482305D
:1042A000E1F38091E0048F3F11F480E00DC0809134
:1042B000E004803211F482E007C08091E004803392
:1042C00011F084E001C083E01F910F910895482F01
:1042D000613210F081E0089580917304843011F010
:1042E00082E008956093BE04ADE9B4E0842F9C01A0
:1042F000F90102C081918D938E2F841B8617D0F314
:1043000080E0089590937A048093790408959093BF
:1043100078048093770408951F920F920FB60F923E
:1043200011242F933F934F935F936F937F938F93BA
:104330009F93AF93BF93EF93FF938091B90090E069
:10434000887F90708036910509F4F2C0813691051E
:10435000CCF58832910509F47BC089329105B4F41B
:104360008031910509F46FC0813191053CF40097CB
:1043700009F447C1089709F04FC165C0883191051C
:1043800009F466C0809709F047C182C08034910566
:1043900009F4A4C08134910544F48033910509F4F3
:1043A00082C0C89709F038C189C08035910509F4E9
:1043B00089C08835910509F496C08834910509F0C3
:1043C0002BC1AEC08839910509F413C18939910513
:1043D000ECF48837910509F4ABC0893791054CF4AA
:1043E0008836910509F4A4C08037910509F014C1FD
:1043F0009FC08838910509F4FCC08039910509F403
:104400009DC08038910509F007C198C0803B910597
:1044100009F4C6C0813B91054CF4803A910509F43A
:104420009FC0883A910509F0F7C0BAC0803C910559
:1044300009F4E3C0883C910509F4DFC0883B91058D
:1044400009F0EAC0C2C0809174048093BB00CFC061
:1044500090919B0480919C04981768F490919B0420
:10446000E92FF0E0E558FB4F80818093BB009F5F10
:1044700090939B04BCC080917504882309F44BC0C1
:1044800085ED8093BC008091BC0084FDFCCFC2C050
:1044900080E28093E00485ED8093BC008091BC00B5
:1044A00084FDFCCFB7C080E38093E00485ED80936A
:1044B000BC008091BC0084FDFCCFACC088E380933D
:1044C000E0049BC080919B049091BB00E82FF0E03A
:1044D000E558FB4F90838F5F80939B0490919B04E2
:1044E00080919C0482C080919B049091BB00E82F36
:1044F000F0E0E558FB4F90838F5F80939B048091A1
:104500007504882341F085ED8093BC008091BC0048
:1045100084FDFCCF7FC081E08093760484EA6EC086
:1045200085ED8093BC008091BC0084FDFCCF72C0FF
:1045300083E0809373041092DF0459C08091DF04FC
:10454000803208F056C08091DF049091BB00E82FC4
:10455000F0E0E154FB4F90838F5F8093DF0447C00E
:104560008091DF04803230F4E091DF04F0E0E15428
:10457000FB4F108285ED8093BC008091BC0084FDD0
:10458000FCCF109273046091DF04E0917904F09104
:104590007A048FEB94E070E009951092DF042DC04F
:1045A00084E0809373041092BD041092BE04E091E5
:1045B0007704F091780409958091BE04882329F44A
:1045C00081E08093BE0410929D049091BD04E92F78
:1045D000F0E0E356FB4F80818093BB009F5F909398
:1045E000BD049091BD048091BE04981710F485EC31
:1045F00001C085E88093BC000FC085EC8093BC00AF
:1046000009C01092E00485ED8093BC008091BC004D
:1046100084FDFCCF10927304FF91EF91BF91AF9195
:104620009F918F917F916F915F914F913F912F91CA
:104630000F900FBE0F901F9018951092730481E099
:10464000809375041092760482E161E00E946823F1
:1046500083E161E00E946823E9EBF0E080818E7FD6
:10466000808380818D7F808388E48093B80085E497
:104670008093BC000895833071F0843028F4813039
:10468000A1F0823021F514C08630B1F08730D1F02E
:104690008430E9F404C0809180008F7703C080915A
:1046A00080008F7D80938000089584B58F7702C04D
:1046B00084B58F7D84BD08958091B0008F778093FD
:1046C000B00008958091B0008F7D8093B000089570
:1046D000FF920F931F93F62E482F50E0CA01825588
:1046E0009F4FFC012491CA0186569F4FFC011491F3
:1046F0004A575F4FFA0104910023C9F0222319F0B1
:10470000822F0E943B23E02FF0E0EE0FFF1FEE58B8
:10471000FF4FA591B4919FB7F894FF2021F48C919D
:104720001095812302C08C91812B8C939FBF1F9188
:104730000F91FF900895629FD001739FF001829FB7
:10474000E00DF11D649FE00DF11D929FF00D839F20
:10475000F00D749FF00D659FF00D9927729FB00DBD
:10476000E11DF91F639FB00DE11DF91FBD01CF01D0
:1047700011240895991B79E004C0991F961708F039
:10478000961B881F7A95C9F78095089597FB092E87
:1047900007260AD077FD04D02ED006D000201AF4C8
:1047A000709561957F4F0895F6F7909581959F4F8D
:1047B0000895A1E21A2EAA1BBB1BFD010DC0AA1F62
:1047C000BB1FEE1FFF1FA217B307E407F50720F07A
:1047D000A21BB30BE40BF50B661F771F881F991FF5
:1047E0001A9469F760957095809590959B01AC013E
:1047F000BD01CF010895AA1BBB1B51E107C0AA1F31
:10480000BB1FA617B70710F0A61BB70B881F991F71
:104810005A95A9F780959095BC01CD0108952F92E6
:104820003F924F925F926F927F928F929F92AF9240
:10483000BF92CF92DF92EF92FF920F931F93CF938D
:10484000DF93CDB7DEB7CA1BDB0B0FB6F894DEBF24
:104850000FBECDBF09942A88398848885F846E844A
:104860007D848C849B84AA84B984C884DF80EE8094
:10487000FD800C811B81AA81B981CE0FD11D0FB69D
:10488000F894DEBF0FBECDBFED010895EE0FFF1F00
:104890000590F491E02D09940F931F93CF93DF932C
:1048A000BC018230910510F462E070E0E091E30415
:1048B000F091E404A0E0B0E040E050E024C080814A
:1048C000918186179707D0F08617970771F4828138
:1048D0009381109729F013969C938E9312972CC076
:1048E0009093E4048093E30427C04115510519F027
:1048F0008417950718F4EF018D01AC01DF01828167
:1049000093819C01F9013097D1F641155105F9F0D9
:10491000CA01861B970B8430910580F48A819B81A4
:104920000115110521F0F8019383828304C090934F
:10493000E4048093E304FE01329645C0FE01E80FD3
:10494000F91F619371930297998388833CC080918A
:10495000E1049091E204892B41F480914803909105
:1049600049039093E2048093E10440914A035091FB
:104970004B034115510541F44DB75EB78091460395
:1049800090914703481B590B2091E1043091E204B8
:1049900024173507B0F4CA01821B930B86179707BB
:1049A00080F0AB014E5F5F4F8417950750F0420FC8
:1049B000531F5093E2044093E104F9016193719312
:1049C00002C0E0E0F0E0CF01DF91CF911F910F91A5
:1049D0000895CF93DF939C01009709F48FC0EC01F9
:1049E00022971B821A826091E3047091E40461159E
:1049F000710581F488819981820F931F2091E104D0
:104A00003091E2042817390739F5D093E204C093B6
:104A1000E10474C0DB0140E050E0AC17BD0708F1D1
:104A2000BB83AA83FE0121913191E20FF31FAE17E0
:104A3000BF0779F48D919C911197280F391F2E5F34
:104A40003F4F3983288312968D919C9113979B83B6
:104A50008A834115510571F4D093E404C093E304B3
:104A60004DC012968D919C911397AD01009711F056
:104A7000DC01D3CFDA011396DC93CE931297FA01BF
:104A800021913191E20FF31FCE17DF0769F488817E
:104A90009981280F391F2E5F3F4FFA013183208300
:104AA0008A819B8193838283E0E0F0E0DB011296B0
:104AB0008D919C911397009719F0BC01FD01F6CFE1
:104AC000AB014E5F5F4FDB018D919C91840F951F71
:104AD0002091E1043091E2042817390779F43097E6
:104AE00029F41092E4041092E30402C013821282AB
:104AF000425050405093E2044093E104DF91CF9143
:104B00000895A0E0B0E0E7E8F5E20C9413248C01EE
:104B1000009729F4CB010E944C248C01BBC08EEF7E
:104B2000E82E8FEFF82EE00EF11E4801860E971E3C
:104B30008E149F0408F4ACC0D7014D915C9111977D
:104B400046175707B8F04530510508F4A3C0CA010D
:104B500004978617970708F49DC042505040461BA3
:104B6000570BF401419351936D937C93CF010E94B5
:104B7000E92490C05B01A41AB50A3801640E751EC1
:104B8000A091E304B091E404CC24DD24E0E0F0E063
:104B900047C0A615B705A9F5CD91DC911197CE01B7
:104BA00002968A159B0568F1CE018A199B09029627
:104BB00012962C91129713963C91059758F0F40198
:104BC00022833383CA19DB09D183C083D7016D9354
:104BD0007C9309C04E5F5F4F4C0F5D1FF7015183FF
:104BE0004083C901FC01C114D10431F0D6011396F0
:104BF000FC93EE9312974EC0F093E404E093E30429
:104C000049C08D919C911197E817F90708F4FC01B0
:104C10006D0112968C91129713969C919C01D9016B
:104C2000109709F0B6CF8091E1049091E2048615C7
:104C30009705E9F4E617F707D0F420914A0330917D
:104C40004B032115310541F42DB73EB78091460342
:104C500090914703281B390B82169306C8F4909253
:104C6000E2048092E104F7017183608313C0CB01F9
:104C70000E944C24EC01009759F0D7014D915C91B2
:104C8000B8010E948F26C8010E94E9248E0102C04B
:104C900000E010E0C801CDB7DEB7EEE00C942F24A1
:104CA0001F93FC0199278827BC01E89411911032C9
:104CB000E9F3193010F01E30C8F31B3251F01D32E9
:104CC00049F4689406C00E945C27610F711D811D24
:104CD000911D119110531A30B0F33EF490958095C8
:104CE000709561957F4F8F4F9F4F1F910895911140
:104CF00033C1803219F089508550D0F70895911151
:104D0000089581548A5108F4805E855A089591115E
:104D1000089581568A5108F4805285580895FB0100
:104D2000DC0102C001900D9241505040D8F7089527
:104D30006817790768F4FB01DC01E40FF51FA40F85
:104D4000B51F02C002900E9241505040D8F708950E
:104D50000C948F26FC018191861721F08823D9F7C6
:104D6000992708953197CF010895FB01DC018D91BA
:104D7000019080190110D9F3990B0895FB01DC0112
:104D800001900D920020E1F70895FB01DC014150F4
:104D9000504030F08D910190801919F40020B9F73E
:104DA000881B990B0895FB01DC014150504048F0ED
:104DB00001900D920020C9F701C01D924150504052
:104DC000E0F70895FC0181E090E00190061609F4F7
:104DD000CF010020D1F701970895FB015191552390
:104DE000A9F0BF01DC014D9145174111E1F759F4DC
:104DF000CD010190002049F04D9140154111C9F3BA
:104E0000FB014111EFCF81E090E001970895FB0194
:104E10009F01E8944230C4F04532B4F44A3029F49A
:104E200097FB1EF4909581959F4F642F77270E94E2
:104E3000FB23805D8A330CF0895D8193CB01009761
:104E4000A1F716F45DE251931082C9010C94AF27CB
:104E5000FA01CF93FF93EF93223044F1253234F5DA
:104E6000C22FE894CA3049F497FB3EF490958095A0
:104E7000709561957F4F8F4F9F4F2C2F332744277D
:104E80005527FF93EF930E94D923EF91FF91605D27
:104E90006A330CF0695D6193B901CA0160507040DA
:104EA0008040904051F716F4CDE2C19310828F916B
:104EB0009F91CF910C94AF27592F482F372F262F32
:104EC000660F771F881F991F660F771F881F991F0E
:104ED000620F731F841F951F660F771F881F991F0E
:104EE0000895FA01CF93FF93EF932230CCF025324F
:104EF000BCF4C22F2C2F332744275527FF93EF9361
:104F00000E94D923EF91FF91605D6A330CF0695DD7
:104F10006193B901CA01605070408040904051F7E0
:104F200010828F919F91CF910C94AF27FB019F012D
:104F3000423074F0453264F4642F77270E94FB23DB
:104F4000805D8A330CF0895D8193CB010097A1F7D6
:104F50001082C9010C94AF27992788270895DC0196
:104F6000FC01672F71917723E1F7329704C07C91A0
:104F70006D9370836291AE17BF07C8F30895F894DC
:024F8000FFCF61
:104F820044533133303752544320526561642054C4
:104F9200657374002D2D2D2D2D2D2D2D2D2D2D2DA7
:104FA2002D2D2D2D2D2D2D004F6B2C2054696D652F
:104FB200203D20002C20446174652028442F4D2F71
:104FC2005929203D2000546865204453313330373D
:104FD2002069732073746F707065642E2020506C8A
:104FE200656173652072756E2074686520536574FF
:104FF20054696D65006578616D706C6520746F2011
:10500200696E697469616C697A6520746865207477
:10501200696D6520616E6420626567696E207275D4
:105022006E6E696E672E00445331333037207265DD
:105032006164206572726F72212020506C65617309
:105042006520636865636B207468652063697263B9
:1050520075697472792E00000000005104E904E7BA
:10506200031804F8034104000000008E00E9048ED6
:10507200008E008E008E006E616E00696E66006F9B
:105082007666002E00000000008E00E90400000099
:1050920000001714E61364136D13821393130000B8
:1050A20000008E00E9048E008E008E008E002C011E
:1050B20000001F1C1F1E1F1E1F1F1E1F1E1F000081
:1050C20000000000000000010202030303030404C5
:1050D2000404040404040505050505050505050584
:1050E2000505050505050606060606060606060664
:1050F200060606060606060606060606060606064E
:105102000606060606060707070707070707070733
:10511200070707070707070707070707070707071D
:10512200070707070707070707070707070707070D
:1051320007070707070707070707070707070707FD
:1051420007070707070708080808080808080808E3
:1051520008080808080808080808080808080808CD
:1051620008080808080808080808080808080808BD
:1051720008080808080808080808080808080808AD
:10518200080808080808080808080808080808089D
:10519200080808080808080808080808080808088D
:1051A200080808080808080808080808080808087D
:1051B200080808080808080808080808080808086D
:0C51C2000808080808082000E5040000A8
:00000001FF
