:100000000C9463000C948B000C948B000C948B006C
:100010000C948B000C948B000C948B000C948B0034
:100020000C948B000C948B000C948B000C948B0024
:100030000C948B000C948B000C948B000C948B0014
:100040000C94961A0C948B000C9419010C94670173
:100050000C948B000C948B000C948B000C948B00F4
:100060000C942C1C0C948B00000000002400270032
:100070002A0000000000250028002B0000000000DE
:1000800023002600290004040404040404040202DA
:100090000202020203030303030301020408102007
:1000A0004080010204081020010204081020000012
:1000B0000007000201000003040600000000000029
:1000C00000004F04461211241FBECFEFD8E0DEBF60
:1000D000CDBF12E0A0E0B1E0E4E8F4E402C0059096
:1000E0000D92A63DB107D9F714E0A6EDB2E001C02C
:1000F0001D92A235B107E1F710E0C6ECD0E004C0D4
:100100002297FE010E94B51EC23CD107C9F70E948A
:1001100009010C9440220C940000FFCF1F93CF9351
:10012000DF938EE593E060E071E00E94EF0711E05D
:10013000C0E0D0E08BEC93E0612F0E94C7118BEC04
:1001400093E00E94D1128823D9F48EE593E06CE00D
:1001500071E00E94F206103130F48EE593E06BE21C
:1001600071E00E94F2068EE593E0612F40E150E0DD
:100170000E943C068EE593E00E940505219617C07B
:100180008430A9F48EE593E06DE271E00E94F206FE
:10019000103130F48EE593E06BE271E00E94F206DC
:1001A0008EE593E0612F40E150E00E944E061F5F14
:1001B0001F3709F0BFCFCD2B29F48EE593E068E41B
:1001C00071E004C08EE593E06EE571E00E94EF07F8
:1001D00068E873E180E090E00E94041BDF91CF911A
:1001E0001F9108950F931F938BEC93E00E94ED12E3
:1001F0000EE513E0C80140E855E260E070E00E94BF
:100200002A02C80164E671E00E94EF071F910F9176
:100210000895CF93DF930E942A1B0E94F200C4E549
:10022000D1E00E948E002097E1F30E945401F9CFA3
:1002300008951F920F920FB60F9211242F933F93A0
:100240004F938F939F93EF93FF938091C00082FD14
:100250001DC04091C60020911603309117032F5FF7
:100260003F4F2F7330708091180390911903281716
:10027000390771F0E0911603F0911703EA52FD4F30
:100280004083309317032093160302C08091C60069
:10029000FF91EF919F918F914F913F912F910F90EF
:1002A0000FBE0F901F901895E0916A03F0916B03B9
:1002B000E05CFF4F8191919120813181821B930BF2
:1002C0008F739070892B11F00E94180108951F926E
:1002D0000F920FB60F9211242F933F938F939F93FA
:1002E000EF93FF9320915A0330915B0380915C035D
:1002F00090915D032817390731F48091C1008F7DFB
:100300008093C10014C0E0915C03F0915D03E65E50
:10031000FC4F208180915C0390915D0301968F7367
:10032000907090935D0380935C032093C600FF91CF
:10033000EF919F918F913F912F910F900FBE0F9052
:100340001F9018958F929F92AF92BF92CF92DF929B
:10035000EF92FF920F931F93DF93CF93CDB7DEB74A
:10036000FC011382128288EE93E0A0E0B0E0848367
:100370009583A683B78384E791E091838083758713
:10038000648757874687318B208B138B028BF58AC6
:10039000E48AD78AC68AB18EA08E938E828E8F858C
:1003A000848F8889858F8989868F8A89878F8B89B1
:1003B00080A3CF91DF911F910F91FF90EF90DF907D
:1003C000CF90BF90AF909F908F9008958F929F9203
:1003D000AF92BF92CF92DF92EF92FF920F931F9353
:1003E000DF93CF93CDB7DEB7FC011382128288EE84
:1003F00093E0A0E0B0E084839583A683B78384E78D
:1004000091E0918380837587648757874687318B16
:10041000208B138B028BF58AE48AD78AC68AB18E29
:10042000A08E938E828E8F85848F8889858F89890F
:10043000868F8A89878F8B8980A3CF91DF911F91C7
:100440000F91FF90EF90DF90CF90BF90AF909F9073
:100450008F900895AF92BF92DF92EF92FF920F9329
:100460001F93CF93DF93EC017A018B01DD244030A1
:1004700081EE580780E0680780E0780711F0DD24FE
:10048000D39491E0A92EB12CEC89FD89DD2069F08F
:10049000C50108A002C0880F991F0A94E2F7808363
:1004A00060E079E08DE390E005C0108260E874E8D8
:1004B0008EE190E0A80197010E945A1E2150304021
:1004C00040405040569547953795279580E120301C
:1004D000380720F0DD2011F0DD24D6CFE889F98936
:1004E0003083EA89FB89208319A2EE89FF89408144
:1004F00021E030E0C9010C8C02C0880F991F0A94DA
:10050000E2F7482B4083EE89FF894081C9010D8CB9
:1005100002C0880F991F0A94E2F7482B4083EE89A6
:10052000FF894081C9010E8C02C0880F991F0A946F
:10053000E2F7482B4083EE89FF8980810F8C02C04F
:10054000220F331F0A94E2F7209528232083DF919E
:10055000CF911F910F91FF90EF90DF90BF90AF90E0
:100560000895AF92BF92CF92DF92EF92FF920F93D6
:100570001F93CF93DF93EC017A018B01C22EDD2410
:10058000403081EE580780E0680780E0780711F07E
:10059000DD24D39471E0A72EB12CEC89FD89DD20F8
:1005A00069F0C50108A002C0880F991F0A94E2F7FC
:1005B000808360E079E08DE390E005C0108260E820
:1005C00074E88EE190E0A80197010E945A1E215024
:1005D000304040405040569547953795279580E1EB
:1005E0002030380720F0DD2011F0DD24D6CFE88957
:1005F000F9893083EA89FB892083E88DF98DC082EF
:10060000EE89FF89408121E030E0C9010C8C02C0F5
:10061000880F991F0A94E2F7482B4083EE89FF89DF
:100620004081C9010D8C02C0880F991F0A94E2F71E
:10063000482B4083EE89FF894081C9010E8C02C09E
:10064000880F991F0A94E2F7482B4083EE89FF89AF
:1006500080810F8C02C0220F331F0A94E2F720958D
:1006600028232083DF91CF911F910F91FF90EF906E
:10067000DF90CF90BF90AF900895CF93DF93DC01D0
:100680001E968D919C911F97EC01C05CDF4FFC0181
:10069000EE5BFF4F288139818081918128173907CE
:1006A000C9F75696ED91FC915797408121E030E0D3
:1006B000C9015C960C905C9702C0880F991F0A9440
:1006C000E2F78095842380835696ED91FC915797AD
:1006D0004081C9015D960C905D9702C0880F991FFB
:1006E0000A94E2F78095842380835696ED91FC91DD
:1006F00057974081C9015E960C905E9702C0880FA3
:10070000991F0A94E2F78095842380835696ED9191
:10071000FC91579780815F960C905F9702C0220FE3
:10072000331F0A94E2F72095282320831C96ED912D
:10073000FC911D97EE5BFF4F808191819293829394
:10074000DF91CF910895DC011C96ED91FC911D97EE
:10075000E05CFF4F2191319180819181281B390B01
:100760002F733070C9010895DC011C96ED91FC9146
:100770001D97E05CFF4F20813181E054F040DF01A4
:10078000AE5BBF4F8D919C9111972817390719F4D3
:100790002FEF3FEF07C08D919C91E80FF91F8081EB
:1007A000282F30E0C9010895DC011C96ED91FC91E1
:1007B0001D97E05CFF4F20813181E054F040DF0164
:1007C000AE5BBF4F8D919C9111972817390719F493
:1007D0002FEF3FEF10C08D919C911197E80FF91FFB
:1007E00020818D919C91119701968F739070119635
:1007F0009C938E9330E0C9010895DC0191968C9111
:100800009197882339F05496ED91FC91559780810A
:1008100086FFF9CF91961C920895CF93DF93EC0158
:10082000EE85FF85E05CFF4F20813181E054F04090
:100830002F5F3F4F2F733070DF01AE5BBF4F8D9145
:100840009C91119728173907D1F3E05CFF4F808105
:100850009181E054F040E80FF91F6083EE85FF8539
:10086000E05CFF4F31832083EE89FF89208181E0A6
:1008700090E00F8C02C0880F991F0A94E2F7282B92
:10088000208381E089A3EC89FD8980818064808355
:1008900081E090E0DF91CF91089581E0089510927A
:1008A00061031092600388EE93E0A0E0B0E08093D3
:1008B000620390936303A0936403B093650384E79A
:1008C00091E090935F0380935E0386ED92E09093B6
:1008D0006B0380936A038AE193E090936D038093A6
:1008E0006C0385EC90E090936F0380936E0384EC2F
:1008F00090E0909371038093700380EC90E090936C
:1009000073038093720381EC90E09093750380935E
:10091000740382EC90E0909377038093760386ECE7
:1009200090E0909379038093780384E080937A0336
:1009300083E080937B0387E080937C0385E0809352
:100940007D0381E080937E030895CF92DF92EF9242
:10095000FF920F931F93CF93DF937C016B018A016A
:10096000C0E0D0E00FC0D6016D916D01D701ED91CF
:10097000FC910190F081E02DC7010995C80FD91FA6
:10098000015010400115110571F7CE01DF91CF9193
:100990001F910F91FF90EF90DF90CF900895EF920D
:1009A000FF920F931F93CF93DF937C018B01C0E0E5
:1009B000D0E0F8010F5F1F4F6491662359F0D70113
:1009C000ED91FC910190F081E02DC7010995C80FD0
:1009D000D91FEFCFCE01DF91CF911F910F91FF90E3
:1009E000EF900895DC01ED91FC910190F081E02DF4
:1009F000099508959C01DB01ED91FC910190F08136
:100A0000E02DCB01B90109950895EF92FF920F9364
:100A10001F938C01DC01ED91FC910190F081E02DA0
:100A20006DE009957C01D801ED91FC910190F08178
:100A3000E02DC8016AE009959C012E0D3F1DC901FA
:100A40001F910F91FF90EF900895EF92FF920F93F7
:100A50001F937C010E94CF048C01C7010E940505F1
:100A60009C01200F311FC9011F910F91FF90EF9042
:100A70000895EF92FF920F931F937C01DC01ED919B
:100A8000FC910190F081E02D09958C01C7010E9435
:100A90000505080F191FC8011F910F91FF90EF90D6
:100AA0000895EF92FF920F931F937C01DB01ED916C
:100AB000FC910190F081E02DCB01B70109958C01EB
:100AC000C7010E940505080F191FC8011F910F914A
:100AD000FF90EF900895CF93DF93EC0161157105BE
:100AE00019F420E030E00FC0DB010D900020E9F7A1
:100AF0001197A61BB70BE881F9810280F381E02DE5
:100B0000AD0109959C01C901DF91CF9108954F92E4
:100B10005F927F928F929F92AF92BF92CF92DF921D
:100B2000EF92FF920F931F93DF93CF93CDB7DEB772
:100B3000A1970FB6F894DEBF0FBECDBF2C01742E67
:100B4000CB01223008F42AE019A231E2C32ED12CC5
:100B5000CC0EDD1E822E9924AA24BB24672D752F6E
:100B6000A50194010E945A1E79018A01C801B701AA
:100B7000A50194010E943B1E472D461B0894C10805
:100B8000D1084A3014F4405D01C0495CF60140834D
:100B9000E114F1040105110521F07E2C5F2DC8013F
:100BA000DDCFC201B6010E946B05A1960FB6F89485
:100BB000DEBF0FBECDBFCF91DF911F910F91FF9090
:100BC000EF90DF90CF90BF90AF909F908F907F90ED
:100BD0005F904F900895DC012115310541F4ED91AE
:100BE000FC910190F081E02D642F099508950E94F9
:100BF00087050895EF92FF920F931F937C010E9447
:100C0000EB058C01C7010E9405059C01200F311FD7
:100C1000C9011F910F91FF90EF900895EF92FF92FD
:100C20000F931F939A017B0100E010E0B801A70128
:100C30000E94EB051F910F91FF90EF900895CF92C6
:100C4000DF92EF92FF920F931F936C017B019A0149
:100C500000E010E0B801A7010E94EB058C01C6017D
:100C60000E940505080F191FC8011F910F91FF90E1
:100C7000EF90DF90CF900895EF92FF920F931F9324
:100C80009A01E62EFF2400E010E0B801A7010E94BF
:100C9000EB051F910F91FF90EF900895CF92DF9297
:100CA000EF92FF920F931F936C01E62E9A01FF249F
:100CB00000E010E0B801A7010E94EB058C01C6011D
:100CC0000E940505080F191FC8011F910F91FF9081
:100CD000EF90DF90CF900895CF92DF92EF92FF9246
:100CE0000F931F93CF93DF93EC016A017B012115D2
:100CF000310541F4E881F9810190F081E02D642F04
:100D000009951FC02A303105D1F477FF17C0E8815B
:100D1000F9810190F081E02D6DE209958C01442765
:100D20005527BA014C195D096E097F09CE012AE0E9
:100D30000E9487059801280F391F04C02AE00E94ED
:100D400087059C01C901DF91CF911F910F91FF9001
:100D5000EF90DF90CF900895EF92FF920F931F9343
:100D60007C010E946C068C01C7010E9405059C0154
:100D7000200F311FC9011F910F91FF90EF9008952F
:100D8000EF92FF920F931F937B019A010027F7FCCC
:100D90000095102FB801A7010E946C061F910F91BA
:100DA000FF90EF900895CF92DF92EF92FF920F9312
:100DB0001F936C017B019A010027F7FC0095102F0F
:100DC000B801A7010E946C068C01C6010E940505AE
:100DD000080F191FC8011F910F91FF90EF90DF902E
:100DE000CF9008950E946B0508957F928F929F92F5
:100DF000AF92BF92CF92DF92EF92FF920F931F9329
:100E0000CF93DF934C017A018B01722ECB01BA0193
:100E1000A80197010E944B17882321F0C40160E9C3
:100E200071E021C0C0E0D0E057016801E894D7F834
:100E3000C601B5012FEF3FEF4FE75FE70E944B1769
:100E4000882351F4C601B5012FEF3FEF4FE75FE76D
:100E50000E941B17181614F0C1E0D0E0219739F05A
:100E6000C40164E971E00E946B05EC0193C0C80104
:100E7000B7012FEF3FEF4FE75FE40E948B16181684
:100E800054F0C801B7012FEF3FEF4FE75FEC0E942E
:100E9000EB16882324F4C40168E971E0E4CFC801AB
:100EA000B70120E030E040E050E00E94EB1687FD03
:100EB00003C0C0E0D0E00EC0D401ED91FC910190E0
:100EC000F081E02DC4016DE20995EC0117FB10954E
:100ED00017F9109520E030E040E05FE3DD240BC01F
:100EE000CA01B90120E030E040E251E40E94DF1580
:100EF0009B01AC01D394D71498F3C801B7010E94A9
:100F0000B8145B016C010E940F137B018C01C401BA
:100F1000B801A7012AE030E00E94EB05C80FD91FF5
:100F2000772039F0C4016CE971E00E946B05C80FAD
:100F3000D91FC801B7010E9428189B01AC01C60146
:100F4000B5010E94871424C020E030E040E251E463
:100F50000E94E5147B018C010E94D4175B016C0197
:100F6000CC24B7FCC094DC2CC401B601A5012AE056
:100F700030E00E946C06C80FD91FC601B5010E945F
:100F800076179B01AC01C801B7010E9487147A94BF
:100F90007720D1F6CE01DF91CF911F910F91FF9075
:100FA000EF90DF90CF90BF90AF909F908F907F9009
:100FB00008950E94F5060895EF92FF920F931F93F4
:100FC0007C010E94F5068C01C7010E940505080FEF
:100FD000191FC8011F910F91FF90EF900895EF9294
:100FE000FF920F931F937C010E946B058C01C70138
:100FF0000E940505080F191FC8011F910F91FF904E
:10100000EF900895AF92BF92CF92DF92EF92FF924E
:101010000F931F93CF93DF935C016B01EE24FF24AA
:10102000C0E0D0E010C0D501ED91FC9100811181AC
:10103000C601BE010E947C08682FC501F801099510
:10104000E80EF91E2196F60184819581C817D9070B
:1010500050F3C701DF91CF911F910F91FF90EF9057
:10106000DF90CF90BF90AF900895EF92FF920F93D3
:101070001F937C010E9402088C01C7010E94050594
:101080009C01200F311FC9011F910F91FF90EF901C
:101090000895FC01848195816817790748F40190CF
:1010A000F081E02D309721F0E60FF71F8081089541
:1010B00080E00895FC01848195816817790730F4F8
:1010C0000190F081E02DE60FF71F40830895FC01A9
:1010D0009B01848195816817790728F4608171816B
:1010E0006115710529F41092800360E873E002C075
:1010F000620F731FCB010895FC01848195816817ED
:10110000790748F40190F081E02D309721F0E60F47
:10111000F71F8081089580E00895FC010190F0811F
:10112000E02D309729F40895861709F4408331960D
:1011300080818823C9F70895FC01808191810097FF
:1011400029F420E030E040E050E004C00E94BD20DF
:101150009B01AC01B901CA010895CF92DF92EF92D1
:10116000FF920F931F93CF93DF936C01DC01ED90FF
:10117000FC901197E114F10409F441C01496CD914B
:10118000DC9115972097D9F1870102C00F5F1F4F9F
:10119000F8018081992787FD90950E94E420892B92
:1011A000A9F72197CE0DDF1D01C0219788819927CE
:1011B00087FD90950E94E420892B19F0C017D10774
:1011C000A0F7FE013196E01BF10BD6011596FC93BA
:1011D000EE9314972D913C912017310728F4C90103
:1011E000B801AF010E94FC20D601ED91FC9111974E
:1011F00014968D919C911597E80FF91F1082DF913D
:10120000CF911F910F91FF90EF90DF90CF900895B5
:10121000CF93DF93FC01C081D181209739F409C0BD
:10122000992787FD90950E94F420899388818823CF
:10123000B9F7DF91CF910895CF93DF93FC01C0817F
:10124000D181209739F409C0992787FD90950E9494
:10125000EC20899388818823B9F7DF91CF91089595
:10126000EF92FF920F931F93CF93DF93FC01DB016B
:101270008617970739F12481358114968D919C91B9
:1012800015972817390701F5232BE1F0E080F1804D
:10129000CD91DC9113C0992787FD90950E94EC2099
:1012A0008C018881992787FD90950E94EC20081772
:1012B000190751F40894E11CF11C2196F701808173
:1012C000882349F781E001C080E0DF91CF911F9131
:1012D0000F91FF90EF900895AF92BF92CF92DF925F
:1012E000EF92FF920F931F93CF93DF93FC015B016B
:1012F0007A01DB0114962D913C911597211531054A
:1013000059F184819581009739F18217930720F173
:101310004817590720F07C010894E108F108008182
:101320001181C801CFEFDFEF6801CE0CDF1C10C0C8
:10133000F501608171810E945A219C01009771F032
:10134000801B910BE816F90608F0EC01C901019623
:10135000C816D90668F702C0CFEFDFEFCE01DF91E4
:10136000CF911F910F91FF90EF90DF90CF90BF90A2
:10137000AF900895FC01DB014481558114968D9155
:101380009C911597481B590BCF010E946C09089539
:10139000CF93DF93FC01DB018481958148175907C6
:1013A00060F4C081D1816D917C91CE01840F951F35
:1013B0000E945A219C01009719F42FEF3FEF02C0C1
:1013C0002C1B3D0BC901DF91CF91089540E050E007
:1013D0000E94C8090895DF92EF92FF920F931F9326
:1013E000CF93DF93EC018C819D8148175907C8F496
:1013F0007A010894E11CF11CE881F981EE0DFF1DD2
:10140000D080108208811981772767FD7095C80107
:101410000E944F219C010E0D1F1DF801D0820097E4
:1014200019F4EFEFFFEF05C088819981F901E81BFE
:10143000F90BCF01DF91CF911F910F91FF90EF90AA
:10144000DF900895FC0144815581415050400E9435
:10145000EB090895CF93DF93FC01848195814817B0
:10146000590768F4C081D181772767FD7095CE0157
:10147000840F951F0E9417219C01009719F42FEFEC
:101480003FEF02C02C1B3D0BC901DF91CF910895A6
:1014900040E050E00E942A0A08950F931F93CF93D3
:1014A000DF93FC018B0141155105F9F061157105C0
:1014B000E1F0848195812817390718F0FB0110822B
:1014C00014C041505040EC01C21BD30B4C175D07B8
:1014D00008F4EA0160817181620F731FC801AE01D7
:1014E0000E944021C00FD11F1882DF91CF911F9120
:1014F0000F910895FC01DB012481358114964D91F3
:101500005C91159724173507A8F080819181009789
:1015100089F06D917C916115710561F0241B350B8B
:10152000820F931F0E9422219C0180E0232B19F43B
:1015300081E0089580E00895DC01FB0114968D910F
:101540009C911597892B31F461157105A9F090E0F4
:10155000808108C00D90BC91A02D6115710529F402
:1015600090E08C91882349F407C0CD010E9422218C
:101570009C0190E0232B09F491E0892F0895CF93EB
:10158000DF939C01FB01EC01A881B981109729F040
:101590006081718161157105D1F4C081D18120977D
:1015A00059F084819581892B39F0888190E0222738
:1015B0003327281B390B12C0109771F0F901848171
:1015C0009581892B49F08C91282F30E007C0CD01FF
:1015D0000E9422219C0102C020E030E0C901DF917D
:1015E000CF9108950E94BF0A892F8095881F882770
:1015F000881F08950E94BF0A20E0181619060CF0F3
:1016000021E0822F08950E94BF0A20E018161906D3
:101610000CF421E0822F08950E94BF0A892F881FB1
:101620008827881F0895FC01DB01248135811496E9
:101630008D919C9115972817390711F020E007C06C
:10164000CF010E94BF0A20E0892B09F421E0822FFC
:101650000895FC01DB0114962D913C91159784812E
:101660009581821B930B84179507A0F0808191814F
:10167000009781F06D917C916115710559F0840F8F
:10168000951FA9010E9432219C0180E0232B19F4AF
:1016900081E0089580E00895FC01DB01248135811B
:1016A00014968D919C9115972817390710F480E0B6
:1016B0000895CF0140E050E00E94290B08950F9358
:1016C0001F93CF93DF93EC018B016F5F7F4F888176
:1016D00099810E94EE1F009711F480E005C0998364
:1016E00088831B830A8381E0DF91CF911F910F9143
:1016F00008952F923F924F925F926F927F928F92B6
:101700009F92AF92BF92CF92DF92EF92FF920F9390
:101710001F93CF93DF935C012B014A01DC011496E8
:101720000D911C9115970115110509F4D4C0FB0109
:10173000C480D580C114D10409F4CDC0DA01149657
:101740006D907C9015976C187D08FC01E080F1800D
:101750006114710491F01BC0D4016C9111967C91BD
:10176000119714964D915C9115978C2F0E94FC2037
:10177000F401E480F580EC0EFD1ED2016D917C91A8
:10178000C7010E945A21EC01009731F7A4C077FEEF
:1017900002C067012EC0FB0120803180E8013CC0FF
:1017A0008E010E191F09C601B701A8010E94FC2075
:1017B0000C0D1D1DD4016C9111967C9111971496FE
:1017C0004D915C911597C8010E94FC20F401C480E2
:1017D000D580C00ED11ED2011496ED90FC901597C5
:1017E000EC0EFD1EF50184819581860D971D958374
:1017F0008483D2016D917C91C7010E945A21EC0132
:10180000009771F6C601B7010E942B2164C07B01CD
:10181000EC0CFD1CC60DD71DC701B1010E945A2159
:10182000BC010097A1F7C017D10709F454C0F50116
:10183000828193818C179D0708F044C0C501BE01C9
:101840000E945F0B8823F1F546C0C501B201A901D2
:101850000E946C09EC0197FD3EC0D5016D917C9111
:101860001197F201848195818C0F9D1F680F791F5C
:1018700014964D915C911597481B590BCB01860D21
:10188000971D0E940521D50114968D919C91159765
:10189000860D971D15969C938E931497ED91FC9150
:1018A0001197E80FF91F10822D913C912C0F3D1FCD
:1018B000F4016081718144815581C9010E94FC203D
:1018C0009E0105C0D50114962D913C91159721508C
:1018D000304037FFBACFDF91CF911F910F91FF902A
:1018E000EF90DF90CF90BF90AF909F908F907F90C0
:1018F0006F905F904F903F902F900895CF93DF931C
:10190000EC0188819981892B29F08A819B81861736
:10191000970760F4CE010E945F0B882341F08C8111
:101920009D81892B19F4E881F981108281E0DF9192
:10193000CF910895EF92FF920F931F93CF93DF9370
:10194000EC017B016C817D81E114F104C1F0411552
:10195000510599F08A01060F171FB8010E947E0CED
:10196000882369F0888199812C813D81820F931FA2
:10197000B7010E942B211D830C8381E001C080E010
:10198000DF91CF911F910F91FF90EF900895EF920B
:10199000FF920F931F93DF93CF93CDB7DEB72B97B3
:1019A0000FB6F894DEBF0FBECDBF7C01CB01BA01EC
:1019B0008E010F5F1F4FA8012AE030E00E94DE2158
:1019C000F80101900020E9F73197E01BF10BC70106
:1019D000B801AF010E949A0C2B960FB6F894DEBFA7
:1019E0000FBECDBFCF91DF911F910F91FF90EF9070
:1019F0000895EF92FF920F931F93DF93CF93CDB78C
:101A0000DEB72C970FB6F894DEBF0FBECDBF7C01BA
:101A1000CB01BA018E010F5F1F4FA8012AE030E011
:101A20000E949521F80101900020E9F73197E01B11
:101A3000F10BC701B801AF010E949A0C2C960FB6AA
:101A4000F894DEBF0FBECDBFCF91DF911F910F91F4
:101A5000FF90EF900895EF92FF920F931F93DF9303
:101A6000CF9300D000D000D0CDB7DEB77C01CB0142
:101A70008E010F5F1F4FB8014AE050E00E94032221
:101A8000F80101900020E9F73197E01BF10BC70145
:101A9000B801AF010E949A0C26960FB6F894DEBFEB
:101AA0000FBECDBFCF91DF911F910F91FF90EF90AF
:101AB0000895EF92FF920F931F93DF93CF93CDB7CB
:101AC000DEB727970FB6F894DEBF0FBECDBF7C01FF
:101AD000CB018E010F5F1F4FB8014AE050E00E941A
:101AE0007421F80101900020E9F73197E01BF10B18
:101AF000C701B801AF010E949A0C27960FB6F8945F
:101B0000DEBF0FBECDBFCF91DF911F910F91FF9030
:101B1000EF900895EF92FF920F931F93DF93CF936F
:101B200000D000D0CDB7DEB77C01862F90E08E01CB
:101B30000F5F1F4FB8014AE050E00E947421F80186
:101B400001900020E9F73197E01BF10BC701B801C4
:101B5000AF010E949A0C0F900F900F900F90CF91B1
:101B6000DF911F910F91FF90EF900895DF93CF9336
:101B700000D0CDB7DEB769831A82BE016F5F7F4F99
:101B800041E050E00E949A0C0F900F90CF91DF91AE
:101B900008956115710511F480E00895DB010D9041
:101BA0000020E9F71197A61BB70BAD010E949A0C14
:101BB0000895FB0160817181448155810E949A0CD6
:101BC0000895CF93DF93EC0188819981009711F0FC
:101BD0000E94561F198218821D821C821B821A8243
:101BE000DF91CF9108950F931F93182F092F0E9413
:101BF000C70C882321F4812F902F0E94E10D812FA3
:101C0000902F1F910F9108950F931F93182F092F55
:101C10000E94F90C882321F4812F902F0E94E10D5E
:101C2000812F902F1F910F9108950F931F93182FBD
:101C3000092F0E942B0D882321F4812F902F0E94C1
:101C4000E10D812F902F1F910F9108950F931F93F6
:101C5000182F092F0E94590D882321F4812F902FCE
:101C60000E94E10D812F902F1F910F9108950F93E6
:101C70001F93182F092F0E948A0D882321F4812F8A
:101C8000902F0E94E10D812F902F1F910F910895A9
:101C90000F931F93182F092F0E94B60D882321F44C
:101CA000812F902F0E94E10D812F902F1F910F9176
:101CB00008950F931F93182F092F6115710561F077
:101CC000DB010D900020E9F71197A61BB70BAD01C2
:101CD0000E949A0C882321F4812F902F0E94E10DFD
:101CE000812F902F1F910F9108950F931F93182FFD
:101CF000092FFB0160817181448155810E949A0CFA
:101D0000882321F4812F902F0E94E10D812F902FA5
:101D10001F910F910895EF92FF920F931F93CF930E
:101D2000DF93EC017B018A01BA010E947E0C8823BB
:101D300021F4CE010E94E10D07C01D830C83888130
:101D40009981B7010E942B21CE01DF91CF911F9184
:101D50000F91FF90EF900895CF93DF93EC011982DC
:101D600018821B821A821D821C821E8261157105D7
:101D700051F0DB010D900020E9F71197A61BB70B7E
:101D8000AD010E948B0EDF91CF910895CF93DF9329
:101D9000EC01198218821B821A821D821C821E820B
:101DA0006115710551F0DB010D900020E9F71197E5
:101DB000A61BB70BAD010E948B0EDF91CF9108954A
:101DC0000F931F93182F092F6115710559F0DB012F
:101DD0000D900020E9F71197A61BB70BAD010E94EB
:101DE0008B0E02C00E94E10D812F902F1F910F9149
:101DF0000895EF92FF920F931F93DF93CF93CDB788
:101E0000DEB7A1970FB6F894DEBF0FBECDBF8C0131
:101E1000FC011182108213821282158214821682B2
:101E2000CB01BA017E010894E11CF11CA70130E04E
:101E30000E94DE21C801B7010E94E00EA1960FB6F4
:101E4000F894DEBF0FBECDBFCF91DF911F910F91F0
:101E5000FF90EF900895EF92FF920F931F93DF93FF
:101E6000CF93CDB7DEB7A1970FB6F894DEBF0FBE04
:101E7000CDBF8C01FC011182108213821282158267
:101E800014821682CB01BA017E010894E11CF11C78
:101E9000A70130E00E94DE21C801B7010E94E00ED8
:101EA000A1960FB6F894DEBF0FBECDBFCF91DF91E4
:101EB0001F910F91FF90EF900895EF92FF920F9373
:101EC0001F93DF93CF93CDB7DEB7A2970FB6F894E9
:101ED000DEBF0FBECDBF8C01FC01118210821382C8
:101EE0001282158214821682CB01BA017E010894F7
:101EF000E11CF11CA70130E00E949521C801B70147
:101F00000E94E00EA2960FB6F894DEBF0FBECDBFC2
:101F1000CF91DF911F910F91FF90EF900895EF9275
:101F2000FF920F931F93DF93CF93CDB7DEB7A297A6
:101F30000FB6F894DEBF0FBECDBF8C01FC0111823D
:101F4000108213821282158214821682CB01BA018A
:101F50007E010894E11CF11CA70130E00E9495214C
:101F6000C801B7010E94E00EA2960FB6F894DEBF3A
:101F70000FBECDBFCF91DF911F910F91FF90EF90DA
:101F80000895EF92FF920F931F93DF93CF93CDB7F6
:101F9000DEB761970FB6F894DEBF0FBECDBF8C01E0
:101FA000CB01F801118210821382128215821482F1
:101FB00016827E010894E11CF11CB70150E00E94DA
:101FC0000322C801B7010E94E00E61960FB6F89493
:101FD000DEBF0FBECDBFCF91DF911F910F91FF905C
:101FE000EF900895EF92FF920F931F93DF93CF939B
:101FF000CDB7DEB761970FB6F894DEBF0FBECDBF89
:102000008C01CB01F8011182108213821282158299
:10201000148216827E010894E11CF11CB70150E085
:102020000E940322C801B7010E94E00E61960FB61C
:10203000F894DEBF0FBECDBFCF91DF911F910F91FE
:10204000FF90EF900895EF92FF920F931F93DF930D
:10205000CF93CDB7DEB762970FB6F894DEBF0FBE51
:10206000CDBF8C01CB01F801118210821382128244
:102070001582148216827E010894E11CF11CB701BE
:1020800050E00E947421C801B7010E94E00E6296E0
:102090000FB6F894DEBF0FBECDBFCF91DF911F9179
:1020A0000F91FF90EF900895EF92FF920F931F937F
:1020B000DF93CF93CDB7DEB762970FB6F894DEBF4C
:1020C0000FBECDBF8C01CB01F801118210821382AB
:1020D00012821582148216827E010894E11CF11C82
:1020E000B70150E00E947421C801B7010E94E00EC0
:1020F00062960FB6F894DEBF0FBECDBFCF91DF91D1
:102100001F910F91FF90EF900895EF92FF920F9320
:102110001F93DF93CF93CDB7DEB729970FB6F8940F
:10212000DEBF0FBECDBF8C01862FF8011182108259
:102130001382128215821482168290E07E01089426
:10214000E11CF11CB70150E00E940322C801B70155
:102150000E94E00E29960FB6F894DEBF0FBECDBFE9
:10216000CF91DF911F910F91FF90EF900895EF9223
:10217000FF920F931F93DF93CF93CDB7DEB72997CD
:102180000FB6F894DEBF0FBECDBF8C01862FF801CD
:10219000118210821382128215821482168290E0BC
:1021A0007E010894E11CF11CB70150E00E9403225B
:1021B000C801B7010E94E00E29960FB6F894DEBF61
:1021C0000FBECDBFCF91DF911F910F91FF90EF9088
:1021D0000895DF93CF9300D0CDB7DEB7FC01118215
:1021E00010821382128215821482168269831A82E7
:1021F000BE016F5F7F4F0E94E00E0F900F90CF9156
:10220000DF910895DF93CF9300D0CDB7DEB7FC0107
:1022100011821082138212821582148216826983BF
:102220001A82BE016F5F7F4F0E94E00E0F900F90E9
:10223000CF91DF910895BF92CF92DF92EF92FF92FC
:102240000F931F93CF93DF93082FB92E6B017A0161
:10225000E9012417350710F4EA017901802F9B2D3D
:1022600066EA71E00E94AC0ED60114968D919C91A5
:1022700015978E159F05D0F08C179D0708F4EC017B
:10228000D601ED91FC911197EC0FFD1F108110828A
:102290006D917C916E0D7F1D802F9B2D0E94E00E15
:1022A000D601ED91FC91EC0FFD1F1083802F9B2D2B
:1022B000DF91CF911F910F91FF90EF90DF90CF9022
:1022C000BF9008950F931F938C01FB0124813581EA
:1022D0000E941B11C8011F910F910895CF93DF93A6
:1022E000EC01FB018617970761F060817181611530
:1022F000710529F0448155810E948B0E02C00E9415
:10230000E10DCE01DF91CF910895FC011182108281
:10231000138212821582148216820E946E11089511
:10232000FC0111821082138212821582148216829D
:102330000E946E110895FC01808191810E94561FB8
:102340000895FC01808191810E94561F0895FC012F
:102350001382128288EE93E0A0E0B0E0848395833C
:10236000A683B7838BEA91E0918380830895FC0173
:102370001382128288EE93E0A0E0B0E0848395831C
:10238000A683B7838BEA91E091838083089581E0EF
:102390008093C6036093A3031092C4031092C503F5
:1023A000089581E08093C6036093A3031092C40351
:1023B0001092C50308952091A20330E08091A103FB
:1023C000281B3109C90108954091A1038091A203FE
:1023D000481718F02FEF3FEF0AC0E42FF0E0EF5757
:1023E000FC4F8081282F30E04F5F4093A103C9014B
:1023F0000895E091A1038091A203E81718F0EFEF90
:10240000FFEF06C0F0E0EF57FC4F8081E82FF0E0CF
:10241000CF0108950895AC012091C9033091CA03FA
:1024200021153105E1F09091A1038091A203981745
:10243000B0F090E008C0FA01EA0FFB1F8081AF57AF
:10244000BC4F8C939F5FA92FB0E0A617B7079CF3F2
:102450001092A1036093A203CB01F901099508959D
:10246000E091C703F091C803309729F01092C4039C
:102470001092C503099508957093CA036093C90328
:1024800008957093C8036093C70308951092CE0314
:102490001092CD0388EE93E0A0E0B0E08093CF03EC
:1024A0009093D003A093D103B093D2038BEA91E031
:1024B0009093CC038093CB030895CF92DF92EF9259
:1024C000FF920F931F93CF93DF937C016B018A01DF
:1024D0008091C6038823A1F0C0E0D0E00DC0D701F1
:1024E000ED91FC91D601AC0FBD1F0190F081E02D64
:1024F000C7016C9109952196C017D10780F304C0DC
:10250000CB01642F0E94071CC801DF91CF911F915E
:102510000F91FF90EF90DF90CF900895DF93CF93CE
:102520000F92CDB7DEB7FC0169838091C603882383
:10253000C9F08091C503803238F081E090E0938348
:10254000828320E030E015C08091C403E82FF0E0E2
:10255000EC55FC4F998190838F5F8093C4038093E7
:10256000C50305C0CE01019661E00E94071C21E071
:1025700030E0C9010F90CF91DF9108950F93062F9E
:102580008091A30364EA73E04091C50321E00E94B7
:10259000B21B1092C4031092C5031092C6030F9190
:1025A000089561E00E94BE120895413208F040E2B1
:1025B000862F61E873E00E94691B1092A10380934B
:1025C000A20308950E94D512089521E00E94D51219
:1025D000089521E00E94D51208951092A10310924F
:1025E000A2031092C4031092C5030E94BD1D08955A
:1025F0000F931F938C01862F0E94651B80E392E14D
:102600000E94271C8BE092E10E94221CC8010E94BC
:10261000ED121F910F9108950E94F8120895EF9204
:10262000FF920F931F937B018C0120E030E040E08C
:102630005FE40E94BB1688238CF0C801B70120E03C
:1026400030E040E05FE40E9487140E94D4179B01B1
:10265000AC01205030404040504806C0C801B7018E
:102660000E94D4179B01AC01B901CA011F910F91BF
:10267000FF90EF900895A0E0B0E0E1E4F3E10C9466
:102680007C1EDC012B01FA019C91923008F439C1C7
:10269000EB018881823008F433C1943069F48430CE
:1026A00009F02FC111969C9111978981981709F40F
:1026B00028C1A7ECB1E025C1843009F421C18230E2
:1026C000A9F4923009F01DC19A01AD0188E0EA0138
:1026D0000990AE01E90109929E018150C1F7E20122
:1026E000898111969C918923818308C1923009F4D4
:1026F00007C112962D903C901397EB018A819B8124
:102700001496AD90BD90CD90DC901797EC80FD8035
:102710000E811F819101281B390BB90137FF04C0BD
:1027200066277727621B730B603271050CF061C05E
:10273000121613066CF537014801062E04C0969454
:102740008794779467940A94D2F721E030E040E0D0
:1027500050E004C0220F331F441F551F6A95D2F763
:1027600021503040404050402E213F2140235123F2
:10277000211531054105510521F021E030E040E00F
:1027800050E079018A01E628F728082919293CC078
:10279000232BD1F1260E371E35014601062E04C02B
:1027A00096948794779467940A94D2F721E030E066
:1027B00040E050E004C0220F331F441F551F6A95AC
:1027C000D2F721503040404050402A213B214C213B
:1027D0005D21211531054105510521F021E030E051
:1027E00040E050E059016A01A628B728C828D92836
:1027F0000BC0821593052CF01C01AA24BB24650193
:1028000003C0EE24FF24870111969C91D2011196FA
:102810008C91981709F445C0992339F0A8019701C4
:102820002A193B094C095D0906C0A60195012E191C
:102830003F09400B510B57FD08C0118233822282A1
:1028400024833583468357831DC081E0818333828F
:10285000228288279927DC01821B930BA40BB50BDE
:1028600084839583A683B7830DC0220F331F441F33
:10287000551F248335834683578382819381019733
:10288000938382832481358146815781DA01C9018E
:102890000197A109B1098F5F9F4FAF4FBF4328F345
:1028A0000BC0918333822282EA0CFB1C0C1D1D1D80
:1028B000E482F5820683178383E080832481358157
:1028C0004681578157FF1AC0C901AA2797FDA095D5
:1028D000BA2F81709070A070B0705695479537955B
:1028E0002795822B932BA42BB52B84839583A683CA
:1028F000B78382819381019693838283DF0101C034
:10290000D201CD01CDB7DEB7E2E10C94981EA0E272
:10291000B0E0EDE8F4E10C94881E69837A838B8340
:102920009C832D833E834F835887E9E0EE2EF12C64
:10293000EC0EFD1ECE010196B7010E94C5198E0155
:102940000F5E1F4FCE010596B8010E94C5198A89F6
:1029500091E089278A8BC701B801AE01475E5F4FBE
:102960000E943B130E94F018A096E6E00C94A41E6F
:10297000A0E2B0E0EEEBF4E10C94881E69837A8368
:102980008B839C832D833E834F835887F9E0EF2E02
:10299000F12CEC0EFD1ECE010196B7010E94C51967
:1029A0008E010F5E1F4FCE010596B8010E94C5191A
:1029B000C701B801AE01475E5F4F0E943B130E9402
:1029C000F018A096E6E00C94A41EA0E2B0E0EBEEB6
:1029D000F4E10C947C1E69837A838B839C832D8322
:1029E0003E834F835887CE010196BE01675F7F4FBC
:1029F0000E94C519CE010596BE016F5E7F4F0E94F1
:102A0000C5199985923088F089898230C8F0943050
:102A100019F4823051F404C0843029F4923081F4E6
:102A200087EC91E0C6C0923049F420E09A858A890B
:102A3000981321E02A87CE010996BBC0823049F461
:102A400020E09A858A89981321E02A8BCE0141964D
:102A5000B0C02D843E844F8458886D887E888F88CE
:102A6000988CEE24FF248701AA24BB24650140E052
:102A700050E060E070E0E0E0F0E0C1018170907053
:102A8000892BE9F0E60CF71C081D191D9A01AB0112
:102A90002A0D3B1D4C1D5D1D80E090E0A0E0B0E0E4
:102AA000E614F7040805190520F481E090E0A0E0A1
:102AB000B0E0BA01A901480F591F6A1F7B1FAA0C79
:102AC000BB1CCC1CDD1C97FE08C081E090E0A0E0A0
:102AD000B0E0A82AB92ACA2ADB2A3196E032F105E9
:102AE00049F0660C771C881C991C569447943794BF
:102AF0002794C3CFFA85EA892B893C898B859C85ED
:102B0000280F391F2E5F3F4F17C0CA018170907088
:102B1000892B61F016950795F794E79480E090E093
:102B2000A0E0B0E8E82AF92A0A2B1B2B76956795D6
:102B3000579547952F5F3F4F77FDE7CF0CC0440F68
:102B4000551F661F771F17FD4160EE0CFF1C001F0D
:102B5000111F21503040403090E0590790E0690744
:102B600090E4790760F32B8F3C8FDB01CA018F77EC
:102B70009070A070B07080349105A105B10561F42A
:102B800047FD0AC0E114F1040105110529F0405C7C
:102B90005F4F6F4F7F4F40781A8EFE1711F081E024
:102BA0008A8F4D8F5E8F6F8F78A383E0898FCE01E0
:102BB00049960E94F018A096E2E10C94981EA8E1B4
:102BC000B0E0E5EEF5E10C94841E69837A838B8393
:102BD0009C832D833E834F835887B9E0EB2EF12CE5
:102BE000EC0EFD1ECE010196B7010E94C5198E01A3
:102BF0000F5E1F4FCE010596B8010E94C5192985A9
:102C0000223008F47EC03989323010F4B8017CC01B
:102C10008A859A8989278A87243011F0223031F4F5
:102C2000231709F06EC067EC71E06EC0343039F4E0
:102C30001D861E861F86188A1C861B8604C032309D
:102C400021F484E08987B7015FC02B853C858B899F
:102C50009C89281B390B3C872B87ED84FE840F85CC
:102C60001889AD88BE88CF88D88CEA14FB040C057F
:102C70001D0540F4EE0CFF1C001F111F21503040B9
:102C80003C872B8720E030E040E050E080E090E09F
:102C9000A0E0B0E460E070E0EA14FB040C051D0560
:102CA00040F0282B392B4A2B5B2BEA18FB080C0928
:102CB0001D09B695A79597958795EE0CFF1C001FEB
:102CC000111F6F5F7F4F6F31710531F7DA01C90155
:102CD0008F779070A070B07080349105A105B10518
:102CE00061F427FD0AC0E114F1040105110529F082
:102CF000205C3F4F4F4F5F4F20782D873E874F8797
:102D0000588BBE01675F7F4FCB010E94F018689619
:102D1000EAE00C94A01EA8E1B0E0E1E9F6E10C9431
:102D2000881E69837A838B839C832D833E834F83A4
:102D3000588789E0E82EF12CEC0EFD1ECE0101969D
:102D4000B7010E94C5198E010F5E1F4FCE01059677
:102D5000B8010E94C5198985823040F08989823086
:102D600028F0C701B8010E943D1A01C08FEF689694
:102D7000E6E00C94A41EA8E1B0E0E1ECF6E10C94CE
:102D8000881E69837A838B839C832D833E834F8344
:102D9000588789E0E82EF12CEC0EFD1ECE0101963D
:102DA000B7010E94C5198E010F5E1F4FCE01059617
:102DB000B8010E94C5198985823040F08989823026
:102DC00028F0C701B8010E943D1A01C08FEF689634
:102DD000E6E00C94A41EA8E1B0E0E1EFF6E10C946B
:102DE000881E69837A838B839C832D833E834F83E4
:102DF000588789E0E82EF12CEC0EFD1ECE010196DD
:102E0000B7010E94C5198E010F5E1F4FCE010596B6
:102E1000B8010E94C5198985823040F089898230C5
:102E200028F0C701B8010E943D1A01C081E06896F0
:102E3000E6E00C94A41EA8E1B0E0E1E2F7E10C9416
:102E4000881E69837A838B839C832D833E834F8383
:102E5000588789E0E82EF12CEC0EFD1ECE0101967C
:102E6000B7010E94C5198E010F5E1F4FCE01059656
:102E7000B8010E94C5198985823040F08989823065
:102E800028F0C701B8010E943D1A01C081E0689690
:102E9000E6E00C94A41EA8E1B0E0E1E5F7E10C94B3
:102EA0008C1E69837A838B839C832D833E834F831F
:102EB0005887CE010196BE01675F7F4F0E94C519FA
:102EC000CE010596BE016F5E7F4F0E94C5198985B0
:102ED000823028F020E030E08989823010F421E04F
:102EE00030E0822F6896E2E00C94A81EA8E0B0E0E3
:102EF000ECE7F7E10C94851E9B01AC0183E089832C
:102F0000DA01C9018827B7FD83959927AA27BB272E
:102F1000B82E211531054105510519F482E0898348
:102F20003AC08823A9F0203080E0380780E04807C5
:102F300080E8580729F460E070E080E09FEC30C042
:102F4000EE24FF248701E21AF30A040B150B02C0DA
:102F500079018A018EE1C82ED12CDC82CB82ED82F0
:102F6000FE820F831887C801B7010E94A11801973C
:102F70001816190684F4082E04C0EE0CFF1C001F5E
:102F8000111F0A94D2F7ED82FE820F831887C81AA8
:102F9000D90ADC82CB82BA82CE0101960E94F01857
:102FA0002896E9E00C94A11EACE0B0E0EAEDF7E170
:102FB0000C948C1E69837A838B839C83CE0101964B
:102FC000BE016B5F7F4F0E94C5198D81823061F118
:102FD000823050F1843021F48E81882351F12EC04B
:102FE0002F81388537FD20C06E812F3131051CF0CF
:102FF0006623F9F023C08EE190E0821B930B2985B4
:103000003A854B855C8504C056954795379527953D
:103010008A95D2F76623B1F0509540953095219569
:103020003F4F4F4F5F4F0EC020E030E040E050E098
:1030300009C02FEF3FEF4FEF5FE704C020E030E023
:1030400040E050E8B901CA012C96E2E00C94A81EB9
:10305000A8E0B0E0EEE2F8E10C94841E7B018C0164
:10306000611571058105910519F482E0898360C0BD
:1030700083E089838EE1C82ED12CDC82CB82ED8265
:10308000FE820F831887C801B7010E94A118FC01B6
:103090003197F7FF3BC0222733272E1B3F0B5701E9
:1030A0006801022E04C0D694C794B794A7940A94DA
:1030B000D2F740E050E060E070E081E090E0A0E016
:1030C000B0E004C0880F991FAA1FBB1F2A95D2F732
:1030D0000197A109B1098E219F21A023B123009757
:1030E000A105B10521F041E050E060E070E04A291F
:1030F0005B296C297D294D835E836F8378878EE100
:1031000090E08E1B9F0B9C838B8312C0309781F0C5
:103110000E2E04C0EE0CFF1C001F111F0A94D2F7E4
:10312000ED82FE820F831887CE1ADF0ADC82CB8203
:103130001A82CE0101960E94F0182896EAE00C94BB
:10314000A01EEF92FF920F931F937B018C0180E0F2
:10315000E81680E0F80681E0080780E0180788F4A8
:103160008FEFE816F1040105110531F028F088E031
:1031700090E0A0E0B0E017C080E090E0A0E0B0E018
:1031800012C080E0E81680E0F80680E0080781E0E1
:10319000180728F088E190E0A0E0B0E004C080E1EA
:1031A00090E0A0E0B0E020E230E040E050E0281BFA
:1031B000390B4A0B5B0B04C016950795F794E794FF
:1031C0008A95D2F7F701E153FE4F8081281B310920
:1031D00041095109C9011F910F91FF90EF90089586
:1031E000DF92EF92FF920F931F93FC01E480F58032
:1031F00006811781D1808081823048F480E090E0A0
:10320000A0E1B0E0E82AF92A0A2B1B2BA5C08430E4
:1032100009F49FC0823021F4EE24FF24870105C009
:10322000E114F1040105110519F4E0E0F0E096C0A5
:10323000628173819FEF623879070CF05BC022E8EE
:103240003FEF261B370B2A3131052CF020E030E010
:1032500040E050E02AC0B801A701022E04C07695D4
:103260006795579547950A94D2F781E090E0A0E0E2
:10327000B0E004C0880F991FAA1FBB1F2A95D2F780
:103280000197A109B1098E219F21A023B1230097A5
:10329000A105B10521F081E090E0A0E0B0E09A0145
:1032A000AB01282B392B4A2B5B2BDA01C9018F7715
:1032B0009070A070B07080349105A105B10539F40B
:1032C00027FF09C0205C3F4F4F4F5F4F04C0215C78
:1032D0003F4F4F4F5F4FE0E0F0E02030A0E03A0773
:1032E000A0E04A07A0E45A0710F0E1E0F0E079011D
:1032F0008A0127C06038710564F5FB01E158FF4F72
:10330000D801C7018F779070A070B070803491059C
:10331000A105B10539F4E7FE0DC080E490E0A0E01E
:10332000B0E004C08FE390E0A0E0B0E0E80EF91E4A
:103330000A1F1B1F17FF05C016950795F794E79402
:10334000319687E016950795F794E7948A95D1F71B
:1033500005C0EE24FF248701EFEFF0E06E2F6795A4
:1033600066276795902F9F77D794DD24D7948E2F6B
:103370008695492F462B582F5D29B701CA011F9109
:103380000F91FF90EF90DF900895FC01DB014081E9
:1033900051812281622F6F7770E0221F2227221F26
:1033A0009381892F880F822B282F30E0991F99272E
:1033B000991F11969C93119721153105A9F5411577
:1033C00051056105710511F482E037C082E89FEF75
:1033D00013969C938E9312979A01AB0167E0220F8C
:1033E000331F441F551F6A95D1F783E08C930DC09E
:1033F000220F331F441F551F12968D919C911397D6
:10340000019713969C938E931297203080E0380793
:1034100080E0480780E4580758F314962D933D93B5
:103420004D935C93179708952F3F310579F441151B
:1034300051056105710519F484E08C93089564FFCA
:1034400003C081E08C9312C01C9210C02F573040F3
:1034500013963C932E93129783E08C9387E0440F4E
:10346000551F661F771F8A95D1F7706414964D9388
:103470005D936D937C93179708951F93DC01FB0177
:103480009C91923008F447C08081823008F443C098
:10349000943051F411961C91843099F58181682FF4
:1034A00070E0611B71093FC0843021F0923031F42B
:1034B0008230B9F18181882389F12DC011961C9148
:1034C00011978230F1F081811817D9F412962D915D
:1034D0003C911397828193818217930794F0281768
:1034E0003907BCF014968D919D910D90BC91A02D43
:1034F0002481358146815781281739074A075B07A0
:1035000018F4112341F00AC082179307A407B507E6
:1035100040F4112319F061E070E005C06FEF7FEF18
:1035200002C060E070E0CB011F9108951F920F92DE
:103530000FB60F9211242F933F938F939F93AF93C6
:10354000BF938091DB039091DC03A091DD03B091E8
:10355000DE033091DF030196A11DB11D232F2D5FE6
:103560002D3720F02D570196A11DB11D2093DF03AB
:103570008093DB039093DC03A093DD03B093DE0321
:103580008091D7039091D803A091D903B091DA0329
:103590000196A11DB11D8093D7039093D803A093EA
:1035A000D903B093DA03BF91AF919F918F913F916F
:1035B0002F910F900FBE0F901F9018959FB7F89402
:1035C0002091D7033091D8034091D9035091DA0369
:1035D00086B5A89B06C08F3F21F02F5F3F4F4F4F0E
:1035E0005F4F9FBF542F432F322F2227280F311DAB
:1035F000411D511D82E0220F331F441F551F8A9524
:10360000D1F7B901CA010895EF92FF920F931F936A
:10361000CF93DF937B018C010E94DE1AEB010EC079
:103620000E94DE1A6C1B7D0B685E7340C8F3089421
:10363000E108F10801091109C851DC4FE114F10456
:103640000105110569F7DF91CF911F910F91FF904F
:10365000EF900895789484B5826084BD84B58160CC
:1036600084BD85B5826085BD85B5816085BDEEE68A
:10367000F0E0808181608083E1E8F0E01082808169
:1036800082608083808181608083E0E8F0E08081D7
:1036900081608083E1EBF0E0808184608083E0EBF7
:1036A000F0E0808181608083EAE7F0E080818460DF
:1036B000808380818260808380818160808380813B
:1036C000806880831092C1000895880F8093BA00AB
:1036D0000895382F413210F040E042C08091E0035D
:1036E0008823E1F791E09093E0032093E2038FEFCA
:1036F00080934D04109208044150409309044F5F99
:103700009093E1038091E103330F832B8093E103D6
:103710008091E303813041F41092E3038091E1034F
:103720008093BB0085EC01C085EE8093BC00809146
:10373000E0038130E1F380910804841710F4409194
:10374000080420E030E00AC0FB01E20FF31FD901BA
:10375000A851BC4F8C9180832F5F3F4F2417A0F35B
:10376000842F08950F931F93582F122F413210F07A
:1037700081E04AC08091E0038823E1F782E08093F2
:10378000E0030093E2038FEF80934D04109208044E
:1037900040930904A8EEB3E0FB0102C081918D9330
:1037A0008E2F861B8417D0F31092E1038091E103E2
:1037B000550F852B8093E1038091E303813041F421
:1037C0001092E3038091E1038093BB0085EC01C07C
:1037D00085EE8093BC00112321F08091E0038230BC
:1037E000E1F380914D048F3F11F480E00DC0809192
:1037F0004D04803211F482E007C080914D04803383
:1038000011F084E001C083E01F910F910895482FCB
:10381000613210F081E008958091E003843011F06E
:1038200082E0089560932B04AAE0B4E0842F9C0109
:10383000F90102C081918D938E2F841B8617D0F3DE
:1038400080E008959093E7038093E60308959093B2
:10385000E5038093E40308951F920F920FB60F9231
:1038600011242F933F934F935F936F937F938F9385
:103870009F93AF93BF93EF93FF938091B90090E034
:10388000887F90708036910509F4F2C081369105E9
:10389000CCF58832910509F47BC089329105B4F4E6
:1038A0008031910509F46FC0813191053CF4009796
:1038B00009F447C1089709F04FC165C088319105E7
:1038C00009F466C0809709F047C182C08034910531
:1038D00009F4A4C08134910544F48033910509F4BE
:1038E00082C0C89709F038C189C08035910509F4B4
:1038F00089C08835910509F496C08834910509F08E
:103900002BC1AEC08839910509F413C189399105DD
:10391000ECF48837910509F4ABC0893791054CF474
:103920008836910509F4A4C08037910509F014C1C7
:103930009FC08838910509F4FCC08039910509F4CD
:103940009DC08038910509F007C198C0803B910562
:1039500009F4C6C0813B91054CF4803A910509F405
:103960009FC0883A910509F0F7C0BAC0803C910524
:1039700009F4E3C0883C910509F4DFC0883B910558
:1039800009F0EAC0C2C08091E1038093BB00CFC0C0
:103990009091080480910904981768F490910804A4
:1039A000E92FF0E0E851FC4F80818093BB009F5FDE
:1039B00090930804BCC08091E203882309F44BC0B3
:1039C00085ED8093BC008091BC0084FDFCCFC2C01B
:1039D00080E280934D0485ED8093BC008091BC0013
:1039E00084FDFCCFB7C080E380934D0485ED8093C8
:1039F000BC008091BC0084FDFCCFACC088E3809308
:103A00004D049BC0809108049091BB00E82FF0E02A
:103A1000E851FC4F90838F5F8093080490910804D5
:103A20008091090482C0809108049091BB00E82F26
:103A3000F0E0E851FC4F90838F5F80930804809101
:103A4000E203882341F085ED8093BC008091BC00A7
:103A500084FDFCCF7FC081E08093E30384EA6EC0E5
:103A600085ED8093BC008091BC0084FDFCCF72C0CA
:103A700083E08093E00310924C0459C080914C0481
:103A8000803208F056C080914C049091BB00E82F22
:103A9000F0E0E45DFB4F90838F5F80934C0447C060
:103AA00080914C04803230F4E0914C04F0E0E45D0D
:103AB000FB4F108285ED8093BC008091BC0084FD9B
:103AC000FCCF1092E00360914C04E091E603F0918A
:103AD000E7038CE294E070E0099510924C042DC04D
:103AE00084E08093E00310922A0410922B04E0916A
:103AF000E403F091E503099580912B04882329F4D0
:103B000081E080932B0410920A0490912A04E92FFB
:103B1000F0E0E65FFB4F80818093BB009F5F909356
:103B20002A0490912A0480912B04981710F485ECB4
:103B300001C085E88093BC000FC085EC8093BC0079
:103B400009C010924D0485ED8093BC008091BC00AB
:103B500084FDFCCF1092E003FF91EF91BF91AF91F4
:103B60009F918F917F916F915F914F913F912F9195
:103B70000F900FBE0F901F9018951092E00381E0F8
:103B80008093E2031092E30382E161E00E94081E49
:103B900083E161E00E94081EE9EBF0E080818E7F06
:103BA000808380818D7F808388E48093B80085E462
:103BB0008093BC000895833071F0843028F4813004
:103BC000A1F0823021F514C08630B1F08730D1F0F9
:103BD0008430E9F404C0809180008F7703C0809125
:103BE00080008F7D80938000089584B58F7702C018
:103BF00084B58F7D84BD08958091B0008F778093C8
:103C0000B00008958091B0008F7D8093B00008953A
:103C1000FF920F931F93F62E482F50E0CA01825552
:103C20009F4FFC012491CA0186569F4FFC011491BD
:103C30004A575F4FFA0104910023C9F0222319F07B
:103C4000822F0E94DB1DE02FF0E0EE0FFF1FEE58E9
:103C5000FF4FA591B4919FB7F894FF2021F48C9168
:103C60001095812302C08C91812B8C939FBF1F9153
:103C70000F91FF900895629FD001739FF001829F82
:103C8000E00DF11D649FE00DF11D929FF00D839FEB
:103C9000F00D749FF00D659FF00D9927729FB00D88
:103CA000E11DF91F639FB00DE11DF91FBD01CF019B
:103CB00011240895A1E21A2EAA1BBB1BFD010DC001
:103CC000AA1FBB1FEE1FFF1FA217B307E407F507CC
:103CD00020F0A21BB30BE40BF50B661F771F881FA8
:103CE000991F1A9469F760957095809590959B013E
:103CF000AC01BD01CF0108952F923F924F925F9288
:103D00006F927F928F929F92AF92BF92CF92DF92EB
:103D1000EF92FF920F931F93CF93DF93CDB7DEB750
:103D2000CA1BDB0B0FB6F894DEBF0FBECDBF0994E4
:103D30002A88398848885F846E847D848C849B843B
:103D4000AA84B984C884DF80EE80FD800C811B8149
:103D5000AA81B981CE0FD11D0FB6F894DEBF0FBE78
:103D6000CDBFED010895EE0FFF1F0590F491E02DFA
:103D700009940F931F93CF93DF93BC018230910579
:103D800010F462E070E0E0915004F0915104A0E082
:103D9000B0E040E050E024C0808191818617970711
:103DA000D0F08617970771F482819381109729F0DC
:103DB00013969C938E9312972CC0909351048093EA
:103DC000500427C04115510519F08417950718F4C0
:103DD000EF018D01AC01DF01828193819C01F9012A
:103DE0003097D1F641155105F9F0CA01861B970BA2
:103DF0008430910580F48A819B810115110521F0A1
:103E0000F8019383828304C09093510480935004FB
:103E1000FE01329645C0FE01E80FF91F61937193D0
:103E20000297998388833CC080914E0490914F04FF
:103E3000892B41F48091D1029091D20290934F044A
:103E400080934E044091D3025091D4024115510504
:103E500041F44DB75EB78091CF029091D002481BDC
:103E6000590B20914E0430914F0424173507B0F4BC
:103E7000CA01821B930B8617970780F0AB014E5F38
:103E80005F4F8417950750F0420F531F50934F0414
:103E900040934E04F9016193719302C0E0E0F0E0B9
:103EA000CF01DF91CF911F910F910895CF93DF93B1
:103EB0009C01009709F48FC0EC0122971B821A82A3
:103EC00060915004709151046115710581F48881ED
:103ED0009981820F931F20914E0430914F0428172F
:103EE000390739F5D0934F04C0934E0474C0DB01F9
:103EF00040E050E0AC17BD0708F1BB83AA83FE0188
:103F000021913191E20FF31FAE17BF0779F48D9124
:103F10009C911197280F391F2E5F3F4F39832883BB
:103F200012968D919C9113979B838A83411551051D
:103F300071F4D0935104C09350044DC012968D91EA
:103F40009C911397AD01009711F0DC01D3CFDA01FA
:103F50001396DC93CE931297FA0121913191E20FDF
:103F6000F31FCE17DF0769F488819981280F391F65
:103F70002E5F3F4FFA01318320838A819B81938397
:103F80008283E0E0F0E0DB0112968D919C91139723
:103F9000009719F0BC01FD01F6CFAB014E5F5F4FFA
:103FA000DB018D919C91840F951F20914E043091DF
:103FB0004F042817390779F4309729F410925104E7
:103FC0001092500402C0138212824250504050930B
:103FD0004F0440934E04DF91CF910895A0E0B0E0EC
:103FE000E4EFFFE10C94801E8C01009729F4CB01D3
:103FF0000E94B91E8C01BBC08EEFE82E8FEFF82E09
:10400000E00EF11E4801860E971E8E149F0408F4E0
:10401000ACC0D7014D915C91119746175707B8F086
:104020004530510508F4A3C0CA01049786179707C5
:1040300008F49DC042505040461B570BF401419379
:1040400051936D937C93CF010E94561F90C05B01EA
:10405000A41AB50A3801640E751EA0915004B091DF
:104060005104CC24DD24E0E0F0E047C0A615B705FC
:10407000A9F5CD91DC911197CE0102968A159B0589
:1040800068F1CE018A199B09029612962C9112971B
:1040900013963C91059758F0F40122833383CA1993
:1040A000DB09D183C083D7016D937C9309C04E5F38
:1040B0005F4F4C0F5D1FF70151834083C901FC0125
:1040C000C114D10431F0D6011396FC93EE931297EC
:1040D0004EC0F0935104E093500449C08D919C91DF
:1040E0001197E817F90708F4FC016D0112968C91FD
:1040F000129713969C919C01D901109709F0B6CFA5
:1041000080914E0490914F0486159705E9F4E617C7
:10411000F707D0F42091D3023091D4022115310554
:1041200041F42DB73EB78091CF029091D002281B69
:10413000390B82169306C8F490924F0480924E0475
:10414000F7017183608313C0CB010E94B91EEC019B
:10415000009759F0D7014D915C91B8010E94FC2065
:10416000C8010E94561F8E0102C000E010E0C80185
:10417000CDB7DEB7EEE00C949C1E1F93FC0199278F
:104180008827BC01E89411911032E9F3193010F03E
:104190001E30C8F31B3251F01D3249F4689406C03A
:1041A0000E94C921610F711D811D911D1191105334
:1041B0001A30B0F33EF490958095709561957F4FDD
:1041C0008F4F9F4F1F910895911133C1803219F085
:1041D00089508550D0F708959111089581548A51DE
:1041E00008F4805E855A08959111089581568A5188
:1041F00008F4805285580895FB01DC0102C001904B
:104200000D9241505040D8F708956817790768F427
:10421000FB01DC01E40FF51FA40FB51F02C00290E3
:104220000E9241505040D8F708950C94FC20FC01A8
:104230008191861721F08823D9F79927089531971E
:10424000CF010895FB01DC018D91019080190110CF
:10425000D9F3990B0895FB01DC0101900D92002028
:10426000E1F70895FB01DC014150504030F08D91A1
:104270000190801919F40020B9F7881B990B089553
:10428000FB01DC014150504048F001900D920020AC
:10429000C9F701C01D9241505040E0F70895FC015C
:1042A00081E090E00190061609F4CF010020D1F7DB
:1042B00001970895FB0151915523A9F0BF01DC013D
:1042C0004D9145174111E1F759F4CD0101900020BE
:1042D00049F04D9140154111C9F3FB014111EFCF58
:1042E00081E090E001970895FB019F01E89442303E
:1042F000C4F04532B4F44A3029F497FB1EF490958B
:1043000081959F4F642F77270E942C22805D8A33EE
:104310000CF0895D8193CB010097A1F716F45DE263
:1043200051931082C9010C941C22FA01CF93FF9380
:10433000EF93223044F1253234F5C22FE894CA308D
:1043400049F497FB3EF490958095709561957F4F69
:104350008F4F9F4F2C2F332744275527FF93EF93E1
:104360000E945A1EEF91FF91605D6A330CF0695D07
:104370006193B901CA01605070408040904051F78C
:1043800016F4CDE2C19310828F919F91CF910C943E
:104390001C22592F482F372F262F660F771F881F73
:1043A000991F660F771F881F991F620F731F841F45
:1043B000951F660F771F881F991F0895FA01CF93E5
:1043C000FF93EF932230CCF02532BCF4C22F2C2F78
:1043D000332744275527FF93EF930E945A1EEF91EE
:1043E000FF91605D6A330CF0695D6193B901CA01A8
:1043F000605070408040904051F710828F919F91A3
:10440000CF910C941C22FB019F01423074F0453285
:1044100064F4642F77270E942C22805D8A330CF08D
:10442000895D8193CB010097A1F71082C9010C949B
:104430001C22992788270895DC01FC01672F7191C0
:104440007723E1F7329704C07C916D93708362917A
:10445000AE17BF07C8F30895AA1BBB1B51E107C0E5
:10446000AA1FBB1FA617B70710F0A61BB70B881F04
:10447000991F5A95A9F780959095BC01CD01089593
:04448000F894FFCFDE
:104484007363616E6E696E672E2E2E00493243206F
:1044940064657669636520666F756E642061742057
:1044A40061646472657373203078003000756E6BDC
:1044B4006E6F77206572726F72206174206164641C
:1044C40072657373203078006E6F20493243206424
:1044D40065766963657320666F756E640A00646F40
:1044E4006E650A000A6932637363616E6E657200F9
:1044F400000000000D04A504A303D403B403FD03CA
:10450400000000008D00A5048D008D008D008D003D
:104514006E616E00696E66006F7666002E000000A4
:1045240000008D00A50400000000008E125D12DB67
:1045340011E411F9110A12000000008D00A5048D88
:10454400008D008D008D00000000000000000000C0
:104554000102020303030304040404040404040521
:1045640005050505050505050505050505050506F6
:1045740006060606060606060606060606060606D7
:1045840006060606060606060606060606060607C6
:1045940007070707070707070707070707070707A7
:1045A4000707070707070707070707070707070797
:1045B4000707070707070707070707070707070787
:1045C4000707070707070707070707070707070876
:1045D4000808080808080808080808080808080857
:1045E4000808080808080808080808080808080847
:1045F4000808080808080808080808080808080837
:104604000808080808080808080808080808080826
:104614000808080808080808080808080808080816
:104624000808080808080808080808080808080806
:1046340008080808080808080808080808080808F6
:1046440008080808080808080808080808080820CE
:064654000052040000000A
:00000001FF
