:100000000C9461000C9473000C9473000C947300B6
:100010000C9473000C9473000C9473000C94730094
:100020000C9473000C9473000C9473000C94730084
:100030000C9473000C9473000C9473000C94730074
:100040000C949F000C9473000C9473000C94730038
:100050000C9473000C9473000C9473000C94730054
:100060000C9473000C94730000000000240027001F
:100070002A0000000000250028002B0000000000DE
:1000800023002600290004040404040404040202DA
:100090000202020203030303030301020408102007
:1000A0004080010204081020010204081020000012
:1000B0000007000201000003040600000000000029
:1000C000000011241FBECFEFD8E0DEBFCDBF11E08E
:1000D000A0E0B1E001C01D92A930B107E1F70E9494
:1000E00090000C940D020C940000FFCF8DE061E0B5
:1000F0000E94DA0164EF71E080E090E00E940D015F
:100100008DE060E00E94DA0164EF71E080E090E051
:100110000E940D0108958DE061E00E946E01089536
:10012000CF93DF930E9433010E948B00C0E0D0E0A8
:100130000E9476002097E1F30E940000F9CF1F9201
:100140000F920FB60F9211242F933F938F939F938B
:10015000AF93BF938091040190910501A091060196
:10016000B0910701309108010196A11DB11D232F07
:100170002D5F2D3720F02D570196A11DB11D209325
:1001800008018093040190930501A0930601B093A8
:1001900007018091000190910101A0910201B091AD
:1001A00003010196A11DB11D8093000190930101EF
:1001B000A0930201B0930301BF91AF919F918F91E2
:1001C0003F912F910F900FBE0F901F9018959FB7E2
:1001D000F894209100013091010140910201509169
:1001E000030186B5A89B06C08F3F21F02F5F3F4FCC
:1001F0004F4F5F4F9FBF542F432F322F2227280F7F
:10020000311D411D511D82E0220F331F441F551F18
:100210008A95D1F7B901CA010895EF92FF920F9321
:100220001F93CF93DF937B018C010E94E700EB01CA
:100230000EC00E94E7006C1B7D0B685E7340C8F324
:100240000894E108F10801091109C851DC4FE114D3
:10025000F1040105110569F7DF91CF911F910F910D
:10026000FF90EF900895789484B5826084BD84B542
:10027000816084BD85B5826085BD85B5816085BDA1
:10028000EEE6F0E0808181608083E1E8F0E01082BA
:10029000808182608083808181608083E0E8F0E0FB
:1002A000808181608083E1EBF0E0808184608083E5
:1002B000E0EBF0E0808181608083EAE7F0E080811C
:1002C000846080838081826080838081816080837C
:1002D0008081806880831092C1000895CF93DF935E
:1002E000482F50E0CA0186569F4FFC0134914A576F
:1002F0005F4FFA018491882369F190E0880F991F7C
:10030000FC01E859FF4FA591B491FC01EE58FF4F55
:10031000C591D491662351F42FB7F8948C91932F03
:10032000909589238C93888189230BC0623061F476
:100330002FB7F8948C91932F909589238C93888173
:10034000832B88832FBF06C09FB7F8948C91832B93
:100350008C939FBFDF91CF910895833071F08430EB
:1003600028F48130A1F0823021F514C08630B1F03C
:100370008730D1F08430E9F404C0809180008F7719
:1003800003C0809180008F7D80938000089584B5A4
:100390008F7702C084B58F7D84BD08958091B000B1
:1003A0008F778093B00008958091B0008F7D809307
:1003B000B0000895FF920F931F93F62E482F50E040
:1003C000CA0182559F4FFC012491CA0186569F4F56
:1003D000FC0114914A575F4FFA0104910023C9F0C0
:1003E000222319F0822F0E94AD01E02FF0E0EE0FE2
:1003F000FF1FEE58FF4FA591B4919FB7F894FF20CF
:1004000021F48C911095812302C08C91812B8C93C7
:0E0410009FBF1F910F91FF900895F894FFCFAA
:00000001FF
