:100000000C9466000C948E000C948E000C948E0060
:100010000C948E000C948E000C948E000C948E0028
:100020000C948E000C948E000C948E000C948E0018
:100030000C948E000C948E000C948E000C948E0008
:100040000C9423280C948E000C9473010C94C10121
:100050000C948E000C948E000C948E000C948E00E8
:100060000C948E000C948E000000000024002700E9
:100070002A0000000000250028002B0000000000DE
:1000800023002600290004040404040404040202DA
:100090000202020203030303030301020408102007
:1000A0004080010204081020010204081020000012
:1000B0000007000201000003040600000000000029
:1000C00000009100A9041912B213E41C11241FBEF0
:1000D000CFEFD8E0DEBFCDBF12E0A0E0B1E0E6E2B6
:1000E000F0E702C005900D92AA3EB107D9F716E0DD
:1000F000AAEEB2E001C01D92AB35B107E1F710E006
:10010000CCECD0E004C02297FE010E947234C23CC5
:10011000D107C9F70E9466010C9411380C940000B5
:1001200008950F938CEF92E060E040E020E000E063
:100130000E940D128AEE92E00E94461C0F910895D3
:100140000F931F93DF93CF93CDB7DEB7C254D04048
:100150000FB6F894DEBF0FBECDBF8AE893E040E053
:1001600051EE60E070E00E948402DE011196E1E34E
:10017000F1E086E001900D928150E1F7CE01079603
:1001800060EC48EA21E000E50E940D12CE010D96D8
:1001900068E048E028E008E00E940D12CE01439696
:1001A00060EC48EA21E001E00E940D1228E731E00E
:1001B0003A8F298F89859A85AB85BC858B8F9C8FDB
:1001C000AD8FBE8F38A32F8F8F859889A989BA8963
:1001D00089A39AA3ABA3BCA33EA32DA38D899E891B
:1001E000AF89B88D8FA398A7A9A7BAA787EC93E08A
:1001F000BE016F5F7F4FAE01475E5F4F9E01215E84
:100200003F4F8E010B5D1F4F0E9413158AE893E04C
:1002100060E071E00E944C078E01055D1F4FC80130
:1002200067EC73E00E940F148AE893E0B8010E9423
:10023000AB058AE893E06AE071E00E944C078E010A
:100240000F5C1F4FC80167EC73E00E94E8138AE857
:1002500093E0B8010E94AB058AE893E067E171E0A2
:100260000E944C078E01095C1F4FC80167EC73E0C8
:100270000E94C1138AE893E0B8010E94AB058AE8A6
:1002800093E063E271E00E944C078E01035C1F4F14
:10029000C80167EC73E00E94FC128AE893E0B801A1
:1002A0000E94AB051092F8021092F9021092FA0225
:1002B0001092FB02CE5BDF4F0FB6F894DEBF0FBE8D
:1002C000CDBFCF91DF911F910F9108950E94CF284C
:1002D0000E94A0008EEA91E0892B19F00E94AE01E5
:1002E000FDCFFFCF08951F920F920FB60F921124EA
:1002F0002F933F934F938F939F93EF93FF9380910F
:10030000C00082FD1DC04091C60020914203309183
:1003100043032F5F3F4F2F733070809144039091C0
:1003200045032817390771F0E0914203F091430328
:10033000EE5FFC4F4083309343032093420302C09F
:100340008091C600FF91EF919F918F914F913F91C6
:100350002F910F900FBE0F901F901895E09196036C
:10036000F0919703E05CFF4F819191912081318161
:10037000821B930B8F739070892B11F00E94720176
:1003800008951F920F920FB60F9211242F933F934F
:100390008F939F93EF93FF93209186033091870370
:1003A00080918803909189032817390731F480914F
:1003B000C1008F7D8093C10014C0E0918803F0914B
:1003C0008903EA5BFC4F2081809188039091890327
:1003D00001968F7390709093890380938803209384
:1003E000C600FF91EF919F918F913F912F910F90B8
:1003F0000FBE0F901F9018958F929F92AF92BF9251
:10040000CF92DF92EF92FF920F931F93DF93CF93E0
:10041000CDB7DEB7FC011382128288EE93E0A0E034
:10042000B0E084839583A683B78381E491E09183D0
:1004300080837587648757874687318B208B138B22
:10044000028BF58AE48AD78AC68AB18EA08E938EF3
:10045000828E8F85848F8889858F8989868F8A8906
:10046000878F8B8980A3CF91DF911F910F91FF9090
:10047000EF90DF90CF90BF90AF909F908F900895B6
:100480008F929F92AF92BF92CF92DF92EF92FF92A4
:100490000F931F93DF93CF93CDB7DEB7FC01138289
:1004A000128288EE93E0A0E0B0E084839583A68377
:1004B000B78381E491E09183808375876487578750
:1004C0004687318B208B138B028BF58AE48AD78A7F
:1004D000C68AB18EA08E938E828E8F85848F8889F6
:1004E000858F8989868F8A89878F8B8980A3CF9111
:1004F000DF911F910F91FF90EF90DF90CF90BF9011
:10050000AF909F908F900895AF92BF92DF92EF923D
:10051000FF920F931F93CF93DF93EC017A018B012E
:10052000DD24403081EE580780E0680780E07807DE
:1005300011F0DD24D39491E0A92EB12CEC89FD8932
:10054000DD2069F0C50108A002C0880F991F0A9438
:10055000E2F7808360E079E08DE390E005C01082EF
:1005600060E874E88EE190E0A80197010E941734DA
:10057000215030404040504056954795379527953B
:1005800080E12030380720F0DD2011F0DD24D6CFC7
:10059000E889F9893083EA89FB89208319A2EE89E9
:1005A000FF89408121E030E0C9010C8C02C0880F36
:1005B000991F0A94E2F7482B4083EE89FF89408116
:1005C000C9010D8C02C0880F991F0A94E2F7482BCD
:1005D0004083EE89FF894081C9010E8C02C0880FDB
:1005E000991F0A94E2F7482B4083EE89FF898081A6
:1005F0000F8C02C0220F331F0A94E2F720952823A4
:100600002083DF91CF911F910F91FF90EF90DF90AA
:10061000BF90AF900895AF92BF92CF92DF92EF92CA
:10062000FF920F931F93CF93DF93EC017A018B011D
:10063000C22EDD24403081EE580780E0680780E05C
:10064000780711F0DD24D39471E0A72EB12CEC894A
:10065000FD89DD2069F0C50108A002C0880F991F3F
:100660000A94E2F7808360E079E08DE390E005C0D2
:10067000108260E874E88EE190E0A80197010E9482
:10068000173421503040404050405695479537959B
:10069000279580E12030380720F0DD2011F0DD249F
:1006A000D6CFE889F9893083EA89FB892083E88DF0
:1006B000F98DC082EE89FF89408121E030E0C901D7
:1006C0000C8C02C0880F991F0A94E2F7482B4083D4
:1006D000EE89FF894081C9010D8C02C0880F991FE6
:1006E0000A94E2F7482B4083EE89FF894081C901D3
:1006F0000E8C02C0880F991F0A94E2F7482B4083A2
:10070000EE89FF8980810F8C02C0220F331F0A946B
:10071000E2F7209528232083DF91CF911F910F913D
:10072000FF90EF90DF90CF90BF90AF900895CF9360
:10073000DF93DC011E968D919C911F97EC01C05CAC
:10074000DF4FFC01EE5BFF4F288139818081918171
:1007500028173907C9F75696ED91FC9157974081B4
:1007600021E030E0C9015C960C905C9702C0880FD4
:10077000991F0A94E2F78095842380835696ED9121
:10078000FC9157974081C9015D960C905D9702C01E
:10079000880F991F0A94E2F78095842380835696E8
:1007A000ED91FC9157974081C9015E960C905E9740
:1007B00002C0880F991F0A94E2F7809584238083F2
:1007C0005696ED91FC91579780815F960C905F97BC
:1007D00002C0220F331F0A94E2F7209528232083BA
:1007E0001C96ED91FC911D97EE5BFF4F80819181EE
:1007F00092938293DF91CF910895DC011C96ED9145
:10080000FC911D97E05CFF4F219131918081918196
:10081000281B390B2F733070C9010895DC011C9619
:10082000ED91FC911D97E05CFF4F20813181E054F8
:10083000F040DF01AE5BBF4F8D919C91119728175F
:10084000390719F42FEF3FEF07C08D919C91E80F06
:10085000F91F8081282F30E0C9010895DC011C9622
:10086000ED91FC911D97E05CFF4F20813181E054B8
:10087000F040DF01AE5BBF4F8D919C91119728171F
:10088000390719F42FEF3FEF10C08D919C9111970C
:10089000E80FF91F20818D919C91119701968F731C
:1008A000907011969C938E9330E0C9010895DC01FD
:1008B00091968C919197882339F05496ED91FC9103
:1008C0005597808186FFF9CF91961C920895CF931A
:1008D000DF93EC01EE85FF85E05CFF4F20813181E5
:1008E000E054F0402F5F3F4F2F733070DF01AE5B5D
:1008F000BF4F8D919C91119728173907D1F3E05C78
:10090000FF4F80819181E054F040E80FF91F608330
:10091000EE85FF85E05CFF4F31832083EE89FF8900
:10092000208181E090E00F8C02C0880F991F0A940B
:10093000E2F7282B208381E089A3EC89FD8980815F
:100940008064808381E090E0DF91CF91089581E021
:10095000089510928D0310928C0388EE93E0A0E02E
:10096000B0E080938E0390938F03A0939003B09395
:10097000910381E491E090938B0380938A0382E05A
:1009800093E0909397038093960386E493E090938B
:1009900099038093980385EC90E090939B03809358
:1009A0009A0384EC90E090939D0380939C0380ECE9
:1009B00090E090939F0380939E0381EC90E090934E
:1009C000A1038093A00382EC90E09093A303809313
:1009D000A20386EC90E09093A5038093A40384E0A7
:1009E0008093A60383E08093A70387E08093A80306
:1009F00085E08093A90381E08093AA030895CF92B4
:100A0000DF92EF92FF920F931F93CF93DF937C01BE
:100A10006B018A01C0E0D0E00FC0D6016D916D017D
:100A2000D701ED91FC910190F081E02DC70109956E
:100A3000C80FD91F015010400115110571F7CE01E3
:100A4000DF91CF911F910F91FF90EF90DF90CF90AA
:100A50000895EF92FF920F931F93CF93DF937C0142
:100A60008B01C0E0D0E0F8010F5F1F4F6491662357
:100A700059F0D701ED91FC910190F081E02DC70173
:100A80000995C80FD91FEFCFCE01DF91CF911F91EC
:100A90000F91FF90EF900895DC01ED91FC91019092
:100AA000F081E02D099508959C01DB01ED91FC9109
:100AB0000190F081E02DCB01B90109950895EF92E5
:100AC000FF920F931F938C01DC01ED91FC9101903B
:100AD000F081E02D6DE009957C01D801ED91FC914C
:100AE0000190F081E02DC8016AE009959C012E0D6E
:100AF0003F1DC9011F910F91FF90EF900895EF9254
:100B0000FF920F931F937C010E9429058C01C7015E
:100B10000E945F059C01200F311FC9011F910F9199
:100B2000FF90EF900895EF92FF920F931F937C0137
:100B3000DC01ED91FC910190F081E02D09958C0193
:100B4000C7010E945F05080F191FC8011F910F916F
:100B5000FF90EF900895EF92FF920F931F937C0107
:100B6000DB01ED91FC910190F081E02DCB01B7010B
:100B700009958C01C7010E945F05080F191FC80164
:100B80001F910F91FF90EF900895CF93DF93EC01A9
:100B90006115710519F420E030E00FC0DB010D9004
:100BA0000020E9F71197A61BB70BE881F9810280B5
:100BB000F381E02DAD0109959C01C901DF91CF9131
:100BC00008954F925F927F928F929F92AF92BF92C1
:100BD000CF92DF92EF92FF920F931F93DF93CF9309
:100BE000CDB7DEB7A1970FB6F894DEBF0FBECDBF6D
:100BF0002C01742ECB01223008F42AE019A231E234
:100C0000C32ED12CCC0EDD1E822E9924AA24BB2407
:100C1000672D752FA50194010E94173479018A016F
:100C2000C801B701A50194010E94F833472D461B66
:100C30000894C108D1084A3014F4405D01C0495CF1
:100C4000F6014083E114F1040105110521F07E2C29
:100C50005F2DC801DDCFC201B6010E94C505A19676
:100C60000FB6F894DEBF0FBECDBFCF91DF911F91BD
:100C70000F91FF90EF90DF90CF90BF90AF909F903B
:100C80008F907F905F904F900895DC012115310582
:100C900041F4ED91FC910190F081E02D642F0995D4
:100CA00008950E94E1050895EF92FF920F931F931C
:100CB0007C010E9445068C01C7010E945F059C01D2
:100CC000200F311FC9011F910F91FF90EF900895E0
:100CD000EF92FF920F931F939A017B0100E010E0C7
:100CE000B801A7010E9445061F910F91FF90EF9058
:100CF0000895CF92DF92EF92FF920F931F936C01B2
:100D00007B019A0100E010E0B801A7010E944506AE
:100D10008C01C6010E945F05080F191FC8011F91B1
:100D20000F91FF90EF90DF90CF900895EF92FF9298
:100D30000F931F939A01E62EFF2400E010E0B80104
:100D4000A7010E9445061F910F91FF90EF90089513
:100D5000CF92DF92EF92FF920F931F936C01E62EDA
:100D60009A01FF2400E010E0B801A7010E944506A7
:100D70008C01C6010E945F05080F191FC8011F9151
:100D80000F91FF90EF90DF90CF900895CF92DF9278
:100D9000EF92FF920F931F93CF93DF93EC016A01C1
:100DA0007B012115310541F4E881F9810190F08141
:100DB000E02D642F09951FC02A303105D1F477FF4B
:100DC00017C0E881F9810190F081E02D6DE209956D
:100DD0008C0144275527BA014C195D096E097F091A
:100DE000CE012AE00E94E1059801280F391F04C0B6
:100DF0002AE00E94E1059C01C901DF91CF911F917A
:100E00000F91FF90EF90DF90CF900895EF92FF92B7
:100E10000F931F937C010E94C6068C01C7010E949C
:100E20005F059C01200F311FC9011F910F91FF9099
:100E3000EF900895EF92FF920F931F937B019A0119
:100E40000027F7FC0095102FB801A7010E94C606E5
:100E50001F910F91FF90EF900895CF92DF92EF9244
:100E6000FF920F931F936C017B019A010027F7FCFF
:100E70000095102FB801A7010E94C6068C01C6017B
:100E80000E945F05080F191FC8011F910F91FF9065
:100E9000EF90DF90CF9008950E94C50508957F924E
:100EA0008F929F92AF92BF92CF92DF92EF92FF927A
:100EB0000F931F93CF93DF934C017A018B01722E16
:100EC000CB01BA01A80197010E94D824882321F000
:100ED000C4016DE571E021C0C0E0D0E057016801B8
:100EE000E894D7F8C601B5012FEF3FEF4FE75FE772
:100EF0000E94D824882351F4C601B5012FEF3FEF9B
:100F00004FE75FE70E94A824181614F0C1E0D0E074
:100F1000219739F0C40161E671E00E94C505EC013A
:100F200093C0C801B7012FEF3FEF4FE75FE40E9486
:100F30001824181654F0C801B7012FEF3FEF4FE700
:100F40005FEC0E947824882324F4C40165E671E0F4
:100F5000E4CFC801B70120E030E040E050E00E945B
:100F6000782487FD03C0C0E0D0E00EC0D401ED912D
:100F7000FC910190F081E02DC4016DE20995EC0136
:100F800017FB109517F9109520E030E040E05FE383
:100F9000DD240BC0CA01B90120E030E040E251E499
:100FA0000E946C239B01AC01D394D71498F3C80121
:100FB000B7010E9445225B016C010E949C207B01CD
:100FC0008C01C401B801A7012AE030E00E94450667
:100FD000C80FD91F772039F0C40169E671E00E947B
:100FE000C505C80FD91FC801B7010E94B5259B01CF
:100FF000AC01C601B5010E94142224C020E030E0FB
:1010000040E251E40E9472227B018C010E94612522
:101010005B016C01CC24B7FCC094DC2CC401B6018C
:10102000A5012AE030E00E94C606C80FD91FC601FC
:10103000B5010E9403259B01AC01C801B7010E94C4
:1010400014227A947720D1F6CE01DF91CF911F91AF
:101050000F91FF90EF90DF90CF90BF90AF909F9057
:101060008F907F9008950E944F070895EF92FF920E
:101070000F931F937C010E944F078C01C7010E94B0
:101080005F05080F191FC8011F910F91FF90EF9086
:101090000895EF92FF920F931F937C010E94C50564
:1010A0008C01C7010E945F05080F191FC8011F911D
:1010B0000F91FF90EF900895AF92BF92CF92DF9281
:1010C000EF92FF920F931F93CF93DF935C016B011D
:1010D000EE24FF24C0E0D0E010C0D501ED91FC91DA
:1010E00000811181C601BE010E94D608682FC5018A
:1010F000F8010995E80EF91E2196F6018481958183
:10110000C817D90750F3C701DF91CF911F910F91F5
:10111000FF90EF90DF90CF90BF90AF900895EF9247
:10112000FF920F931F937C010E945C088C01C70102
:101130000E945F059C01200F311FC9011F910F9173
:10114000FF90EF900895FC018481958168177907DD
:1011500048F40190F081E02D309721F0E60FF71F61
:101160008081089580E00895FC018481958168174D
:10117000790730F40190F081E02DE60FF71F4083EE
:101180000895FC019B01848195816817790728F4F3
:10119000608171816115710529F41092AC036CEACC
:1011A00073E002C0620F731FCB010895FC018481BC
:1011B00095816817790748F40190F081E02D309708
:1011C00021F0E60FF71F8081089580E00895FC016B
:1011D0000190F081E02D309729F40895861709F4E5
:1011E0004083319680818823C9F70895FC0180816E
:1011F0009181009729F420E030E040E050E004C005
:101200000E947A369B01AC01B901CA010895CF92C0
:10121000DF92EF92FF920F931F93CF93DF936C01B6
:10122000DC01ED90FC901197E114F10409F441C048
:101230001496CD91DC9115972097D9F1870102C0C2
:101240000F5F1F4FF8018081992787FD90950E94BD
:10125000A136892BA9F72197CE0DDF1D01C021975B
:101260008881992787FD90950E94A136892B19F0D6
:10127000C017D107A0F7FE013196E01BF10BD60194
:101280001596FC93EE9314972D913C9120173107FE
:1012900028F4C901B801AF010E94C636D601ED910C
:1012A000FC91119714968D919C911597E80FF91F59
:1012B0001082DF91CF911F910F91FF90EF90DF90FF
:1012C000CF900895CF93DF93FC01C081D181209707
:1012D00039F409C0992787FD90950E94B13689930A
:1012E00088818823B9F7DF91CF910895CF93DF9359
:1012F000FC01C081D181209739F409C0992787FD6D
:1013000090950E94A936899388818823B9F7DF9147
:10131000CF910895EF92FF920F931F93CF93DF9396
:10132000FC01DB018617970739F12481358114967A
:101330008D919C9115972817390701F5232BE1F022
:10134000E080F180CD91DC9113C0992787FD9095C5
:101350000E94A9368C018881992787FD90950E946B
:10136000A9360817190751F40894E11CF11C2196BD
:10137000F7018081882349F781E001C080E0DF9197
:10138000CF911F910F91FF90EF900895AF92BF9270
:10139000CF92DF92EF92FF920F931F93CF93DF9341
:1013A000FC015B017A01DB0114962D913C911597AC
:1013B0002115310559F184819581009739F1821702
:1013C000930720F14817590720F07C010894E108A1
:1013D000F10800811181C801CFEFDFEF6801CE0C69
:1013E000DF1C10C0F501608171810E942B379C01C8
:1013F000009771F0801B910BE816F90608F0EC01DC
:10140000C9010196C816D90668F702C0CFEFDFEF11
:10141000CE01DF91CF911F910F91FF90EF90DF9060
:10142000CF90BF90AF900895FC01DB0144815581BE
:1014300014968D919C911597481B590BCF010E94D2
:10144000C6090895CF93DF93FC01DB018481958168
:101450004817590760F4C081D1816D917C91CE010C
:10146000840F951F0E942B379C01009719F42FEFD2
:101470003FEF02C02C1B3D0BC901DF91CF910895B6
:1014800040E050E00E94220A0895DF92EF92FF921E
:101490000F931F93CF93DF93EC018C819D814817AD
:1014A0005907C8F47A010894E11CF11CE881F9811C
:1014B000EE0DFF1DD080108208811981772767FD0E
:1014C0007095C8010E9420379C010E0D1F1DF80168
:1014D000D082009719F4EFEFFFEF05C08881998162
:1014E000F901E81BF90BCF01DF91CF911F910F910B
:1014F000FF90EF90DF900895FC01448155814150A9
:1015000050400E94450A0895CF93DF93FC018481E7
:1015100095814817590768F4C081D181772767FD05
:101520007095CE01840F951F0E94E8369C010097AC
:1015300019F42FEF3FEF02C02C1B3D0BC901DF91C7
:10154000CF91089540E050E00E94840A08950F93DF
:101550001F93CF93DF93FC018B0141155105F9F0E7
:1015600061157105E1F0848195812817390718F01C
:10157000FB01108214C041505040EC01C21BD30B40
:101580004C175D0708F4EA0160817181620F731FD7
:10159000C801AE010E941137C00FD11F1882DF9120
:1015A000CF911F910F910895FC01DB0124813581BA
:1015B00014964D915C91159724173507A8F08081FA
:1015C0009181009789F06D917C916115710561F0B1
:1015D000241B350B820F931F0E94F3369C0180E081
:1015E000232B19F481E0089580E00895DC01FB01CC
:1015F00014968D919C911597892B31F46115710585
:10160000A9F090E0808108C00D90BC91A02D6115DB
:10161000710529F490E08C91882349F407C0CD012D
:101620000E94F3369C0190E0232B09F491E0892F6E
:101630000895CF93DF939C01FB01EC01A881B98150
:10164000109729F06081718161157105D1F4C08115
:10165000D181209759F084819581892B39F0888137
:1016600090E022273327281B390B12C0109771F006
:10167000F90184819581892B49F08C91282F30E0E4
:1016800007C0CD010E94F3369C0102C020E030E08B
:10169000C901DF91CF9108950E94190B892F809580
:1016A000881F8827881F08950E94190B20E01816AC
:1016B00019060CF021E0822F08950E94190B20E0FA
:1016C000181619060CF421E0822F08950E94190BB8
:1016D000892F881F8827881F0895FC01DB0124813A
:1016E000358114968D919C9115972817390711F023
:1016F00020E007C0CF010E94190B20E0892B09F4DC
:1017000021E0822F0895FC01DB0114962D913C917C
:10171000159784819581821B930B84179507A0F000
:1017200080819181009781F06D917C9161157105A7
:1017300059F0840F951FA9010E9403379C0180E096
:10174000232B19F481E0089580E00895FC01DB016A
:101750002481358114968D919C911597281739070E
:1017600010F480E00895CF0140E050E00E94830B28
:1017700008950F931F93CF93DF93EC018B016F5F5D
:101780007F4F888199810E94AB35009711F480E0EA
:1017900005C0998388831B830A8381E0DF91CF9101
:1017A0001F910F9108952F923F924F925F926F92E7
:1017B0007F928F929F92AF92BF92CF92DF92EF92E1
:1017C000FF920F931F93CF93DF935C012B014A018C
:1017D000DC0114960D911C9115970115110509F462
:1017E000D4C0FB01C480D580C114D10409F4CDC09C
:1017F000DA0114966D907C9015976C187D08FC01A9
:10180000E080F1806114710491F01BC0D4016C91EF
:1018100011967C91119714964D915C9115978C2F90
:101820000E94C636F401E480F580EC0EFD1ED20164
:101830006D917C91C7010E942B37EC01009731F725
:10184000A4C077FE02C067012EC0FB01208031805A
:10185000E8013CC08E010E191F09C601B701A8019D
:101860000E94C6360C0D1D1DD4016C9111967C9101
:10187000119714964D915C911597C8010E94C63638
:10188000F401C480D580C00ED11ED2011496ED9013
:10189000FC901597EC0EFD1EF50184819581860D57
:1018A000971D95838483D2016D917C91C7010E941D
:1018B0002B37EC01009771F6C601B7010E94FC3688
:1018C00064C07B01EC0CFD1CC60DD71DC701B10126
:1018D0000E942B37BC010097A1F7C017D10709F46C
:1018E00054C0F501828193818C179D0708F044C094
:1018F000C501BE010E94B90B8823F1F546C0C501A0
:10190000B201A9010E94C609EC0197FD3EC0D501B4
:101910006D917C911197F201848195818C0F9D1FAF
:10192000680F791F14964D915C911597481B590BC0
:10193000CB01860D971D0E94CF36D50114968D914F
:101940009C911597860D971D15969C938E931497D1
:10195000ED91FC911197E80FF91F10822D913C91A8
:101960002C0F3D1FF4016081718144815581C901B3
:101970000E94C6369E0105C0D50114962D913C915A
:1019800015972150304037FFBACFDF91CF911F918B
:101990000F91FF90EF90DF90CF90BF90AF909F900E
:1019A0008F907F906F905F904F903F902F90089511
:1019B000CF93DF93EC0188819981892B29F08A816B
:1019C0009B818617970760F4CE010E94B90B88238C
:1019D00041F08C819D81892B19F4E881F981108275
:1019E00081E0DF91CF910895EF92FF920F931F93C3
:1019F000CF93DF93EC017B016C817D81E114F104D5
:101A0000C1F04115510599F08A01060F171FB80161
:101A10000E94D80C882369F0888199812C813D81AE
:101A2000820F931FB7010E94FC361D830C8381E057
:101A300001C080E0DF91CF911F910F91FF90EF9057
:101A40000895EF92FF920F931F93DF93CF93CDB73B
:101A5000DEB72B970FB6F894DEBF0FBECDBF7C016B
:101A6000CB01BA018E010F5F1F4FA8012AE030E0C1
:101A70000E94AF37F80101900020E9F73197E01B91
:101A8000F10BC701B801AF010E94F40C2B960FB601
:101A9000F894DEBF0FBECDBFCF91DF911F910F91A4
:101AA000FF90EF900895EF92FF920F931F93DF93B3
:101AB000CF93CDB7DEB72C970FB6F894DEBF0FBE2D
:101AC000CDBF7C01CB01BA018E010F5F1F4FA80172
:101AD0002AE030E00E946637F80101900020E9F723
:101AE0003197E01BF10BC701B801AF010E94F40C64
:101AF0002C960FB6F894DEBF0FBECDBFCF91DF910D
:101B00001F910F91FF90EF900895EF92FF920F9326
:101B10001F93DF93CF9300D000D000D0CDB7DEB7B6
:101B20007C01CB018E010F5F1F4FB8014AE050E0EE
:101B30000E94D437F80101900020E9F73197E01BAB
:101B4000F10BC701B801AF010E94F40C26960FB645
:101B5000F894DEBF0FBECDBFCF91DF911F910F91E3
:101B6000FF90EF900895EF92FF920F931F93DF93F2
:101B7000CF93CDB7DEB727970FB6F894DEBF0FBE71
:101B8000CDBF7C01CB018E010F5F1F4FB8014AE032
:101B900050E00E944537F80101900020E9F73197A5
:101BA000E01BF10BC701B801AF010E94F40C2796AE
:101BB0000FB6F894DEBF0FBECDBFCF91DF911F915E
:101BC0000F91FF90EF900895EF92FF920F931F9364
:101BD000DF93CF9300D000D0CDB7DEB77C01862F46
:101BE00090E08E010F5F1F4FB8014AE050E00E9465
:101BF0004537F80101900020E9F73197E01BF10B20
:101C0000C701B801AF010E94F40C0F900F900F9024
:101C10000F90CF91DF911F910F91FF90EF9008955A
:101C2000DF93CF9300D0CDB7DEB769831A82BE01B0
:101C30006F5F7F4F41E050E00E94F40C0F900F90D7
:101C4000CF91DF9108956115710511F480E0089539
:101C5000DB010D900020E9F71197A61BB70BAD0132
:101C60000E94F40C0895FB016081718144815581CB
:101C70000E94F40C0895CF93DF93EC018881998141
:101C8000009711F00E941335198218821D821C8260
:101C90001B821A82DF91CF9108950F931F93182F03
:101CA000092F0E94210D882321F4812F902F0E945B
:101CB0003B0E812F902F1F910F9108950F931F932B
:101CC000182F092F0E94530D882321F4812F902F64
:101CD0000E943B0E812F902F1F910F9108950F931B
:101CE0001F93182F092F0E94850D882321F4812F1F
:101CF000902F0E943B0E812F902F1F910F910895DE
:101D00000F931F93182F092F0E94B30D882321F4DE
:101D1000812F902F0E943B0E812F902F1F910F91AA
:101D200008950F931F93182F092F0E94E40D882305
:101D300021F4812F902F0E943B0E812F902F1F9115
:101D40000F9108950F931F93182F092F0E94100EC3
:101D5000882321F4812F902F0E943B0E812F902FFA
:101D60001F910F9108950F931F93182F092F61153D
:101D7000710561F0DB010D900020E9F71197A61BBA
:101D8000B70BAD010E94F40C882321F4812F902F12
:101D90000E943B0E812F902F1F910F9108950F935A
:101DA0001F93182F092FFB01608171814481558198
:101DB0000E94F40C882321F4812F902F0E943B0E67
:101DC000812F902F1F910F910895EF92FF920F9303
:101DD0001F93CF93DF93EC017B018A01BA010E942C
:101DE000D80C882321F4CE010E943B0E07C01D832E
:101DF0000C8388819981B7010E94FC36CE01DF9166
:101E0000CF911F910F91FF90EF900895CF93DF93A3
:101E1000EC01198218821B821A821D821C821E828A
:101E20006115710551F0DB010D900020E9F7119764
:101E3000A61BB70BAD010E94E50EDF91CF9108956F
:101E4000CF93DF93EC01198218821B821A821D82C4
:101E50001C821E826115710551F0DB010D9000207E
:101E6000E9F71197A61BB70BAD010E94E50EDF91B4
:101E7000CF9108950F931F93182F092F61157105A6
:101E800059F0DB010D900020E9F71197A61BB70B65
:101E9000AD010E94E50E02C00E943B0E812F902FE3
:101EA0001F910F910895EF92FF920F931F93DF936D
:101EB000CF93CDB7DEB7A1970FB6F894DEBF0FBEB4
:101EC000CDBF8C01FC011182108213821282158217
:101ED00014821682CB01BA017E010894E11CF11C28
:101EE000A70130E00E94AF37C801B7010E943A0F46
:101EF000A1960FB6F894DEBF0FBECDBFCF91DF9194
:101F00001F910F91FF90EF900895EF92FF920F9322
:101F10001F93DF93CF93CDB7DEB7A1970FB6F89499
:101F2000DEBF0FBECDBF8C01FC0111821082138277
:101F30001282158214821682CB01BA017E010894A6
:101F4000E11CF11CA70130E00E94AF37C801B701C6
:101F50000E943A0FA1960FB6F894DEBF0FBECDBF18
:101F6000CF91DF911F910F91FF90EF900895EF9225
:101F7000FF920F931F93DF93CF93CDB7DEB7A29756
:101F80000FB6F894DEBF0FBECDBF8C01FC011182ED
:101F9000108213821282158214821682CB01BA013A
:101FA0007E010894E11CF11CA70130E00E94663715
:101FB000C801B7010E943A0FA2960FB6F894DEBF8F
:101FC0000FBECDBFCF91DF911F910F91FF90EF908A
:101FD0000895EF92FF920F931F93DF93CF93CDB7A6
:101FE000DEB7A2970FB6F894DEBF0FBECDBF8C014F
:101FF000FC011182108213821282158214821682D1
:10200000CB01BA017E010894E11CF11CA70130E06C
:102010000E946637C801B7010E943A0FA2960FB618
:10202000F894DEBF0FBECDBFCF91DF911F910F910E
:10203000FF90EF900895EF92FF920F931F93DF931D
:10204000CF93CDB7DEB761970FB6F894DEBF0FBE62
:10205000CDBF8C01CB01F801118210821382128254
:102060001582148216827E010894E11CF11CB701CE
:1020700050E00E94D437C801B7010E943A0F619620
:102080000FB6F894DEBF0FBECDBFCF91DF911F9189
:102090000F91FF90EF900895EF92FF920F931F938F
:1020A000DF93CF93CDB7DEB761970FB6F894DEBF5D
:1020B0000FBECDBF8C01CB01F801118210821382BB
:1020C00012821582148216827E010894E11CF11C92
:1020D000B70150E00E94D437C801B7010E943A0FFF
:1020E00061960FB6F894DEBF0FBECDBFCF91DF91E2
:1020F0001F910F91FF90EF900895EF92FF920F9331
:102100001F93DF93CF93CDB7DEB762970FB6F894E6
:10211000DEBF0FBECDBF8C01CB01F8011182108252
:10212000138212821582148216827E010894E11CA9
:10213000F11CB70150E00E944537C801B7010E9469
:102140003A0F62960FB6F894DEBF0FBECDBFCF91A7
:10215000DF911F910F91FF90EF900895EF92FF9202
:102160000F931F93DF93CF93CDB7DEB762970FB670
:10217000F894DEBF0FBECDBF8C01CB01F8011182F8
:102180001082138212821582148216827E010894B4
:10219000E11CF11CB70150E00E944537C801B701AE
:1021A0000E943A0F62960FB6F894DEBF0FBECDBF05
:1021B000CF91DF911F910F91FF90EF900895EF92D3
:1021C000FF920F931F93DF93CF93CDB7DEB729977D
:1021D0000FB6F894DEBF0FBECDBF8C01862FF8017D
:1021E000118210821382128215821482168290E06C
:1021F0007E010894E11CF11CB70150E00E94D43725
:10220000C801B7010E943A0F29960FB6F894DEBFB5
:102210000FBECDBFCF91DF911F910F91FF90EF9037
:102220000895EF92FF920F931F93DF93CF93CDB753
:10223000DEB729970FB6F894DEBF0FBECDBF8C0175
:10224000862FF80111821082138212821582148265
:10225000168290E07E010894E11CF11CB70150E069
:102260000E94D437C801B7010E943A0F29960FB6D1
:10227000F894DEBF0FBECDBFCF91DF911F910F91BC
:10228000FF90EF900895DF93CF9300D0CDB7DEB7E6
:10229000FC0111821082138212821582148216822E
:1022A00069831A82BE016F5F7F4F0E943A0F0F90C1
:1022B0000F90CF91DF910895DF93CF9300D0CDB7EA
:1022C000DEB7FC0111821082138212821582148201
:1022D000168269831A82BE016F5F7F4F0E943A0F98
:1022E0000F900F90CF91DF910895BF92CF92DF9220
:1022F000EF92FF920F931F93CF93DF93082FB92E86
:102300006B017A01E9012417350710F4EA0179011C
:10231000802F9B2D63E771E00E94060FD601149673
:102320008D919C9115978E159F05D0F08C179D0768
:1023300008F4EC01D601ED91FC911197EC0FFD1F13
:10234000108110826D917C916E0D7F1D802F9B2DD1
:102350000E943A0FD601ED91FC91EC0FFD1F108306
:10236000802F9B2DDF91CF911F910F91FF90EF90C8
:10237000DF90CF90BF9008950F931F938C01FB01C6
:10238000248135810E947511C8011F910F91089514
:10239000CF93DF93EC01FB018617970761F0608113
:1023A00071816115710529F0448155810E94E50E06
:1023B00002C00E943B0ECE01DF91CF910895FC0137
:1023C00011821082138212821582148216820E9458
:1023D000C8110895FC0111821082138212821582A5
:1023E000148216820E94C8110895FC018081918197
:1023F0000E9413350895FC01808191810E9413355C
:1024000008950F93FC0188E791E0918380836283B4
:102410004383248305830F9108950F93FC0188E77C
:1024200091E09183808362834383248305830F91AA
:10243000089588E791E09093AE038093AD031092E6
:10244000AF031092B0031092B1031092B20308953B
:102450008F929F92AF92BF92CF92DF92EF92FF92B4
:102460000F931F93CF93DF934C016B017C01AA2440
:10247000BB24C0E0D0E0C601F70162814AE050E031
:102480000E9496068C01C6016EE20E944C05080F60
:10249000191FA00EB11E21960894E11CF11CC33037
:1024A000D10549F7C601F40165814AE050E00E9478
:1024B00096069501280F391FC901DF91CF911F9111
:1024C0000F91FF90EF90DF90CF90BF90AF909F90D3
:1024D0008F9008959C012E5F3F4FCB01B90144E0DE
:1024E00050E00E94B9369C0180E0232B09F481E082
:1024F0000895DF93CF9300D000D0CDB7DEB7FC01B5
:1025000042835383648375830F900F900F900F90D5
:10251000CF91DF9108959C01FB0180819181A2817F
:10252000B381F90182839383A483B583C90108959C
:102530009C01FB0188E791E0D9018D939C938081F8
:102540009181A281B381F90182839383A483B583AE
:1025500008959C01FB0188E791E0D9018D939C933C
:1025600080819181A281B381F90182839383A483C5
:10257000B5830895DF93CF9300D000D0CDB7DEB7F9
:10258000FC0188E791E091838083428353836483D5
:1025900075830F900F900F900F90CF91DF9108955A
:1025A000DF93CF9300D000D0CDB7DEB7FC0188E732
:1025B00091E09183808342835383648375830F907A
:1025C0000F900F900F90CF91DF910895FC0188E755
:1025D00091E0918380831282138214821582089580
:1025E000FC0188E791E09183808312821382148238
:1025F0001582089508950895FC0128E731E031839C
:1026000020832091B9033091BA034091BB035091CC
:10261000BC03228333834483558308950F931F9310
:10262000FC018B01DA01B901928180E0438150E025
:10263000482B592B348120E0858190E0822B932B0D
:10264000252F3327542F4427242B352B3093EE0589
:102650002093ED05292F3327982F8827282B392BF6
:102660003093F0052093EF0512969C91129780E02D
:1026700013964C91139750E0482B592B14963C918C
:10268000149720E015968C9190E0822B932B252FA8
:102690003327542F4427242B352B3093E6052093E2
:1026A000E505292F3327982F8827282B392B30939E
:1026B000E8052093E705FB01928180E0438150E02B
:1026C000482B592B348120E0858190E0822B932B7D
:1026D000252F3327542F4427242B352B3093EA05FD
:1026E0002093E905292F3327982F8827282B392B6A
:1026F0003093EC052093EB05F80182819381A4814E
:10270000B5818093B9039093BA03A093BB03B093B0
:10271000BC031F910F9108959C0141505040460FFA
:10272000571FFB010EC0708160E08181DB01A80FA3
:10273000B11D2A0F3B1F2A173B0710F42F5F3F4F95
:102740003296E417F50778F3E417F50749F490811A
:1027500080E0280F391F2817390710F42F5F3F4FEB
:10276000C90108950F9388EC93E060E040E020E019
:1027700000E00E940D1287EB93E00E94E6120F9199
:102780000895EF92FF920F93DF93CF9300D000D084
:1027900000D0CDB7DEB77C01CE0101960E94E612D3
:1027A0006091E5054091E6052091E7050091E80577
:1027B000C7010E940D12C70126960FB6F894DEBF1E
:1027C0000FBECDBFCF91DF910F91FF90EF90089595
:1027D000EF92FF920F93DF93CF9300D000D000D001
:1027E000CDB7DEB77C01CE0101960E94E612609162
:1027F000E9054091EA052091EB050091EC05C70140
:102800000E940D12C70126960FB6F894DEBF0FBEC8
:10281000CDBFCF91DF910F91FF90EF900895EF9290
:10282000FF920F93DF93CF9300D000D000D0CDB7AD
:10283000DEB77C01CE0101960E94E6126091ED05A3
:102840004091EE052091EF050091F005C7010E942F
:102850000D12C70126960FB6F894DEBF0FBECDBF8E
:10286000CF91DF910F91FF90EF9008950F931F93F9
:10287000CF93DF9380910206082F10E0045110409F
:102880009091010680E0080F191FC80106966BE0C1
:1028900076E048E050E00E948C1320911F062695B8
:1028A00026952C73C22FD0E063E176E0AE010E9442
:1028B0008C13C017D10748F40C1B1D0B6091B40397
:1028C000A296AE0198010E945718009719F42FEFB5
:1028D0003FEF03C00E94042A9C01C901DF91CF9100
:1028E0001F910F91089580E090E06FEF75E044E153
:1028F00050E00E948C13009719F42FEF3FEF03C0B4
:102900000E94042A9C01C90108950E94731408952D
:102910000F931F938C018FEB93E04AEF50E060E040
:1029200070E00E944433C8010E945C1AF801808163
:102930008093E60481818093E70482818093E80498
:1029400083818093E90484818093EA048581809364
:10295000EB040E9442290E9400331F910F910895B9
:10296000AF92BF92CF92DF92EF92FF920F931F939D
:10297000DF93CF93CDB7DEB768970FB6F894DEBF7D
:102980000FBECDBFCB016A0159010E94881428E710
:1029900031E03A832983F60182819381A481B58154
:1029A0008B839C83AD83BE8338872F83F50182811F
:1029B0009381A481B58189879A87AB87BC873E873D
:1029C0002D87F80182819381A481B5818F87988BAF
:1029D000A98BBA8B3C8B2B8BF70182819381A481CD
:1029E000B5818D8B9E8BAF8BB88FCE010196BE01CA
:1029F000695F7F4FAE01435F5F4F9E012D5E3F4F8A
:102A00000E940E1368960FB6F894DEBF0FBECDBFBE
:102A1000CF91DF911F910F91FF90EF90DF90CF90BA
:102A2000BF90AF9008956F927F928F929F92AF92D6
:102A3000BF92CF92DF92EF92FF920F931F93DF939B
:102A4000CF93CDB7DEB76E970FB6F894DEBF0FBE4B
:102A5000CDBF4C013B017A0169015801CE010196BD
:102A60006FEF4FEF2FEF00E00E940D1228E731E0EB
:102A700038872F83F70182819381A481B58189876B
:102A80009A87AB87BC873E872D87F6018281938129
:102A9000A481B5818F87988BA98BBA8B3C8B2B8BAC
:102AA000F50182819381A481B5818D8B9E8BAF8B43
:102AB000B88F3A8F298F8B819C81AD81BE818B8F9E
:102AC0009C8FAD8FBE8FC401B301AE01495F5F4FD4
:102AD0009E01235F3F4F8E010D5E1F4FA9E1EA2E3D
:102AE000F12CEC0EFD1E0E94B0146E960FB6F894F9
:102AF000DEBF0FBECDBFCF91DF911F910F91FF9031
:102B0000EF90DF90CF90BF90AF909F908F907F908D
:102B10006F9008950F931F93DF93CF93CDB7DEB7D8
:102B200068970FB6F894DEBF0FBECDBFFA01D9018A
:102B300022813381448155812B833C834D835E8385
:102B4000E8E7F1E0F887EF8329873A874B875C87CE
:102B5000FE87ED8712962D913D914D915C911597D1
:102B60002F87388B498B5A8BFC8BEB8B21E02E8384
:102B70002B813C814D815E812D8B3E8B4F8B588FFD
:102B8000AE01495F5F4F9E01235F3F4F8E010D5E97
:102B90001F4F0E94131568960FB6F894DEBF0FBE44
:102BA000CDBFCF91DF911F910F910895DF93CF9308
:102BB000CDB7DEB762970FB6F894DEBF0FBECDBFBC
:102BC000FA0122813381448155812B833C834D83DB
:102BD0005E83E8E7F1E0F887EF8329873A874B8740
:102BE0005C87FE87ED8721E02E832B813C814D8120
:102BF0005E812F87388B498B5A8BAE01495F5F4FBF
:102C00009E01235F3F4F0E948A1562960FB6F8948B
:102C1000DEBF0FBECDBFCF91DF9108958091B60387
:102C200081FF0AC02091B5038091B40360E070E099
:102C300041EF55E030E012C0809158059091590560
:102C40000E945D1B8093B4038823A9F0209158054E
:102C50003091590560E070E041EF55E00E94B317F4
:102C60008091B4030E94D0198091B4030E94021B8A
:102C70001092B40381E00895CF93DF938091B30362
:102C8000882321F40E94D3188093B3039091B30357
:102C9000992309F448C081E08093B603892F0E94EC
:102CA000C7169093590580935805892B81F180911F
:102CB000B30360E070E041EF55E022E630E00E94AF
:102CC0001C188091FD059091FE058830910591F4C6
:102CD0008091B3038093B4030E94143181E00E9479
:102CE0001E2A8091580590915905892B81F00E94E8
:102CF000FE310BC08850964051F40E9448318091BB
:102D0000580590915905892B11F00E940E1680915B
:102D1000B303882341F08091B60380FF04C00E9472
:102D200040181092B3038FEB93E00E941533892B68
:102D300041F18FEB93E00E943733C0E0D0E0CE0149
:102D4000880F991F9E01B5E0220F331FBA95E1F756
:102D5000281B390B2B593A4F309364052093630598
:102D600082E00E941E2A8091580590915905892B76
:102D700021F00E94FE310E940E162196C430D1052A
:102D8000F1F6DF91CF9108950E943C1608958823B3
:102D900019F420E030E013C08F3F29F42091D203D2
:102DA0003091D3030CC090E0FC01EE0FFF1FEE0F3B
:102DB000FF1FE80FF91FEA52FC4F22813381C9013E
:102DC00008950F931F93CF93DF938C01EB018AE05B
:102DD00060E00E94C5338AE78EBD0DB407FEFDCFCB
:102DE00008C088818EBD0DB407FEFDCF0150104094
:102DF000219601151105A9F78AE061E00E94C5330B
:102E0000DF91CF911F910F9108950F931F93CF934F
:102E1000DF93EC018B018AE060E00E94C5338AE316
:102E20008EBD0DB407FEFDCF09C01EBC0DB407FE5C
:102E3000FDCF21978EB5F80181938F012097A9F7D7
:102E40008AE061E00E94C533DF91CF911F910F911D
:102E50000895FF920F931F93082F162FF42E8AE0E8
:102E600060E00E94C5331F71102B1EBD0DB407FE1C
:102E7000FDCFFEBC0DB407FEFDCF8AE061E00E94ED
:102E8000C5331F910F91FF90089580EA6EE140E2F3
:102E90000E94291762E370E080E090E00E949F2882
:102EA00080E86FE144E00E94291762E370E080E06F
:102EB00090E00E949F28089580EA6FE144E00E941C
:102EC000291762E370E080E090E00E949F2880E88C
:102ED0006EE148E00E94291762E370E080E090E034
:102EE0000E949F2880E86EE140E20E942917089521
:102EF0001F93CF93DF93182FC82FD0E0C076D070E8
:102F00008091800190E0C817D90791F080EA6FE1C5
:102F100043E00E94291735E0D595C7953A95E1F72A
:102F200080E86FE14C2F0E942917107610938001E2
:102F3000DF91CF911F910895FF920F931F93182F48
:102F4000062FF72E0E94781780E4612F402F0E94F1
:102F500029171F5F80E4612F4F2D0E9429171F91B1
:102F60000F91FF900895CF92DF92EF92FF920F930F
:102F70001F93CF93DF937B01EA01D22EC32E90E003
:102F80008C01000F111F000F111F080F191F0A528B
:102F90001C4FF801608171816E0D7F1D82E00E94DF
:102FA0009C17F801428153814E195F092D2D3C2D4C
:102FB000C9016C014817590708F46A01C601BE012E
:102FC0000E94E116C601DF91CF911F910F91FF90F2
:102FD000EF90DF90CF900895EF92FF920F931F93A1
:102FE000CF93DF93982F8B01F42EE52E8F3F19F4AA
:102FF000C0EDD3E006C085E0989FE0011124CA52DD
:10300000DC4F68817981600F711F80E00E949C17FE
:103010006A817B81601B710B2F2D3E2DC9019C01A4
:103020006817790708F49B01C901DF91CF911F91BF
:103030000F91FF90EF900895EF92FF920F931F93DF
:103040007A01A9010E94EC17182F092FB7010E94DD
:103050000517812F902F1F910F91FF90EF900895EA
:103060006091CE037091CF036115710519F46FEF74
:1030700077E002C0615070408CE00E949C17089578
:103080000E94301808950F931F93182F062F0E9447
:10309000781780E4612F402F0E9429171F910F910C
:1030A0000895682F677085E70E94431808950F936D
:1030B0001F93CF93DF93EC01862FBA01A9010E94E1
:1030C000EC178C01015010408AE060E00E94C5338B
:1030D0008AE38EBD0DB407FEFDCF40E050E017C07F
:1030E0001EBC0DB407FEFDCF9EB51EBC0DB407FE81
:1030F000FDCF8EB5392F20E0B901680F711DC60FC5
:10310000D71FC617D70708F421964E5F5F4F4017A9
:10311000510730F34017510769F41EBC0DB407FE88
:10312000FDCF2EB5922F80E0C80FD91FC817D90741
:1031300008F421968AE061E00E94C533CE01DF9158
:10314000CF911F910F9108950F931F93182F062F62
:103150008AE060E00E94C533802F8F71812B8EBD85
:103160000DB407FEFDCF1EBC0DB407FEFDCF07FF5B
:1031700004C01EBC0DB407FEFDCF8AE061E00E94D2
:10318000C5338EB51F910F9108951F93182F0E947C
:10319000781780E0612F0E94A4181F91089582E79C
:1031A0000E94C5180895FF920F931F93CF93DF934A
:1031B00089E30E94C518882309F449C0C091CE0351
:1031C000D091CF0380E0BE010E949C178AE360E0AB
:1031D0000E94A418082F10E01093CF030093CE0391
:1031E0008AE360E00E94A418382F20E0202B312BC6
:1031F0003093CF032093CE038AE360E00E94A418AB
:10320000F82E8AE360E00E94A418082F8AE360E0A9
:103210000E94A418182F80E86EE140E40E9429174C
:1032200017FF12C02696D093D103C093D0032F2D41
:1032300030E0902F80E0822B932B04979093D30360
:103240008093D2038FEF03C00E94301880E0DF919B
:10325000CF911F910F91FF9008951F939C01162FFE
:1032600082E0B9010E949C178AE060E00E94C533A9
:103270008AE78EBD0DB407FEFDCF1EBD0DB407FE5F
:10328000FDCF8AE061E00E94C5331F910895BC0123
:1032900080E00E949C178AE060E00E94C5338AE3C8
:1032A0008EBD0DB407FEFDCF1EBC0DB407FEFDCFD5
:1032B0008AE061E00E94C5338EB50895EF92FF92D7
:1032C0000F931F93CF93DF937C01EB0141305105A6
:1032D00041F4CB010E944719682FC7010E942D19A4
:1032E0002AC021978E01040F151F219680E1BE018F
:1032F0000E949C1784E1B7010E949C17C050D840DF
:1033000030F488E00030180710F00F5F174082E1BA
:10331000B8010E949C1780EA6FE140E10E942917E2
:1033200080E86FE140E20E94291780E06FE10E948F
:10333000A41885FDFACFDF91CF911F910F91FF90D7
:10334000EF9008950F931F93CF93DF93982FEB0186
:103350004F3F19F4A0EDB3E006C085E0489FD001CF
:103360001124AA52BC4F892F90E0FC01EE0FFF1FE1
:10337000EE0FFF1FE80FF91FEA52FC4F8081918189
:103380006D917C91620F731F8C0F9D1FA8010E948D
:103390005E190E943018DF91CF911F910F9108950F
:1033A000FF920F931F93CF93DF9390E0FC01EE0FFA
:1033B000FF1FEE0FFF1FE80FF91FEA52FC4FC081FD
:1033C000D181219702811381CE010E944719F82EE5
:1033D000882321F0CE0160E00E942D1984E0BE0117
:1033E0000E949C170C0F1D1F86E0B8010E949C17BD
:1033F00080E86FE148E00E9429178CE10E94C5181F
:1034000081FF05C080EA6FE148E00E942917FF2094
:1034100021F0CE016F2D0E942D19DF91CF911F91C8
:103420000F91FF9008950F931F93682F84ED0E94D2
:10343000431882ED61E00E94431804C08FE090E0E1
:103440000E94C5288AEE0E94C51880FDF7CF82ED44
:1034500060E00E94431888ED0E94C518082F89ED8E
:103460000E94C518382F20E010E0022B132BC80152
:103470001F910F91089581E10E94131A892F86955B
:103480008695817008950F931F93982F8B0184ED7B
:10349000692F0E94431886EDB8010E949C1704C052
:1034A0008FE090E00E94C5288AEE0E94C51880FD3A
:1034B000F7CF1F910F9108950F931F938C010E94D6
:1034C000161C8AE061E00E9459338AE061E00E94A4
:1034D000C5338BE061E00E9459338DE061E00E94CA
:1034E00059338CE060E00E9459338AE061E00E9429
:1034F00059338BE060E00E94C5338DE060E00E94AC
:10350000C53380E58CBD8DB581608DBD8FEF60E0EA
:103510004FEF0E94291762E370E080E090E00E9484
:103520009F281092CF031092CE0388E060E070E0F5
:103530000E949C178CE060E070E00E949C178AE07B
:103540006FEF77E00E949C1788E361EB0E944318BD
:1035500088E26FE370E30E949C1780E369EF77EFE6
:103560000E949C1780EC6DE070E00E949C1780E840
:1035700062EC42E30E94291786EC62E17CE00E9443
:103580009C1784EC62E10E9443188AEC6CED75E0B4
:103590000E949C1784EEF80160810E94431885EE1A
:1035A000F80161810E94431882EEF80162810E9455
:1035B000431883EEF80163810E94431880EEF801FE
:1035C00064810E94431881EEF80165810E944318CE
:1035D00080E160E071E00E94431A8FE10E94781759
:1035E00080E86BE140EC0E94291780E86FE144E03D
:1035F0000E94291784E166E774E00E94431A1F9134
:103600000F910895882309F1A6EDB3E095E0149693
:103610002C911497281789F490E0FC01EE0FFF1FFE
:10362000EE0FFF1FE80FF91FEA52FC4F848114963A
:103630008C931382128214820895222331F0299FE1
:10364000D0011124AA52BC4FE2CF089590E0FC01B2
:10365000EE0FFF1FEE0FFF1FE80FF91FEA52FC4F9E
:1036600080819181860F971F9183808382819381CE
:10367000861B970B93838283089590E0FC01EE0FE5
:10368000FF1FEE0FFF1FE80FF91FEA52FC4F80816A
:103690009181860F971F918380835383428308957E
:1036A00090E0FC01EE0FFF1FEE0FFF1FE80FF91F68
:1036B000EA52FC4F828193810895CF92DF92EF927C
:1036C000FF920F931F93CF93DF936C012091D6034A
:1036D0003091D7032150384EC0E0D0E050E0A6ED45
:1036E000B3E060E078E115E014964C911497442320
:1036F00011F4F9010EC0842F90E0FC01EE0FFF1FC2
:10370000EE0FFF1FE80FF91FEA52FC4F0190F08106
:10371000E02D8D919C911197E81BF90B12968D91DC
:103720009C911397E81BF90BEC15FD0539F485E026
:10373000589FE0011124CA52DC4F53C0CE16DF0659
:1037400048F4E617F70730F4519FE0011124CA52FC
:10375000DC4FBF01442331F4209709F042C0E6ED6D
:10376000F3E02AC0419FD0011124AA52BC4F542F2C
:10377000BBCF7A01E20EF31E082F10E0E801CC0F58
:10378000DD1FCC0FDD1FC00FD11FCA52DC4F688177
:103790007981E616F70639F04A815B81C7010E94FC
:1037A0005E19F982E882F801EE0FFF1FEE0FFF1F8E
:1037B000E00FF11FEA52FC4F848142815381208146
:1037C00031818823B1F68091D6039091D703821B73
:1037D000930B841B950B8150984E8C159D05D8F04A
:1037E000EF0141E0EBEDF3E082819381892B29F039
:1037F0004F5F493281F03596F7CF8A819B812881CE
:103800003981820F931F91838083D382C2828C81FE
:1038100084834C8301C040E0842FDF91CF911F91BE
:103820000F91FF90EF90DF90CF9008958DECE6ED33
:10383000F3E0DF011D928A95E9F781E098E090932B
:10384000D7038093D6031092D9031092D803109215
:10385000DA030895DC01ED91FC91008CF18DE02DEF
:10386000099591E089270895FC011382128288EE60
:1038700093E0A0E0B0E084839583A683B78385E8D6
:1038800091E091838083158614860895FC0113824C
:10389000128288EE93E0A0E0B0E084839583A68353
:1038A000B78385E891E09183808315861486089517
:1038B000FC011382128288EE93E0A0E0B0E08483E2
:1038C0009583A683B78385E891E09183808375878C
:1038D00064870895FC011382128288EE93E0A0E0D1
:1038E000B0E084839583A683B78385E891E09183D4
:1038F000808375876487089580E090E00895DC01F7
:103900001C96ED91FC911D97309711F480E008957D
:103910008181882311F081E00895808190E024E086
:10392000969587952A95E1F781700895FB01DC0152
:103930001C962D913C911D972115310559F06485F8
:1039400075856115710531F080E02617370719F488
:1039500081E0089580E00895DF93CF930F92CDB773
:10396000DEB7FC01A081B18150962D913C91519719
:10397000BE016F5F7F4F41E050E0F901099597FF6D
:1039800003C02FEF3FEF03C08981282F30E0C9012A
:103990000F90CF91DF910895FC018181882311F46C
:1039A00081E010C08281882311F482E00BC0838102
:1039B000882311F483E006C08481882311F084E019
:1039C000089584E0815008950F9387ED94E060E0BE
:1039D00040E020E000E00E940D120F9108951F9337
:1039E000CF93DF93EC0110E088810E94021B1992B3
:1039F0001F5F1530C9F7DF91CF911F910895CF93C5
:103A0000DF93EC01E881F9810688F789E02D0995BB
:103A1000882329F08C859D8501960E94EF1CDF91FB
:103A2000CF910895CF93DF93EC0188810E94021B10
:103A3000FE0190E0818181939F5F9430D9F71C82D1
:103A4000DF91CF910895CF93DF93E3EAF4E020E094
:103A500030E0CDE0D0E0422F2C9FB0012D9F700DC3
:103A60003C9F700D1124DB01AD55BB4F8081882335
:103A700061F440614C93CB018C559B4FFC018CE071
:103A8000EF0119928A95E9F708C02F5F3F4F3D96E5
:103A90002430310501F7A0E0B0E0CD01DF91CF91F6
:103AA0000895FF920F931F93CF93DF938C01C0E093
:103AB000D0E0FF24F80181810E94C716C80FD91FEA
:103AC000F3940F5F1F4FF5E0FF16A1F7CE01DF91D2
:103AD000CF911F910F91FF900895CF93DF93EC0149
:103AE000E881F9810688F789E02D0995882319F482
:103AF00020E030E005C08C859D850E94511D9C0111
:103B0000C901DF91CF910895DF92EF92FF920F9359
:103B10001F93CF93DF93E0916305F0916405E48CEC
:103B2000F58CE114F10481F48091600586FF03C1F6
:103B30000E94231D7C01009709F4FDC0E0916305FC
:103B4000F0916405958F848F8091600581FF47C057
:103B500020915805309159052115310509F43FC0D0
:103B6000F70180818076D9F5C9010E945D1BD82EAE
:103B7000882349F1F701C0E0D0E081818823F1F486
:103B8000C43039F4E0916305F0916405818D806162
:103B9000818F2091610530916205215F3540009150
:103BA0005805109159058D2D60E070E04091B303E8
:103BB0000E94A219CE0DDF1DD98211C02196319627
:103BC000C530D105D1F68091B6038E7F8093B603C0
:103BD000E0916305F0916405818D8061818FF7012B
:103BE000808187FF0EC08F7780838091600582601F
:103BF00080936005E0916305F0916405818D8F7E6F
:103C0000818F8091600584FD02C087FF1EC0C701BF
:103C100006960E94EF1CF7018181882369F0E091EC
:103C20006305F091640584819581F701978386830C
:103C300080818064808302C0F7011082E091630577
:103C4000F0916405158E148E76C080FF04C0C70104
:103C500006960E94121D809160058C7009F452C076
:103C6000F7019681992309F44DC08781882379F45F
:103C70004385548550935905409358054115510586
:103C800069F0892F60E070E00E943D1B07C0892F1A
:103C90000E94C71690935905809358054091580586
:103CA000509159054115510569F12091610581EF48
:103CB00095E0281B2093B503CA01820F911D0E9435
:103CC0005D1B8093B4038823E1F16091B5030091FB
:103CD00058051091590570E0F701468120E030E069
:103CE0000E94A2198091B60382608093B60360910E
:103CF00058057091590580916105909162050E9467
:103D0000082A1FC0F701808185FF15C0868188239E
:103D100059F41082E0916305F0916405158E148EBC
:103D200080E18093600507C0E0916305F091640530
:103D3000818D8061818F1092B40310925905109289
:103D40005805DF91CF911F910F91FF90EF90DF9079
:103D500008950F931F93DF93CF930F92CDB7DEB7E4
:103D60008C01DC01ED91FC910688F789E02D099525
:103D70008823A9F0D8011C96ED91FC911D978181B3
:103D8000882369F060E070E0AE014F5F5F4F21E093
:103D900030E00E941C188981282F30E002C02FEFEC
:103DA0003FEFC9010F90CF91DF911F910F910895BF
:103DB000AF92BF92CF92DF92EF92FF920F931F9339
:103DC000CF93DF938C015B016A01DC01ED91FC91E3
:103DD0000688F789E02D0995882319F44FEF5FEFE6
:103DE0006EC0D8011C96ED91FC911D9781818823AE
:103DF00019F440E050E063C07601D8011C96ED91C3
:103E0000FC911D97A6014E195F094A0D5B1D81812A
:103E100060E070E097010E941C18EC01D8011C962C
:103E2000ED91FC911D9781810E94C716D8011C96C7
:103E3000ED91FC911D97C817D907B9F5EC1AFD0A49
:103E4000CF0101960E94121DF801A485B5854C9101
:103E5000242F30E0C9018F70FC0165E0EE0FFF1FD9
:103E60006A95E1F7880F991FE81BF90BEB59FA4F98
:103E7000818D84FF06C020763070232B11F44068BA
:103E80004C93D8011C96ED91FC911D97818188235C
:103E900089F4808186FF05C010821D961C921E92B7
:103EA0001C97A6014E195F090AC08181BE010E94BC
:103EB000261B04C0E114F10409F09FCFA601CA013A
:103EC000DF91CF911F910F91FF90EF90DF90CF90F6
:103ED000BF90AF9008950F931F938C010E943C16E2
:103EE000D8011C96ED91FC911D97309711F480E05C
:103EF00006C0808186FF02C08181811181E01F910F
:103F00000F910895CF93DF93EC01EC85FD853097F9
:103F100081F08081882369F0CF0101960E94EF1C17
:103F2000EC85FD85808186FF02C0108202C0806220
:103F300080831D861C860E943C16DF91CF910895D8
:103F40008F929F92AF92BF92CF92DF92FF920F9388
:103F50001F93CF93DF93EC014B016A018A0176E056
:103F6000A72EB12CA80EB91E0E943C162097D9F19D
:103F700088818076C1F5C5010E94CC1CF82EFE0117
:103F8000E80FF11D8681882361F480E092E00E94B1
:103F90005D1BFE01EF0DF11D8683882329F31C862E
:103FA0001B86FE01EF0DF11D6B857C85A601401B74
:103FB000510B480D591D868198010E94B317081BAB
:103FC000190B2B853C85280F391F3C872B87101632
:103FD00011062CF484E0F81639F2F394D6CF96014A
:103FE000201B310B02C02FEF3FEFC901DF91CF91B2
:103FF0001F910F91FF90DF90CF90BF90AF909F9057
:104000008F900895FC01848595850E94A01F0895D6
:10401000DF93CF930F92CDB7DEB76983FC01848520
:104020009585BE016F5F7F4F41E050E00E94A01F69
:104030000F90CF91DF910895CF92DF92EF92FF9290
:104040000F931F93DF93CF9300D000D0CDB7DEB78F
:104050006C018B017A01DC01ED91FC910288F389FE
:10406000E02D0995F801328120E0838190E0822BD8
:10407000932B292F3327982F8827282B392B3A83E6
:104080002983348120E0858190E0822B932B292F96
:104090003327982F8827282B392B3C832B83C70164
:1040A0000E94042ABC01CE0101960E946C298C0159
:1040B0000097A1F41BC00E943C16D80159968C9120
:1040C00059978F70833051F45C968D919C915D97D8
:1040D000F6019587848721E030E00AC0D80159961F
:1040E0008C9190E08F709070892B29F720E030E060
:1040F000C9010F900F900F900F90CF91DF911F91FA
:104100000F91FF90EF90DF90CF900895FC0120E099
:1041100030E08081882311F421E030E0C901089566
:10412000FC0181E080830895089508950E9413356D
:1041300008950E9476340895EF92FF920F931F9393
:104140007B018C0120E030E040E05FE40E944824E5
:1041500088238CF0C801B70120E030E040E05FE444
:104160000E9414220E9461259B01AC012050304026
:104170004040504806C0C801B7010E9461259B011C
:10418000AC01B901CA011F910F91FF90EF90089502
:10419000A0E0B0E0EEECF0E20C943934DC012B014D
:1041A000FA019C91923008F439C1EB018881823088
:1041B00008F433C1943069F4843009F02FC11196AA
:1041C0009C9111978981981709F428C1ADECB1E051
:1041D00025C1843009F421C18230A9F4923009F05C
:1041E0001DC19A01AD0188E0EA010990AE01E90123
:1041F00009929E018150C1F7E201898111969C913B
:104200008923818308C1923009F407C112962D9049
:104210003C901397EB018A819B811496AD90BD90E1
:10422000CD90DC901797EC80FD800E811F8191016D
:10423000281B390BB90137FF04C066277727621B9B
:10424000730B603271050CF061C0121613066CF529
:1042500037014801062E04C096948794779467949A
:104260000A94D2F721E030E040E050E004C0220F91
:10427000331F441F551F6A95D2F7215030404040EC
:1042800050402E213F214023512321153105410566
:10429000510521F021E030E040E050E079018A0151
:1042A000E628F728082919293CC0232BD1F1260E2E
:1042B000371E35014601062E04C0969487947794E4
:1042C00067940A94D2F721E030E040E050E004C067
:1042D000220F331F441F551F6A95D2F721503040DB
:1042E000404050402A213B214C215D2121153105C0
:1042F0004105510521F021E030E040E050E0590156
:104300006A01A628B728C828D9280BC082159305AA
:104310002CF01C01AA24BB24650103C0EE24FF2459
:10432000870111969C91D20111968C91981709F4EE
:1043300045C0992339F0A80197012A193B094C0976
:104340005D0906C0A60195012E193F09400B510BCE
:1043500057FD08C01182338222822483358346832D
:1043600057831DC081E08183338222828827992769
:10437000DC01821B930BA40BB50B84839583A6836E
:10438000B7830DC0220F331F441F551F248335836D
:10439000468357838281938101979383828324810B
:1043A000358146815781DA01C9010197A109B10917
:1043B0008F5F9F4FAF4FBF4328F30BC09183338272
:1043C0002282EA0CFB1C0C1D1D1DE482F582068373
:1043D000178383E08083248135814681578157FF8D
:1043E0001AC0C901AA2797FDA095BA2F81709070B5
:1043F000A070B0705695479537952795822B932BD3
:10440000A42BB52B84839583A683B7838281938164
:10441000019693838283DF0101C0D201CD01CDB724
:10442000DEB7E2E10C945534A0E2B0E0EAE1F2E25A
:104430000C94453469837A838B839C832D833E83DC
:104440004F835887E9E0EE2EF12CEC0EFD1ECE01D5
:104450000196B7010E9452278E010F5E1F4FCE01B9
:104460000596B8010E9452278A8991E089278A8B94
:10447000C701B801AE01475E5F4F0E94C8200E948D
:104480007D26A096E6E00C946134A0E2B0E0EBE477
:10449000F2E20C94453469837A838B839C832D8369
:1044A0003E834F835887F9E0EF2EF12CEC0EFD1E72
:1044B000CE010196B7010E9452278E010F5E1F4F59
:1044C000CE010596B8010E945227C701B801AE017E
:1044D000475E5F4F0E94C8200E947D26A096E6E0BE
:1044E0000C946134A0E2B0E0E8E7F2E20C943934D5
:1044F00069837A838B839C832D833E834F83588784
:10450000CE010196BE01675F7F4F0E945227CE0108
:104510000596BE016F5E7F4F0E94522799859230AB
:1045200088F089898230C8F0943019F4823051F4CF
:1045300004C0843029F4923081F48DEC91E0C6C03F
:10454000923049F420E09A858A89981321E02A87DD
:10455000CE010996BBC0823049F420E09A858A8951
:10456000981321E02A8BCE014196B0C02D843E8461
:104570004F8458886D887E888F88988CEE24FF241D
:104580008701AA24BB24650140E050E060E070E0B0
:10459000E0E0F0E0C10181709070892BE9F0E60C59
:1045A000F71C081D191D9A01AB012A0D3B1D4C1D5E
:1045B0005D1D80E090E0A0E0B0E0E614F70408059F
:1045C000190520F481E090E0A0E0B0E0BA01A90173
:1045D000480F591F6A1F7B1FAA0CBB1CCC1CDD1C7B
:1045E00097FE08C081E090E0A0E0B0E0A82AB92AD8
:1045F000CA2ADB2A3196E032F10549F0660C771CB5
:10460000881C991C5694479437942794C3CFFA85F5
:10461000EA892B893C898B859C85280F391F2E5F61
:104620003F4F17C0CA0181709070892B61F01695B9
:104630000795F794E79480E090E0A0E0B0E8E82ADE
:10464000F92A0A2B1B2B76956795579547952F5F6F
:104650003F4F77FDE7CF0CC0440F551F661F771FF4
:1046600017FD4160EE0CFF1C001F111F2150304050
:10467000403090E0590790E0690790E4790760F3D3
:104680002B8F3C8FDB01CA018F779070A070B070C8
:1046900080349105A105B10561F447FD0AC0E1141C
:1046A000F1040105110529F0405C5F4F6F4F7F4F0A
:1046B00040781A8EFE1711F081E08A8F4D8F5E8F41
:1046C0006F8F78A383E0898FCE0149960E947D2663
:1046D000A096E2E10C945534A8E1B0E0E2E7F3E201
:1046E0000C94413469837A838B839C832D833E832E
:1046F0004F835887B9E0EB2EF12CEC0EFD1ECE0156
:104700000196B7010E9452278E010F5E1F4FCE0106
:104710000596B8010E9452272985223008F47EC0F0
:104720003989323010F4B8017CC08A859A8989278A
:104730008A87243011F0223031F4231709F06EC03B
:104740006DEC71E06EC0343039F41D861E861F8614
:10475000188A1C861B8604C0323021F484E08987C5
:10476000B7015FC02B853C858B899C89281B390B41
:104770003C872B87ED84FE840F851889AD88BE8821
:10478000CF88D88CEA14FB040C051D0540F4EE0C10
:10479000FF1C001F111F215030403C872B8720E059
:1047A00030E040E050E080E090E0A0E0B0E460E085
:1047B00070E0EA14FB040C051D0540F0282B392B92
:1047C0004A2B5B2BEA18FB080C091D09B695A79527
:1047D00097958795EE0CFF1C001F111F6F5F7F4F91
:1047E0006F31710531F7DA01C9018F779070A070D0
:1047F000B07080349105A105B10561F427FD0AC0B0
:10480000E114F1040105110529F0205C3F4F4F4FE1
:104810005F4F20782D873E874F87588BBE01675F9B
:104820007F4FCB010E947D266896EAE00C945D34B0
:10483000A8E1B0E0EEE1F4E20C94453469837A83B8
:104840008B839C832D833E834F83588789E0E82E9A
:10485000F12CEC0EFD1ECE010196B7010E945227ED
:104860008E010F5E1F4FCE010596B8010E945227A0
:104870008985823040F08989823028F0C701B801EB
:104880000E94CA2701C08FEF6896E6E00C9461345D
:10489000A8E1B0E0EEE4F4E20C94453469837A8355
:1048A0008B839C832D833E834F83588789E0E82E3A
:1048B000F12CEC0EFD1ECE010196B7010E9452278D
:1048C0008E010F5E1F4FCE010596B8010E94522740
:1048D0008985823040F08989823028F0C701B8018B
:1048E0000E94CA2701C08FEF6896E6E00C946134FD
:1048F000A8E1B0E0EEE7F4E20C94453469837A83F2
:104900008B839C832D833E834F83588789E0E82ED9
:10491000F12CEC0EFD1ECE010196B7010E9452272C
:104920008E010F5E1F4FCE010596B8010E945227DF
:104930008985823040F08989823028F0C701B8012A
:104940000E94CA2701C081E06896E6E00C946134B9
:10495000A8E1B0E0EEEAF4E20C94453469837A838E
:104960008B839C832D833E834F83588789E0E82E79
:10497000F12CEC0EFD1ECE010196B7010E945227CC
:104980008E010F5E1F4FCE010596B8010E9452277F
:104990008985823040F08989823028F0C701B801CA
:1049A0000E94CA2701C081E06896E6E00C94613459
:1049B000A8E1B0E0EEEDF4E20C94493469837A8327
:1049C0008B839C832D833E834F835887CE01019632
:1049D000BE01675F7F4F0E945227CE010596BE0140
:1049E0006F5E7F4F0E9452278985823028F020E039
:1049F00030E08989823010F421E030E0822F68961F
:104A0000E2E00C946534A8E0B0E0E9E0F5E20C9453
:104A100042349B01AC0183E08983DA01C901882714
:104A2000B7FD83959927AA27BB27B82E21153105F5
:104A30004105510519F482E089833AC08823A9F021
:104A4000203080E0380780E0480780E8580729F4E4
:104A500060E070E080E09FEC30C0EE24FF2487012E
:104A6000E21AF30A040B150B02C079018A018EE1E8
:104A7000C82ED12CDC82CB82ED82FE820F83188778
:104A8000C801B7010E942E2601971816190684F452
:104A9000082E04C0EE0CFF1C001F111F0A94D2F751
:104AA000ED82FE820F831887C81AD90ADC82CB8276
:104AB000BA82CE0101960E947D262896E9E00C94E8
:104AC0005E34ACE0B0E0E7E6F5E20C94493469838B
:104AD0007A838B839C83CE010196BE016B5F7F4FEF
:104AE0000E9452278D81823061F1823050F18430F2
:104AF00021F48E81882351F12EC02F81388537FD16
:104B000020C06E812F3131051CF06623F9F023C0DF
:104B10008EE190E0821B930B29853A854B855C855D
:104B200004C056954795379527958A95D2F7662301
:104B3000B1F050954095309521953F4F4F4F5F4FC5
:104B40000EC020E030E040E050E009C02FEF3FEF22
:104B50004FEF5FE704C020E030E040E050E8B901EB
:104B6000CA012C96E2E00C946534A8E0B0E0EBEBCF
:104B7000F5E20C9441347B018C01611571058105CE
:104B8000910519F482E0898360C083E089838EE116
:104B9000C82ED12CDC82CB82ED82FE820F83188757
:104BA000C801B7010E942E26FC013197F7FF3BC0D8
:104BB000222733272E1B3F0B57016801022E04C00A
:104BC000D694C794B794A7940A94D2F740E050E0E3
:104BD00060E070E081E090E0A0E0B0E004C0880F09
:104BE000991FAA1FBB1F2A95D2F70197A109B109E6
:104BF0008E219F21A023B1230097A105B10521F0AB
:104C000041E050E060E070E04A295B296C297D2991
:104C10004D835E836F8378878EE190E08E1B9F0BC0
:104C20009C838B8312C0309781F00E2E04C0EE0C53
:104C3000FF1C001F111F0A94D2F7ED82FE820F8322
:104C40001887CE1ADF0ADC82CB821A82CE01019647
:104C50000E947D262896EAE00C945D34EF92FF9244
:104C60000F931F937B018C0180E0E81680E0F8062B
:104C700081E0080780E0180788F48FEFE816F10458
:104C80000105110531F028F088E090E0A0E0B0E0E7
:104C900017C080E090E0A0E0B0E012C080E0E8162D
:104CA00080E0F80680E0080781E0180728F088E136
:104CB00090E0A0E0B0E004C080E190E0A0E0B0E0CF
:104CC00020E230E040E050E0281B390B4A0B5B0B40
:104CD00004C016950795F794E7948A95D2F7F701E3
:104CE000EB52FE4F8081281B310941095109C9014E
:104CF0001F910F91FF90EF900895DF92EF92FF9236
:104D00000F931F93FC01E480F58006811781D18009
:104D10008081823048F480E090E0A0E1B0E0E82AB1
:104D2000F92A0A2B1B2BA5C0843009F49FC08230BE
:104D300021F4EE24FF24870105C0E114F1040105EC
:104D4000110519F4E0E0F0E096C0628173819FEFF5
:104D5000623879070CF05BC022E83FEF261B370B67
:104D60002A3131052CF020E030E040E050E02AC04C
:104D7000B801A701022E04C076956795579547950F
:104D80000A94D2F781E090E0A0E0B0E004C0880F80
:104D9000991FAA1FBB1F2A95D2F70197A109B10934
:104DA0008E219F21A023B1230097A105B10521F0F9
:104DB00081E090E0A0E0B0E09A01AB01282B392B14
:104DC0004A2B5B2BDA01C9018F779070A070B0700D
:104DD00080349105A105B10539F427FF09C0205C95
:104DE0003F4F4F4F5F4F04C0215C3F4F4F4F5F4FCE
:104DF000E0E0F0E02030A0E03A07A0E04A07A0E4BD
:104E00005A0710F0E1E0F0E079018A0127C060382C
:104E1000710564F5FB01E158FF4FD801C7018F7799
:104E20009070A070B07080349105A105B10539F47F
:104E3000E7FE0DC080E490E0A0E0B0E004C08FE3A6
:104E400090E0A0E0B0E0E80EF91E0A1F1B1F17FF5C
:104E500005C016950795F794E794319687E0169567
:104E60000795F794E7948A95D1F705C0EE24FF24BF
:104E70008701EFEFF0E06E2F679566276795902F1B
:104E80009F77D794DD24D7948E2F8695492F462B74
:104E9000582F5D29B701CA011F910F91FF90EF9024
:104EA000DF900895FC01DB01408151812281622F56
:104EB0006F7770E0221F2227221F9381892F880F8E
:104EC000822B282F30E0991F9927991F11969C93C8
:104ED000119721153105A9F5411551056105710598
:104EE00011F482E037C082E89FEF13969C938E9373
:104EF00012979A01AB0167E0220F331F441F551F21
:104F00006A95D1F783E08C930DC0220F331F441FA5
:104F1000551F12968D919C911397019713969C9310
:104F20008E931297203080E0380780E0480780E4B5
:104F3000580758F314962D933D934D935C93179710
:104F400008952F3F310579F441155105610571052B
:104F500019F484E08C93089564FF03C081E08C937E
:104F600012C01C9210C02F57304013963C932E93C2
:104F7000129783E08C9387E0440F551F661F771FBD
:104F80008A95D1F7706414964D935D936D937C93DD
:104F9000179708951F93DC01FB019C91923008F450
:104FA00047C08081823008F443C0943051F4119698
:104FB0001C91843099F58181682F70E0611B710923
:104FC0003FC0843021F0923031F48230B9F18181D8
:104FD000882389F12DC011961C9111978230F1F030
:104FE00081811817D9F412962D913C9113978281E3
:104FF00093818217930794F028173907BCF0149611
:105000008D919D910D90BC91A02D2481358146817B
:105010005781281739074A075B0718F4112341F015
:105020000AC082179307A407B50740F4112319F0AB
:1050300061E070E005C06FEF7FEF02C060E070E0FC
:10504000CB011F9108951F920F920FB60F9211245A
:105050002F933F938F939F93AF93BF938091E104DE
:105060009091E204A091E304B091E4043091E5044E
:105070000196A11DB11D232F2D5F2D3720F02D5737
:105080000196A11DB11D2093E5048093E104909346
:10509000E204A093E304B093E4048091DD049091D2
:1050A000DE04A091DF04B091E0040196A11DB11DC2
:1050B0008093DD049093DE04A093DF04B093E004BA
:1050C000BF91AF919F918F913F912F910F900FBE04
:1050D0000F901F9018958FB7F8942091E1043091AC
:1050E000E2044091E3045091E4048FBFB901CA0186
:1050F00008959FB7F8942091DD043091DE0440912B
:10510000DF045091E00486B5A89B06C08F3F21F0D4
:105110002F5F3F4F4F4F5F4F9FBF542F432F322F73
:105120002227280F311D411D511D82E0220F331F00
:10513000441F551F8A95D1F7B901CA010895EF920E
:10514000FF920F931F93CF93DF937B018C010E94FB
:105150007928EB010EC00E9479286C1B7D0B685EDC
:105160007340C8F30894E108F10801091109C85116
:10517000DC4FE114F1040105110569F7DF91CF91CE
:105180001F910F91FF90EF900895019739F0880FCC
:10519000991F880F991F02970197F1F70895789446
:1051A00084B5826084BD84B5816084BD85B582602C
:1051B00085BD85B5816085BDEEE6F0E080818160CA
:1051C0008083E1E8F0E010828081826080838081CA
:1051D00081608083E0E8F0E0808181608083E1EBA2
:1051E000F0E0808184608083E0EBF0E0808181608A
:1051F0008083EAE7F0E08081846080838081826040
:105200008083808181608083808180688083109228
:10521000C1000895FC015381560F50935F05272F5D
:1052200033274281420F40935E05A181A0935D0523
:10523000E081E0935C05842F90E08217930748F4A7
:105240008A2F8F5F80935D05882319F4EF5FE093C9
:105250005C05852F90E070708617970790F4842F77
:105260008F5F80935E05882361F480915D058F5F79
:1052700080935D05882329F480915C058F5F80937E
:105280005C05089580E009C0E82FF0E0EE0FFF1FF5
:10529000E352FA4F118210828F5F8430A8F320E02E
:1052A00010C0822F90E0FC0145E0EE0FFF1F4A95F1
:1052B000E1F7880F991FE81BF90BEB59FA4F118E94
:1052C0002F5F243070F32093F40480E094E09093F7
:1052D000F3048093F2040895CF93DF93EC0140919F
:1052E000F2045091F304BEE14F5F5F4F8DE7403011
:1052F000580710F040E050E1342F252FA0E00EC0F9
:10530000AB9FF0011124EB59FA4F818D882329F0CE
:10531000848195818217930739F3AF5FA43081F7B9
:105320004093F2045093F3041092F404E0E0F0E0B0
:1053300020E03EE11AC0239FD0011124AB59BA4F9F
:1053400059968C915997882321F42093F404FD01F8
:1053500010C0873049F4309731F05A969C915A9793
:10536000828D891708F4FD012F5F243020F32093EC
:10537000F404309761F182E0818F8091EE0484879C
:105380008091EF0485878091F00486878091F104F5
:10539000878780E092E0938B828B958B848B81E072
:1053A00090E0918B808B138E81E0828F83E0808FE1
:1053B000168A80E1878B548345837783668388814F
:1053C0009981918380838A819B8193838283CF019A
:1053D000DF91CF910895BC018091630590916405A0
:1053E00008960E940A29E0916305F0916405809176
:1053F0005C05808780915D05818780915E0582874D
:1054000080915F0583870895282F892F922F089513
:10541000AC01FB0160935506F0935606161617066D
:1054200064F420915A0530915B058217930729F0A7
:10543000C901BA01AF010E94C63608950F931F93A8
:10544000CF93DF93C0916305D091640527E236E0E6
:10545000309362052093610530935B0520935A05D4
:10546000833059F4898D8F70833009F027C688897D
:105470009989892B09F022C689C0823009F08AC037
:105480008091F1048F5F8093F104882399F48091D7
:10549000F0048F5F8093F004882361F48091EF041F
:1054A0008F5F8093EF04882329F48091EE048F5F4F
:1054B0008093EE04109259051092580510925606EA
:1054C00010925506298D273011F0253041F48A8D30
:1054D0008F5F8A8F883709F0F1C5198EEFC52223B7
:1054E00009F4ECC588899989892B09F44BC08A8D08
:1054F00081508A8F8F5F09F0E1C53B8D383029F0EC
:105500002150223048F4353039F4198E80E88093E8
:1055100060050E94841D89C4353010F080E307C007
:1055200083E090E002C0880F991F3A95E2F78A8FD6
:105530008B8D8F5F8B8F898D90E08F709070833013
:105540009105D1F08430910544F48130910509F43E
:1055500054C2029709F0B2C50CC08630910509F417
:10556000F7C38830910509F4F3C3049709F0A6C581
:10557000EFC31092200644C284E0809360050E942D
:10558000841D88C42F70233009F098C588E080936B
:1055900060053FC48901085210408091FF058534A1
:1055A00009F08CC59091010680E020910206AC01C3
:1055B000420F511D80915805909159058417950708
:1055C00008F47CC550935905409358058091050611
:1055D00090E08F739070892B09F070C5809106065A
:1055E000882309F06BC52091ED053091EE0580917F
:1055F000DB029091DC022817390731F48091EF0526
:105600009091F005892BA1F080910F0690911006E2
:105610008217930709F052C52091110630911206A6
:105620008091EF059091F0052817390709F046C5DC
:105630000E9485148F5F9F4F09F040C58091080636
:105640008630D1F1813009F039C580911306883058
:1056500009F034C510921306809115069091160634
:10566000EFEF873F9E0710F0099601C008969093D0
:1056700016068093150680910B0690910C06909368
:10568000100680930F0680910D0690910E06909360
:105690001206809311068091ED059091EE0590938E
:1056A0000C0680930B068091EF059091F005909386
:1056B0000E0680930D0606C50E9436148F5F9F4F1D
:1056C00009F0FCC4C5E6D5E0898D882329F1209135
:1056D0001506309116068C819D8128173907E1F453
:1056E00020911306309114068E819F812817390767
:1056F00099F420910B0630910C0688819981281726
:10570000390751F420910D0630910E068A819B8154
:105710002817390709F48BC16E9625E0CF3BD207D5
:1057200099F290F2809120068F73823011F580916A
:105730001506909116069093F7048093F604109244
:10574000F40413C0E42FF0E0EE0FFF1FE352FA4F12
:105750002091F6043091F704808191812817390750
:1057600009F471C04F5F4093F4044091F404443055
:1057700048F38091200682FDA1C484E1F80181A351
:1057800088E290E0909359058093580580E580A3C6
:1057900090911A0680911E06838F30911906809190
:1057A0001D06828F368F4091180680911C06818FCE
:1057B000458F209117062093F40480911B06808F5B
:1057C000248F9F5F978F992361F4832F8F5F868F3C
:1057D000882339F4842F8F5F858F882311F42F5FFE
:1057E000248F20911306309114063093F7042093F0
:1057F000F6048091150690911606F801958B848B1E
:10580000378B268B80910B0690910C069093100697
:1058100080930F0680910D0690910E0690931206CC
:10582000809311068091ED059091EE0590930C0602
:1058300080930B068091EF059091F00590930E06F2
:1058400080930D06FDC31092F404C0E0D0E03EE169
:1058500036C0822F90E0FC0105E0EE0FFF1F0A9595
:10586000E1F7880F991FE81BF90BEB59FA4F818D6F
:10587000882339F48EE1289FE0011124CB59DA4FB7
:1058800022C08730C9F4209791F0822F90E0FC016C
:10589000B5E0EE0FFF1FBA95E1F7880F991FE81BDF
:1058A000F90BEB59FA4F928D8A8D891728F4239FB3
:1058B000E0011124CB59DA4F2F5F2093F40420919B
:1058C000F404243030F2209709F4F8C3D09364052F
:1058D000C093630583E08A8F888F1E8A84E08F8B54
:1058E0001B8E80911506909116069D838C83809166
:1058F0001306909114069F838E8380910B069091DE
:105900000C069983888380910D0690910E069B83E7
:105910008A8381E0898F8091EE048C878091EF04E7
:105920008D878091F0048E878091F1048F8781E0CC
:1059300090E0998B888B80911A068B87809119064D
:105940008A8780911806898780911706888781E069
:1059500090E00E94EB2980911F0690E0807F90707C
:10596000813591050CF449C01092F40434C0F9015A
:10597000EF50FA4F86A98093F5048823F1F1813026
:1059800021F44F5F4093F40426C08230C1F487A90C
:105990008430A9F430AD20E081AD90E0822B932BD0
:1059A0009093F7048093F604F2E081309F0710F0A3
:1059B00080E092E09B8B8A8B9D8B8C8B1EC090919C
:1059C000F404E92FF0E0EF50FA4F87A98823A9F0FB
:1059D000890F8093F4044091F404242F30E08091E7
:1059E0001F0682958F7090E00597880F991F880F8A
:1059F000991F281739070CF4BACF80E1809320064D
:105A00008091200682608093200692E09093270682
:105A100084E0809328069093290610922A068CE24F
:105A200090E0909359058093580580E6B7C2D093D3
:105A30006405C09363051092600580912006482F8D
:105A400050E082FF03C0198E80E251C280911F0690
:105A500082958F70880F880F8093F40420915805E9
:105A60003091590524513040281B31093093590594
:105A700020935805898D8F70823029F44F735070B0
:105A80004231510509F1232B39F48091200690E031
:105A900083709070892BC1F09091170688859817B4
:105AA00009F072C2909118068985981709F06CC2A6
:105AB000909119068A85981709F066C290911A0686
:105AC0008B85981709F060C28091200684FF51C031
:105AD000688979896115710509F44BC0CE010C966E
