:100000000C9461000C947E000C947E000C947E0095
:100010000C947E000C947E000C947E000C947E0068
:100020000C947E000C947E000C947E000C94E102F3
:100030000C947E000C947E000C947E000C947E0048
:100040000C94B6080C947E000C947E000C947E00F8
:100050000C947E000C947E000C947E000C947E0028
:100060000C947E000C947E00000000002400270009
:100070002A0000000000250028002B0000000000DE
:1000800023002600290004040404040404040202DA
:100090000202020203030303030301020408102007
:1000A0004080010204081020010204081020000012
:1000B0000007000201000003040600000000000029
:1000C000000011241FBECFEFD8E0DEBFCDBF12E08D
:1000D000A0E0B1E0E0EBF4E102C005900D92AE3695
:1000E000B107D9F712E0AEE6B2E001C01D92AB3A1B
:1000F000B107E1F70E94C8000C94560A0C94000066
:10010000FFCFDF93CF93CDB7DEB76F970FB6F894DD
:10011000DEBF0FBECDBF8EE18983CE010296BE0148
:100120006F5F7F4F0E9417048823A1F08A8181337B
:1001300039F48DE061E00E94B3098BE060E008C013
:10014000803341F48DE060E00E94B3098BE061E010
:100150000E94B3096F960FB6F894DEBF0FBECDBFF5
:10016000CF91DF9108958DE061E00E9447098BE017
:1001700061E00E94470981E00E945F018CE00E94DB
:10018000590180E094E00E9469040E94B60208953B
:10019000CF93DF930E940C090E94B300C0E0D0E02F
:1001A0000E9481002097E1F30E940000F9CF70E0E7
:1001B0006827792720E030E041E050EACB019695AE
:1001C000879560FF04C0BC016427752701C0BC018E
:1001D0002F5F3F4F2830310589F7CB010895362F27
:1001E00020E02827392780E090E061E270E1A90152
:1001F000440F551F37FF04C09A012627372701C037
:100200009A0101968830910591F7C90108956827F0
:10021000462F4295407F462750E0742F6627292FAE
:1002200030E0622B732BCA01A3E0880F991FAA95B7
:10023000E1F768277927F4E056954795FA95E1F7B5
:1002400064277527CB010895682720E03CE8862FB6
:1002500090E0BC017595679580FD63272F5F28307E
:10026000B1F7862F08951F93CF93DF93EC01162FDC
:100270002FEF3FEF06C06991C9010E9407019C0161
:1002800011501123C1F7C901DF91CF911F9108953A
:10029000282FE6E4F1E090E08081281729F09F5FA5
:1002A00031969031C9F790E0892F0895809301012C
:1002B00008958093000108958093560108958093D6
:1002C0009802089520917002222329F080919902CA
:1002D0008F5F8093990280919A0290919B022817D8
:1002E00059F0903510F08DE101C08BE0890F8093BB
:1002F0009B0220939A0203C09C5E90939B02909174
:100300009B02903A08F488C020919C0230919D0293
:100310003695279530939D0220939C0280919902F7
:10032000853028F0386030939D0220939C02905ACB
:1003300090939B021092990280919702882309F46E
:100340005BC080919E028F5F80939E028C3008F488
:1003500063C020919C0230919D02922F9F73A6E46E
:10036000B1E0FD0140E08081981729F04F5F3196A0
:100370004031C9F740E056E0369527955A95E1F7A8
:1003800090E08C91281729F09F5F11969031C9F762
:1003900090E0242F2295207F292B809178028823BA
:1003A00071F420939F02822F84508B3140F0109281
:1003B00097028091A0028F5F8093A00208958091A0
:1003C0007802E82FF0E0E758FD4F20838F5F80939D
:1003D00078029091780280919F02981750F01092C5
:1003E00097028091A1028F5F8093A10281E08093A8
:1003F000770210929E02089580919C0290919D0236
:1004000088539B4049F481E08093970210929E02AA
:10041000109278021092770208952F923F924F9295
:100420005F926F927F928F929F92AF92BF92CF9284
:10043000DF92EF92FF921F93DF93CF93CDB7DEB79A
:100440002E970FB6F894DEBF0FBECDBF1B012A0159
:10045000DE011196E7E5F1E02EE001900D922150CA
:10046000E1F7009709F461C0BC0180E090E00E94D0
:10047000A1069B01AC0160E070E080E89FE30E9470
:10048000A10520E030E040E05EE30E94A7043B01CC
:100490004C0173E0E72EF12CEC0EFD1E11E0510132
:1004A000CC24DD24F7016081718180E090E00E941E
:1004B000A1069B01AC0160E074E284E79BE40E942A
:1004C000A1059B01AC0160E070E080E89FE30E9421
:1004D000A1059B01AC01C401B3010E94A1050E94CA
:1004E0004D069B01AC01623071058105910528F034
:1004F0006A157B058C059D0540F01F5F82E090E04A
:10050000E80EF91E173071F603C0163071F005C001
:10051000223031054105510540F0C101A0E0B0E0B5
:1005200082179307A407B50728F4F20111821082FD
:1005300010E003C0F20131832083812F2E960FB685
:10054000F894DEBF0FBECDBFCF91DF911F91FF901A
:10055000EF90DF90CF90BF90AF909F908F907F9063
:100560006F905F904F903F902F90089580916E0212
:10057000882329F481E080936E02109297020895F7
:1005800010926E02089580916F02089580916F021B
:100590008823E1F70895809177028823E1F3089595
:1005A00080917702089580915601609198020E948F
:1005B000B3098091010160E00E94B30910926F02BB
:1005C00008951F920F920FB60F9211242F933F930D
:1005D0004F935F936F937F938F939F93AF93BF934B
:1005E000EF93FF9380916E02882351F080916F0208
:1005F000882331F4809100010E94E6098093700203
:1006000080916F028823D1F1809171028F5F809376
:100610007102815099F5E091720280917302E8179E
:1006200060F00E94D302809174029091750201964D
:10063000909375028093740221C080910101909182
:10064000760221E030E0092E02C0220F331F0A9407
:10065000E2F7F0E0EE5FFE4F608162239F5F9093D0
:1006600076020E94B30980917602863038F01092AB
:100670007602809172028F5F809372028091710284
:10068000883010F01092710280916E02882331F050
:1006900080916F02882311F40E946201FF91EF9113
:1006A000BF91AF919F918F917F916F915F914F918A
:1006B0003F912F910F900FBE0F901F9018951F9391
:1006C000109272021092760210927102609198025A
:1006D00011E06127809156010E94B30910936F02C7
:1006E0001F910895DF92EF92FF920F931F93CF9384
:1006F000DF93D82EF92EE62E2BE1261710F480E09A
:100700008EC080916F028823E1F70E2D0D5F8FEF71
:100710009FEF602F0E940701BC0110E0F80194E0F8
:10072000F595E7959A95E1F7EA5BFE4F8081809316
:100730000A010F7010700A5B1E4FF80180818093D0
:100740000B010CE011E02D2D3F2DC901EC011DC066
:10075000F880CB016F2D0E940701BC01EF2DF0E066
:1007600084E0F595E7958A95E1F7EA5BFE4F808195
:10077000F8018083E991F0E0EF70F070EA5BFE4FE2
:100780008081F80181830E5F1F4F9E012D192E1568
:10079000F8F25E2D5F5F550F9B0120953095A52FD8
:1007A000B0E0A65FBE4FF90114E0F695E7951A9503
:1007B000E1F7EF70F070EA5BFE4F80818C93A52F1C
:1007C000AF5F8A2F90E0865F9E4FF901EF70F07067
:1007D000EA5BFE4F4081FC014083AF5F8A2F90E0CF
:1007E000865F9E4FF901EF2FFF27E295EF70EA5BDE
:1007F000FE4F4081FC014083AF5FB0E0A65FBE4F7B
:10080000232F33272F7030702A5B3E4FF9018081F0
:100810008C93545F509373020E945F0381E0DF91D9
:10082000CF911F910F91FF90EF90DF9008950F935C
:100830001F93382FFB0180917702882311F420E069
:100840001CC02091780223508081281708F420834F
:1008500040810AE712E0832FB80150E00E944D0A60
:100860001092770260917802C80101970E943301CB
:1008700020E0885B904F09F421E0822F1F910F91B7
:100880000895AF92BF92CF92DF92EF92FF920F93B3
:100890001F935B016C010E94FE087B018C0180911B
:1008A0007702882359F40E94FE086E197F09800B95
:1008B000910B6A157B058C059D0588F38091770265
:1008C0001F910F91FF90EF90DF90CF90BF90AF906E
:1008D0000895DF93CF9300D0CDB7DEB76FEF7FEFF2
:1008E000AE014F5F5F4F0E940D02982F882351F198
:1008F0001092800088E08093810080918100892B94
:100900008093810089819A819093890080938800E7
:1009100080916F00826080936F008091010161E09F
:100920000E9447098091000160E00E944709809180
:10093000560161E00E94470980915601609198023A
:100940000E94B3090F900F90CF91DF910895A0E21C
:10095000B0E0EDEAF4E00C94160A69837A838B83A5
:100960009C832D833E834F835887CE010196BE0121
:10097000675F7F4F0E943E08CE010596BE016F5E05
:100980007F4F0E943E089985923088F08989823095
:10099000C8F0943019F4823051F404C0843029F442
:1009A000923081F485E691E0C6C0923049F420E0AF
:1009B0009A858A89981321E02A87CE010996BBC0BF
:1009C000823049F420E09A858A89981321E02A8BA5
:1009D000CE014196B0C02D843E844F8458886D88E6
:1009E0007E888F88988CEE24FF248701AA24BB245C
:1009F000650140E050E060E070E0E0E0F0E0C1015F
:100A000081709070892BE9F0E60CF71C081D191D08
:100A10009A01AB012A0D3B1D4C1D5D1D80E090E04D
:100A2000A0E0B0E0E614F7040805190520F481E021
:100A300090E0A0E0B0E0BA01A901480F591F6A1F79
:100A40007B1FAA0CBB1CCC1CDD1C97FE08C081E0E0
:100A500090E0A0E0B0E0A82AB92ACA2ADB2A3196A1
:100A6000E032F10549F0660C771C881C991C5694FD
:100A7000479437942794C3CFFA85EA892B893C8918
:100A80008B859C85280F391F2E5F3F4F17C0CA01E9
:100A900081709070892B61F016950795F794E79413
:100AA00080E090E0A0E0B0E8E82AF92A0A2B1B2BAE
:100AB00076956795579547952F5F3F4F77FDE7CF21
:100AC0000CC0440F551F661F771F17FD4160EE0CC9
:100AD000FF1C001F111F21503040403090E059078B
:100AE00090E0690790E4790760F32B8F3C8FDB017E
:100AF000CA018F779070A070B07080349105A10505
:100B0000B10561F447FD0AC0E114F10401051105C6
:100B100029F0405C5F4F6F4F7F4F40781A8EFE1771
:100B200011F081E08A8F4D8F5E8F6F8F78A383E005
:100B3000898FCE0149960E946907A096E2E10C9444
:100B4000320AA8E1B0E0E7EAF5E00C941E0A6983F6
:100B50007A838B839C832D833E834F835887B9E0B0
:100B6000EB2EF12CEC0EFD1ECE010196B7010E947A
:100B70003E088E010F5E1F4FCE010596B8010E9400
:100B80003E082985223008F47EC03989323010F4BD
:100B9000B8017CC08A859A8989278A87243011F018
:100BA000223031F4231709F06EC065E671E06EC0A3
:100BB000343039F41D861E861F86188A1C861B86D3
:100BC00004C0323021F484E08987B7015FC02B85EF
:100BD0003C858B899C89281B390B3C872B87ED84AE
:100BE000FE840F851889AD88BE88CF88D88CEA141A
:100BF000FB040C051D0540F4EE0CFF1C001F111F2B
:100C0000215030403C872B8720E030E040E050E02E
:100C100080E090E0A0E0B0E460E070E0EA14FB0463
:100C20000C051D0540F0282B392B4A2B5B2BEA18AD
:100C3000FB080C091D09B695A79597958795EE0CAD
:100C4000FF1C001F111F6F5F7F4F6F31710531F760
:100C5000DA01C9018F779070A070B070803491056F
:100C6000A105B10561F427FD0AC0E114F1040105F5
:100C7000110529F0205C3F4F4F4F5F4F20782D87A3
:100C80003E874F87588BBE01675F7F4FCB010E9425
:100C900069076896EAE00C943A0AACE0B0E0E3E554
:100CA000F6E00C94260A69837A838B839C83CE01B9
:100CB0000196BE016B5F7F4F0E943E088D8182309E
:100CC00061F1823050F1843021F48E81882351F11A
:100CD0002EC02F81388537FD20C06E812F31310520
:100CE0001CF06623F9F023C08EE190E0821B930B89
:100CF00029853A854B855C8504C05695479537957F
:100D000027958A95D2F76623B1F050954095309596
:100D100021953F4F4F4F5F4F0EC020E030E040E045
:100D200050E009C02FEF3FEF4FEF5FE704C020E036
:100D300030E040E050E8B901CA012C96E2E00C94A2
:100D4000420AA8E0B0E0E7EAF6E00C941E0A7B0154
:100D50008C01611571058105910519F482E0898383
:100D600060C083E089838EE1C82ED12CDC82CB82E7
:100D7000ED82FE820F831887C801B7010E941A070F
:100D8000FC013197F7FF3BC0222733272E1B3F0B77
:100D900057016801022E04C0D694C794B794A79453
:100DA0000A94D2F740E050E060E070E081E090E02B
:100DB000A0E0B0E004C0880F991FAA1FBB1F2A95AE
:100DC000D2F70197A109B1098E219F21A023B12358
:100DD0000097A105B10521F041E050E060E070E02E
:100DE0004A295B296C297D294D835E836F8378872F
:100DF0008EE190E08E1B9F0B9C838B8312C03097FB
:100E000081F00E2E04C0EE0CFF1C001F111F0A946F
:100E1000D2F7ED82FE820F831887CE1ADF0ADC82BA
:100E2000CB821A82CE0101960E9469072896EAE0D9
:100E30000C943A0AEF92FF920F931F937B018C015F
:100E400080E0E81680E0F80681E0080780E01807F7
:100E500088F48FEFE816F1040105110531F028F050
:100E600088E090E0A0E0B0E017C080E090E0A0E073
:100E7000B0E012C080E0E81680E0F80680E00807E5
:100E800081E0180728F088E190E0A0E0B0E004C01D
:100E900080E190E0A0E0B0E020E230E040E050E00F
:100EA000281B390B4A0B5B0B04C016950795F7946A
:100EB000E7948A95D2F7F701E359FE4F8081281B0A
:100EC000310941095109C9011F910F91FF90EF901C
:100ED0000895DF92EF92FF920F931F93FC01E4803D
:100EE000F58006811781D1808081823048F480E0CE
:100EF00090E0A0E1B0E0E82AF92A0A2B1B2BA5C05C
:100F0000843009F49FC0823021F4EE24FF2487014D
:100F100005C0E114F1040105110519F4E0E0F0E069
:100F200096C0628173819FEF623879070CF05BC0D5
:100F300022E83FEF261B370B2A3131052CF020E049
:100F400030E040E050E02AC0B801A701022E04C002
:100F500076956795579547950A94D2F781E090E08A
:100F6000A0E0B0E004C0880F991FAA1FBB1F2A95FC
:100F7000D2F70197A109B1098E219F21A023B123A6
:100F80000097A105B10521F081E090E0A0E0B0E07C
:100F90009A01AB01282B392B4A2B5B2BDA01C901B3
:100FA0008F779070A070B07080349105A105B10565
:100FB00039F427FF09C0205C3F4F4F4F5F4F04C0FB
:100FC000215C3F4F4F4F5F4FE0E0F0E02030A0E06A
:100FD0003A07A0E04A07A0E45A0710F0E1E0F0E089
:100FE00079018A0127C06038710564F5FB01E15879
:100FF000FF4FD801C7018F779070A070B070803418
:101000009105A105B10539F4E7FE0DC080E490E03B
:10101000A0E0B0E004C08FE390E0A0E0B0E0E80E14
:10102000F91E0A1F1B1F17FF05C016950795F79499
:10103000E794319687E016950795F794E7948A959B
:10104000D1F705C0EE24FF248701EFEFF0E06E2F0B
:10105000679566276795902F9F77D794DD24D7945F
:101060008E2F8695492F462B582F5D29B701CA012F
:101070001F910F91FF90EF90DF900895FC01DB012D
:10108000408151812281622F6F7770E0221F2227D9
:10109000221F9381892F880F822B282F30E0991FE0
:1010A0009927991F11969C93119721153105A9F540
:1010B000411551056105710511F482E037C082E8E0
:1010C0009FEF13969C938E9312979A01AB0167E062
:1010D000220F331F441F551F6A95D1F783E08C936D
:1010E0000DC0220F331F441F551F12968D919C91E6
:1010F0001397019713969C938E931297203080E05C
:10110000380780E0480780E4580758F314962D9379
:101110003D934D935C93179708952F3F310579F4D4
:10112000411551056105710519F484E08C9308950A
:1011300064FF03C081E08C9312C01C9210C02F5733
:10114000304013963C932E93129783E08C9387E064
:10115000440F551F661F771F8A95D1F77064149648
:101160004D935D936D937C93179708951F920F9203
:101170000FB60F9211242F933F938F939F93AF93AA
:10118000BF938091A6029091A702A091A802B0916E
:10119000A9023091AA020196A11DB11D232F2D5F36
:1011A0002D3720F02D570196A11DB11D2093AA02C5
:1011B0008093A6029093A702A093A802B093A902DD
:1011C0008091A2029091A302A091A402B091A502E5
:1011D0000196A11DB11D8093A2029093A302A0933A
:1011E000A402B093A502BF91AF919F918F913F91BF
:1011F0002F910F900FBE0F901F9018958FB7F894F6
:101200002091A6023091A7024091A8025091A90214
:101210008FBFB901CA010895789484B5826084BDF6
:1012200084B5816084BD85B5826085BD85B58160EA
:1012300085BDEEE6F0E0808181608083E1E8F0E04A
:101240001082808182608083808181608083E0E879
:10125000F0E0808181608083E1EBF0E08081846058
:101260008083E0EBF0E0808181608083EAE7F0E05A
:1012700080818460808380818260808380818160BE
:1012800080838081806880831092C1000895CF930D
:10129000DF93482F50E0CA0186569F4FFC013491DE
:1012A0004A575F4FFA018491882369F190E0880FD3
:1012B000991FFC01E859FF4FA591B491FC01EE582C
:1012C000FF4FC591D491662351F42FB7F8948C91B8
:1012D000932F909589238C93888189230BC062304A
:1012E00061F42FB7F8948C91932F909589238C9368
:1012F0008881832B88832FBF06C09FB7F8948C9179
:10130000832B8C939FBFDF91CF910895833071F031
:10131000843028F48130A1F0823021F514C0863069
:10132000B1F08730D1F08430E9F404C080918000BE
:101330008F7703C0809180008F7D80938000089517
:1013400084B58F7702C084B58F7D84BD0895809168
:10135000B0008F778093B00008958091B0008F7DAA
:101360008093B0000895FF920F931F93F62E482F9D
:1013700050E0CA0182559F4FFC012491CA01865654
:101380009F4FFC0114914A575F4FFA0104910023CB
:10139000C9F0222319F0822F0E948609E02FF0E085
:1013A000EE0FFF1FEE58FF4FA591B4919FB7F89431
:1013B000FF2021F48C911095812302C08C91812B08
:1013C0008C939FBF1F910F91FF9008950F931F93D0
:1013D000482F50E0CA0182559F4FFC012491CA0159
:1013E00086569F4FFC0104914A575F4FFA011491B2
:1013F000112319F420E030E015C0222319F0822FC8
:101400000E948609812F90E0880F991F84589F4F72
:10141000FC01A591B4918C9120E030E0802311F083
:1014200021E030E0C9011F910F9108952F923F9262
:101430004F925F926F927F928F929F92AF92BF92E4
:10144000CF92DF92EF92FF920F931F93CF93DF9390
:10145000CDB7DEB7CA1BDB0B0FB6F894DEBF0FBEED
:10146000CDBF09942A88398848885F846E847D843A
:101470008C849B84AA84B984C884DF80EE80FD803C
:101480000C811B81AA81B981CE0FD11D0FB6F894B2
:10149000DEBF0FBECDBFED010895FB01DC0102C030
:1014A00001900D9241505040D8F70895F894FFCF25
:1014B0000B0C2A2A2A2A2A2A382C000000000000B5
:1014C000000000000000000000000000000000001C
:1014D000000000000000000000000000000000000C
:1014E00000000000000000000000000000000000FC
:1014F0000000000000000D0E131516191A1C2325FC
:1015000026292A2C32340A0000010008004000007D
:10151000010004050D0000000000000000000102B1
:10152000020303030304040404040404040505057E
:101530000505050505050505050505050506060658
:10154000060606060606060606060606060606063B
:101550000606060606060606060606060607070728
:10156000070707070707070707070707070707070B
:1015700007070707070707070707070707070707FB
:1015800007070707070707070707070707070707EB
:1015900007070707070707070707070707080808D8
:1015A00008080808080808080808080808080808BB
:1015B00008080808080808080808080808080808AB
:1015C000080808080808080808080808080808089B
:1015D000080808080808080808080808080808088B
:1015E000080808080808080808080808080808087B
:1015F000080808080808080808080808080808086B
:10160000080808080808080808080808080808085A
:0E161000080808080808080808080808080064
:00000001FF
